{
	"contracts/scMarketplace.sol": {
		"ScotchMarketplace": {
			"abi": [
				{
					"inputs": [],
					"stateMutability": "nonpayable",
					"type": "constructor"
				},
				{
					"anonymous": false,
					"inputs": [
						{
							"indexed": true,
							"internalType": "uint256",
							"name": "marketItemId",
							"type": "uint256"
						},
						{
							"indexed": true,
							"internalType": "address",
							"name": "tokenContract",
							"type": "address"
						},
						{
							"indexed": false,
							"internalType": "uint256",
							"name": "tokenId",
							"type": "uint256"
						},
						{
							"indexed": true,
							"internalType": "address",
							"name": "seller",
							"type": "address"
						},
						{
							"indexed": false,
							"internalType": "address",
							"name": "priceContract",
							"type": "address"
						},
						{
							"indexed": false,
							"internalType": "uint256",
							"name": "price",
							"type": "uint256"
						}
					],
					"name": "MarketItemPlaced",
					"type": "event"
				},
				{
					"anonymous": false,
					"inputs": [
						{
							"indexed": true,
							"internalType": "uint256",
							"name": "marketItemId",
							"type": "uint256"
						},
						{
							"indexed": false,
							"internalType": "enum ScotchMarketplace.MarketItemStatus",
							"name": "status",
							"type": "uint8"
						}
					],
					"name": "MarketItemRemoved",
					"type": "event"
				},
				{
					"anonymous": false,
					"inputs": [
						{
							"indexed": true,
							"internalType": "uint256",
							"name": "marketItemId",
							"type": "uint256"
						},
						{
							"indexed": true,
							"internalType": "address",
							"name": "buyer",
							"type": "address"
						}
					],
					"name": "MarketItemSold",
					"type": "event"
				},
				{
					"anonymous": false,
					"inputs": [
						{
							"indexed": true,
							"internalType": "address",
							"name": "previousOwner",
							"type": "address"
						},
						{
							"indexed": true,
							"internalType": "address",
							"name": "newOwner",
							"type": "address"
						}
					],
					"name": "OwnershipTransferred",
					"type": "event"
				},
				{
					"inputs": [],
					"name": "_maxItemsForSale",
					"outputs": [
						{
							"internalType": "uint256",
							"name": "",
							"type": "uint256"
						}
					],
					"stateMutability": "view",
					"type": "function"
				},
				{
					"inputs": [
						{
							"internalType": "uint256",
							"name": "marketItemId",
							"type": "uint256"
						}
					],
					"name": "cancelMarketItem",
					"outputs": [],
					"stateMutability": "payable",
					"type": "function"
				},
				{
					"inputs": [
						{
							"internalType": "enum ScotchBeneficiary.BeneficiaryMode",
							"name": "mode",
							"type": "uint8"
						},
						{
							"internalType": "address payable",
							"name": "recipient",
							"type": "address"
						}
					],
					"name": "changeBeneficiary",
					"outputs": [],
					"stateMutability": "nonpayable",
					"type": "function"
				},
				{
					"inputs": [
						{
							"internalType": "uint256",
							"name": "marketItemId",
							"type": "uint256"
						}
					],
					"name": "deleteMarketItem",
					"outputs": [],
					"stateMutability": "nonpayable",
					"type": "function"
				},
				{
					"inputs": [
						{
							"internalType": "address",
							"name": "tokenContract",
							"type": "address"
						},
						{
							"internalType": "uint256",
							"name": "tokenId",
							"type": "uint256"
						}
					],
					"name": "findActiveMarketItem",
					"outputs": [
						{
							"internalType": "uint256",
							"name": "",
							"type": "uint256"
						}
					],
					"stateMutability": "view",
					"type": "function"
				},
				{
					"inputs": [
						{
							"internalType": "uint256",
							"name": "position",
							"type": "uint256"
						}
					],
					"name": "getActiveMarketItem",
					"outputs": [
						{
							"components": [
								{
									"internalType": "uint256",
									"name": "itemId",
									"type": "uint256"
								},
								{
									"internalType": "address",
									"name": "tokenContract",
									"type": "address"
								},
								{
									"internalType": "uint256",
									"name": "tokenId",
									"type": "uint256"
								},
								{
									"internalType": "address payable",
									"name": "seller",
									"type": "address"
								},
								{
									"internalType": "address payable",
									"name": "buyer",
									"type": "address"
								},
								{
									"internalType": "address",
									"name": "priceContract",
									"type": "address"
								},
								{
									"internalType": "uint256",
									"name": "price",
									"type": "uint256"
								},
								{
									"internalType": "enum ScotchMarketplace.MarketItemStatus",
									"name": "status",
									"type": "uint8"
								},
								{
									"internalType": "uint256",
									"name": "fee",
									"type": "uint256"
								},
								{
									"internalType": "uint256",
									"name": "position",
									"type": "uint256"
								},
								{
									"internalType": "uint256",
									"name": "partnerId",
									"type": "uint256"
								},
								{
									"internalType": "address[]",
									"name": "whiteList",
									"type": "address[]"
								}
							],
							"internalType": "struct ScotchMarketplace.MarketItem",
							"name": "",
							"type": "tuple"
						}
					],
					"stateMutability": "view",
					"type": "function"
				},
				{
					"inputs": [],
					"name": "getActiveMarketItemsCount",
					"outputs": [
						{
							"internalType": "uint256",
							"name": "",
							"type": "uint256"
						}
					],
					"stateMutability": "view",
					"type": "function"
				},
				{
					"inputs": [],
					"name": "getAllMarketItemsCount",
					"outputs": [
						{
							"internalType": "uint256",
							"name": "",
							"type": "uint256"
						}
					],
					"stateMutability": "view",
					"type": "function"
				},
				{
					"inputs": [],
					"name": "getBeneficiary",
					"outputs": [
						{
							"components": [
								{
									"internalType": "enum ScotchBeneficiary.BeneficiaryMode",
									"name": "mode",
									"type": "uint8"
								},
								{
									"internalType": "address payable",
									"name": "recipient",
									"type": "address"
								}
							],
							"internalType": "struct ScotchBeneficiary.Beneficiary",
							"name": "",
							"type": "tuple"
						}
					],
					"stateMutability": "view",
					"type": "function"
				},
				{
					"inputs": [
						{
							"internalType": "address",
							"name": "adr",
							"type": "address"
						}
					],
					"name": "getCustomRate",
					"outputs": [
						{
							"components": [
								{
									"internalType": "bool",
									"name": "isActive",
									"type": "bool"
								},
								{
									"internalType": "uint256",
									"name": "listingPrice",
									"type": "uint256"
								},
								{
									"internalType": "uint256",
									"name": "cancelPrice",
									"type": "uint256"
								},
								{
									"internalType": "uint256",
									"name": "feePercent",
									"type": "uint256"
								}
							],
							"internalType": "struct ScotchMarketplace.MarketRate",
							"name": "",
							"type": "tuple"
						}
					],
					"stateMutability": "view",
					"type": "function"
				},
				{
					"inputs": [
						{
							"internalType": "uint256",
							"name": "marketItemId",
							"type": "uint256"
						}
					],
					"name": "getMarketItem",
					"outputs": [
						{
							"components": [
								{
									"internalType": "uint256",
									"name": "itemId",
									"type": "uint256"
								},
								{
									"internalType": "address",
									"name": "tokenContract",
									"type": "address"
								},
								{
									"internalType": "uint256",
									"name": "tokenId",
									"type": "uint256"
								},
								{
									"internalType": "address payable",
									"name": "seller",
									"type": "address"
								},
								{
									"internalType": "address payable",
									"name": "buyer",
									"type": "address"
								},
								{
									"internalType": "address",
									"name": "priceContract",
									"type": "address"
								},
								{
									"internalType": "uint256",
									"name": "price",
									"type": "uint256"
								},
								{
									"internalType": "enum ScotchMarketplace.MarketItemStatus",
									"name": "status",
									"type": "uint8"
								},
								{
									"internalType": "uint256",
									"name": "fee",
									"type": "uint256"
								},
								{
									"internalType": "uint256",
									"name": "position",
									"type": "uint256"
								},
								{
									"internalType": "uint256",
									"name": "partnerId",
									"type": "uint256"
								},
								{
									"internalType": "address[]",
									"name": "whiteList",
									"type": "address[]"
								}
							],
							"internalType": "struct ScotchMarketplace.MarketItem",
							"name": "",
							"type": "tuple"
						}
					],
					"stateMutability": "view",
					"type": "function"
				},
				{
					"inputs": [],
					"name": "getRate",
					"outputs": [
						{
							"components": [
								{
									"internalType": "bool",
									"name": "isActive",
									"type": "bool"
								},
								{
									"internalType": "uint256",
									"name": "listingPrice",
									"type": "uint256"
								},
								{
									"internalType": "uint256",
									"name": "cancelPrice",
									"type": "uint256"
								},
								{
									"internalType": "uint256",
									"name": "feePercent",
									"type": "uint256"
								}
							],
							"internalType": "struct ScotchMarketplace.MarketRate",
							"name": "",
							"type": "tuple"
						}
					],
					"stateMutability": "view",
					"type": "function"
				},
				{
					"inputs": [
						{
							"internalType": "uint256",
							"name": "marketItemId",
							"type": "uint256"
						},
						{
							"internalType": "uint256",
							"name": "partnerId",
							"type": "uint256"
						}
					],
					"name": "makeMarketSale",
					"outputs": [],
					"stateMutability": "payable",
					"type": "function"
				},
				{
					"inputs": [],
					"name": "owner",
					"outputs": [
						{
							"internalType": "address",
							"name": "",
							"type": "address"
						}
					],
					"stateMutability": "view",
					"type": "function"
				},
				{
					"inputs": [
						{
							"internalType": "address",
							"name": "tokenContract",
							"type": "address"
						},
						{
							"internalType": "uint256",
							"name": "tokenId",
							"type": "uint256"
						},
						{
							"internalType": "address",
							"name": "priceContract",
							"type": "address"
						},
						{
							"internalType": "uint256",
							"name": "price",
							"type": "uint256"
						},
						{
							"internalType": "address[]",
							"name": "whiteList",
							"type": "address[]"
						}
					],
					"name": "placeMarketItem",
					"outputs": [],
					"stateMutability": "payable",
					"type": "function"
				},
				{
					"inputs": [
						{
							"components": [
								{
									"internalType": "address",
									"name": "tokenContract",
									"type": "address"
								},
								{
									"internalType": "uint256",
									"name": "tokenId",
									"type": "uint256"
								},
								{
									"internalType": "address",
									"name": "priceContract",
									"type": "address"
								},
								{
									"internalType": "uint256",
									"name": "priceAmount",
									"type": "uint256"
								},
								{
									"internalType": "address[]",
									"name": "whiteList",
									"type": "address[]"
								}
							],
							"internalType": "struct ScotchMarketplace.MarketItemInput[]",
							"name": "input",
							"type": "tuple[]"
						}
					],
					"name": "placeMarketItems",
					"outputs": [],
					"stateMutability": "payable",
					"type": "function"
				},
				{
					"inputs": [
						{
							"internalType": "address",
							"name": "adr",
							"type": "address"
						}
					],
					"name": "removeCustomRate",
					"outputs": [],
					"stateMutability": "nonpayable",
					"type": "function"
				},
				{
					"inputs": [],
					"name": "renounceOwnership",
					"outputs": [],
					"stateMutability": "nonpayable",
					"type": "function"
				},
				{
					"inputs": [
						{
							"internalType": "address",
							"name": "tokenContract",
							"type": "address"
						},
						{
							"internalType": "address",
							"name": "spender",
							"type": "address"
						},
						{
							"internalType": "uint256",
							"name": "amount",
							"type": "uint256"
						}
					],
					"name": "safeApproveERC20",
					"outputs": [],
					"stateMutability": "nonpayable",
					"type": "function"
				},
				{
					"inputs": [
						{
							"internalType": "uint256",
							"name": "amount",
							"type": "uint256"
						},
						{
							"internalType": "address",
							"name": "tokenContract",
							"type": "address"
						}
					],
					"name": "sendFunds",
					"outputs": [],
					"stateMutability": "nonpayable",
					"type": "function"
				},
				{
					"inputs": [
						{
							"internalType": "address",
							"name": "adr",
							"type": "address"
						},
						{
							"internalType": "uint256",
							"name": "newListingPrice",
							"type": "uint256"
						},
						{
							"internalType": "uint256",
							"name": "newCancelPrice",
							"type": "uint256"
						},
						{
							"internalType": "uint256",
							"name": "newFeePercent",
							"type": "uint256"
						}
					],
					"name": "setCustomRate",
					"outputs": [],
					"stateMutability": "nonpayable",
					"type": "function"
				},
				{
					"inputs": [
						{
							"internalType": "uint256",
							"name": "maxItemsForSale",
							"type": "uint256"
						}
					],
					"name": "setMaxItemsForSale",
					"outputs": [],
					"stateMutability": "nonpayable",
					"type": "function"
				},
				{
					"inputs": [
						{
							"internalType": "address",
							"name": "newOwner",
							"type": "address"
						}
					],
					"name": "transferOwnership",
					"outputs": [],
					"stateMutability": "nonpayable",
					"type": "function"
				}
			],
			"devdoc": {
				"kind": "dev",
				"methods": {
					"owner()": {
						"details": "Returns the address of the current owner."
					},
					"renounceOwnership()": {
						"details": "Leaves the contract without owner. It will not be possible to call `onlyOwner` functions anymore. Can only be called by the current owner. NOTE: Renouncing ownership will leave the contract without an owner, thereby removing any functionality that is only available to the owner."
					},
					"transferOwnership(address)": {
						"details": "Transfers ownership of the contract to a new account (`newOwner`). Can only be called by the current owner."
					}
				},
				"version": 1
			},
			"evm": {
				"assembly": "    /* \"contracts/scMarketplace.sol\":345:19511  contract ScotchMarketplace is ScotchBeneficiary, ReentrancyGuard {... */\n  mstore(0x40, 0x80)\n    /* \"contracts/scMarketplace.sol\":3601:3817  constructor() {... */\n  callvalue\n  dup1\n  iszero\n  tag_1\n  jumpi\n  0x00\n  dup1\n  revert\ntag_1:\n  pop\n    /* \"@openzeppelin/contracts/access/Ownable.sol\":936:968  _transferOwnership(_msgSender()) */\n  tag_6\n    /* \"@openzeppelin/contracts/utils/Context.sol\":719:729  msg.sender */\n  caller\n    /* \"@openzeppelin/contracts/access/Ownable.sol\":936:954  _transferOwnership */\n  tag_9\n    /* \"@openzeppelin/contracts/access/Ownable.sol\":936:968  _transferOwnership(_msgSender()) */\n  jump\t// in\ntag_6:\n    /* \"@openzeppelin/contracts/security/ReentrancyGuard.sol\":1701:1702  1 */\n  0x01\n    /* \"@openzeppelin/contracts/security/ReentrancyGuard.sol\":1806:1813  _status */\n  0x02\n    /* \"@openzeppelin/contracts/security/ReentrancyGuard.sol\":1806:1828  _status = _NOT_ENTERED */\n  dup2\n  swap1\n  sstore\n    /* \"contracts/scMarketplace.sol\":3637:3691  Beneficiary(BeneficiaryMode.None, payable(address(0))) */\n  0x40\n  dup1\n  mload\n  dup1\n  dup3\n  add\n  dup3\n  mstore\n  0x00\n  dup1\n  dup3\n  mstore\n  0x20\n  swap2\n  dup3\n  add\n  dup2\n  swap1\n  mstore\n    /* \"contracts/scMarketplace.sol\":3622:3691  _beneficiary = Beneficiary(BeneficiaryMode.None, payable(address(0))) */\n  dup4\n  sload\n  not(sub(shl(0xa8, 0x01), 0x01))\n  and\n  swap1\n  swap4\n  sstore\n    /* \"contracts/scMarketplace.sol\":3713:3729  new uint256[](0) */\n  dup2\n  mload\n  swap3\n  dup4\n  mstore\n  dup3\n  add\n  swap1\n  dup2\n  swap1\n  mstore\n    /* \"contracts/scMarketplace.sol\":3698:3729  _activeItems = new uint256[](0) */\n  swap1\n  mload\n  tag_21\n  swap2\n    /* \"contracts/scMarketplace.sol\":3698:3710  _activeItems */\n  0x05\n  swap2\n    /* \"contracts/scMarketplace.sol\":3698:3729  _activeItems = new uint256[](0) */\n  tag_22\n  jump\t// in\ntag_21:\n  pop\n    /* \"contracts/scMarketplace.sol\":3757:3782  MarketRate(true, 0, 0, 3) */\n  0x40\n  dup1\n  mload\n  0x80\n  dup2\n  add\n  dup3\n  mstore\n    /* \"contracts/scMarketplace.sol\":3768:3772  true */\n  0x01\n    /* \"contracts/scMarketplace.sol\":3757:3782  MarketRate(true, 0, 0, 3) */\n  dup2\n  mstore\n  0x00\n  0x20\n  dup1\n  dup4\n  add\n  dup3\n  dup2\n  mstore\n  swap4\n  dup4\n  add\n  dup3\n  dup2\n  mstore\n    /* \"contracts/scMarketplace.sol\":3780:3781  3 */\n  0x03\n    /* \"contracts/scMarketplace.sol\":3757:3782  MarketRate(true, 0, 0, 3) */\n  0x60\n  dup6\n  add\n  swap1\n  dup2\n  mstore\n    /* \"contracts/scMarketplace.sol\":3736:3754  _rates[address(0)] */\n  swap3\n  dup1\n  mstore\n    /* \"contracts/scMarketplace.sol\":3736:3742  _rates */\n  0x07\n    /* \"contracts/scMarketplace.sol\":3736:3754  _rates[address(0)] */\n  swap1\n  swap2\n  mstore\n    /* \"contracts/scMarketplace.sol\":3736:3782  _rates[address(0)] = MarketRate(true, 0, 0, 3) */\n  swap2\n  mload\n    /* \"contracts/scMarketplace.sol\":3736:3754  _rates[address(0)] */\n  0x6d5257204ebe7d88fd91ae87941cb2dd9d8062b64ae5a2bd2d28ec40b9fbf6df\n    /* \"contracts/scMarketplace.sol\":3736:3782  _rates[address(0)] = MarketRate(true, 0, 0, 3) */\n  dup1\n  sload\n  not(0xff)\n  and\n  swap2\n  iszero\n  iszero\n  swap2\n  swap1\n  swap2\n  or\n  swap1\n  sstore\n  swap2\n  mload\n  0x6d5257204ebe7d88fd91ae87941cb2dd9d8062b64ae5a2bd2d28ec40b9fbf6e0\n  sstore\n  mload\n  0x6d5257204ebe7d88fd91ae87941cb2dd9d8062b64ae5a2bd2d28ec40b9fbf6e1\n  sstore\n  mload\n  0x6d5257204ebe7d88fd91ae87941cb2dd9d8062b64ae5a2bd2d28ec40b9fbf6e2\n  sstore\n    /* \"contracts/scMarketplace.sol\":3808:3811  100 */\n  0x64\n    /* \"contracts/scMarketplace.sol\":3789:3805  _maxItemsForSale */\n  0x09\n    /* \"contracts/scMarketplace.sol\":3789:3811  _maxItemsForSale = 100 */\n  sstore\n    /* \"contracts/scMarketplace.sol\":345:19511  contract ScotchMarketplace is ScotchBeneficiary, ReentrancyGuard {... */\n  jump(tag_33)\n    /* \"@openzeppelin/contracts/access/Ownable.sol\":2433:2620  function _transferOwnership(address newOwner) internal virtual {... */\ntag_9:\n    /* \"@openzeppelin/contracts/access/Ownable.sol\":2506:2522  address oldOwner */\n  0x00\n    /* \"@openzeppelin/contracts/access/Ownable.sol\":2525:2531  _owner */\n  dup1\n  sload\n  sub(shl(0xa0, 0x01), 0x01)\n    /* \"@openzeppelin/contracts/access/Ownable.sol\":2541:2558  _owner = newOwner */\n  dup4\n  dup2\n  and\n  not(sub(shl(0xa0, 0x01), 0x01))\n  dup4\n  and\n  dup2\n  or\n  dup5\n  sstore\n    /* \"@openzeppelin/contracts/access/Ownable.sol\":2573:2613  OwnershipTransferred(oldOwner, newOwner) */\n  mload(0x40)\n    /* \"@openzeppelin/contracts/access/Ownable.sol\":2525:2531  _owner */\n  swap2\n  swap1\n  swap3\n  and\n  swap3\n  dup4\n  swap2\n    /* \"@openzeppelin/contracts/access/Ownable.sol\":2573:2613  OwnershipTransferred(oldOwner, newOwner) */\n  0x8be0079c531659141344cd1fd0a4f28419497f9722a3daafe3b4186f6b6457e0\n  swap2\n    /* \"@openzeppelin/contracts/access/Ownable.sol\":2506:2522  address oldOwner */\n  swap1\n    /* \"@openzeppelin/contracts/access/Ownable.sol\":2573:2613  OwnershipTransferred(oldOwner, newOwner) */\n  log3\n    /* \"@openzeppelin/contracts/access/Ownable.sol\":2496:2620  {... */\n  pop\n    /* \"@openzeppelin/contracts/access/Ownable.sol\":2433:2620  function _transferOwnership(address newOwner) internal virtual {... */\n  pop\n  jump\t// out\n    /* \"contracts/scMarketplace.sol\":345:19511  contract ScotchMarketplace is ScotchBeneficiary, ReentrancyGuard {... */\ntag_22:\n  dup3\n  dup1\n  sload\n  dup3\n  dup3\n  sstore\n  swap1\n  0x00\n  mstore\n  keccak256(0x00, 0x20)\n  swap1\n  dup2\n  add\n  swap3\n  dup3\n  iszero\n  tag_28\n  jumpi\n  swap2\n  0x20\n  mul\n  dup3\n  add\ntag_27:\n  dup3\n  dup2\n  gt\n  iszero\n  tag_28\n  jumpi\n  dup3\n  mload\n  dup3\n  sstore\n  swap2\n  0x20\n  add\n  swap2\n  swap1\n  0x01\n  add\n  swap1\n  jump(tag_27)\ntag_28:\n  pop\n  tag_29\n  swap3\n  swap2\n  pop\n  tag_30\n  jump\t// in\ntag_29:\n  pop\n  swap1\n  jump\t// out\ntag_30:\ntag_31:\n  dup1\n  dup3\n  gt\n  iszero\n  tag_29\n  jumpi\n  0x00\n  dup2\n  sstore\n  0x01\n  add\n  jump(tag_31)\n    /* \"#utility.yul\":146:273   */\ntag_33:\n    /* \"contracts/scMarketplace.sol\":345:19511  contract ScotchMarketplace is ScotchBeneficiary, ReentrancyGuard {... */\n  dataSize(sub_0)\n  dup1\n  dataOffset(sub_0)\n  0x00\n  codecopy\n  0x00\n  return\nstop\n\nsub_0: assembly {\n        /* \"contracts/scMarketplace.sol\":345:19511  contract ScotchMarketplace is ScotchBeneficiary, ReentrancyGuard {... */\n      mstore(0x40, 0x80)\n      jumpi(tag_1, lt(calldatasize, 0x04))\n      shr(0xe0, calldataload(0x00))\n      dup1\n      0x6e2d5a13\n      gt\n      tag_25\n      jumpi\n      dup1\n      0xb2686774\n      gt\n      tag_26\n      jumpi\n      dup1\n      0xb2686774\n      eq\n      tag_19\n      jumpi\n      dup1\n      0xb2dcecbe\n      eq\n      tag_20\n      jumpi\n      dup1\n      0xc5e553eb\n      eq\n      tag_21\n      jumpi\n      dup1\n      0xc7be7a49\n      eq\n      tag_22\n      jumpi\n      dup1\n      0xf2fde38b\n      eq\n      tag_23\n      jumpi\n      dup1\n      0xf33c80ee\n      eq\n      tag_24\n      jumpi\n      0x00\n      dup1\n      revert\n    tag_26:\n      dup1\n      0x6e2d5a13\n      eq\n      tag_13\n      jumpi\n      dup1\n      0x715018a6\n      eq\n      tag_14\n      jumpi\n      dup1\n      0x8da5cb5b\n      eq\n      tag_15\n      jumpi\n      dup1\n      0xa6e22b02\n      eq\n      tag_16\n      jumpi\n      dup1\n      0xa9c07145\n      eq\n      tag_17\n      jumpi\n      dup1\n      0xabb8334b\n      eq\n      tag_18\n      jumpi\n      0x00\n      dup1\n      revert\n    tag_25:\n      dup1\n      0x4229eef2\n      gt\n      tag_27\n      jumpi\n      dup1\n      0x4229eef2\n      eq\n      tag_7\n      jumpi\n      dup1\n      0x43c06213\n      eq\n      tag_8\n      jumpi\n      dup1\n      0x565a2e2c\n      eq\n      tag_9\n      jumpi\n      dup1\n      0x5d3e8b08\n      eq\n      tag_10\n      jumpi\n      dup1\n      0x679aefce\n      eq\n      tag_11\n      jumpi\n      dup1\n      0x68220e87\n      eq\n      tag_12\n      jumpi\n      0x00\n      dup1\n      revert\n    tag_27:\n      dup1\n      0x17de0135\n      eq\n      tag_2\n      jumpi\n      dup1\n      0x18d3a1be\n      eq\n      tag_3\n      jumpi\n      dup1\n      0x18eb81ed\n      eq\n      tag_4\n      jumpi\n      dup1\n      0x27cdb4b3\n      eq\n      tag_5\n      jumpi\n      dup1\n      0x347149fc\n      eq\n      tag_6\n      jumpi\n    tag_1:\n      0x00\n      dup1\n      revert\n        /* \"contracts/scMarketplace.sol\":4513:5825  function placeMarketItem(address tokenContract, uint256 tokenId, address priceContract, uint256 price, address[] memory whiteList) public payable {... */\n    tag_2:\n      tag_28\n      tag_29\n      calldatasize\n      0x04\n      tag_30\n      jump\t// in\n    tag_29:\n      tag_31\n      jump\t// in\n    tag_28:\n      stop\n        /* \"contracts/scMarketplace.sol\":5831:7265  function placeMarketItems(MarketItemInput[] memory input) public payable {... */\n    tag_3:\n      tag_28\n      tag_33\n      calldatasize\n      0x04\n      tag_34\n      jump\t// in\n    tag_33:\n      tag_35\n      jump\t// in\n        /* \"contracts/scMarketplace.sol\":12155:12368  function setCustomRate(address adr, uint256 newListingPrice, uint256 newCancelPrice, uint newFeePercent) public onlyOwner {... */\n    tag_4:\n      callvalue\n      dup1\n      iszero\n      tag_36\n      jumpi\n      0x00\n      dup1\n      revert\n    tag_36:\n      pop\n      tag_28\n      tag_38\n      calldatasize\n      0x04\n      tag_39\n      jump\t// in\n    tag_38:\n      tag_40\n      jump\t// in\n        /* \"contracts/scMarketplace.sol\":12420:12552  function removeCustomRate(address adr) public onlyOwner {... */\n    tag_5:\n      callvalue\n      dup1\n      iszero\n      tag_41\n      jumpi\n      0x00\n      dup1\n      revert\n    tag_41:\n      pop\n      tag_28\n      tag_43\n      calldatasize\n      0x04\n      tag_44\n      jump\t// in\n    tag_43:\n      tag_45\n      jump\t// in\n        /* \"contracts/scMarketplace.sol\":11458:11615  function findActiveMarketItem(address tokenContract, uint256 tokenId) public view returns (uint256) {... */\n    tag_6:\n      callvalue\n      dup1\n      iszero\n      tag_46\n      jumpi\n      0x00\n      dup1\n      revert\n    tag_46:\n      pop\n      tag_47\n      tag_48\n      calldatasize\n      0x04\n      tag_49\n      jump\t// in\n    tag_48:\n      tag_50\n      jump\t// in\n    tag_47:\n      mload(0x40)\n        /* \"#utility.yul\":5822:5847   */\n      swap1\n      dup2\n      mstore\n        /* \"#utility.yul\":5810:5812   */\n      0x20\n        /* \"#utility.yul\":5795:5813   */\n      add\n        /* \"contracts/scMarketplace.sol\":11458:11615  function findActiveMarketItem(address tokenContract, uint256 tokenId) public view returns (uint256) {... */\n    tag_51:\n      mload(0x40)\n      dup1\n      swap2\n      sub\n      swap1\n      return\n        /* \"contracts/scMarketplace.sol\":10676:10778  function getAllMarketItemsCount() public view returns (uint256) {... */\n    tag_7:\n      callvalue\n      dup1\n      iszero\n      tag_53\n      jumpi\n      0x00\n      dup1\n      revert\n    tag_53:\n      pop\n      tag_47\n      tag_55\n      jump\t// in\n        /* \"contracts/scBeneficiary.sol\":1659:2086  function changeBeneficiary(BeneficiaryMode mode, address payable recipient) public virtual onlyOwner {... */\n    tag_8:\n      callvalue\n      dup1\n      iszero\n      tag_57\n      jumpi\n      0x00\n      dup1\n      revert\n    tag_57:\n      pop\n      tag_28\n      tag_59\n      calldatasize\n      0x04\n      tag_60\n      jump\t// in\n    tag_59:\n      tag_61\n      jump\t// in\n        /* \"contracts/scBeneficiary.sol\":1106:1205  function getBeneficiary() public view returns (Beneficiary memory) {... */\n    tag_9:\n      callvalue\n      dup1\n      iszero\n      tag_62\n      jumpi\n      0x00\n      dup1\n      revert\n    tag_62:\n      pop\n      tag_63\n      tag_64\n      jump\t// in\n    tag_63:\n      mload(0x40)\n      tag_51\n      swap2\n      swap1\n      tag_66\n      jump\t// in\n        /* \"contracts/scMarketplace.sol\":11017:11386  function getActiveMarketItem(uint256 position) public view returns (MarketItem memory) {... */\n    tag_10:\n      callvalue\n      dup1\n      iszero\n      tag_67\n      jumpi\n      0x00\n      dup1\n      revert\n    tag_67:\n      pop\n      tag_68\n      tag_69\n      calldatasize\n      0x04\n      tag_70\n      jump\t// in\n    tag_69:\n      tag_71\n      jump\t// in\n    tag_68:\n      mload(0x40)\n      tag_51\n      swap2\n      swap1\n      tag_73\n      jump\t// in\n        /* \"contracts/scMarketplace.sol\":10341:10447  function getRate() public view returns (MarketRate memory) {... */\n    tag_11:\n      callvalue\n      dup1\n      iszero\n      tag_74\n      jumpi\n      0x00\n      dup1\n      revert\n    tag_74:\n      pop\n      tag_75\n      tag_76\n      jump\t// in\n    tag_75:\n      mload(0x40)\n      tag_51\n      swap2\n      swap1\n        /* \"#utility.yul\":9508:9521   */\n      dup2\n      mload\n        /* \"#utility.yul\":9501:9522   */\n      iszero\n        /* \"#utility.yul\":9494:9523   */\n      iszero\n        /* \"#utility.yul\":9476:9524   */\n      dup2\n      mstore\n        /* \"#utility.yul\":9580:9584   */\n      0x20\n        /* \"#utility.yul\":9568:9585   */\n      dup1\n      dup4\n      add\n        /* \"#utility.yul\":9562:9586   */\n      mload\n        /* \"#utility.yul\":9540:9560   */\n      swap1\n      dup3\n      add\n        /* \"#utility.yul\":9533:9587   */\n      mstore\n        /* \"#utility.yul\":9643:9647   */\n      0x40\n        /* \"#utility.yul\":9631:9648   */\n      dup1\n      dup4\n      add\n        /* \"#utility.yul\":9625:9649   */\n      mload\n        /* \"#utility.yul\":9603:9623   */\n      swap1\n      dup3\n      add\n        /* \"#utility.yul\":9596:9650   */\n      mstore\n        /* \"#utility.yul\":9706:9710   */\n      0x60\n        /* \"#utility.yul\":9694:9711   */\n      swap2\n      dup3\n      add\n        /* \"#utility.yul\":9688:9712   */\n      mload\n        /* \"#utility.yul\":9666:9686   */\n      swap2\n      dup2\n      add\n        /* \"#utility.yul\":9659:9713   */\n      swap2\n      swap1\n      swap2\n      mstore\n        /* \"#utility.yul\":9463:9466   */\n      0x80\n        /* \"#utility.yul\":9448:9467   */\n      add\n      swap1\n        /* \"#utility.yul\":9273:9719   */\n      jump\n        /* \"contracts/scMarketplace.sol\":10850:10956  function getActiveMarketItemsCount() public view returns (uint256) {... */\n    tag_12:\n      callvalue\n      dup1\n      iszero\n      tag_79\n      jumpi\n      0x00\n      dup1\n      revert\n    tag_79:\n      pop\n        /* \"contracts/scMarketplace.sol\":10931:10943  _activeItems */\n      0x05\n        /* \"contracts/scMarketplace.sol\":10931:10950  _activeItems.length */\n      sload\n        /* \"contracts/scMarketplace.sol\":10850:10956  function getActiveMarketItemsCount() public view returns (uint256) {... */\n      jump(tag_47)\n        /* \"contracts/scMarketplace.sol\":11826:11940  function setMaxItemsForSale(uint maxItemsForSale) public onlyOwner {... */\n    tag_13:\n      callvalue\n      dup1\n      iszero\n      tag_83\n      jumpi\n      0x00\n      dup1\n      revert\n    tag_83:\n      pop\n      tag_28\n      tag_85\n      calldatasize\n      0x04\n      tag_70\n      jump\t// in\n    tag_85:\n      tag_86\n      jump\t// in\n        /* \"@openzeppelin/contracts/access/Ownable.sol\":1831:1932  function renounceOwnership() public virtual onlyOwner {... */\n    tag_14:\n      callvalue\n      dup1\n      iszero\n      tag_87\n      jumpi\n      0x00\n      dup1\n      revert\n    tag_87:\n      pop\n      tag_28\n      tag_89\n      jump\t// in\n        /* \"@openzeppelin/contracts/access/Ownable.sol\":1201:1286  function owner() public view virtual returns (address) {... */\n    tag_15:\n      callvalue\n      dup1\n      iszero\n      tag_90\n      jumpi\n      0x00\n      dup1\n      revert\n    tag_90:\n      pop\n        /* \"@openzeppelin/contracts/access/Ownable.sol\":1247:1254  address */\n      0x00\n        /* \"@openzeppelin/contracts/access/Ownable.sol\":1273:1279  _owner */\n      sload\n        /* \"@openzeppelin/contracts/access/Ownable.sol\":1201:1286  function owner() public view virtual returns (address) {... */\n      mload(0x40)\n      sub(shl(0xa0, 0x01), 0x01)\n        /* \"@openzeppelin/contracts/access/Ownable.sol\":1273:1279  _owner */\n      swap1\n      swap2\n      and\n        /* \"#utility.yul\":9870:9921   */\n      dup2\n      mstore\n        /* \"#utility.yul\":9858:9860   */\n      0x20\n        /* \"#utility.yul\":9843:9861   */\n      add\n        /* \"@openzeppelin/contracts/access/Ownable.sol\":1201:1286  function owner() public view virtual returns (address) {... */\n      tag_51\n        /* \"#utility.yul\":9724:9927   */\n      jump\n        /* \"contracts/scMarketplace.sol\":9421:10147  function cancelMarketItem(uint256 marketItemId) public payable idExists(marketItemId) isActive(marketItemId) nonReentrant {... */\n    tag_16:\n      tag_28\n      tag_96\n      calldatasize\n      0x04\n      tag_70\n      jump\t// in\n    tag_96:\n      tag_97\n      jump\t// in\n        /* \"contracts/scMarketplace.sol\":12615:12856  function deleteMarketItem(uint256 marketItemId) public onlyOwner idExists(marketItemId) isActive(marketItemId) nonReentrant {... */\n    tag_17:\n      callvalue\n      dup1\n      iszero\n      tag_98\n      jumpi\n      0x00\n      dup1\n      revert\n    tag_98:\n      pop\n      tag_28\n      tag_100\n      calldatasize\n      0x04\n      tag_70\n      jump\t// in\n    tag_100:\n      tag_101\n      jump\t// in\n        /* \"contracts/scMarketplace.sol\":3564:3592  uint public _maxItemsForSale */\n    tag_18:\n      callvalue\n      dup1\n      iszero\n      tag_102\n      jumpi\n      0x00\n      dup1\n      revert\n    tag_102:\n      pop\n      tag_47\n      sload(0x09)\n      dup2\n      jump\n        /* \"contracts/scBeneficiary.sol\":2170:3267  function sendFunds(uint256 amount, address tokenContract) public virtual onlyOwner {... */\n    tag_19:\n      callvalue\n      dup1\n      iszero\n      tag_106\n      jumpi\n      0x00\n      dup1\n      revert\n    tag_106:\n      pop\n      tag_28\n      tag_108\n      calldatasize\n      0x04\n      tag_109\n      jump\t// in\n    tag_108:\n      tag_110\n      jump\t// in\n        /* \"contracts/scMarketplace.sol\":11982:12106  function getCustomRate(address adr) public view onlyOwner returns (MarketRate memory){... */\n    tag_20:\n      callvalue\n      dup1\n      iszero\n      tag_111\n      jumpi\n      0x00\n      dup1\n      revert\n    tag_111:\n      pop\n      tag_75\n      tag_113\n      calldatasize\n      0x04\n      tag_44\n      jump\t// in\n    tag_113:\n      tag_114\n      jump\t// in\n        /* \"contracts/scBeneficiary.sol\":1247:1450  function safeApproveERC20(address tokenContract, address spender, uint256 amount) public {... */\n    tag_21:\n      callvalue\n      dup1\n      iszero\n      tag_116\n      jumpi\n      0x00\n      dup1\n      revert\n    tag_116:\n      pop\n      tag_28\n      tag_118\n      calldatasize\n      0x04\n      tag_119\n      jump\t// in\n    tag_118:\n      tag_120\n      jump\t// in\n        /* \"contracts/scMarketplace.sol\":10486:10634  function getMarketItem(uint256 marketItemId) public view idExists(marketItemId) returns (MarketItem memory) {... */\n    tag_22:\n      callvalue\n      dup1\n      iszero\n      tag_121\n      jumpi\n      0x00\n      dup1\n      revert\n    tag_121:\n      pop\n      tag_68\n      tag_123\n      calldatasize\n      0x04\n      tag_70\n      jump\t// in\n    tag_123:\n      tag_124\n      jump\t// in\n        /* \"@openzeppelin/contracts/access/Ownable.sol\":2081:2279  function transferOwnership(address newOwner) public virtual onlyOwner {... */\n    tag_23:\n      callvalue\n      dup1\n      iszero\n      tag_126\n      jumpi\n      0x00\n      dup1\n      revert\n    tag_126:\n      pop\n      tag_28\n      tag_128\n      calldatasize\n      0x04\n      tag_44\n      jump\t// in\n    tag_128:\n      tag_129\n      jump\t// in\n        /* \"contracts/scMarketplace.sol\":7350:9358  function makeMarketSale(uint256 marketItemId, uint partnerId) public payable idExists(marketItemId) isActive(marketItemId) nonReentrant {... */\n    tag_24:\n      tag_28\n      tag_131\n      calldatasize\n      0x04\n      tag_132\n      jump\t// in\n    tag_131:\n      tag_133\n      jump\t// in\n        /* \"contracts/scMarketplace.sol\":4513:5825  function placeMarketItem(address tokenContract, uint256 tokenId, address priceContract, uint256 price, address[] memory whiteList) public payable {... */\n    tag_31:\n        /* \"contracts/scMarketplace.sol\":4682:4683  0 */\n      0x00\n        /* \"contracts/scMarketplace.sol\":4674:4679  price */\n      dup3\n        /* \"contracts/scMarketplace.sol\":4674:4683  price > 0 */\n      gt\n        /* \"contracts/scMarketplace.sol\":4666:4727  require(price > 0, \"Price must be positive (at least 1 wei)\") */\n      tag_135\n      jumpi\n      mload(0x40)\n      shl(0xe5, 0x461bcd)\n      dup2\n      mstore\n      0x04\n      add\n      tag_136\n      swap1\n      tag_137\n      jump\t// in\n    tag_136:\n      mload(0x40)\n      dup1\n      swap2\n      sub\n      swap1\n      revert\n    tag_135:\n        /* \"contracts/scMarketplace.sol\":4791:4819  uint256 existingMarketItemId */\n      0x00\n        /* \"contracts/scMarketplace.sol\":4822:4866  findActiveMarketItem(tokenContract, tokenId) */\n      tag_138\n        /* \"contracts/scMarketplace.sol\":4843:4856  tokenContract */\n      dup7\n        /* \"contracts/scMarketplace.sol\":4858:4865  tokenId */\n      dup7\n        /* \"contracts/scMarketplace.sol\":4822:4842  findActiveMarketItem */\n      tag_50\n        /* \"contracts/scMarketplace.sol\":4822:4866  findActiveMarketItem(tokenContract, tokenId) */\n      jump\t// in\n    tag_138:\n        /* \"contracts/scMarketplace.sol\":4791:4866  uint256 existingMarketItemId = findActiveMarketItem(tokenContract, tokenId) */\n      swap1\n      pop\n        /* \"contracts/scMarketplace.sol\":4881:4906  existingMarketItemId == 0 */\n      dup1\n      iszero\n        /* \"contracts/scMarketplace.sol\":4873:4953  require(existingMarketItemId == 0, \"That token is already placed on the market\") */\n      tag_139\n      jumpi\n      mload(0x40)\n      shl(0xe5, 0x461bcd)\n      dup2\n      mstore\n      0x04\n      add\n      tag_136\n      swap1\n      tag_141\n      jump\t// in\n    tag_139:\n        /* \"@openzeppelin/contracts/utils/Context.sol\":719:729  msg.sender */\n      caller\n        /* \"contracts/scMarketplace.sol\":4990:5004  address seller */\n      0x00\n        /* \"contracts/scMarketplace.sol\":5070:5121  _checkTokenValidity(seller, tokenContract, tokenId) */\n      tag_144\n        /* \"@openzeppelin/contracts/utils/Context.sol\":719:729  msg.sender */\n      dup3\n        /* \"contracts/scMarketplace.sol\":5098:5111  tokenContract */\n      dup10\n        /* \"contracts/scMarketplace.sol\":5113:5120  tokenId */\n      dup10\n        /* \"contracts/scMarketplace.sol\":5070:5089  _checkTokenValidity */\n      tag_145\n        /* \"contracts/scMarketplace.sol\":5070:5121  _checkTokenValidity(seller, tokenContract, tokenId) */\n      jump\t// in\n    tag_144:\n        /* \"contracts/scMarketplace.sol\":5053:5121  int validation = _checkTokenValidity(seller, tokenContract, tokenId) */\n      swap1\n      pop\n        /* \"contracts/scMarketplace.sol\":5136:5153  validation != - 1 */\n      dup1\n      not\n        /* \"contracts/scMarketplace.sol\":5128:5211  require(validation != - 1, \"Only owner of the NFT can place it to the Marketplace\") */\n      tag_146\n      jumpi\n      mload(0x40)\n      shl(0xe5, 0x461bcd)\n      dup2\n      mstore\n      0x04\n      add\n      tag_136\n      swap1\n      tag_148\n      jump\t// in\n    tag_146:\n        /* \"contracts/scMarketplace.sol\":5226:5236  validation */\n      dup1\n      not(0x01)\n        /* \"contracts/scMarketplace.sol\":5226:5243  validation != - 2 */\n      sub\n        /* \"contracts/scMarketplace.sol\":5218:5289  require(validation != - 2, \"NFT should be approved to the Marketplace\") */\n      tag_149\n      jumpi\n      mload(0x40)\n      shl(0xe5, 0x461bcd)\n      dup2\n      mstore\n      0x04\n      add\n      tag_136\n      swap1\n      tag_151\n      jump\t// in\n    tag_149:\n        /* \"contracts/scMarketplace.sol\":5304:5319  validation == 0 */\n      dup1\n      iszero\n        /* \"contracts/scMarketplace.sol\":5296:5370  require(validation == 0, \"NFT is not valid to be sold on the Marketplace\") */\n      tag_152\n      jumpi\n      mload(0x40)\n      shl(0xe5, 0x461bcd)\n      dup2\n      mstore\n      0x04\n      add\n      tag_136\n      swap1\n      tag_154\n      jump\t// in\n    tag_152:\n        /* \"contracts/scMarketplace.sol\":5410:5430  uint256 listingPrice */\n      0x00\n        /* \"contracts/scMarketplace.sol\":5433:5454  _getValidRate(seller) */\n      tag_155\n        /* \"contracts/scMarketplace.sol\":5447:5453  seller */\n      dup4\n        /* \"contracts/scMarketplace.sol\":5433:5446  _getValidRate */\n      tag_156\n        /* \"contracts/scMarketplace.sol\":5433:5454  _getValidRate(seller) */\n      jump\t// in\n    tag_155:\n        /* \"contracts/scMarketplace.sol\":5433:5467  _getValidRate(seller).listingPrice */\n      0x20\n      add\n      mload\n        /* \"contracts/scMarketplace.sol\":5410:5467  uint256 listingPrice = _getValidRate(seller).listingPrice */\n      swap1\n      pop\n        /* \"contracts/scMarketplace.sol\":5517:5607  _chargeFunds(listingPrice, \"Listing Price should be sent to place NFT on the Marketplace\") */\n      tag_157\n        /* \"contracts/scMarketplace.sol\":5530:5542  listingPrice */\n      dup2\n        /* \"contracts/scMarketplace.sol\":5517:5607  _chargeFunds(listingPrice, \"Listing Price should be sent to place NFT on the Marketplace\") */\n      mload(0x40)\n      dup1\n      0x60\n      add\n      0x40\n      mstore\n      dup1\n      0x3c\n      dup2\n      mstore\n      0x20\n      add\n      data_033badd9fa0384b4027e1c52b4430f63c675f4b32ddecfc78fb9ae8ef2f09261\n      0x3c\n      swap2\n      codecopy\n        /* \"contracts/scMarketplace.sol\":5517:5529  _chargeFunds */\n      tag_158\n        /* \"contracts/scMarketplace.sol\":5517:5607  _chargeFunds(listingPrice, \"Listing Price should be sent to place NFT on the Marketplace\") */\n      jump\t// in\n    tag_157:\n        /* \"contracts/scMarketplace.sol\":5648:5676  MarketItemInput memory input */\n      0x00\n        /* \"contracts/scMarketplace.sol\":5679:5751  MarketItemInput(tokenContract, tokenId, priceContract, price, whiteList) */\n      mload(0x40)\n      dup1\n      0xa0\n      add\n      0x40\n      mstore\n      dup1\n        /* \"contracts/scMarketplace.sol\":5695:5708  tokenContract */\n      dup12\n      sub(shl(0xa0, 0x01), 0x01)\n        /* \"contracts/scMarketplace.sol\":5679:5751  MarketItemInput(tokenContract, tokenId, priceContract, price, whiteList) */\n      and\n      dup2\n      mstore\n      0x20\n      add\n        /* \"contracts/scMarketplace.sol\":5710:5717  tokenId */\n      dup11\n        /* \"contracts/scMarketplace.sol\":5679:5751  MarketItemInput(tokenContract, tokenId, priceContract, price, whiteList) */\n      dup2\n      mstore\n      0x20\n      add\n        /* \"contracts/scMarketplace.sol\":5719:5732  priceContract */\n      dup10\n      sub(shl(0xa0, 0x01), 0x01)\n        /* \"contracts/scMarketplace.sol\":5679:5751  MarketItemInput(tokenContract, tokenId, priceContract, price, whiteList) */\n      and\n      dup2\n      mstore\n      0x20\n      add\n        /* \"contracts/scMarketplace.sol\":5734:5739  price */\n      dup9\n        /* \"contracts/scMarketplace.sol\":5679:5751  MarketItemInput(tokenContract, tokenId, priceContract, price, whiteList) */\n      dup2\n      mstore\n      0x20\n      add\n        /* \"contracts/scMarketplace.sol\":5741:5750  whiteList */\n      dup8\n        /* \"contracts/scMarketplace.sol\":5679:5751  MarketItemInput(tokenContract, tokenId, priceContract, price, whiteList) */\n      dup2\n      mstore\n      pop\n        /* \"contracts/scMarketplace.sol\":5648:5751  MarketItemInput memory input = MarketItemInput(tokenContract, tokenId, priceContract, price, whiteList) */\n      swap1\n      pop\n        /* \"contracts/scMarketplace.sol\":5787:5819  _createMarketItem(seller, input) */\n      tag_159\n        /* \"contracts/scMarketplace.sol\":5805:5811  seller */\n      dup5\n        /* \"contracts/scMarketplace.sol\":5813:5818  input */\n      dup3\n        /* \"contracts/scMarketplace.sol\":5787:5804  _createMarketItem */\n      tag_160\n        /* \"contracts/scMarketplace.sol\":5787:5819  _createMarketItem(seller, input) */\n      jump\t// in\n    tag_159:\n        /* \"contracts/scMarketplace.sol\":4659:5825  {... */\n      pop\n      pop\n      pop\n      pop\n      pop\n        /* \"contracts/scMarketplace.sol\":4513:5825  function placeMarketItem(address tokenContract, uint256 tokenId, address priceContract, uint256 price, address[] memory whiteList) public payable {... */\n      pop\n      pop\n      pop\n      pop\n      pop\n      jump\t// out\n        /* \"contracts/scMarketplace.sol\":5831:7265  function placeMarketItems(MarketItemInput[] memory input) public payable {... */\n    tag_35:\n        /* \"contracts/scMarketplace.sol\":5934:5935  0 */\n      0x00\n        /* \"contracts/scMarketplace.sol\":5919:5924  input */\n      dup2\n        /* \"contracts/scMarketplace.sol\":5919:5931  input.length */\n      mload\n        /* \"contracts/scMarketplace.sol\":5919:5935  input.length > 0 */\n      gt\n        /* \"contracts/scMarketplace.sol\":5911:5983  require(input.length > 0, \"At least one item input should be specified\") */\n      tag_162\n      jumpi\n      mload(0x40)\n      shl(0xe5, 0x461bcd)\n      dup2\n      mstore\n        /* \"#utility.yul\":13234:13236   */\n      0x20\n        /* \"contracts/scMarketplace.sol\":5911:5983  require(input.length > 0, \"At least one item input should be specified\") */\n      0x04\n      dup3\n      add\n        /* \"#utility.yul\":13216:13237   */\n      mstore\n        /* \"#utility.yul\":13273:13275   */\n      0x2b\n        /* \"#utility.yul\":13253:13271   */\n      0x24\n      dup3\n      add\n        /* \"#utility.yul\":13246:13276   */\n      mstore\n        /* \"#utility.yul\":13312:13346   */\n      0x4174206c65617374206f6e65206974656d20696e7075742073686f756c642062\n        /* \"#utility.yul\":13292:13310   */\n      0x44\n      dup3\n      add\n        /* \"#utility.yul\":13285:13347   */\n      mstore\n      shl(0xaa, 0x19481cdc1958da599a5959)\n        /* \"#utility.yul\":13363:13381   */\n      0x64\n      dup3\n      add\n        /* \"#utility.yul\":13356:13397   */\n      mstore\n        /* \"#utility.yul\":13414:13433   */\n      0x84\n      add\n        /* \"contracts/scMarketplace.sol\":5911:5983  require(input.length > 0, \"At least one item input should be specified\") */\n      tag_136\n        /* \"#utility.yul\":13032:13439   */\n      jump\n        /* \"contracts/scMarketplace.sol\":5911:5983  require(input.length > 0, \"At least one item input should be specified\") */\n    tag_162:\n        /* \"contracts/scMarketplace.sol\":6014:6030  _maxItemsForSale */\n      sload(0x09)\n        /* \"contracts/scMarketplace.sol\":5998:6003  input */\n      dup2\n        /* \"contracts/scMarketplace.sol\":5998:6010  input.length */\n      mload\n        /* \"contracts/scMarketplace.sol\":5998:6030  input.length <= _maxItemsForSale */\n      gt\n      iszero\n        /* \"contracts/scMarketplace.sol\":5990:6091  require(input.length <= _maxItemsForSale, \"Amount of specified items exceeds Maximum Allowed Amount\") */\n      tag_165\n      jumpi\n      mload(0x40)\n      shl(0xe5, 0x461bcd)\n      dup2\n      mstore\n        /* \"#utility.yul\":13646:13648   */\n      0x20\n        /* \"contracts/scMarketplace.sol\":5990:6091  require(input.length <= _maxItemsForSale, \"Amount of specified items exceeds Maximum Allowed Amount\") */\n      0x04\n      dup3\n      add\n        /* \"#utility.yul\":13628:13649   */\n      mstore\n        /* \"#utility.yul\":13685:13687   */\n      0x38\n        /* \"#utility.yul\":13665:13683   */\n      0x24\n      dup3\n      add\n        /* \"#utility.yul\":13658:13688   */\n      mstore\n        /* \"#utility.yul\":13724:13758   */\n      0x416d6f756e74206f6620737065636966696564206974656d7320657863656564\n        /* \"#utility.yul\":13704:13722   */\n      0x44\n      dup3\n      add\n        /* \"#utility.yul\":13697:13759   */\n      mstore\n        /* \"#utility.yul\":13795:13821   */\n      0x73204d6178696d756d20416c6c6f77656420416d6f756e740000000000000000\n        /* \"#utility.yul\":13775:13793   */\n      0x64\n      dup3\n      add\n        /* \"#utility.yul\":13768:13822   */\n      mstore\n        /* \"#utility.yul\":13839:13858   */\n      0x84\n      add\n        /* \"contracts/scMarketplace.sol\":5990:6091  require(input.length <= _maxItemsForSale, \"Amount of specified items exceeds Maximum Allowed Amount\") */\n      tag_136\n        /* \"#utility.yul\":13444:13864   */\n      jump\n        /* \"contracts/scMarketplace.sol\":5990:6091  require(input.length <= _maxItemsForSale, \"Amount of specified items exceeds Maximum Allowed Amount\") */\n    tag_165:\n        /* \"@openzeppelin/contracts/utils/Context.sol\":719:729  msg.sender */\n      caller\n        /* \"contracts/scMarketplace.sol\":6128:6142  address seller */\n      0x00\n        /* \"contracts/scMarketplace.sol\":6220:6241  _getValidRate(seller) */\n      tag_169\n        /* \"@openzeppelin/contracts/utils/Context.sol\":719:729  msg.sender */\n      dup3\n        /* \"contracts/scMarketplace.sol\":6220:6233  _getValidRate */\n      tag_156\n        /* \"contracts/scMarketplace.sol\":6220:6241  _getValidRate(seller) */\n      jump\t// in\n    tag_169:\n        /* \"contracts/scMarketplace.sol\":6220:6254  _getValidRate(seller).listingPrice */\n      0x20\n      add\n      mload\n        /* \"contracts/scMarketplace.sol\":6197:6254  uint256 listingPrice = _getValidRate(seller).listingPrice */\n      swap1\n      pop\n        /* \"contracts/scMarketplace.sol\":6304:6409  _chargeFunds(listingPrice * input.length, \"Listing Price should be sent to place NFT on the Marketplace\") */\n      tag_170\n        /* \"contracts/scMarketplace.sol\":6332:6337  input */\n      dup4\n        /* \"contracts/scMarketplace.sol\":6332:6344  input.length */\n      mload\n        /* \"contracts/scMarketplace.sol\":6317:6329  listingPrice */\n      dup3\n        /* \"contracts/scMarketplace.sol\":6317:6344  listingPrice * input.length */\n      tag_171\n      swap2\n      swap1\n      tag_172\n      jump\t// in\n    tag_171:\n        /* \"contracts/scMarketplace.sol\":6304:6409  _chargeFunds(listingPrice * input.length, \"Listing Price should be sent to place NFT on the Marketplace\") */\n      mload(0x40)\n      dup1\n      0x60\n      add\n      0x40\n      mstore\n      dup1\n      0x3c\n      dup2\n      mstore\n      0x20\n      add\n      data_033badd9fa0384b4027e1c52b4430f63c675f4b32ddecfc78fb9ae8ef2f09261\n      0x3c\n      swap2\n      codecopy\n        /* \"contracts/scMarketplace.sol\":6304:6316  _chargeFunds */\n      tag_158\n        /* \"contracts/scMarketplace.sol\":6304:6409  _chargeFunds(listingPrice * input.length, \"Listing Price should be sent to place NFT on the Marketplace\") */\n      jump\t// in\n    tag_170:\n        /* \"contracts/scMarketplace.sol\":6423:6429  uint i */\n      0x00\n        /* \"contracts/scMarketplace.sol\":6418:7260  for (uint i = 0; i < input.length; i++)... */\n    tag_173:\n        /* \"contracts/scMarketplace.sol\":6439:6444  input */\n      dup4\n        /* \"contracts/scMarketplace.sol\":6439:6451  input.length */\n      mload\n        /* \"contracts/scMarketplace.sol\":6435:6436  i */\n      dup2\n        /* \"contracts/scMarketplace.sol\":6435:6451  i < input.length */\n      lt\n        /* \"contracts/scMarketplace.sol\":6418:7260  for (uint i = 0; i < input.length; i++)... */\n      iszero\n      tag_174\n      jumpi\n        /* \"contracts/scMarketplace.sol\":6503:6504  0 */\n      0x00\n        /* \"contracts/scMarketplace.sol\":6480:6485  input */\n      dup5\n        /* \"contracts/scMarketplace.sol\":6486:6487  i */\n      dup3\n        /* \"contracts/scMarketplace.sol\":6480:6488  input[i] */\n      dup2\n      mload\n      dup2\n      lt\n      tag_177\n      jumpi\n      tag_177\n      tag_178\n      jump\t// in\n    tag_177:\n      0x20\n      mul\n      0x20\n      add\n      add\n      mload\n        /* \"contracts/scMarketplace.sol\":6480:6500  input[i].priceAmount */\n      0x60\n      add\n      mload\n        /* \"contracts/scMarketplace.sol\":6480:6504  input[i].priceAmount > 0 */\n      gt\n        /* \"contracts/scMarketplace.sol\":6472:6548  require(input[i].priceAmount > 0, \"Price must be positive (at least 1 wei)\") */\n      tag_179\n      jumpi\n      mload(0x40)\n      shl(0xe5, 0x461bcd)\n      dup2\n      mstore\n      0x04\n      add\n      tag_136\n      swap1\n      tag_137\n      jump\t// in\n    tag_179:\n        /* \"contracts/scMarketplace.sol\":6616:6644  uint256 existingMarketItemId */\n      0x00\n        /* \"contracts/scMarketplace.sol\":6647:6709  findActiveMarketItem(input[i].tokenContract, input[i].tokenId) */\n      tag_181\n        /* \"contracts/scMarketplace.sol\":6668:6673  input */\n      dup6\n        /* \"contracts/scMarketplace.sol\":6674:6675  i */\n      dup4\n        /* \"contracts/scMarketplace.sol\":6668:6676  input[i] */\n      dup2\n      mload\n      dup2\n      lt\n      tag_183\n      jumpi\n      tag_183\n      tag_178\n      jump\t// in\n    tag_183:\n      0x20\n      mul\n      0x20\n      add\n      add\n      mload\n        /* \"contracts/scMarketplace.sol\":6668:6690  input[i].tokenContract */\n      0x00\n      add\n      mload\n        /* \"contracts/scMarketplace.sol\":6692:6697  input */\n      dup7\n        /* \"contracts/scMarketplace.sol\":6698:6699  i */\n      dup5\n        /* \"contracts/scMarketplace.sol\":6692:6700  input[i] */\n      dup2\n      mload\n      dup2\n      lt\n      tag_185\n      jumpi\n      tag_185\n      tag_178\n      jump\t// in\n    tag_185:\n      0x20\n      mul\n      0x20\n      add\n      add\n      mload\n        /* \"contracts/scMarketplace.sol\":6692:6708  input[i].tokenId */\n      0x20\n      add\n      mload\n        /* \"contracts/scMarketplace.sol\":6647:6667  findActiveMarketItem */\n      tag_50\n        /* \"contracts/scMarketplace.sol\":6647:6709  findActiveMarketItem(input[i].tokenContract, input[i].tokenId) */\n      jump\t// in\n    tag_181:\n        /* \"contracts/scMarketplace.sol\":6616:6709  uint256 existingMarketItemId = findActiveMarketItem(input[i].tokenContract, input[i].tokenId) */\n      swap1\n      pop\n        /* \"contracts/scMarketplace.sol\":6726:6751  existingMarketItemId == 0 */\n      dup1\n      iszero\n        /* \"contracts/scMarketplace.sol\":6718:6798  require(existingMarketItemId == 0, \"That token is already placed on the market\") */\n      tag_186\n      jumpi\n      mload(0x40)\n      shl(0xe5, 0x461bcd)\n      dup2\n      mstore\n      0x04\n      add\n      tag_136\n      swap1\n      tag_141\n      jump\t// in\n    tag_186:\n        /* \"contracts/scMarketplace.sol\":6836:6850  int validation */\n      0x00\n        /* \"contracts/scMarketplace.sol\":6853:6922  _checkTokenValidity(seller, input[i].tokenContract, input[i].tokenId) */\n      tag_188\n        /* \"contracts/scMarketplace.sol\":6873:6879  seller */\n      dup6\n        /* \"contracts/scMarketplace.sol\":6881:6886  input */\n      dup8\n        /* \"contracts/scMarketplace.sol\":6887:6888  i */\n      dup6\n        /* \"contracts/scMarketplace.sol\":6881:6889  input[i] */\n      dup2\n      mload\n      dup2\n      lt\n      tag_190\n      jumpi\n      tag_190\n      tag_178\n      jump\t// in\n    tag_190:\n      0x20\n      mul\n      0x20\n      add\n      add\n      mload\n        /* \"contracts/scMarketplace.sol\":6881:6903  input[i].tokenContract */\n      0x00\n      add\n      mload\n        /* \"contracts/scMarketplace.sol\":6905:6910  input */\n      dup9\n        /* \"contracts/scMarketplace.sol\":6911:6912  i */\n      dup7\n        /* \"contracts/scMarketplace.sol\":6905:6913  input[i] */\n      dup2\n      mload\n      dup2\n      lt\n      tag_192\n      jumpi\n      tag_192\n      tag_178\n      jump\t// in\n    tag_192:\n      0x20\n      mul\n      0x20\n      add\n      add\n      mload\n        /* \"contracts/scMarketplace.sol\":6905:6921  input[i].tokenId */\n      0x20\n      add\n      mload\n        /* \"contracts/scMarketplace.sol\":6853:6872  _checkTokenValidity */\n      tag_145\n        /* \"contracts/scMarketplace.sol\":6853:6922  _checkTokenValidity(seller, input[i].tokenContract, input[i].tokenId) */\n      jump\t// in\n    tag_188:\n        /* \"contracts/scMarketplace.sol\":6836:6922  int validation = _checkTokenValidity(seller, input[i].tokenContract, input[i].tokenId) */\n      swap1\n      pop\n        /* \"contracts/scMarketplace.sol\":6939:6956  validation != - 1 */\n      dup1\n      not\n        /* \"contracts/scMarketplace.sol\":6931:7014  require(validation != - 1, \"Only owner of the NFT can place it to the Marketplace\") */\n      tag_193\n      jumpi\n      mload(0x40)\n      shl(0xe5, 0x461bcd)\n      dup2\n      mstore\n      0x04\n      add\n      tag_136\n      swap1\n      tag_148\n      jump\t// in\n    tag_193:\n        /* \"contracts/scMarketplace.sol\":7031:7041  validation */\n      dup1\n      not(0x01)\n        /* \"contracts/scMarketplace.sol\":7031:7048  validation != - 2 */\n      sub\n        /* \"contracts/scMarketplace.sol\":7023:7094  require(validation != - 2, \"NFT should be approved to the Marketplace\") */\n      tag_195\n      jumpi\n      mload(0x40)\n      shl(0xe5, 0x461bcd)\n      dup2\n      mstore\n      0x04\n      add\n      tag_136\n      swap1\n      tag_151\n      jump\t// in\n    tag_195:\n        /* \"contracts/scMarketplace.sol\":7111:7126  validation == 0 */\n      dup1\n      iszero\n        /* \"contracts/scMarketplace.sol\":7103:7177  require(validation == 0, \"NFT is not valid to be sold on the Marketplace\") */\n      tag_197\n      jumpi\n      mload(0x40)\n      shl(0xe5, 0x461bcd)\n      dup2\n      mstore\n      0x04\n      add\n      tag_136\n      swap1\n      tag_154\n      jump\t// in\n    tag_197:\n        /* \"contracts/scMarketplace.sol\":7217:7252  _createMarketItem(seller, input[i]) */\n      tag_199\n        /* \"contracts/scMarketplace.sol\":7235:7241  seller */\n      dup6\n        /* \"contracts/scMarketplace.sol\":7243:7248  input */\n      dup8\n        /* \"contracts/scMarketplace.sol\":7249:7250  i */\n      dup6\n        /* \"contracts/scMarketplace.sol\":7243:7251  input[i] */\n      dup2\n      mload\n      dup2\n      lt\n      tag_201\n      jumpi\n      tag_201\n      tag_178\n      jump\t// in\n    tag_201:\n      0x20\n      mul\n      0x20\n      add\n      add\n      mload\n        /* \"contracts/scMarketplace.sol\":7217:7234  _createMarketItem */\n      tag_160\n        /* \"contracts/scMarketplace.sol\":7217:7252  _createMarketItem(seller, input[i]) */\n      jump\t// in\n    tag_199:\n        /* \"contracts/scMarketplace.sol\":6463:7260  {... */\n      pop\n      pop\n        /* \"contracts/scMarketplace.sol\":6453:6456  i++ */\n      dup1\n      dup1\n      tag_202\n      swap1\n      tag_203\n      jump\t// in\n    tag_202:\n      swap2\n      pop\n      pop\n        /* \"contracts/scMarketplace.sol\":6418:7260  for (uint i = 0; i < input.length; i++)... */\n      jump(tag_173)\n    tag_174:\n      pop\n        /* \"contracts/scMarketplace.sol\":5904:7265  {... */\n      pop\n      pop\n        /* \"contracts/scMarketplace.sol\":5831:7265  function placeMarketItems(MarketItemInput[] memory input) public payable {... */\n      pop\n      jump\t// out\n        /* \"contracts/scMarketplace.sol\":12155:12368  function setCustomRate(address adr, uint256 newListingPrice, uint256 newCancelPrice, uint newFeePercent) public onlyOwner {... */\n    tag_40:\n        /* \"@openzeppelin/contracts/access/Ownable.sol\":1094:1107  _checkOwner() */\n      tag_205\n        /* \"@openzeppelin/contracts/access/Ownable.sol\":1094:1105  _checkOwner */\n      tag_206\n        /* \"@openzeppelin/contracts/access/Ownable.sol\":1094:1107  _checkOwner() */\n      jump\t// in\n    tag_205:\n        /* \"contracts/scMarketplace.sol\":12298:12362  MarketRate(true, newListingPrice, newCancelPrice, newFeePercent) */\n      0x40\n      dup1\n      mload\n      0x80\n      dup2\n      add\n      dup3\n      mstore\n        /* \"contracts/scMarketplace.sol\":12309:12313  true */\n      0x01\n        /* \"contracts/scMarketplace.sol\":12298:12362  MarketRate(true, newListingPrice, newCancelPrice, newFeePercent) */\n      dup1\n      dup3\n      mstore\n      0x20\n      dup1\n      dup4\n      add\n      swap7\n      dup8\n      mstore\n      dup3\n      dup5\n      add\n      swap6\n      dup7\n      mstore\n      0x60\n      dup4\n      add\n      swap5\n      dup6\n      mstore\n      sub(shl(0xa0, 0x01), 0x01)\n        /* \"contracts/scMarketplace.sol\":12284:12295  _rates[adr] */\n      swap8\n      swap1\n      swap8\n      and\n      0x00\n      swap1\n      dup2\n      mstore\n        /* \"contracts/scMarketplace.sol\":12284:12290  _rates */\n      0x07\n        /* \"contracts/scMarketplace.sol\":12284:12295  _rates[adr] */\n      swap1\n      swap8\n      mstore\n      swap2\n      swap1\n      swap6\n      keccak256\n        /* \"contracts/scMarketplace.sol\":12284:12362  _rates[adr] = MarketRate(true, newListingPrice, newCancelPrice, newFeePercent) */\n      swap5\n      mload\n      dup6\n      sload\n      not(0xff)\n      and\n      swap1\n      iszero\n      iszero\n      or\n      dup6\n      sstore\n      swap3\n      mload\n      swap3\n      dup5\n      add\n      swap3\n      swap1\n      swap3\n      sstore\n      mload\n      0x02\n      dup4\n      add\n      sstore\n      mload\n      0x03\n      swap1\n      swap2\n      add\n      sstore\n        /* \"contracts/scMarketplace.sol\":12155:12368  function setCustomRate(address adr, uint256 newListingPrice, uint256 newCancelPrice, uint newFeePercent) public onlyOwner {... */\n      jump\t// out\n        /* \"contracts/scMarketplace.sol\":12420:12552  function removeCustomRate(address adr) public onlyOwner {... */\n    tag_45:\n        /* \"@openzeppelin/contracts/access/Ownable.sol\":1094:1107  _checkOwner() */\n      tag_209\n        /* \"@openzeppelin/contracts/access/Ownable.sol\":1094:1105  _checkOwner */\n      tag_206\n        /* \"@openzeppelin/contracts/access/Ownable.sol\":1094:1107  _checkOwner() */\n      jump\t// in\n    tag_209:\n      sub(shl(0xa0, 0x01), 0x01)\n        /* \"contracts/scMarketplace.sol\":12487:12504  adr == address(0) */\n      dup2\n      and\n        /* \"contracts/scMarketplace.sol\":12483:12520  if (adr == address(0))... */\n      iszero\n        /* \"contracts/scMarketplace.sol\":12513:12520  return; */\n      tag_210\n        /* \"contracts/scMarketplace.sol\":12483:12520  if (adr == address(0))... */\n      jumpi\n      sub(shl(0xa0, 0x01), 0x01)\n        /* \"contracts/scMarketplace.sol\":12535:12546  _rates[adr] */\n      dup2\n      and\n      0x00\n      swap1\n      dup2\n      mstore\n        /* \"contracts/scMarketplace.sol\":12535:12541  _rates */\n      0x07\n        /* \"contracts/scMarketplace.sol\":12535:12546  _rates[adr] */\n      0x20\n      mstore\n      0x40\n      dup2\n      keccak256\n        /* \"contracts/scMarketplace.sol\":12528:12546  delete _rates[adr] */\n      dup1\n      sload\n      not(0xff)\n      and\n      dup2\n      sstore\n      0x01\n      dup2\n      add\n      dup3\n      swap1\n      sstore\n      0x02\n      dup2\n      add\n      dup3\n      swap1\n      sstore\n      0x03\n      add\n      sstore\n        /* \"@openzeppelin/contracts/access/Ownable.sol\":1117:1118  _ */\n    tag_210:\n        /* \"contracts/scMarketplace.sol\":12420:12552  function removeCustomRate(address adr) public onlyOwner {... */\n      pop\n      jump\t// out\n        /* \"contracts/scMarketplace.sol\":11458:11615  function findActiveMarketItem(address tokenContract, uint256 tokenId) public view returns (uint256) {... */\n    tag_50:\n      sub(shl(0xa0, 0x01), 0x01)\n        /* \"contracts/scMarketplace.sol\":11572:11600  _activeTokens[tokenContract] */\n      dup3\n      and\n        /* \"contracts/scMarketplace.sol\":11549:11556  uint256 */\n      0x00\n        /* \"contracts/scMarketplace.sol\":11572:11600  _activeTokens[tokenContract] */\n      swap1\n      dup2\n      mstore\n        /* \"contracts/scMarketplace.sol\":11572:11585  _activeTokens */\n      0x06\n        /* \"contracts/scMarketplace.sol\":11572:11600  _activeTokens[tokenContract] */\n      0x20\n      swap1\n      dup2\n      mstore\n      0x40\n      dup1\n      dup4\n      keccak256\n        /* \"contracts/scMarketplace.sol\":11572:11609  _activeTokens[tokenContract][tokenId] */\n      dup5\n      dup5\n      mstore\n      swap1\n      swap2\n      mstore\n      swap1\n      keccak256\n      sload\n        /* \"contracts/scMarketplace.sol\":11458:11615  function findActiveMarketItem(address tokenContract, uint256 tokenId) public view returns (uint256) {... */\n    tag_212:\n      swap3\n      swap2\n      pop\n      pop\n      jump\t// out\n        /* \"contracts/scMarketplace.sol\":10676:10778  function getAllMarketItemsCount() public view returns (uint256) {... */\n    tag_55:\n        /* \"contracts/scMarketplace.sol\":10731:10738  uint256 */\n      0x00\n        /* \"contracts/scMarketplace.sol\":10754:10772  _itemIds.current() */\n      tag_214\n        /* \"contracts/scMarketplace.sol\":10754:10762  _itemIds */\n      0x03\n        /* \"@openzeppelin/contracts/utils/Counters.sol\":918:932  counter._value */\n      sload\n      swap1\n        /* \"@openzeppelin/contracts/utils/Counters.sol\":827:939  function current(Counter storage counter) internal view returns (uint256) {... */\n      jump\n        /* \"contracts/scMarketplace.sol\":10754:10772  _itemIds.current() */\n    tag_214:\n        /* \"contracts/scMarketplace.sol\":10747:10772  return _itemIds.current() */\n      swap1\n      pop\n        /* \"contracts/scMarketplace.sol\":10676:10778  function getAllMarketItemsCount() public view returns (uint256) {... */\n      swap1\n      jump\t// out\n        /* \"contracts/scBeneficiary.sol\":1659:2086  function changeBeneficiary(BeneficiaryMode mode, address payable recipient) public virtual onlyOwner {... */\n    tag_61:\n        /* \"@openzeppelin/contracts/access/Ownable.sol\":1094:1107  _checkOwner() */\n      tag_217\n        /* \"@openzeppelin/contracts/access/Ownable.sol\":1094:1105  _checkOwner */\n      tag_206\n        /* \"@openzeppelin/contracts/access/Ownable.sol\":1094:1107  _checkOwner() */\n      jump\t// in\n    tag_217:\n        /* \"contracts/scBeneficiary.sol\":1779:1799  BeneficiaryMode.None */\n      0x00\n        /* \"contracts/scBeneficiary.sol\":1771:1775  mode */\n      dup3\n        /* \"contracts/scBeneficiary.sol\":1771:1799  mode == BeneficiaryMode.None */\n      0x02\n      dup2\n      gt\n      iszero\n      tag_223\n      jumpi\n      tag_223\n      tag_221\n      jump\t// in\n    tag_223:\n      sub\n        /* \"contracts/scBeneficiary.sol\":1767:2006  if (mode == BeneficiaryMode.None)... */\n      tag_224\n      jumpi\n      sub(shl(0xa0, 0x01), 0x01)\n        /* \"contracts/scBeneficiary.sol\":1816:1839  recipient == address(0) */\n      dup2\n      and\n      iszero\n        /* \"contracts/scBeneficiary.sol\":1808:1901  require(recipient == address(0), \"Beneficiar mode None requires zero address for recipient!\") */\n      tag_225\n      jumpi\n      mload(0x40)\n      shl(0xe5, 0x461bcd)\n      dup2\n      mstore\n        /* \"#utility.yul\":14648:14650   */\n      0x20\n        /* \"contracts/scBeneficiary.sol\":1808:1901  require(recipient == address(0), \"Beneficiar mode None requires zero address for recipient!\") */\n      0x04\n      dup3\n      add\n        /* \"#utility.yul\":14630:14651   */\n      mstore\n        /* \"#utility.yul\":14687:14689   */\n      0x39\n        /* \"#utility.yul\":14667:14685   */\n      0x24\n      dup3\n      add\n        /* \"#utility.yul\":14660:14690   */\n      mstore\n        /* \"#utility.yul\":14726:14760   */\n      0x42656e65666963696172206d6f6465204e6f6e65207265717569726573207a65\n        /* \"#utility.yul\":14706:14724   */\n      0x44\n      dup3\n      add\n        /* \"#utility.yul\":14699:14761   */\n      mstore\n        /* \"#utility.yul\":14797:14824   */\n      0x726f206164647265737320666f7220726563697069656e742100000000000000\n        /* \"#utility.yul\":14777:14795   */\n      0x64\n      dup3\n      add\n        /* \"#utility.yul\":14770:14825   */\n      mstore\n        /* \"#utility.yul\":14842:14861   */\n      0x84\n      add\n        /* \"contracts/scBeneficiary.sol\":1808:1901  require(recipient == address(0), \"Beneficiar mode None requires zero address for recipient!\") */\n      tag_136\n        /* \"#utility.yul\":14446:14867   */\n      jump\n        /* \"contracts/scBeneficiary.sol\":1808:1901  require(recipient == address(0), \"Beneficiar mode None requires zero address for recipient!\") */\n    tag_225:\n        /* \"contracts/scBeneficiary.sol\":1767:2006  if (mode == BeneficiaryMode.None)... */\n      jump(tag_229)\n    tag_224:\n      sub(shl(0xa0, 0x01), 0x01)\n        /* \"contracts/scBeneficiary.sol\":1928:1951  recipient != address(0) */\n      dup2\n      and\n        /* \"contracts/scBeneficiary.sol\":1920:2006  require(recipient != address(0), \"Beneficiary recipient address should be specified!\") */\n      tag_229\n      jumpi\n      mload(0x40)\n      shl(0xe5, 0x461bcd)\n      dup2\n      mstore\n        /* \"#utility.yul\":15074:15076   */\n      0x20\n        /* \"contracts/scBeneficiary.sol\":1920:2006  require(recipient != address(0), \"Beneficiary recipient address should be specified!\") */\n      0x04\n      dup3\n      add\n        /* \"#utility.yul\":15056:15077   */\n      mstore\n        /* \"#utility.yul\":15113:15115   */\n      0x32\n        /* \"#utility.yul\":15093:15111   */\n      0x24\n      dup3\n      add\n        /* \"#utility.yul\":15086:15116   */\n      mstore\n        /* \"#utility.yul\":15152:15186   */\n      0x42656e656669636961727920726563697069656e742061646472657373207368\n        /* \"#utility.yul\":15132:15150   */\n      0x44\n      dup3\n      add\n        /* \"#utility.yul\":15125:15187   */\n      mstore\n      shl(0x70, 0x6f756c642062652073706563696669656421)\n        /* \"#utility.yul\":15203:15221   */\n      0x64\n      dup3\n      add\n        /* \"#utility.yul\":15196:15244   */\n      mstore\n        /* \"#utility.yul\":15261:15280   */\n      0x84\n      add\n        /* \"contracts/scBeneficiary.sol\":1920:2006  require(recipient != address(0), \"Beneficiary recipient address should be specified!\") */\n      tag_136\n        /* \"#utility.yul\":14872:15286   */\n      jump\n        /* \"contracts/scBeneficiary.sol\":1920:2006  require(recipient != address(0), \"Beneficiary recipient address should be specified!\") */\n    tag_229:\n        /* \"contracts/scBeneficiary.sol\":2015:2027  _beneficiary */\n      0x01\n        /* \"contracts/scBeneficiary.sol\":2015:2039  _beneficiary.mode = mode */\n      dup1\n      sload\n        /* \"contracts/scBeneficiary.sol\":2035:2039  mode */\n      dup4\n      swap2\n        /* \"contracts/scBeneficiary.sol\":2015:2027  _beneficiary */\n      swap1\n      not(0xff)\n        /* \"contracts/scBeneficiary.sol\":2015:2039  _beneficiary.mode = mode */\n      and\n        /* \"contracts/scBeneficiary.sol\":2015:2027  _beneficiary */\n      dup2\n        /* \"contracts/scBeneficiary.sol\":2035:2039  mode */\n      dup4\n        /* \"contracts/scBeneficiary.sol\":2015:2039  _beneficiary.mode = mode */\n      0x02\n      dup2\n      gt\n      iszero\n      tag_233\n      jumpi\n      tag_233\n      tag_221\n      jump\t// in\n    tag_233:\n      mul\n      or\n      swap1\n      sstore\n      pop\n        /* \"contracts/scBeneficiary.sol\":2046:2058  _beneficiary */\n      0x01\n        /* \"contracts/scBeneficiary.sol\":2046:2080  _beneficiary.recipient = recipient */\n      dup1\n      sload\n      sub(shl(0xa0, 0x01), 0x01)\n      swap1\n      swap3\n      and\n      0x0100\n      mul\n      not(sub(shl(0xa8, 0x01), 0x0100))\n      swap1\n      swap3\n      and\n      swap2\n      swap1\n      swap2\n      or\n      swap1\n      sstore\n      pop\n        /* \"contracts/scBeneficiary.sol\":1659:2086  function changeBeneficiary(BeneficiaryMode mode, address payable recipient) public virtual onlyOwner {... */\n      jump\t// out\n        /* \"contracts/scBeneficiary.sol\":1106:1205  function getBeneficiary() public view returns (Beneficiary memory) {... */\n    tag_64:\n      0x40\n      dup1\n      mload\n      dup1\n      dup3\n      add\n      swap1\n      swap2\n      mstore\n      0x00\n      dup1\n      dup3\n      mstore\n      0x20\n      dup3\n      add\n      mstore\n        /* \"contracts/scBeneficiary.sol\":1180:1199  return _beneficiary */\n      0x40\n      dup1\n      mload\n      dup1\n      dup3\n      add\n      swap1\n      swap2\n      mstore\n        /* \"contracts/scBeneficiary.sol\":1187:1199  _beneficiary */\n      0x01\n        /* \"contracts/scBeneficiary.sol\":1180:1199  return _beneficiary */\n      dup1\n      sload\n      dup3\n      swap1\n      0xff\n      and\n      0x02\n      dup2\n      gt\n      iszero\n      tag_238\n      jumpi\n      tag_238\n      tag_221\n      jump\t// in\n    tag_238:\n      0x02\n      dup2\n      gt\n      iszero\n      tag_240\n      jumpi\n      tag_240\n      tag_221\n      jump\t// in\n    tag_240:\n      dup2\n      mstore\n      swap1\n      sload\n      0x0100\n      swap1\n      div\n      sub(shl(0xa0, 0x01), 0x01)\n      and\n      0x20\n      swap1\n      swap2\n      add\n      mstore\n      swap2\n      swap1\n      pop\n        /* \"contracts/scBeneficiary.sol\":1106:1205  function getBeneficiary() public view returns (Beneficiary memory) {... */\n      jump\t// out\n        /* \"contracts/scMarketplace.sol\":11017:11386  function getActiveMarketItem(uint256 position) public view returns (MarketItem memory) {... */\n    tag_71:\n        /* \"contracts/scMarketplace.sol\":11085:11102  MarketItem memory */\n      tag_241\n      tag_242\n      jump\t// in\n    tag_241:\n        /* \"contracts/scMarketplace.sol\":11119:11131  _activeItems */\n      0x05\n        /* \"contracts/scMarketplace.sol\":11119:11138  _activeItems.length */\n      sload\n        /* \"contracts/scMarketplace.sol\":11111:11188  require(_activeItems.length > 0, \"There are no any Active Market Items yet!\") */\n      tag_244\n      jumpi\n      mload(0x40)\n      shl(0xe5, 0x461bcd)\n      dup2\n      mstore\n        /* \"#utility.yul\":15493:15495   */\n      0x20\n        /* \"contracts/scMarketplace.sol\":11111:11188  require(_activeItems.length > 0, \"There are no any Active Market Items yet!\") */\n      0x04\n      dup3\n      add\n        /* \"#utility.yul\":15475:15496   */\n      mstore\n        /* \"#utility.yul\":15532:15534   */\n      0x29\n        /* \"#utility.yul\":15512:15530   */\n      0x24\n      dup3\n      add\n        /* \"#utility.yul\":15505:15535   */\n      mstore\n        /* \"#utility.yul\":15571:15605   */\n      0x546865726520617265206e6f20616e7920416374697665204d61726b65742049\n        /* \"#utility.yul\":15551:15569   */\n      0x44\n      dup3\n      add\n        /* \"#utility.yul\":15544:15606   */\n      mstore\n      shl(0xb8, 0x74656d732079657421)\n        /* \"#utility.yul\":15622:15640   */\n      0x64\n      dup3\n      add\n        /* \"#utility.yul\":15615:15654   */\n      mstore\n        /* \"#utility.yul\":15671:15690   */\n      0x84\n      add\n        /* \"contracts/scMarketplace.sol\":11111:11188  require(_activeItems.length > 0, \"There are no any Active Market Items yet!\") */\n      tag_136\n        /* \"#utility.yul\":15291:15696   */\n      jump\n        /* \"contracts/scMarketplace.sol\":11111:11188  require(_activeItems.length > 0, \"There are no any Active Market Items yet!\") */\n    tag_244:\n        /* \"contracts/scMarketplace.sol\":11215:11216  1 */\n      0x01\n        /* \"contracts/scMarketplace.sol\":11203:11211  position */\n      dup3\n        /* \"contracts/scMarketplace.sol\":11203:11216  position >= 1 */\n      lt\n      iszero\n        /* \"contracts/scMarketplace.sol\":11203:11251  position >= 1 && position <= _activeItems.length */\n      dup1\n      iszero\n      tag_247\n      jumpi\n      pop\n        /* \"contracts/scMarketplace.sol\":11232:11244  _activeItems */\n      0x05\n        /* \"contracts/scMarketplace.sol\":11232:11251  _activeItems.length */\n      sload\n        /* \"contracts/scMarketplace.sol\":11220:11251  position <= _activeItems.length */\n      dup3\n      gt\n      iszero\n        /* \"contracts/scMarketplace.sol\":11203:11251  position >= 1 && position <= _activeItems.length */\n    tag_247:\n        /* \"contracts/scMarketplace.sol\":11195:11332  require(position >= 1 && position <= _activeItems.length, \"Position should be positive number in Active Market Items Count range (1..N)\") */\n      tag_248\n      jumpi\n      mload(0x40)\n      shl(0xe5, 0x461bcd)\n      dup2\n      mstore\n        /* \"#utility.yul\":15903:15905   */\n      0x20\n        /* \"contracts/scMarketplace.sol\":11195:11332  require(position >= 1 && position <= _activeItems.length, \"Position should be positive number in Active Market Items Count range (1..N)\") */\n      0x04\n      dup3\n      add\n        /* \"#utility.yul\":15885:15906   */\n      mstore\n        /* \"#utility.yul\":15942:15944   */\n      0x4c\n        /* \"#utility.yul\":15922:15940   */\n      0x24\n      dup3\n      add\n        /* \"#utility.yul\":15915:15945   */\n      mstore\n        /* \"#utility.yul\":15981:16015   */\n      0x506f736974696f6e2073686f756c6420626520706f736974697665206e756d62\n        /* \"#utility.yul\":15961:15979   */\n      0x44\n      dup3\n      add\n        /* \"#utility.yul\":15954:16016   */\n      mstore\n        /* \"#utility.yul\":16052:16086   */\n      0x657220696e20416374697665204d61726b6574204974656d7320436f756e7420\n        /* \"#utility.yul\":16032:16050   */\n      0x64\n      dup3\n      add\n        /* \"#utility.yul\":16025:16087   */\n      mstore\n      shl(0xa0, 0x72616e67652028312e2e4e29)\n        /* \"#utility.yul\":16103:16122   */\n      0x84\n      dup3\n      add\n        /* \"#utility.yul\":16096:16139   */\n      mstore\n        /* \"#utility.yul\":16156:16175   */\n      0xa4\n      add\n        /* \"contracts/scMarketplace.sol\":11195:11332  require(position >= 1 && position <= _activeItems.length, \"Position should be positive number in Active Market Items Count range (1..N)\") */\n      tag_136\n        /* \"#utility.yul\":15701:16181   */\n      jump\n        /* \"contracts/scMarketplace.sol\":11195:11332  require(position >= 1 && position <= _activeItems.length, \"Position should be positive number in Active Market Items Count range (1..N)\") */\n    tag_248:\n        /* \"contracts/scMarketplace.sol\":11346:11352  _items */\n      0x04\n        /* \"contracts/scMarketplace.sol\":11346:11380  _items[_activeItems[position - 1]] */\n      0x00\n        /* \"contracts/scMarketplace.sol\":11353:11365  _activeItems */\n      0x05\n        /* \"contracts/scMarketplace.sol\":11366:11378  position - 1 */\n      tag_251\n        /* \"contracts/scMarketplace.sol\":11377:11378  1 */\n      0x01\n        /* \"contracts/scMarketplace.sol\":11366:11374  position */\n      dup7\n        /* \"contracts/scMarketplace.sol\":11366:11378  position - 1 */\n      tag_252\n      jump\t// in\n    tag_251:\n        /* \"contracts/scMarketplace.sol\":11353:11379  _activeItems[position - 1] */\n      dup2\n      sload\n      dup2\n      lt\n      tag_254\n      jumpi\n      tag_254\n      tag_178\n      jump\t// in\n    tag_254:\n      0x00\n      swap2\n      dup3\n      mstore\n      0x20\n      dup1\n      dup4\n      keccak256\n      swap1\n      swap2\n      add\n      sload\n        /* \"contracts/scMarketplace.sol\":11346:11380  _items[_activeItems[position - 1]] */\n      dup4\n      mstore\n      dup3\n      dup2\n      add\n      swap4\n      swap1\n      swap4\n      mstore\n      0x40\n      swap2\n      dup3\n      add\n      swap1\n      keccak256\n        /* \"contracts/scMarketplace.sol\":11339:11380  return _items[_activeItems[position - 1]] */\n      dup2\n      mload\n      0x0180\n      dup2\n      add\n      dup4\n      mstore\n      dup2\n      sload\n      dup2\n      mstore\n      0x01\n      dup3\n      add\n      sload\n      sub(shl(0xa0, 0x01), 0x01)\n      swap1\n      dup2\n      and\n      swap5\n      dup3\n      add\n      swap5\n      swap1\n      swap5\n      mstore\n      0x02\n      dup3\n      add\n      sload\n      swap3\n      dup2\n      add\n      swap3\n      swap1\n      swap3\n      mstore\n      0x03\n      dup1\n      dup3\n      add\n      sload\n      dup5\n      and\n      0x60\n      dup5\n      add\n      mstore\n      0x04\n      dup3\n      add\n      sload\n      dup5\n      and\n      0x80\n      dup5\n      add\n      mstore\n      0x05\n      dup3\n      add\n      sload\n      swap1\n      swap4\n      and\n      0xa0\n      dup4\n      add\n      mstore\n      0x06\n      dup2\n      add\n      sload\n      0xc0\n      dup4\n      add\n      mstore\n      0x07\n      dup2\n      add\n      sload\n      swap2\n      swap3\n        /* \"contracts/scMarketplace.sol\":11346:11380  _items[_activeItems[position - 1]] */\n      swap1\n      swap2\n        /* \"contracts/scMarketplace.sol\":11339:11380  return _items[_activeItems[position - 1]] */\n      0xe0\n      dup5\n      add\n      swap2\n      0xff\n      swap1\n      swap2\n      and\n      swap1\n      dup2\n      gt\n      iszero\n      tag_257\n      jumpi\n      tag_257\n      tag_221\n      jump\t// in\n    tag_257:\n      0x03\n      dup2\n      gt\n      iszero\n      tag_259\n      jumpi\n      tag_259\n      tag_221\n      jump\t// in\n    tag_259:\n      dup2\n      mstore\n      0x20\n      add\n      0x08\n      dup3\n      add\n      sload\n      dup2\n      mstore\n      0x20\n      add\n      0x09\n      dup3\n      add\n      sload\n      dup2\n      mstore\n      0x20\n      add\n      0x0a\n      dup3\n      add\n      sload\n      dup2\n      mstore\n      0x20\n      add\n      0x0b\n      dup3\n      add\n      dup1\n      sload\n      dup1\n      0x20\n      mul\n      0x20\n      add\n      mload(0x40)\n      swap1\n      dup2\n      add\n      0x40\n      mstore\n      dup1\n      swap3\n      swap2\n      swap1\n      dup2\n      dup2\n      mstore\n      0x20\n      add\n      dup3\n      dup1\n      sload\n      dup1\n      iszero\n      tag_260\n      jumpi\n      0x20\n      mul\n      dup3\n      add\n      swap2\n      swap1\n      0x00\n      mstore\n      keccak256(0x00, 0x20)\n      swap1\n    tag_261:\n      dup2\n      sload\n      sub(shl(0xa0, 0x01), 0x01)\n      and\n      dup2\n      mstore\n      0x01\n      swap1\n      swap2\n      add\n      swap1\n      0x20\n      add\n      dup1\n      dup4\n      gt\n      tag_261\n      jumpi\n    tag_260:\n      pop\n      pop\n      pop\n      pop\n      pop\n      dup2\n      mstore\n      pop\n      pop\n      swap1\n      pop\n        /* \"contracts/scMarketplace.sol\":11017:11386  function getActiveMarketItem(uint256 position) public view returns (MarketItem memory) {... */\n      swap2\n      swap1\n      pop\n      jump\t// out\n        /* \"contracts/scMarketplace.sol\":10341:10447  function getRate() public view returns (MarketRate memory) {... */\n    tag_76:\n        /* \"contracts/scMarketplace.sol\":10381:10398  MarketRate memory */\n      tag_262\n      mload(0x40)\n      dup1\n      0x80\n      add\n      0x40\n      mstore\n      dup1\n      iszero(iszero(0x00))\n      dup2\n      mstore\n      0x20\n      add\n      0x00\n      dup2\n      mstore\n      0x20\n      add\n      0x00\n      dup2\n      mstore\n      0x20\n      add\n      0x00\n      dup2\n      mstore\n      pop\n      swap1\n      jump\n    tag_262:\n        /* \"contracts/scMarketplace.sol\":10414:10441  _getValidRate(_msgSender()) */\n      tag_214\n        /* \"@openzeppelin/contracts/utils/Context.sol\":719:729  msg.sender */\n      caller\n        /* \"contracts/scMarketplace.sol\":10414:10427  _getValidRate */\n      tag_156\n        /* \"contracts/scMarketplace.sol\":10414:10441  _getValidRate(_msgSender()) */\n      jump\t// in\n        /* \"contracts/scMarketplace.sol\":11826:11940  function setMaxItemsForSale(uint maxItemsForSale) public onlyOwner {... */\n    tag_86:\n        /* \"@openzeppelin/contracts/access/Ownable.sol\":1094:1107  _checkOwner() */\n      tag_269\n        /* \"@openzeppelin/contracts/access/Ownable.sol\":1094:1105  _checkOwner */\n      tag_206\n        /* \"@openzeppelin/contracts/access/Ownable.sol\":1094:1107  _checkOwner() */\n      jump\t// in\n    tag_269:\n        /* \"contracts/scMarketplace.sol\":11900:11916  _maxItemsForSale */\n      0x09\n        /* \"contracts/scMarketplace.sol\":11900:11934  _maxItemsForSale = maxItemsForSale */\n      sstore\n        /* \"contracts/scMarketplace.sol\":11826:11940  function setMaxItemsForSale(uint maxItemsForSale) public onlyOwner {... */\n      jump\t// out\n        /* \"@openzeppelin/contracts/access/Ownable.sol\":1831:1932  function renounceOwnership() public virtual onlyOwner {... */\n    tag_89:\n        /* \"@openzeppelin/contracts/access/Ownable.sol\":1094:1107  _checkOwner() */\n      tag_272\n        /* \"@openzeppelin/contracts/access/Ownable.sol\":1094:1105  _checkOwner */\n      tag_206\n        /* \"@openzeppelin/contracts/access/Ownable.sol\":1094:1107  _checkOwner() */\n      jump\t// in\n    tag_272:\n        /* \"@openzeppelin/contracts/access/Ownable.sol\":1895:1925  _transferOwnership(address(0)) */\n      tag_274\n        /* \"@openzeppelin/contracts/access/Ownable.sol\":1922:1923  0 */\n      0x00\n        /* \"@openzeppelin/contracts/access/Ownable.sol\":1895:1913  _transferOwnership */\n      tag_275\n        /* \"@openzeppelin/contracts/access/Ownable.sol\":1895:1925  _transferOwnership(address(0)) */\n      jump\t// in\n    tag_274:\n        /* \"@openzeppelin/contracts/access/Ownable.sol\":1831:1932  function renounceOwnership() public virtual onlyOwner {... */\n      jump\t// out\n        /* \"contracts/scMarketplace.sol\":9421:10147  function cancelMarketItem(uint256 marketItemId) public payable idExists(marketItemId) isActive(marketItemId) nonReentrant {... */\n    tag_97:\n        /* \"contracts/scMarketplace.sol\":9493:9505  marketItemId */\n      dup1\n        /* \"contracts/scMarketplace.sol\":4045:4046  0 */\n      0x00\n        /* \"contracts/scMarketplace.sol\":4030:4042  marketItemId */\n      dup2\n        /* \"contracts/scMarketplace.sol\":4030:4046  marketItemId > 0 */\n      gt\n        /* \"contracts/scMarketplace.sol\":4030:4084  marketItemId > 0 && marketItemId <= _itemIds.current() */\n      dup1\n      iszero\n      tag_278\n      jumpi\n      pop\n        /* \"contracts/scMarketplace.sol\":4066:4074  _itemIds */\n      0x03\n        /* \"@openzeppelin/contracts/utils/Counters.sol\":918:932  counter._value */\n      sload\n        /* \"contracts/scMarketplace.sol\":4050:4062  marketItemId */\n      dup2\n        /* \"contracts/scMarketplace.sol\":4050:4084  marketItemId <= _itemIds.current() */\n      gt\n      iszero\n        /* \"contracts/scMarketplace.sol\":4030:4084  marketItemId > 0 && marketItemId <= _itemIds.current() */\n    tag_278:\n        /* \"contracts/scMarketplace.sol\":4022:4112  require(marketItemId > 0 && marketItemId <= _itemIds.current(), \"Invalid Market Item ID!\") */\n      tag_280\n      jumpi\n      mload(0x40)\n      shl(0xe5, 0x461bcd)\n      dup2\n      mstore\n      0x04\n      add\n      tag_136\n      swap1\n      tag_282\n      jump\t// in\n    tag_280:\n        /* \"contracts/scMarketplace.sol\":9516:9528  marketItemId */\n      dup2\n        /* \"contracts/scMarketplace.sol\":4218:4241  MarketItemStatus.Active */\n      0x00\n        /* \"contracts/scMarketplace.sol\":4187:4207  _items[marketItemId] */\n      dup1\n      dup3\n      dup2\n      mstore\n        /* \"contracts/scMarketplace.sol\":4187:4193  _items */\n      0x04\n        /* \"contracts/scMarketplace.sol\":4187:4207  _items[marketItemId] */\n      0x20\n      mstore\n      0x40\n      swap1\n      keccak256\n        /* \"contracts/scMarketplace.sol\":4187:4214  _items[marketItemId].status */\n      0x07\n      add\n      sload\n      0xff\n      and\n        /* \"contracts/scMarketplace.sol\":4187:4241  _items[marketItemId].status == MarketItemStatus.Active */\n      0x03\n      dup2\n      gt\n      iszero\n      tag_287\n      jumpi\n      tag_287\n      tag_221\n      jump\t// in\n    tag_287:\n      eq\n        /* \"contracts/scMarketplace.sol\":4179:4271  require(_items[marketItemId].status == MarketItemStatus.Active, \"Market Item is not Active\") */\n      tag_288\n      jumpi\n      mload(0x40)\n      shl(0xe5, 0x461bcd)\n      dup2\n      mstore\n      0x04\n      add\n      tag_136\n      swap1\n      tag_290\n      jump\t// in\n    tag_288:\n        /* \"@openzeppelin/contracts/security/ReentrancyGuard.sol\":1744:1745  2 */\n      0x02\n        /* \"@openzeppelin/contracts/security/ReentrancyGuard.sol\":2325:2332  _status */\n      dup1\n      sload\n        /* \"@openzeppelin/contracts/security/ReentrancyGuard.sol\":2325:2344  _status != _ENTERED */\n      sub\n        /* \"@openzeppelin/contracts/security/ReentrancyGuard.sol\":2317:2380  require(_status != _ENTERED, \"ReentrancyGuard: reentrant call\") */\n      tag_292\n      jumpi\n      mload(0x40)\n      shl(0xe5, 0x461bcd)\n      dup2\n      mstore\n      0x04\n      add\n      tag_136\n      swap1\n      tag_294\n      jump\t// in\n    tag_292:\n        /* \"@openzeppelin/contracts/security/ReentrancyGuard.sol\":1744:1745  2 */\n      0x02\n        /* \"@openzeppelin/contracts/security/ReentrancyGuard.sol\":2455:2473  _status = _ENTERED */\n      dup1\n      sstore\n        /* \"contracts/scMarketplace.sol\":9592:9614  address payable seller */\n      0x00\n        /* \"contracts/scMarketplace.sol\":9617:9637  _items[marketItemId] */\n      dup4\n      dup2\n      mstore\n        /* \"contracts/scMarketplace.sol\":9617:9623  _items */\n      0x04\n        /* \"contracts/scMarketplace.sol\":9617:9637  _items[marketItemId] */\n      0x20\n      mstore\n      0x40\n      swap1\n      keccak256\n        /* \"contracts/scMarketplace.sol\":9617:9644  _items[marketItemId].seller */\n      0x03\n      add\n      sload\n      sub(shl(0xa0, 0x01), 0x01)\n      and\n        /* \"@openzeppelin/contracts/utils/Context.sol\":719:729  msg.sender */\n      caller\n        /* \"contracts/scMarketplace.sol\":9722:9744  _msgSender() == seller */\n      dup2\n      eq\n        /* \"contracts/scMarketplace.sol\":9714:9783  require(_msgSender() == seller, \"Only Seller can cancel Market Item\") */\n      tag_297\n      jumpi\n      mload(0x40)\n      shl(0xe5, 0x461bcd)\n      dup2\n      mstore\n        /* \"#utility.yul\":17584:17586   */\n      0x20\n        /* \"contracts/scMarketplace.sol\":9714:9783  require(_msgSender() == seller, \"Only Seller can cancel Market Item\") */\n      0x04\n      dup3\n      add\n        /* \"#utility.yul\":17566:17587   */\n      mstore\n        /* \"#utility.yul\":17623:17625   */\n      0x22\n        /* \"#utility.yul\":17603:17621   */\n      0x24\n      dup3\n      add\n        /* \"#utility.yul\":17596:17626   */\n      mstore\n        /* \"#utility.yul\":17662:17696   */\n      0x4f6e6c792053656c6c65722063616e2063616e63656c204d61726b6574204974\n        /* \"#utility.yul\":17642:17660   */\n      0x44\n      dup3\n      add\n        /* \"#utility.yul\":17635:17697   */\n      mstore\n      shl(0xf0, 0x656d)\n        /* \"#utility.yul\":17713:17731   */\n      0x64\n      dup3\n      add\n        /* \"#utility.yul\":17706:17738   */\n      mstore\n        /* \"#utility.yul\":17755:17774   */\n      0x84\n      add\n        /* \"contracts/scMarketplace.sol\":9714:9783  require(_msgSender() == seller, \"Only Seller can cancel Market Item\") */\n      tag_136\n        /* \"#utility.yul\":17382:17780   */\n      jump\n        /* \"contracts/scMarketplace.sol\":9714:9783  require(_msgSender() == seller, \"Only Seller can cancel Market Item\") */\n    tag_297:\n        /* \"contracts/scMarketplace.sol\":9821:9840  uint256 cancelPrice */\n      0x00\n        /* \"contracts/scMarketplace.sol\":9843:9864  _getValidRate(seller) */\n      tag_300\n        /* \"contracts/scMarketplace.sol\":9857:9863  seller */\n      dup3\n        /* \"contracts/scMarketplace.sol\":9843:9856  _getValidRate */\n      tag_156\n        /* \"contracts/scMarketplace.sol\":9843:9864  _getValidRate(seller) */\n      jump\t// in\n    tag_300:\n        /* \"contracts/scMarketplace.sol\":9843:9876  _getValidRate(seller).cancelPrice */\n      0x40\n      add\n      mload\n        /* \"contracts/scMarketplace.sol\":9821:9876  uint256 cancelPrice = _getValidRate(seller).cancelPrice */\n      swap1\n      pop\n        /* \"contracts/scMarketplace.sol\":9925:10024  _chargeFunds(cancelPrice, \"Cancel Price should be sent to cancel NFT placement on the Marketplace\") */\n      tag_301\n        /* \"contracts/scMarketplace.sol\":9938:9949  cancelPrice */\n      dup2\n        /* \"contracts/scMarketplace.sol\":9925:10024  _chargeFunds(cancelPrice, \"Cancel Price should be sent to cancel NFT placement on the Marketplace\") */\n      mload(0x40)\n      dup1\n      0x80\n      add\n      0x40\n      mstore\n      dup1\n      0x46\n      dup2\n      mstore\n      0x20\n      add\n      data_cd5fbf7c960197202c89a7323f376133bf98ea0f253905bbc1002edcae373b58\n      0x46\n      swap2\n      codecopy\n        /* \"contracts/scMarketplace.sol\":9925:9937  _chargeFunds */\n      tag_158\n        /* \"contracts/scMarketplace.sol\":9925:10024  _chargeFunds(cancelPrice, \"Cancel Price should be sent to cancel NFT placement on the Marketplace\") */\n      jump\t// in\n    tag_301:\n        /* \"contracts/scMarketplace.sol\":10082:10141  _removeMarketItem(marketItemId, MarketItemStatus.Cancelled) */\n      tag_302\n        /* \"contracts/scMarketplace.sol\":10100:10112  marketItemId */\n      dup6\n        /* \"contracts/scMarketplace.sol\":10114:10140  MarketItemStatus.Cancelled */\n      0x02\n        /* \"contracts/scMarketplace.sol\":10082:10099  _removeMarketItem */\n      tag_303\n        /* \"contracts/scMarketplace.sol\":10082:10141  _removeMarketItem(marketItemId, MarketItemStatus.Cancelled) */\n      jump\t// in\n    tag_302:\n      pop\n      pop\n        /* \"@openzeppelin/contracts/security/ReentrancyGuard.sol\":1701:1702  1 */\n      0x01\n        /* \"@openzeppelin/contracts/security/ReentrancyGuard.sol\":2628:2635  _status */\n      0x02\n        /* \"@openzeppelin/contracts/security/ReentrancyGuard.sol\":2628:2650  _status = _NOT_ENTERED */\n      sstore\n      pop\n      pop\n      pop\n        /* \"contracts/scMarketplace.sol\":9421:10147  function cancelMarketItem(uint256 marketItemId) public payable idExists(marketItemId) isActive(marketItemId) nonReentrant {... */\n      jump\t// out\n        /* \"contracts/scMarketplace.sol\":12615:12856  function deleteMarketItem(uint256 marketItemId) public onlyOwner idExists(marketItemId) isActive(marketItemId) nonReentrant {... */\n    tag_101:\n        /* \"@openzeppelin/contracts/access/Ownable.sol\":1094:1107  _checkOwner() */\n      tag_305\n        /* \"@openzeppelin/contracts/access/Ownable.sol\":1094:1105  _checkOwner */\n      tag_206\n        /* \"@openzeppelin/contracts/access/Ownable.sol\":1094:1107  _checkOwner() */\n      jump\t// in\n    tag_305:\n        /* \"contracts/scMarketplace.sol\":12689:12701  marketItemId */\n      dup1\n        /* \"contracts/scMarketplace.sol\":4045:4046  0 */\n      0x00\n        /* \"contracts/scMarketplace.sol\":4030:4042  marketItemId */\n      dup2\n        /* \"contracts/scMarketplace.sol\":4030:4046  marketItemId > 0 */\n      gt\n        /* \"contracts/scMarketplace.sol\":4030:4084  marketItemId > 0 && marketItemId <= _itemIds.current() */\n      dup1\n      iszero\n      tag_307\n      jumpi\n      pop\n        /* \"contracts/scMarketplace.sol\":4066:4074  _itemIds */\n      0x03\n        /* \"@openzeppelin/contracts/utils/Counters.sol\":918:932  counter._value */\n      sload\n        /* \"contracts/scMarketplace.sol\":4050:4062  marketItemId */\n      dup2\n        /* \"contracts/scMarketplace.sol\":4050:4084  marketItemId <= _itemIds.current() */\n      gt\n      iszero\n        /* \"contracts/scMarketplace.sol\":4030:4084  marketItemId > 0 && marketItemId <= _itemIds.current() */\n    tag_307:\n        /* \"contracts/scMarketplace.sol\":4022:4112  require(marketItemId > 0 && marketItemId <= _itemIds.current(), \"Invalid Market Item ID!\") */\n      tag_309\n      jumpi\n      mload(0x40)\n      shl(0xe5, 0x461bcd)\n      dup2\n      mstore\n      0x04\n      add\n      tag_136\n      swap1\n      tag_282\n      jump\t// in\n    tag_309:\n        /* \"contracts/scMarketplace.sol\":12712:12724  marketItemId */\n      dup2\n        /* \"contracts/scMarketplace.sol\":4218:4241  MarketItemStatus.Active */\n      0x00\n        /* \"contracts/scMarketplace.sol\":4187:4207  _items[marketItemId] */\n      dup1\n      dup3\n      dup2\n      mstore\n        /* \"contracts/scMarketplace.sol\":4187:4193  _items */\n      0x04\n        /* \"contracts/scMarketplace.sol\":4187:4207  _items[marketItemId] */\n      0x20\n      mstore\n      0x40\n      swap1\n      keccak256\n        /* \"contracts/scMarketplace.sol\":4187:4214  _items[marketItemId].status */\n      0x07\n      add\n      sload\n      0xff\n      and\n        /* \"contracts/scMarketplace.sol\":4187:4241  _items[marketItemId].status == MarketItemStatus.Active */\n      0x03\n      dup2\n      gt\n      iszero\n      tag_315\n      jumpi\n      tag_315\n      tag_221\n      jump\t// in\n    tag_315:\n      eq\n        /* \"contracts/scMarketplace.sol\":4179:4271  require(_items[marketItemId].status == MarketItemStatus.Active, \"Market Item is not Active\") */\n      tag_316\n      jumpi\n      mload(0x40)\n      shl(0xe5, 0x461bcd)\n      dup2\n      mstore\n      0x04\n      add\n      tag_136\n      swap1\n      tag_290\n      jump\t// in\n    tag_316:\n        /* \"@openzeppelin/contracts/security/ReentrancyGuard.sol\":1744:1745  2 */\n      0x02\n        /* \"@openzeppelin/contracts/security/ReentrancyGuard.sol\":2325:2332  _status */\n      dup1\n      sload\n        /* \"@openzeppelin/contracts/security/ReentrancyGuard.sol\":2325:2344  _status != _ENTERED */\n      sub\n        /* \"@openzeppelin/contracts/security/ReentrancyGuard.sol\":2317:2380  require(_status != _ENTERED, \"ReentrancyGuard: reentrant call\") */\n      tag_319\n      jumpi\n      mload(0x40)\n      shl(0xe5, 0x461bcd)\n      dup2\n      mstore\n      0x04\n      add\n      tag_136\n      swap1\n      tag_294\n      jump\t// in\n    tag_319:\n        /* \"@openzeppelin/contracts/security/ReentrancyGuard.sol\":1744:1745  2 */\n      0x02\n        /* \"@openzeppelin/contracts/security/ReentrancyGuard.sol\":2455:2473  _status = _ENTERED */\n      dup1\n      sstore\n        /* \"contracts/scMarketplace.sol\":12793:12850  _removeMarketItem(marketItemId, MarketItemStatus.Deleted) */\n      tag_322\n        /* \"contracts/scMarketplace.sol\":12811:12823  marketItemId */\n      dup4\n        /* \"contracts/scMarketplace.sol\":12825:12849  MarketItemStatus.Deleted */\n      0x03\n        /* \"contracts/scMarketplace.sol\":12793:12810  _removeMarketItem */\n      tag_303\n        /* \"contracts/scMarketplace.sol\":12793:12850  _removeMarketItem(marketItemId, MarketItemStatus.Deleted) */\n      jump\t// in\n    tag_322:\n      pop\n      pop\n        /* \"@openzeppelin/contracts/security/ReentrancyGuard.sol\":1701:1702  1 */\n      0x01\n        /* \"@openzeppelin/contracts/security/ReentrancyGuard.sol\":2628:2635  _status */\n      0x02\n        /* \"@openzeppelin/contracts/security/ReentrancyGuard.sol\":2628:2650  _status = _NOT_ENTERED */\n      sstore\n      pop\n        /* \"contracts/scMarketplace.sol\":12615:12856  function deleteMarketItem(uint256 marketItemId) public onlyOwner idExists(marketItemId) isActive(marketItemId) nonReentrant {... */\n      jump\t// out\n        /* \"contracts/scBeneficiary.sol\":2170:3267  function sendFunds(uint256 amount, address tokenContract) public virtual onlyOwner {... */\n    tag_110:\n        /* \"@openzeppelin/contracts/access/Ownable.sol\":1094:1107  _checkOwner() */\n      tag_324\n        /* \"@openzeppelin/contracts/access/Ownable.sol\":1094:1105  _checkOwner */\n      tag_206\n        /* \"@openzeppelin/contracts/access/Ownable.sol\":1094:1107  _checkOwner() */\n      jump\t// in\n    tag_324:\n        /* \"contracts/scBeneficiary.sol\":2268:2290  _isBeneficiaryExists() */\n      tag_326\n        /* \"contracts/scBeneficiary.sol\":2268:2288  _isBeneficiaryExists */\n      tag_327\n        /* \"contracts/scBeneficiary.sol\":2268:2290  _isBeneficiaryExists() */\n      jump\t// in\n    tag_326:\n        /* \"contracts/scBeneficiary.sol\":2260:2327  require(_isBeneficiaryExists(), \"Beneficiary should be specified!\") */\n      tag_328\n      jumpi\n      mload(0x40)\n      shl(0xe5, 0x461bcd)\n      dup2\n      mstore\n        /* \"#utility.yul\":17987:17989   */\n      0x20\n        /* \"contracts/scBeneficiary.sol\":2260:2327  require(_isBeneficiaryExists(), \"Beneficiary should be specified!\") */\n      0x04\n      dup3\n      add\n        /* \"#utility.yul\":17969:17990   */\n      dup2\n      swap1\n      mstore\n        /* \"#utility.yul\":18006:18024   */\n      0x24\n      dup3\n      add\n        /* \"#utility.yul\":17999:18029   */\n      mstore\n        /* \"#utility.yul\":18065:18099   */\n      0x42656e65666963696172792073686f756c642062652073706563696669656421\n        /* \"#utility.yul\":18045:18063   */\n      0x44\n      dup3\n      add\n        /* \"#utility.yul\":18038:18100   */\n      mstore\n        /* \"#utility.yul\":18117:18135   */\n      0x64\n      add\n        /* \"contracts/scBeneficiary.sol\":2260:2327  require(_isBeneficiaryExists(), \"Beneficiary should be specified!\") */\n      tag_136\n        /* \"#utility.yul\":17785:18141   */\n      jump\n        /* \"contracts/scBeneficiary.sol\":2260:2327  require(_isBeneficiaryExists(), \"Beneficiary should be specified!\") */\n    tag_328:\n        /* \"contracts/scBeneficiary.sol\":2351:2352  0 */\n      0x00\n        /* \"contracts/scBeneficiary.sol\":2342:2348  amount */\n      dup3\n        /* \"contracts/scBeneficiary.sol\":2342:2352  amount > 0 */\n      gt\n        /* \"contracts/scBeneficiary.sol\":2334:2388  require(amount > 0, \"Send Amount should be positive!\") */\n      tag_331\n      jumpi\n      mload(0x40)\n      shl(0xe5, 0x461bcd)\n      dup2\n      mstore\n        /* \"#utility.yul\":18348:18350   */\n      0x20\n        /* \"contracts/scBeneficiary.sol\":2334:2388  require(amount > 0, \"Send Amount should be positive!\") */\n      0x04\n      dup3\n      add\n        /* \"#utility.yul\":18330:18351   */\n      mstore\n        /* \"#utility.yul\":18387:18389   */\n      0x1f\n        /* \"#utility.yul\":18367:18385   */\n      0x24\n      dup3\n      add\n        /* \"#utility.yul\":18360:18390   */\n      mstore\n        /* \"#utility.yul\":18426:18459   */\n      0x53656e6420416d6f756e742073686f756c6420626520706f7369746976652100\n        /* \"#utility.yul\":18406:18424   */\n      0x44\n      dup3\n      add\n        /* \"#utility.yul\":18399:18460   */\n      mstore\n        /* \"#utility.yul\":18477:18495   */\n      0x64\n      add\n        /* \"contracts/scBeneficiary.sol\":2334:2388  require(amount > 0, \"Send Amount should be positive!\") */\n      tag_136\n        /* \"#utility.yul\":18146:18501   */\n      jump\n        /* \"contracts/scBeneficiary.sol\":2334:2388  require(amount > 0, \"Send Amount should be positive!\") */\n    tag_331:\n        /* \"contracts/scBeneficiary.sol\":2463:2467  this */\n      address\n      sub(shl(0xa0, 0x01), 0x01)\n        /* \"contracts/scBeneficiary.sol\":2481:2508  tokenContract == address(0) */\n      dup3\n      and\n        /* \"contracts/scBeneficiary.sol\":2477:3262  if (tokenContract == address(0)) {... */\n      tag_334\n      jumpi\n      sub(shl(0xa0, 0x01), 0x01)\n        /* \"contracts/scBeneficiary.sol\":2594:2609  current.balance */\n      dup2\n      and\n      balance\n        /* \"contracts/scBeneficiary.sol\":2626:2643  balance >= amount */\n      dup4\n      dup2\n      lt\n      iszero\n        /* \"contracts/scBeneficiary.sol\":2618:2706  require(balance >= amount, \"Send Amount exceeds Smart Contract's native token balance!\") */\n      tag_335\n      jumpi\n      mload(0x40)\n      shl(0xe5, 0x461bcd)\n      dup2\n      mstore\n        /* \"#utility.yul\":18708:18710   */\n      0x20\n        /* \"contracts/scBeneficiary.sol\":2618:2706  require(balance >= amount, \"Send Amount exceeds Smart Contract's native token balance!\") */\n      0x04\n      dup3\n      add\n        /* \"#utility.yul\":18690:18711   */\n      mstore\n        /* \"#utility.yul\":18747:18749   */\n      0x3a\n        /* \"#utility.yul\":18727:18745   */\n      0x24\n      dup3\n      add\n        /* \"#utility.yul\":18720:18750   */\n      mstore\n        /* \"#utility.yul\":18786:18820   */\n      0x53656e6420416d6f756e74206578636565647320536d61727420436f6e747261\n        /* \"#utility.yul\":18766:18784   */\n      0x44\n      dup3\n      add\n        /* \"#utility.yul\":18759:18821   */\n      mstore\n        /* \"#utility.yul\":18857:18885   */\n      0x63742773206e617469766520746f6b656e2062616c616e636521000000000000\n        /* \"#utility.yul\":18837:18855   */\n      0x64\n      dup3\n      add\n        /* \"#utility.yul\":18830:18886   */\n      mstore\n        /* \"#utility.yul\":18903:18922   */\n      0x84\n      add\n        /* \"contracts/scBeneficiary.sol\":2618:2706  require(balance >= amount, \"Send Amount exceeds Smart Contract's native token balance!\") */\n      tag_136\n        /* \"#utility.yul\":18506:18928   */\n      jump\n        /* \"contracts/scBeneficiary.sol\":2618:2706  require(balance >= amount, \"Send Amount exceeds Smart Contract's native token balance!\") */\n    tag_335:\n        /* \"contracts/scBeneficiary.sol\":2767:2779  _beneficiary */\n      0x01\n        /* \"contracts/scBeneficiary.sol\":2767:2789  _beneficiary.recipient */\n      sload\n        /* \"contracts/scBeneficiary.sol\":2767:2806  _beneficiary.recipient.transfer(amount) */\n      mload(0x40)\n        /* \"contracts/scBeneficiary.sol\":2767:2789  _beneficiary.recipient */\n      0x0100\n      swap1\n      swap2\n      div\n      sub(shl(0xa0, 0x01), 0x01)\n      and\n      swap1\n        /* \"contracts/scBeneficiary.sol\":2767:2806  _beneficiary.recipient.transfer(amount) */\n      0x08fc\n      dup7\n      iszero\n      mul\n      swap1\n      dup7\n      swap1\n        /* \"contracts/scBeneficiary.sol\":2767:2789  _beneficiary.recipient */\n      0x00\n        /* \"contracts/scBeneficiary.sol\":2767:2806  _beneficiary.recipient.transfer(amount) */\n      dup2\n        /* \"contracts/scBeneficiary.sol\":2767:2789  _beneficiary.recipient */\n      dup2\n        /* \"contracts/scBeneficiary.sol\":2767:2806  _beneficiary.recipient.transfer(amount) */\n      dup2\n      dup6\n        /* \"contracts/scBeneficiary.sol\":2767:2789  _beneficiary.recipient */\n      dup9\n        /* \"contracts/scBeneficiary.sol\":2767:2806  _beneficiary.recipient.transfer(amount) */\n      dup9\n      call\n      swap4\n      pop\n      pop\n      pop\n      pop\n      iszero\n      dup1\n      iszero\n      tag_339\n      jumpi\n      returndatasize\n      0x00\n      dup1\n      returndatacopy\n      revert(0x00, returndatasize)\n    tag_339:\n      pop\n        /* \"contracts/scBeneficiary.sol\":2510:2814  {... */\n      pop\n        /* \"contracts/scBeneficiary.sol\":2253:3267  {... */\n      pop\n        /* \"contracts/scBeneficiary.sol\":2170:3267  function sendFunds(uint256 amount, address tokenContract) public virtual onlyOwner {... */\n      pop\n      pop\n      jump\t// out\n        /* \"contracts/scBeneficiary.sol\":2477:3262  if (tokenContract == address(0)) {... */\n    tag_334:\n        /* \"contracts/scBeneficiary.sol\":3002:3038  hostTokenContract.balanceOf(current) */\n      mload(0x40)\n      shl(0xe0, 0x70a08231)\n      dup2\n      mstore\n      sub(shl(0xa0, 0x01), 0x01)\n        /* \"#utility.yul\":9888:9920   */\n      dup3\n      dup2\n      and\n        /* \"contracts/scBeneficiary.sol\":3002:3038  hostTokenContract.balanceOf(current) */\n      0x04\n      dup4\n      add\n        /* \"#utility.yul\":9870:9921   */\n      mstore\n        /* \"contracts/scBeneficiary.sol\":2904:2917  tokenContract */\n      dup4\n      swap2\n        /* \"contracts/scBeneficiary.sol\":2870:2894  IERC20 hostTokenContract */\n      0x00\n      swap2\n        /* \"contracts/scBeneficiary.sol\":3002:3029  hostTokenContract.balanceOf */\n      dup4\n      and\n      swap1\n      0x70a08231\n      swap1\n        /* \"#utility.yul\":9843:9861   */\n      0x24\n      add\n        /* \"contracts/scBeneficiary.sol\":3002:3038  hostTokenContract.balanceOf(current) */\n      0x20\n      mload(0x40)\n      dup1\n      dup4\n      sub\n      dup2\n      dup7\n      gas\n      staticcall\n      iszero\n      dup1\n      iszero\n      tag_343\n      jumpi\n      returndatasize\n      0x00\n      dup1\n      returndatacopy\n      revert(0x00, returndatasize)\n    tag_343:\n      pop\n      pop\n      pop\n      pop\n      mload(0x40)\n      returndatasize\n      not(0x1f)\n      0x1f\n      dup3\n      add\n      and\n      dup3\n      add\n      dup1\n      0x40\n      mstore\n      pop\n      dup2\n      add\n      swap1\n      tag_344\n      swap2\n      swap1\n      tag_345\n      jump\t// in\n    tag_344:\n        /* \"contracts/scBeneficiary.sol\":2984:3038  uint256 balance = hostTokenContract.balanceOf(current) */\n      swap1\n      pop\n        /* \"contracts/scBeneficiary.sol\":3066:3072  amount */\n      dup5\n        /* \"contracts/scBeneficiary.sol\":3055:3062  balance */\n      dup2\n        /* \"contracts/scBeneficiary.sol\":3055:3072  balance >= amount */\n      lt\n      iszero\n        /* \"contracts/scBeneficiary.sol\":3047:3135  require(balance >= amount, \"Send Amount exceeds Smart Contract's ERC-20 token balance!\") */\n      tag_346\n      jumpi\n      mload(0x40)\n      shl(0xe5, 0x461bcd)\n      dup2\n      mstore\n        /* \"#utility.yul\":19324:19326   */\n      0x20\n        /* \"contracts/scBeneficiary.sol\":3047:3135  require(balance >= amount, \"Send Amount exceeds Smart Contract's ERC-20 token balance!\") */\n      0x04\n      dup3\n      add\n        /* \"#utility.yul\":19306:19327   */\n      mstore\n        /* \"#utility.yul\":19363:19365   */\n      0x3a\n        /* \"#utility.yul\":19343:19361   */\n      0x24\n      dup3\n      add\n        /* \"#utility.yul\":19336:19366   */\n      mstore\n        /* \"#utility.yul\":19402:19436   */\n      0x53656e6420416d6f756e74206578636565647320536d61727420436f6e747261\n        /* \"#utility.yul\":19382:19400   */\n      0x44\n      dup3\n      add\n        /* \"#utility.yul\":19375:19437   */\n      mstore\n        /* \"#utility.yul\":19473:19501   */\n      0x63742773204552432d323020746f6b656e2062616c616e636521000000000000\n        /* \"#utility.yul\":19453:19471   */\n      0x64\n      dup3\n      add\n        /* \"#utility.yul\":19446:19502   */\n      mstore\n        /* \"#utility.yul\":19519:19538   */\n      0x84\n      add\n        /* \"contracts/scBeneficiary.sol\":3047:3135  require(balance >= amount, \"Send Amount exceeds Smart Contract's ERC-20 token balance!\") */\n      tag_136\n        /* \"#utility.yul\":19122:19544   */\n      jump\n        /* \"contracts/scBeneficiary.sol\":3047:3135  require(balance >= amount, \"Send Amount exceeds Smart Contract's ERC-20 token balance!\") */\n    tag_346:\n        /* \"contracts/scBeneficiary.sol\":3223:3235  _beneficiary */\n      0x01\n        /* \"contracts/scBeneficiary.sol\":3223:3245  _beneficiary.recipient */\n      sload\n        /* \"contracts/scBeneficiary.sol\":3192:3254  hostTokenContract.safeTransfer(_beneficiary.recipient, amount) */\n      tag_339\n      swap1\n      sub(shl(0xa0, 0x01), 0x01)\n        /* \"contracts/scBeneficiary.sol\":3192:3222  hostTokenContract.safeTransfer */\n      dup5\n      dup2\n      and\n      swap2\n        /* \"contracts/scBeneficiary.sol\":3223:3245  _beneficiary.recipient */\n      0x0100\n      swap1\n      div\n      and\n        /* \"contracts/scBeneficiary.sol\":3247:3253  amount */\n      dup8\n        /* \"contracts/scBeneficiary.sol\":3192:3222  hostTokenContract.safeTransfer */\n      tag_350\n        /* \"contracts/scBeneficiary.sol\":3192:3254  hostTokenContract.safeTransfer(_beneficiary.recipient, amount) */\n      jump\t// in\n        /* \"contracts/scBeneficiary.sol\":2477:3262  if (tokenContract == address(0)) {... */\n    tag_340:\n        /* \"contracts/scBeneficiary.sol\":2253:3267  {... */\n      pop\n        /* \"contracts/scBeneficiary.sol\":2170:3267  function sendFunds(uint256 amount, address tokenContract) public virtual onlyOwner {... */\n      pop\n      pop\n      jump\t// out\n        /* \"contracts/scMarketplace.sol\":11982:12106  function getCustomRate(address adr) public view onlyOwner returns (MarketRate memory){... */\n    tag_114:\n        /* \"contracts/scMarketplace.sol\":12049:12066  MarketRate memory */\n      tag_351\n      mload(0x40)\n      dup1\n      0x80\n      add\n      0x40\n      mstore\n      dup1\n      iszero(iszero(0x00))\n      dup2\n      mstore\n      0x20\n      add\n      0x00\n      dup2\n      mstore\n      0x20\n      add\n      0x00\n      dup2\n      mstore\n      0x20\n      add\n      0x00\n      dup2\n      mstore\n      pop\n      swap1\n      jump\n    tag_351:\n        /* \"@openzeppelin/contracts/access/Ownable.sol\":1094:1107  _checkOwner() */\n      tag_353\n        /* \"@openzeppelin/contracts/access/Ownable.sol\":1094:1105  _checkOwner */\n      tag_206\n        /* \"@openzeppelin/contracts/access/Ownable.sol\":1094:1107  _checkOwner() */\n      jump\t// in\n    tag_353:\n        /* \"contracts/scMarketplace.sol\":12081:12100  _getCustomRate(adr) */\n      tag_212\n        /* \"contracts/scMarketplace.sol\":12096:12099  adr */\n      dup3\n        /* \"contracts/scMarketplace.sol\":12081:12095  _getCustomRate */\n      tag_356\n        /* \"contracts/scMarketplace.sol\":12081:12100  _getCustomRate(adr) */\n      jump\t// in\n        /* \"contracts/scBeneficiary.sol\":1247:1450  function safeApproveERC20(address tokenContract, address spender, uint256 amount) public {... */\n    tag_120:\n        /* \"contracts/scBeneficiary.sol\":1377:1390  tokenContract */\n      dup3\n        /* \"contracts/scBeneficiary.sol\":1398:1444  hostTokenContract.safeApprove(spender, amount) */\n      tag_174\n      sub(shl(0xa0, 0x01), 0x01)\n        /* \"contracts/scBeneficiary.sol\":1398:1427  hostTokenContract.safeApprove */\n      dup3\n      and\n        /* \"contracts/scBeneficiary.sol\":1428:1435  spender */\n      dup5\n        /* \"contracts/scBeneficiary.sol\":1437:1443  amount */\n      dup5\n        /* \"contracts/scBeneficiary.sol\":1398:1427  hostTokenContract.safeApprove */\n      tag_359\n        /* \"contracts/scBeneficiary.sol\":1398:1444  hostTokenContract.safeApprove(spender, amount) */\n      jump\t// in\n        /* \"contracts/scMarketplace.sol\":10486:10634  function getMarketItem(uint256 marketItemId) public view idExists(marketItemId) returns (MarketItem memory) {... */\n    tag_124:\n        /* \"contracts/scMarketplace.sol\":10575:10592  MarketItem memory */\n      tag_360\n      tag_242\n      jump\t// in\n    tag_360:\n        /* \"contracts/scMarketplace.sol\":10552:10564  marketItemId */\n      dup2\n        /* \"contracts/scMarketplace.sol\":4045:4046  0 */\n      0x00\n        /* \"contracts/scMarketplace.sol\":4030:4042  marketItemId */\n      dup2\n        /* \"contracts/scMarketplace.sol\":4030:4046  marketItemId > 0 */\n      gt\n        /* \"contracts/scMarketplace.sol\":4030:4084  marketItemId > 0 && marketItemId <= _itemIds.current() */\n      dup1\n      iszero\n      tag_362\n      jumpi\n      pop\n        /* \"contracts/scMarketplace.sol\":4066:4074  _itemIds */\n      0x03\n        /* \"@openzeppelin/contracts/utils/Counters.sol\":918:932  counter._value */\n      sload\n        /* \"contracts/scMarketplace.sol\":4050:4062  marketItemId */\n      dup2\n        /* \"contracts/scMarketplace.sol\":4050:4084  marketItemId <= _itemIds.current() */\n      gt\n      iszero\n        /* \"contracts/scMarketplace.sol\":4030:4084  marketItemId > 0 && marketItemId <= _itemIds.current() */\n    tag_362:\n        /* \"contracts/scMarketplace.sol\":4022:4112  require(marketItemId > 0 && marketItemId <= _itemIds.current(), \"Invalid Market Item ID!\") */\n      tag_364\n      jumpi\n      mload(0x40)\n      shl(0xe5, 0x461bcd)\n      dup2\n      mstore\n      0x04\n      add\n      tag_136\n      swap1\n      tag_282\n      jump\t// in\n    tag_364:\n        /* \"contracts/scMarketplace.sol\":10608:10628  _items[marketItemId] */\n      0x00\n      dup4\n      dup2\n      mstore\n        /* \"contracts/scMarketplace.sol\":10608:10614  _items */\n      0x04\n        /* \"contracts/scMarketplace.sol\":10608:10628  _items[marketItemId] */\n      0x20\n      dup2\n      dup2\n      mstore\n      0x40\n      swap3\n      dup4\n      swap1\n      keccak256\n        /* \"contracts/scMarketplace.sol\":10601:10628  return _items[marketItemId] */\n      dup4\n      mload\n      0x0180\n      dup2\n      add\n      dup6\n      mstore\n      dup2\n      sload\n      dup2\n      mstore\n      0x01\n      dup3\n      add\n      sload\n      sub(shl(0xa0, 0x01), 0x01)\n      swap1\n      dup2\n      and\n      swap4\n      dup3\n      add\n      swap4\n      swap1\n      swap4\n      mstore\n      0x02\n      dup3\n      add\n      sload\n      swap5\n      dup2\n      add\n      swap5\n      swap1\n      swap5\n      mstore\n      0x03\n      dup1\n      dup3\n      add\n      sload\n      dup4\n      and\n      0x60\n      dup7\n      add\n      mstore\n      swap3\n      dup2\n      add\n      sload\n      dup3\n      and\n      0x80\n      dup6\n      add\n      mstore\n      0x05\n      dup2\n      add\n      sload\n      swap1\n      swap2\n      and\n      0xa0\n      dup5\n      add\n      mstore\n      0x06\n      dup2\n      add\n      sload\n      0xc0\n      dup5\n      add\n      mstore\n      0x07\n      dup2\n      add\n      sload\n        /* \"contracts/scMarketplace.sol\":10608:10628  _items[marketItemId] */\n      swap1\n      swap2\n        /* \"contracts/scMarketplace.sol\":10601:10628  return _items[marketItemId] */\n      0xe0\n      dup5\n      add\n      swap2\n      0xff\n      and\n      swap1\n      dup2\n      gt\n      iszero\n      tag_368\n      jumpi\n      tag_368\n      tag_221\n      jump\t// in\n    tag_368:\n      0x03\n      dup2\n      gt\n      iszero\n      tag_370\n      jumpi\n      tag_370\n      tag_221\n      jump\t// in\n    tag_370:\n      dup2\n      mstore\n      0x20\n      add\n      0x08\n      dup3\n      add\n      sload\n      dup2\n      mstore\n      0x20\n      add\n      0x09\n      dup3\n      add\n      sload\n      dup2\n      mstore\n      0x20\n      add\n      0x0a\n      dup3\n      add\n      sload\n      dup2\n      mstore\n      0x20\n      add\n      0x0b\n      dup3\n      add\n      dup1\n      sload\n      dup1\n      0x20\n      mul\n      0x20\n      add\n      mload(0x40)\n      swap1\n      dup2\n      add\n      0x40\n      mstore\n      dup1\n      swap3\n      swap2\n      swap1\n      dup2\n      dup2\n      mstore\n      0x20\n      add\n      dup3\n      dup1\n      sload\n      dup1\n      iszero\n      tag_371\n      jumpi\n      0x20\n      mul\n      dup3\n      add\n      swap2\n      swap1\n      0x00\n      mstore\n      keccak256(0x00, 0x20)\n      swap1\n    tag_372:\n      dup2\n      sload\n      sub(shl(0xa0, 0x01), 0x01)\n      and\n      dup2\n      mstore\n      0x01\n      swap1\n      swap2\n      add\n      swap1\n      0x20\n      add\n      dup1\n      dup4\n      gt\n      tag_372\n      jumpi\n    tag_371:\n      pop\n      pop\n      pop\n      pop\n      pop\n      dup2\n      mstore\n      pop\n      pop\n      swap2\n      pop\n        /* \"contracts/scMarketplace.sol\":10486:10634  function getMarketItem(uint256 marketItemId) public view idExists(marketItemId) returns (MarketItem memory) {... */\n      pop\n      swap2\n      swap1\n      pop\n      jump\t// out\n        /* \"@openzeppelin/contracts/access/Ownable.sol\":2081:2279  function transferOwnership(address newOwner) public virtual onlyOwner {... */\n    tag_129:\n        /* \"@openzeppelin/contracts/access/Ownable.sol\":1094:1107  _checkOwner() */\n      tag_374\n        /* \"@openzeppelin/contracts/access/Ownable.sol\":1094:1105  _checkOwner */\n      tag_206\n        /* \"@openzeppelin/contracts/access/Ownable.sol\":1094:1107  _checkOwner() */\n      jump\t// in\n    tag_374:\n      sub(shl(0xa0, 0x01), 0x01)\n        /* \"@openzeppelin/contracts/access/Ownable.sol\":2169:2191  newOwner != address(0) */\n      dup2\n      and\n        /* \"@openzeppelin/contracts/access/Ownable.sol\":2161:2234  require(newOwner != address(0), \"Ownable: new owner is the zero address\") */\n      tag_376\n      jumpi\n      mload(0x40)\n      shl(0xe5, 0x461bcd)\n      dup2\n      mstore\n        /* \"#utility.yul\":19751:19753   */\n      0x20\n        /* \"@openzeppelin/contracts/access/Ownable.sol\":2161:2234  require(newOwner != address(0), \"Ownable: new owner is the zero address\") */\n      0x04\n      dup3\n      add\n        /* \"#utility.yul\":19733:19754   */\n      mstore\n        /* \"#utility.yul\":19790:19792   */\n      0x26\n        /* \"#utility.yul\":19770:19788   */\n      0x24\n      dup3\n      add\n        /* \"#utility.yul\":19763:19793   */\n      mstore\n        /* \"#utility.yul\":19829:19863   */\n      0x4f776e61626c653a206e6577206f776e657220697320746865207a65726f2061\n        /* \"#utility.yul\":19809:19827   */\n      0x44\n      dup3\n      add\n        /* \"#utility.yul\":19802:19864   */\n      mstore\n      shl(0xd0, 0x646472657373)\n        /* \"#utility.yul\":19880:19898   */\n      0x64\n      dup3\n      add\n        /* \"#utility.yul\":19873:19909   */\n      mstore\n        /* \"#utility.yul\":19926:19945   */\n      0x84\n      add\n        /* \"@openzeppelin/contracts/access/Ownable.sol\":2161:2234  require(newOwner != address(0), \"Ownable: new owner is the zero address\") */\n      tag_136\n        /* \"#utility.yul\":19549:19951   */\n      jump\n        /* \"@openzeppelin/contracts/access/Ownable.sol\":2161:2234  require(newOwner != address(0), \"Ownable: new owner is the zero address\") */\n    tag_376:\n        /* \"@openzeppelin/contracts/access/Ownable.sol\":2244:2272  _transferOwnership(newOwner) */\n      tag_210\n        /* \"@openzeppelin/contracts/access/Ownable.sol\":2263:2271  newOwner */\n      dup2\n        /* \"@openzeppelin/contracts/access/Ownable.sol\":2244:2262  _transferOwnership */\n      tag_275\n        /* \"@openzeppelin/contracts/access/Ownable.sol\":2244:2272  _transferOwnership(newOwner) */\n      jump\t// in\n        /* \"contracts/scMarketplace.sol\":7350:9358  function makeMarketSale(uint256 marketItemId, uint partnerId) public payable idExists(marketItemId) isActive(marketItemId) nonReentrant {... */\n    tag_133:\n        /* \"contracts/scMarketplace.sol\":7436:7448  marketItemId */\n      dup2\n        /* \"contracts/scMarketplace.sol\":4045:4046  0 */\n      0x00\n        /* \"contracts/scMarketplace.sol\":4030:4042  marketItemId */\n      dup2\n        /* \"contracts/scMarketplace.sol\":4030:4046  marketItemId > 0 */\n      gt\n        /* \"contracts/scMarketplace.sol\":4030:4084  marketItemId > 0 && marketItemId <= _itemIds.current() */\n      dup1\n      iszero\n      tag_381\n      jumpi\n      pop\n        /* \"contracts/scMarketplace.sol\":4066:4074  _itemIds */\n      0x03\n        /* \"@openzeppelin/contracts/utils/Counters.sol\":918:932  counter._value */\n      sload\n        /* \"contracts/scMarketplace.sol\":4050:4062  marketItemId */\n      dup2\n        /* \"contracts/scMarketplace.sol\":4050:4084  marketItemId <= _itemIds.current() */\n      gt\n      iszero\n        /* \"contracts/scMarketplace.sol\":4030:4084  marketItemId > 0 && marketItemId <= _itemIds.current() */\n    tag_381:\n        /* \"contracts/scMarketplace.sol\":4022:4112  require(marketItemId > 0 && marketItemId <= _itemIds.current(), \"Invalid Market Item ID!\") */\n      tag_383\n      jumpi\n      mload(0x40)\n      shl(0xe5, 0x461bcd)\n      dup2\n      mstore\n      0x04\n      add\n      tag_136\n      swap1\n      tag_282\n      jump\t// in\n    tag_383:\n        /* \"contracts/scMarketplace.sol\":7459:7471  marketItemId */\n      dup3\n        /* \"contracts/scMarketplace.sol\":4218:4241  MarketItemStatus.Active */\n      0x00\n        /* \"contracts/scMarketplace.sol\":4187:4207  _items[marketItemId] */\n      dup1\n      dup3\n      dup2\n      mstore\n        /* \"contracts/scMarketplace.sol\":4187:4193  _items */\n      0x04\n        /* \"contracts/scMarketplace.sol\":4187:4207  _items[marketItemId] */\n      0x20\n      mstore\n      0x40\n      swap1\n      keccak256\n        /* \"contracts/scMarketplace.sol\":4187:4214  _items[marketItemId].status */\n      0x07\n      add\n      sload\n      0xff\n      and\n        /* \"contracts/scMarketplace.sol\":4187:4241  _items[marketItemId].status == MarketItemStatus.Active */\n      0x03\n      dup2\n      gt\n      iszero\n      tag_389\n      jumpi\n      tag_389\n      tag_221\n      jump\t// in\n    tag_389:\n      eq\n        /* \"contracts/scMarketplace.sol\":4179:4271  require(_items[marketItemId].status == MarketItemStatus.Active, \"Market Item is not Active\") */\n      tag_390\n      jumpi\n      mload(0x40)\n      shl(0xe5, 0x461bcd)\n      dup2\n      mstore\n      0x04\n      add\n      tag_136\n      swap1\n      tag_290\n      jump\t// in\n    tag_390:\n        /* \"@openzeppelin/contracts/security/ReentrancyGuard.sol\":1744:1745  2 */\n      0x02\n        /* \"@openzeppelin/contracts/security/ReentrancyGuard.sol\":2325:2332  _status */\n      dup1\n      sload\n        /* \"@openzeppelin/contracts/security/ReentrancyGuard.sol\":2325:2344  _status != _ENTERED */\n      sub\n        /* \"@openzeppelin/contracts/security/ReentrancyGuard.sol\":2317:2380  require(_status != _ENTERED, \"ReentrancyGuard: reentrant call\") */\n      tag_393\n      jumpi\n      mload(0x40)\n      shl(0xe5, 0x461bcd)\n      dup2\n      mstore\n      0x04\n      add\n      tag_136\n      swap1\n      tag_294\n      jump\t// in\n    tag_393:\n        /* \"@openzeppelin/contracts/security/ReentrancyGuard.sol\":1744:1745  2 */\n      0x02\n        /* \"@openzeppelin/contracts/security/ReentrancyGuard.sol\":2455:2473  _status = _ENTERED */\n      dup1\n      sstore\n        /* \"contracts/scMarketplace.sol\":7530:7543  address buyer */\n      0x00\n        /* \"@openzeppelin/contracts/utils/Context.sol\":719:729  msg.sender */\n      caller\n        /* \"contracts/scMarketplace.sol\":7607:7629  address payable seller */\n      0x00\n        /* \"contracts/scMarketplace.sol\":7632:7652  _items[marketItemId] */\n      dup7\n      dup2\n      mstore\n        /* \"contracts/scMarketplace.sol\":7632:7638  _items */\n      0x04\n        /* \"contracts/scMarketplace.sol\":7632:7652  _items[marketItemId] */\n      0x20\n      dup2\n      swap1\n      mstore\n      0x40\n      dup1\n      dup4\n      keccak256\n        /* \"contracts/scMarketplace.sol\":7632:7659  _items[marketItemId].seller */\n      0x03\n      dup2\n      add\n      sload\n        /* \"contracts/scMarketplace.sol\":7713:7741  _items[marketItemId].tokenId */\n      0x02\n      dup3\n      add\n      sload\n        /* \"contracts/scMarketplace.sol\":7632:7659  _items[marketItemId].seller */\n      0x01\n        /* \"contracts/scMarketplace.sol\":7833:7867  _items[marketItemId].tokenContract */\n      swap1\n      swap3\n      add\n      sload\n        /* \"contracts/scMarketplace.sol\":7894:7951  hostTokenContract.isApprovedForAll(seller, address(this)) */\n      swap3\n      mload\n      shl(0xe0, 0xe985e9c5)\n      dup2\n      mstore\n      sub(shl(0xa0, 0x01), 0x01)\n        /* \"contracts/scMarketplace.sol\":7632:7659  _items[marketItemId].seller */\n      swap2\n      dup3\n      and\n        /* \"contracts/scMarketplace.sol\":7894:7951  hostTokenContract.isApprovedForAll(seller, address(this)) */\n      swap5\n      dup2\n      add\n        /* \"#utility.yul\":20176:20210   */\n      dup6\n      swap1\n      mstore\n        /* \"contracts/scMarketplace.sol\":7945:7949  this */\n      address\n        /* \"#utility.yul\":20226:20244   */\n      0x24\n      dup3\n      add\n        /* \"#utility.yul\":20219:20262   */\n      mstore\n        /* \"contracts/scMarketplace.sol\":7530:7558  address buyer = _msgSender() */\n      swap6\n      swap7\n      pop\n        /* \"contracts/scMarketplace.sol\":7632:7659  _items[marketItemId].seller */\n      swap3\n      swap5\n        /* \"contracts/scMarketplace.sol\":7713:7741  _items[marketItemId].tokenId */\n      swap1\n      swap4\n        /* \"contracts/scMarketplace.sol\":7833:7867  _items[marketItemId].tokenContract */\n      swap3\n      swap1\n      swap2\n      and\n      swap2\n        /* \"contracts/scMarketplace.sol\":7607:7629  address payable seller */\n      swap1\n        /* \"contracts/scMarketplace.sol\":7833:7867  _items[marketItemId].tokenContract */\n      dup3\n      swap1\n        /* \"contracts/scMarketplace.sol\":7894:7928  hostTokenContract.isApprovedForAll */\n      0xe985e9c5\n      swap1\n        /* \"#utility.yul\":20111:20129   */\n      0x44\n      add\n        /* \"contracts/scMarketplace.sol\":7894:7951  hostTokenContract.isApprovedForAll(seller, address(this)) */\n      0x20\n      mload(0x40)\n      dup1\n      dup4\n      sub\n      dup2\n      dup7\n      gas\n      staticcall\n      iszero\n      dup1\n      iszero\n      tag_400\n      jumpi\n      returndatasize\n      0x00\n      dup1\n      returndatacopy\n      revert(0x00, returndatasize)\n    tag_400:\n      pop\n      pop\n      pop\n      pop\n      mload(0x40)\n      returndatasize\n      not(0x1f)\n      0x1f\n      dup3\n      add\n      and\n      dup3\n      add\n      dup1\n      0x40\n      mstore\n      pop\n      dup2\n      add\n      swap1\n      tag_401\n      swap2\n      swap1\n      tag_402\n      jump\t// in\n    tag_401:\n        /* \"contracts/scMarketplace.sol\":7875:7951  bool allApproved = hostTokenContract.isApprovedForAll(seller, address(this)) */\n      swap1\n      pop\n        /* \"contracts/scMarketplace.sol\":7963:7974  allApproved */\n      dup1\n        /* \"contracts/scMarketplace.sol\":7958:8166  if (!allApproved) {... */\n      tag_403\n      jumpi\n        /* \"contracts/scMarketplace.sol\":8011:8049  hostTokenContract.getApproved(tokenId) */\n      mload(0x40)\n      shl(0xe2, 0x020604bf)\n      dup2\n      mstore\n      0x04\n      dup2\n      add\n        /* \"#utility.yul\":5822:5847   */\n      dup5\n      swap1\n      mstore\n        /* \"contracts/scMarketplace.sol\":7985:8008  address approvedAddress */\n      0x00\n      swap1\n      sub(shl(0xa0, 0x01), 0x01)\n        /* \"contracts/scMarketplace.sol\":8011:8040  hostTokenContract.getApproved */\n      dup5\n      and\n      swap1\n      0x081812fc\n      swap1\n        /* \"#utility.yul\":5795:5813   */\n      0x24\n      add\n        /* \"contracts/scMarketplace.sol\":8011:8049  hostTokenContract.getApproved(tokenId) */\n      0x20\n      mload(0x40)\n      dup1\n      dup4\n      sub\n      dup2\n      dup7\n      gas\n      staticcall\n      iszero\n      dup1\n      iszero\n      tag_406\n      jumpi\n      returndatasize\n      0x00\n      dup1\n      returndatacopy\n      revert(0x00, returndatasize)\n    tag_406:\n      pop\n      pop\n      pop\n      pop\n      mload(0x40)\n      returndatasize\n      not(0x1f)\n      0x1f\n      dup3\n      add\n      and\n      dup3\n      add\n      dup1\n      0x40\n      mstore\n      pop\n      dup2\n      add\n      swap1\n      tag_407\n      swap2\n      swap1\n      tag_408\n      jump\t// in\n    tag_407:\n        /* \"contracts/scMarketplace.sol\":7985:8049  address approvedAddress = hostTokenContract.getApproved(tokenId) */\n      swap1\n      pop\n      sub(shl(0xa0, 0x01), 0x01)\n        /* \"contracts/scMarketplace.sol\":8066:8098  approvedAddress == address(this) */\n      dup2\n      and\n        /* \"contracts/scMarketplace.sol\":8093:8097  this */\n      address\n        /* \"contracts/scMarketplace.sol\":8066:8098  approvedAddress == address(this) */\n      eq\n        /* \"contracts/scMarketplace.sol\":8058:8158  require(approvedAddress == address(this), \"Market Item (NFT) should be approved to the Marketplace\") */\n      tag_409\n      jumpi\n      mload(0x40)\n      shl(0xe5, 0x461bcd)\n      dup2\n      mstore\n        /* \"#utility.yul\":21013:21015   */\n      0x20\n        /* \"contracts/scMarketplace.sol\":8058:8158  require(approvedAddress == address(this), \"Market Item (NFT) should be approved to the Marketplace\") */\n      0x04\n      dup3\n      add\n        /* \"#utility.yul\":20995:21016   */\n      mstore\n        /* \"#utility.yul\":21052:21054   */\n      0x37\n        /* \"#utility.yul\":21032:21050   */\n      0x24\n      dup3\n      add\n        /* \"#utility.yul\":21025:21055   */\n      mstore\n        /* \"#utility.yul\":21091:21125   */\n      0x4d61726b6574204974656d20284e4654292073686f756c642062652061707072\n        /* \"#utility.yul\":21071:21089   */\n      0x44\n      dup3\n      add\n        /* \"#utility.yul\":21064:21126   */\n      mstore\n        /* \"#utility.yul\":21162:21187   */\n      0x6f76656420746f20746865204d61726b6574706c616365000000000000000000\n        /* \"#utility.yul\":21142:21160   */\n      0x64\n      dup3\n      add\n        /* \"#utility.yul\":21135:21188   */\n      mstore\n        /* \"#utility.yul\":21205:21224   */\n      0x84\n      add\n        /* \"contracts/scMarketplace.sol\":8058:8158  require(approvedAddress == address(this), \"Market Item (NFT) should be approved to the Marketplace\") */\n      tag_136\n        /* \"#utility.yul\":20811:21230   */\n      jump\n        /* \"contracts/scMarketplace.sol\":8058:8158  require(approvedAddress == address(this), \"Market Item (NFT) should be approved to the Marketplace\") */\n    tag_409:\n        /* \"contracts/scMarketplace.sol\":7976:8166  {... */\n      pop\n        /* \"contracts/scMarketplace.sol\":7958:8166  if (!allApproved) {... */\n    tag_403:\n        /* \"contracts/scMarketplace.sol\":8260:8261  0 */\n      0x00\n        /* \"contracts/scMarketplace.sol\":8220:8240  _items[marketItemId] */\n      dup10\n      dup2\n      mstore\n        /* \"contracts/scMarketplace.sol\":8220:8226  _items */\n      0x04\n        /* \"contracts/scMarketplace.sol\":8220:8240  _items[marketItemId] */\n      0x20\n      mstore\n      0x40\n      swap1\n      keccak256\n        /* \"contracts/scMarketplace.sol\":8220:8250  _items[marketItemId].whiteList */\n      0x0b\n      add\n        /* \"contracts/scMarketplace.sol\":8220:8257  _items[marketItemId].whiteList.length */\n      sload\n        /* \"contracts/scMarketplace.sol\":8220:8261  _items[marketItemId].whiteList.length > 0 */\n      iszero\n        /* \"contracts/scMarketplace.sol\":8216:8392  if (_items[marketItemId].whiteList.length > 0)... */\n      tag_413\n      jumpi\n        /* \"contracts/scMarketplace.sol\":8278:8305  _allowedToBuy[marketItemId] */\n      0x00\n      dup10\n      dup2\n      mstore\n        /* \"contracts/scMarketplace.sol\":8278:8291  _allowedToBuy */\n      0x08\n        /* \"contracts/scMarketplace.sol\":8278:8305  _allowedToBuy[marketItemId] */\n      0x20\n      swap1\n      dup2\n      mstore\n      0x40\n      dup1\n      dup4\n      keccak256\n      sub(shl(0xa0, 0x01), 0x01)\n        /* \"contracts/scMarketplace.sol\":8278:8312  _allowedToBuy[marketItemId][buyer] */\n      dup10\n      and\n      dup5\n      mstore\n      swap1\n      swap2\n      mstore\n      swap1\n      keccak256\n      sload\n      0xff\n      and\n        /* \"contracts/scMarketplace.sol\":8278:8320  _allowedToBuy[marketItemId][buyer] == true */\n      iszero\n      iszero\n        /* \"contracts/scMarketplace.sol\":8278:8312  _allowedToBuy[marketItemId][buyer] */\n      0x01\n        /* \"contracts/scMarketplace.sol\":8278:8320  _allowedToBuy[marketItemId][buyer] == true */\n      eq\n        /* \"contracts/scMarketplace.sol\":8270:8392  require(_allowedToBuy[marketItemId][buyer] == true, \"Your address is not specified in White-List for current Market Item\") */\n      tag_413\n      jumpi\n      mload(0x40)\n      shl(0xe5, 0x461bcd)\n      dup2\n      mstore\n        /* \"#utility.yul\":21437:21439   */\n      0x20\n        /* \"contracts/scMarketplace.sol\":8270:8392  require(_allowedToBuy[marketItemId][buyer] == true, \"Your address is not specified in White-List for current Market Item\") */\n      0x04\n      dup3\n      add\n        /* \"#utility.yul\":21419:21440   */\n      mstore\n        /* \"#utility.yul\":21476:21478   */\n      0x43\n        /* \"#utility.yul\":21456:21474   */\n      0x24\n      dup3\n      add\n        /* \"#utility.yul\":21449:21479   */\n      mstore\n        /* \"#utility.yul\":21515:21549   */\n      0x596f75722061646472657373206973206e6f742073706563696669656420696e\n        /* \"#utility.yul\":21495:21513   */\n      0x44\n      dup3\n      add\n        /* \"#utility.yul\":21488:21550   */\n      mstore\n        /* \"#utility.yul\":21586:21620   */\n      0x2057686974652d4c69737420666f722063757272656e74204d61726b65742049\n        /* \"#utility.yul\":21566:21584   */\n      0x64\n      dup3\n      add\n        /* \"#utility.yul\":21559:21621   */\n      mstore\n      shl(0xe8, 0x74656d)\n        /* \"#utility.yul\":21637:21656   */\n      0x84\n      dup3\n      add\n        /* \"#utility.yul\":21630:21664   */\n      mstore\n        /* \"#utility.yul\":21681:21700   */\n      0xa4\n      add\n        /* \"contracts/scMarketplace.sol\":8270:8392  require(_allowedToBuy[marketItemId][buyer] == true, \"Your address is not specified in White-List for current Market Item\") */\n      tag_136\n        /* \"#utility.yul\":21235:21706   */\n      jump\n        /* \"contracts/scMarketplace.sol\":8270:8392  require(_allowedToBuy[marketItemId][buyer] == true, \"Your address is not specified in White-List for current Market Item\") */\n    tag_413:\n        /* \"contracts/scMarketplace.sol\":8464:8481  uint256 feeAmount */\n      0x00\n        /* \"contracts/scMarketplace.sol\":8484:8517  _chargePrice(marketItemId, buyer) */\n      tag_416\n        /* \"contracts/scMarketplace.sol\":8497:8509  marketItemId */\n      dup11\n        /* \"contracts/scMarketplace.sol\":8511:8516  buyer */\n      dup8\n        /* \"contracts/scMarketplace.sol\":8484:8496  _chargePrice */\n      tag_417\n        /* \"contracts/scMarketplace.sol\":8484:8517  _chargePrice(marketItemId, buyer) */\n      jump\t// in\n    tag_416:\n        /* \"contracts/scMarketplace.sol\":8558:8578  _items[marketItemId] */\n      0x00\n      dup12\n      dup2\n      mstore\n        /* \"contracts/scMarketplace.sol\":8558:8564  _items */\n      0x04\n        /* \"contracts/scMarketplace.sol\":8558:8578  _items[marketItemId] */\n      0x20\n      dup2\n      swap1\n      mstore\n      0x40\n      swap2\n      dup3\n      swap1\n      keccak256\n        /* \"contracts/scMarketplace.sol\":8558:8584  _items[marketItemId].buyer */\n      dup1\n      dup3\n      add\n        /* \"contracts/scMarketplace.sol\":8558:8601  _items[marketItemId].buyer = payable(buyer) */\n      dup1\n      sload\n      not(sub(shl(0xa0, 0x01), 0x01))\n      and\n      sub(shl(0xa0, 0x01), 0x01)\n      dup13\n      dup2\n      and\n      swap2\n      dup3\n      or\n      swap1\n      swap3\n      sstore\n        /* \"contracts/scMarketplace.sol\":8608:8632  _items[marketItemId].fee */\n      0x08\n      dup4\n      add\n        /* \"contracts/scMarketplace.sol\":8608:8644  _items[marketItemId].fee = feeAmount */\n      dup7\n      swap1\n      sstore\n        /* \"contracts/scMarketplace.sol\":8651:8681  _items[marketItemId].partnerId */\n      0x0a\n      swap1\n      swap3\n      add\n        /* \"contracts/scMarketplace.sol\":8651:8693  _items[marketItemId].partnerId = partnerId */\n      dup15\n      swap1\n      sstore\n        /* \"contracts/scMarketplace.sol\":8753:8811  hostTokenContract.safeTransferFrom(seller, buyer, tokenId) */\n      swap3\n      mload\n      shl(0xe1, 0x21421707)\n      dup2\n      mstore\n        /* \"#utility.yul\":21977:21992   */\n      dup10\n      dup5\n      and\n        /* \"contracts/scMarketplace.sol\":8753:8811  hostTokenContract.safeTransferFrom(seller, buyer, tokenId) */\n      swap3\n      dup2\n      add\n        /* \"#utility.yul\":21959:21993   */\n      swap3\n      swap1\n      swap3\n      mstore\n        /* \"#utility.yul\":22009:22027   */\n      0x24\n      dup3\n      add\n        /* \"#utility.yul\":22002:22045   */\n      mstore\n        /* \"#utility.yul\":22061:22079   */\n      0x44\n      dup2\n      add\n        /* \"#utility.yul\":22054:22088   */\n      dup8\n      swap1\n      mstore\n        /* \"contracts/scMarketplace.sol\":8608:8644  _items[marketItemId].fee = feeAmount */\n      swap2\n      swap3\n      pop\n        /* \"contracts/scMarketplace.sol\":8753:8787  hostTokenContract.safeTransferFrom */\n      dup5\n      and\n      swap1\n      0x42842e0e\n      swap1\n        /* \"#utility.yul\":21894:21912   */\n      0x64\n      add\n        /* \"contracts/scMarketplace.sol\":8753:8811  hostTokenContract.safeTransferFrom(seller, buyer, tokenId) */\n      0x00\n      mload(0x40)\n      dup1\n      dup4\n      sub\n      dup2\n      0x00\n      dup8\n      dup1\n      extcodesize\n      iszero\n      dup1\n      iszero\n      tag_420\n      jumpi\n      0x00\n      dup1\n      revert\n    tag_420:\n      pop\n      gas\n      call\n      iszero\n      dup1\n      iszero\n      tag_422\n      jumpi\n      returndatasize\n      0x00\n      dup1\n      returndatacopy\n      revert(0x00, returndatasize)\n    tag_422:\n      pop\n      pop\n      pop\n      pop\n        /* \"contracts/scMarketplace.sol\":8864:8918  _removeMarketItem(marketItemId, MarketItemStatus.Sold) */\n      tag_423\n        /* \"contracts/scMarketplace.sol\":8882:8894  marketItemId */\n      dup11\n        /* \"contracts/scMarketplace.sol\":8896:8917  MarketItemStatus.Sold */\n      0x01\n        /* \"contracts/scMarketplace.sol\":8864:8881  _removeMarketItem */\n      tag_303\n        /* \"contracts/scMarketplace.sol\":8864:8918  _removeMarketItem(marketItemId, MarketItemStatus.Sold) */\n      jump\t// in\n    tag_423:\n        /* \"contracts/scMarketplace.sol\":9055:9082  BeneficiaryMode.Distributor */\n      0x02\n        /* \"contracts/scMarketplace.sol\":9034:9046  _beneficiary */\n      0x01\n        /* \"contracts/scMarketplace.sol\":9034:9051  _beneficiary.mode */\n      sload\n      0xff\n      and\n        /* \"contracts/scMarketplace.sol\":9034:9082  _beneficiary.mode == BeneficiaryMode.Distributor */\n      0x02\n      dup2\n      gt\n      iszero\n      tag_427\n      jumpi\n      tag_427\n      tag_221\n      jump\t// in\n    tag_427:\n      eq\n        /* \"contracts/scMarketplace.sol\":9034:9122  _beneficiary.mode == BeneficiaryMode.Distributor && _beneficiary.recipient != address(0) */\n      dup1\n      iszero\n      tag_428\n      jumpi\n      pop\n        /* \"contracts/scMarketplace.sol\":9086:9098  _beneficiary */\n      0x01\n        /* \"contracts/scMarketplace.sol\":9086:9108  _beneficiary.recipient */\n      sload\n      0x0100\n      swap1\n      div\n      sub(shl(0xa0, 0x01), 0x01)\n      and\n        /* \"contracts/scMarketplace.sol\":9086:9122  _beneficiary.recipient != address(0) */\n      iszero\n      iszero\n        /* \"contracts/scMarketplace.sol\":9034:9122  _beneficiary.mode == BeneficiaryMode.Distributor && _beneficiary.recipient != address(0) */\n    tag_428:\n        /* \"contracts/scMarketplace.sol\":9030:9304  if (_beneficiary.mode == BeneficiaryMode.Distributor && _beneficiary.recipient != address(0))... */\n      iszero\n      tag_429\n      jumpi\n        /* \"contracts/scMarketplace.sol\":9224:9236  _beneficiary */\n      0x01\n        /* \"contracts/scMarketplace.sol\":9224:9246  _beneficiary.recipient */\n      sload\n        /* \"contracts/scMarketplace.sol\":9256:9296  distributorHost.distribute(marketItemId) */\n      mload(0x40)\n      shl(0xe0, 0x91c05b0b)\n      dup2\n      mstore\n      0x04\n      dup2\n      add\n        /* \"#utility.yul\":5822:5847   */\n      dup13\n      swap1\n      mstore\n        /* \"contracts/scMarketplace.sol\":9224:9246  _beneficiary.recipient */\n      0x0100\n      swap1\n      swap2\n      div\n      sub(shl(0xa0, 0x01), 0x01)\n      and\n      swap1\n      dup2\n      swap1\n        /* \"contracts/scMarketplace.sol\":9256:9282  distributorHost.distribute */\n      0x91c05b0b\n      swap1\n        /* \"#utility.yul\":5795:5813   */\n      0x24\n      add\n        /* \"contracts/scMarketplace.sol\":9256:9296  distributorHost.distribute(marketItemId) */\n      0x00\n      mload(0x40)\n      dup1\n      dup4\n      sub\n      dup2\n      0x00\n      dup8\n      dup1\n      extcodesize\n      iszero\n      dup1\n      iszero\n      tag_431\n      jumpi\n      0x00\n      dup1\n      revert\n    tag_431:\n      pop\n      gas\n      call\n      iszero\n      dup1\n      iszero\n      tag_433\n      jumpi\n      returndatasize\n      0x00\n      dup1\n      returndatacopy\n      revert(0x00, returndatasize)\n    tag_433:\n      pop\n      pop\n      pop\n      pop\n        /* \"contracts/scMarketplace.sol\":9129:9304  {... */\n      pop\n        /* \"contracts/scMarketplace.sol\":9030:9304  if (_beneficiary.mode == BeneficiaryMode.Distributor && _beneficiary.recipient != address(0))... */\n    tag_429:\n        /* \"contracts/scMarketplace.sol\":9317:9352  MarketItemSold(marketItemId, buyer) */\n      mload(0x40)\n      sub(shl(0xa0, 0x01), 0x01)\n      dup8\n      and\n      swap1\n        /* \"contracts/scMarketplace.sol\":9332:9344  marketItemId */\n      dup12\n      swap1\n        /* \"contracts/scMarketplace.sol\":9317:9352  MarketItemSold(marketItemId, buyer) */\n      0x2073b2706c235effb1e3840575370a51749afd8181b4018f93bff955d50792cb\n      swap1\n      0x00\n      swap1\n      log3\n      pop\n      pop\n        /* \"@openzeppelin/contracts/security/ReentrancyGuard.sol\":1701:1702  1 */\n      0x01\n        /* \"@openzeppelin/contracts/security/ReentrancyGuard.sol\":2628:2635  _status */\n      0x02\n        /* \"@openzeppelin/contracts/security/ReentrancyGuard.sol\":2628:2650  _status = _NOT_ENTERED */\n      sstore\n      pop\n      pop\n      pop\n      pop\n      pop\n      pop\n      pop\n      pop\n        /* \"contracts/scMarketplace.sol\":7350:9358  function makeMarketSale(uint256 marketItemId, uint partnerId) public payable idExists(marketItemId) isActive(marketItemId) nonReentrant {... */\n      jump\t// out\n        /* \"contracts/scMarketplace.sol\":13534:14279  function _checkTokenValidity(address seller, address tokenContract, uint256 tokenId) private view returns (int) {... */\n    tag_145:\n        /* \"contracts/scMarketplace.sol\":13802:13836  hostTokenContract.ownerOf(tokenId) */\n      mload(0x40)\n      shl(0xe1, 0x31a9108f)\n      dup2\n      mstore\n      0x04\n      dup2\n      add\n        /* \"#utility.yul\":5822:5847   */\n      dup3\n      swap1\n      mstore\n        /* \"contracts/scMarketplace.sol\":13641:13644  int */\n      0x00\n      swap1\n        /* \"contracts/scMarketplace.sol\":13689:13702  tokenContract */\n      dup4\n      swap1\n        /* \"contracts/scMarketplace.sol\":13641:13644  int */\n      dup3\n      swap1\n      sub(shl(0xa0, 0x01), 0x01)\n        /* \"contracts/scMarketplace.sol\":13802:13827  hostTokenContract.ownerOf */\n      dup4\n      and\n      swap1\n      0x6352211e\n      swap1\n        /* \"#utility.yul\":5795:5813   */\n      0x24\n      add\n        /* \"contracts/scMarketplace.sol\":13802:13836  hostTokenContract.ownerOf(tokenId) */\n      0x20\n      mload(0x40)\n      dup1\n      dup4\n      sub\n      dup2\n      dup7\n      gas\n      staticcall\n      iszero\n      dup1\n      iszero\n      tag_438\n      jumpi\n      returndatasize\n      0x00\n      dup1\n      returndatacopy\n      revert(0x00, returndatasize)\n    tag_438:\n      pop\n      pop\n      pop\n      pop\n      mload(0x40)\n      returndatasize\n      not(0x1f)\n      0x1f\n      dup3\n      add\n      and\n      dup3\n      add\n      dup1\n      0x40\n      mstore\n      pop\n      dup2\n      add\n      swap1\n      tag_439\n      swap2\n      swap1\n      tag_408\n      jump\t// in\n    tag_439:\n        /* \"contracts/scMarketplace.sol\":13781:13836  address tokenOwner = hostTokenContract.ownerOf(tokenId) */\n      swap1\n      pop\n        /* \"contracts/scMarketplace.sol\":13861:13867  seller */\n      dup6\n      sub(shl(0xa0, 0x01), 0x01)\n        /* \"contracts/scMarketplace.sol\":13847:13867  tokenOwner != seller */\n      and\n        /* \"contracts/scMarketplace.sol\":13847:13857  tokenOwner */\n      dup2\n      sub(shl(0xa0, 0x01), 0x01)\n        /* \"contracts/scMarketplace.sol\":13847:13867  tokenOwner != seller */\n      and\n      eq\n        /* \"contracts/scMarketplace.sol\":13843:13886  if (tokenOwner != seller)... */\n      tag_440\n      jumpi\n      not(0x00)\n        /* \"contracts/scMarketplace.sol\":13876:13886  return - 1 */\n      swap3\n      pop\n      pop\n      pop\n      jump(tag_435)\n        /* \"contracts/scMarketplace.sol\":13843:13886  if (tokenOwner != seller)... */\n    tag_440:\n        /* \"contracts/scMarketplace.sol\":13945:14002  hostTokenContract.isApprovedForAll(seller, address(this)) */\n      mload(0x40)\n      shl(0xe0, 0xe985e9c5)\n      dup2\n      mstore\n      sub(shl(0xa0, 0x01), 0x01)\n        /* \"#utility.yul\":20194:20209   */\n      dup8\n      dup2\n      and\n        /* \"contracts/scMarketplace.sol\":13945:14002  hostTokenContract.isApprovedForAll(seller, address(this)) */\n      0x04\n      dup4\n      add\n        /* \"#utility.yul\":20176:20210   */\n      mstore\n        /* \"contracts/scMarketplace.sol\":13996:14000  this */\n      address\n        /* \"#utility.yul\":20226:20244   */\n      0x24\n      dup4\n      add\n        /* \"#utility.yul\":20219:20262   */\n      mstore\n        /* \"contracts/scMarketplace.sol\":13926:13942  bool allApproved */\n      0x00\n      swap2\n        /* \"contracts/scMarketplace.sol\":13945:13979  hostTokenContract.isApprovedForAll */\n      swap1\n      dup5\n      and\n      swap1\n      0xe985e9c5\n      swap1\n        /* \"#utility.yul\":20111:20129   */\n      0x44\n      add\n        /* \"contracts/scMarketplace.sol\":13945:14002  hostTokenContract.isApprovedForAll(seller, address(this)) */\n      0x20\n      mload(0x40)\n      dup1\n      dup4\n      sub\n      dup2\n      dup7\n      gas\n      staticcall\n      iszero\n      dup1\n      iszero\n      tag_444\n      jumpi\n      returndatasize\n      0x00\n      dup1\n      returndatacopy\n      revert(0x00, returndatasize)\n    tag_444:\n      pop\n      pop\n      pop\n      pop\n      mload(0x40)\n      returndatasize\n      not(0x1f)\n      0x1f\n      dup3\n      add\n      and\n      dup3\n      add\n      dup1\n      0x40\n      mstore\n      pop\n      dup2\n      add\n      swap1\n      tag_445\n      swap2\n      swap1\n      tag_402\n      jump\t// in\n    tag_445:\n        /* \"contracts/scMarketplace.sol\":13926:14002  bool allApproved = hostTokenContract.isApprovedForAll(seller, address(this)) */\n      swap1\n      pop\n        /* \"contracts/scMarketplace.sol\":14014:14025  allApproved */\n      dup1\n        /* \"contracts/scMarketplace.sol\":14009:14257  if (!allApproved)... */\n      tag_446\n      jumpi\n        /* \"contracts/scMarketplace.sol\":14147:14185  hostTokenContract.getApproved(tokenId) */\n      mload(0x40)\n      shl(0xe2, 0x020604bf)\n      dup2\n      mstore\n      0x04\n      dup2\n      add\n        /* \"#utility.yul\":5822:5847   */\n      dup7\n      swap1\n      mstore\n        /* \"contracts/scMarketplace.sol\":14123:14144  address tokenApproved */\n      0x00\n      swap1\n      sub(shl(0xa0, 0x01), 0x01)\n        /* \"contracts/scMarketplace.sol\":14147:14176  hostTokenContract.getApproved */\n      dup6\n      and\n      swap1\n      0x081812fc\n      swap1\n        /* \"#utility.yul\":5795:5813   */\n      0x24\n      add\n        /* \"contracts/scMarketplace.sol\":14147:14185  hostTokenContract.getApproved(tokenId) */\n      0x20\n      mload(0x40)\n      dup1\n      dup4\n      sub\n      dup2\n      dup7\n      gas\n      staticcall\n      iszero\n      dup1\n      iszero\n      tag_449\n      jumpi\n      returndatasize\n      0x00\n      dup1\n      returndatacopy\n      revert(0x00, returndatasize)\n    tag_449:\n      pop\n      pop\n      pop\n      pop\n      mload(0x40)\n      returndatasize\n      not(0x1f)\n      0x1f\n      dup3\n      add\n      and\n      dup3\n      add\n      dup1\n      0x40\n      mstore\n      pop\n      dup2\n      add\n      swap1\n      tag_450\n      swap2\n      swap1\n      tag_408\n      jump\t// in\n    tag_450:\n        /* \"contracts/scMarketplace.sol\":14123:14185  address tokenApproved = hostTokenContract.getApproved(tokenId) */\n      swap1\n      pop\n      sub(shl(0xa0, 0x01), 0x01)\n        /* \"contracts/scMarketplace.sol\":14198:14228  tokenApproved != address(this) */\n      dup2\n      and\n        /* \"contracts/scMarketplace.sol\":14223:14227  this */\n      address\n        /* \"contracts/scMarketplace.sol\":14198:14228  tokenApproved != address(this) */\n      eq\n        /* \"contracts/scMarketplace.sol\":14194:14249  if (tokenApproved != address(this))... */\n      tag_451\n      jumpi\n      not(0x01)\n        /* \"contracts/scMarketplace.sol\":14239:14249  return - 2 */\n      swap5\n      pop\n      pop\n      pop\n      pop\n      pop\n      jump(tag_435)\n        /* \"contracts/scMarketplace.sol\":14194:14249  if (tokenApproved != address(this))... */\n    tag_451:\n        /* \"contracts/scMarketplace.sol\":14032:14257  {... */\n      pop\n        /* \"contracts/scMarketplace.sol\":14009:14257  if (!allApproved)... */\n    tag_446:\n        /* \"contracts/scMarketplace.sol\":14272:14273  0 */\n      0x00\n        /* \"contracts/scMarketplace.sol\":14265:14273  return 0 */\n      swap4\n      pop\n      pop\n      pop\n      pop\n        /* \"contracts/scMarketplace.sol\":13534:14279  function _checkTokenValidity(address seller, address tokenContract, uint256 tokenId) private view returns (int) {... */\n    tag_435:\n      swap4\n      swap3\n      pop\n      pop\n      pop\n      jump\t// out\n        /* \"contracts/scMarketplace.sol\":13201:13463  function _getValidRate(address adr) private view returns (MarketRate memory) {... */\n    tag_156:\n        /* \"contracts/scMarketplace.sol\":13259:13276  MarketRate memory */\n      tag_452\n      mload(0x40)\n      dup1\n      0x80\n      add\n      0x40\n      mstore\n      dup1\n      iszero(iszero(0x00))\n      dup2\n      mstore\n      0x20\n      add\n      0x00\n      dup2\n      mstore\n      0x20\n      add\n      0x00\n      dup2\n      mstore\n      0x20\n      add\n      0x00\n      dup2\n      mstore\n      pop\n      swap1\n      jump\n    tag_452:\n      sub(shl(0xa0, 0x01), 0x01)\n        /* \"contracts/scMarketplace.sol\":13341:13352  _rates[adr] */\n      dup3\n      and\n      0x00\n      swap1\n      dup2\n      mstore\n        /* \"contracts/scMarketplace.sol\":13341:13347  _rates */\n      0x07\n        /* \"contracts/scMarketplace.sol\":13341:13352  _rates[adr] */\n      0x20\n      mstore\n      0x40\n      swap1\n      keccak256\n        /* \"contracts/scMarketplace.sol\":13341:13361  _rates[adr].isActive */\n      sload\n      0xff\n      and\n        /* \"contracts/scMarketplace.sol\":13337:13388  if (_rates[adr].isActive)... */\n      iszero\n      tag_454\n      jumpi\n      pop\n      sub(shl(0xa0, 0x01), 0x01)\n        /* \"contracts/scMarketplace.sol\":13377:13388  _rates[adr] */\n      and\n      0x00\n      swap1\n      dup2\n      mstore\n        /* \"contracts/scMarketplace.sol\":13377:13383  _rates */\n      0x07\n        /* \"contracts/scMarketplace.sol\":13377:13388  _rates[adr] */\n      0x20\n      swap1\n      dup2\n      mstore\n      0x40\n      swap2\n      dup3\n      swap1\n      keccak256\n        /* \"contracts/scMarketplace.sol\":13370:13388  return _rates[adr] */\n      dup3\n      mload\n      0x80\n      dup2\n      add\n      dup5\n      mstore\n      dup2\n      sload\n      0xff\n      and\n      iszero\n      iszero\n      dup2\n      mstore\n      0x01\n      dup3\n      add\n      sload\n      swap3\n      dup2\n      add\n      swap3\n      swap1\n      swap3\n      mstore\n      0x02\n      dup2\n      add\n      sload\n      swap3\n      dup3\n      add\n      swap3\n      swap1\n      swap3\n      mstore\n      0x03\n      swap1\n      swap2\n      add\n      sload\n      0x60\n      dup3\n      add\n      mstore\n      swap1\n        /* \"contracts/scMarketplace.sol\":13201:13463  function _getValidRate(address adr) private view returns (MarketRate memory) {... */\n      jump\t// out\n        /* \"contracts/scMarketplace.sol\":13337:13388  if (_rates[adr].isActive)... */\n    tag_454:\n      pop\n      pop\n        /* \"contracts/scMarketplace.sol\":13439:13457  _rates[address(0)] */\n      0x00\n      dup1\n      mstore\n        /* \"contracts/scMarketplace.sol\":13439:13445  _rates */\n      0x07\n        /* \"contracts/scMarketplace.sol\":13439:13457  _rates[address(0)] */\n      0x20\n      swap1\n      dup2\n      mstore\n      0x40\n        /* \"contracts/scMarketplace.sol\":13432:13457  return _rates[address(0)] */\n      dup1\n      mload\n      0x80\n      dup2\n      add\n      dup3\n      mstore\n        /* \"contracts/scMarketplace.sol\":13439:13457  _rates[address(0)] */\n      0x6d5257204ebe7d88fd91ae87941cb2dd9d8062b64ae5a2bd2d28ec40b9fbf6df\n        /* \"contracts/scMarketplace.sol\":13432:13457  return _rates[address(0)] */\n      sload\n      0xff\n      and\n      iszero\n      iszero\n      dup2\n      mstore\n      sload(0x6d5257204ebe7d88fd91ae87941cb2dd9d8062b64ae5a2bd2d28ec40b9fbf6e0)\n      swap3\n      dup2\n      add\n      swap3\n      swap1\n      swap3\n      mstore\n      sload(0x6d5257204ebe7d88fd91ae87941cb2dd9d8062b64ae5a2bd2d28ec40b9fbf6e1)\n      swap1\n      dup3\n      add\n      mstore\n      sload(0x6d5257204ebe7d88fd91ae87941cb2dd9d8062b64ae5a2bd2d28ec40b9fbf6e2)\n      0x60\n      dup3\n      add\n      mstore\n      swap1\n        /* \"contracts/scMarketplace.sol\":13201:13463  function _getValidRate(address adr) private view returns (MarketRate memory) {... */\n      jump\t// out\n        /* \"contracts/scBeneficiary.sol\":3703:4043  function _chargeFunds(uint256 amount, string memory message) internal virtual {... */\n    tag_158:\n        /* \"contracts/scBeneficiary.sol\":3792:3802  amount > 0 */\n      dup2\n      iszero\n        /* \"contracts/scBeneficiary.sol\":3788:4038  if (amount > 0) {... */\n      tag_461\n      jumpi\n        /* \"contracts/scBeneficiary.sol\":3887:3893  amount */\n      dup2\n        /* \"contracts/scBeneficiary.sol\":3874:3883  msg.value */\n      callvalue\n        /* \"contracts/scBeneficiary.sol\":3874:3893  msg.value >= amount */\n      lt\n      iszero\n        /* \"contracts/scBeneficiary.sol\":3895:3902  message */\n      dup2\n        /* \"contracts/scBeneficiary.sol\":3866:3903  require(msg.value >= amount, message) */\n      swap1\n      tag_457\n      jumpi\n      mload(0x40)\n      shl(0xe5, 0x461bcd)\n      dup2\n      mstore\n      0x04\n      add\n      tag_136\n      swap2\n      swap1\n      tag_459\n      jump\t// in\n    tag_457:\n      pop\n        /* \"contracts/scBeneficiary.sol\":3955:3977  _isBeneficiaryExists() */\n      tag_460\n        /* \"contracts/scBeneficiary.sol\":3955:3975  _isBeneficiaryExists */\n      tag_327\n        /* \"contracts/scBeneficiary.sol\":3955:3977  _isBeneficiaryExists() */\n      jump\t// in\n    tag_460:\n        /* \"contracts/scBeneficiary.sol\":3951:4030  if (_isBeneficiaryExists())... */\n      iszero\n      tag_461\n      jumpi\n        /* \"contracts/scBeneficiary.sol\":3988:4000  _beneficiary */\n      0x01\n        /* \"contracts/scBeneficiary.sol\":3988:4010  _beneficiary.recipient */\n      sload\n        /* \"contracts/scBeneficiary.sol\":3988:4030  _beneficiary.recipient.transfer(msg.value) */\n      mload(0x40)\n      sub(shl(0xa0, 0x01), 0x01)\n        /* \"contracts/scBeneficiary.sol\":3988:4010  _beneficiary.recipient */\n      0x0100\n      swap1\n      swap3\n      div\n      swap2\n      swap1\n      swap2\n      and\n      swap1\n        /* \"contracts/scBeneficiary.sol\":4020:4029  msg.value */\n      callvalue\n        /* \"contracts/scBeneficiary.sol\":3988:4030  _beneficiary.recipient.transfer(msg.value) */\n      dup1\n      iszero\n      0x08fc\n      mul\n      swap2\n        /* \"contracts/scBeneficiary.sol\":3988:4010  _beneficiary.recipient */\n      0x00\n        /* \"contracts/scBeneficiary.sol\":3988:4030  _beneficiary.recipient.transfer(msg.value) */\n      dup2\n        /* \"contracts/scBeneficiary.sol\":3988:4010  _beneficiary.recipient */\n      dup2\n        /* \"contracts/scBeneficiary.sol\":3988:4030  _beneficiary.recipient.transfer(msg.value) */\n      dup2\n        /* \"contracts/scBeneficiary.sol\":4020:4029  msg.value */\n      dup6\n        /* \"contracts/scBeneficiary.sol\":3988:4010  _beneficiary.recipient */\n      dup9\n        /* \"contracts/scBeneficiary.sol\":3988:4030  _beneficiary.recipient.transfer(msg.value) */\n      dup9\n      call\n      swap4\n      pop\n      pop\n      pop\n      pop\n      iszero\n      dup1\n      iszero\n      tag_340\n      jumpi\n      returndatasize\n      0x00\n      dup1\n      returndatacopy\n      revert(0x00, returndatasize)\n        /* \"contracts/scBeneficiary.sol\":3951:4030  if (_isBeneficiaryExists())... */\n    tag_461:\n        /* \"contracts/scBeneficiary.sol\":3703:4043  function _chargeFunds(uint256 amount, string memory message) internal virtual {... */\n      pop\n      pop\n      jump\t// out\n        /* \"contracts/scMarketplace.sol\":14324:15683  function _createMarketItem(address seller, MarketItemInput memory input) private {... */\n    tag_160:\n        /* \"contracts/scMarketplace.sol\":14439:14459  _itemIds.increment() */\n      tag_465\n        /* \"contracts/scMarketplace.sol\":14439:14447  _itemIds */\n      0x03\n        /* \"@openzeppelin/contracts/utils/Counters.sol\":1032:1051  counter._value += 1 */\n      dup1\n      sload\n        /* \"@openzeppelin/contracts/utils/Counters.sol\":1050:1051  1 */\n      0x01\n        /* \"@openzeppelin/contracts/utils/Counters.sol\":1032:1051  counter._value += 1 */\n      add\n      swap1\n      sstore\n        /* \"@openzeppelin/contracts/utils/Counters.sol\":945:1068  function increment(Counter storage counter) internal {... */\n      jump\n        /* \"contracts/scMarketplace.sol\":14439:14459  _itemIds.increment() */\n    tag_465:\n        /* \"contracts/scMarketplace.sol\":14466:14486  uint256 marketItemId */\n      0x00\n        /* \"contracts/scMarketplace.sol\":14489:14507  _itemIds.current() */\n      tag_467\n        /* \"contracts/scMarketplace.sol\":14489:14497  _itemIds */\n      0x03\n        /* \"@openzeppelin/contracts/utils/Counters.sol\":918:932  counter._value */\n      sload\n      swap1\n        /* \"@openzeppelin/contracts/utils/Counters.sol\":827:939  function current(Counter storage counter) internal view returns (uint256) {... */\n      jump\n        /* \"contracts/scMarketplace.sol\":14489:14507  _itemIds.current() */\n    tag_467:\n        /* \"contracts/scMarketplace.sol\":14557:14569  _activeItems */\n      0x05\n        /* \"contracts/scMarketplace.sol\":14557:14588  _activeItems.push(marketItemId) */\n      dup1\n      sload\n      0x01\n      dup2\n      add\n      dup3\n      sstore\n      0x00\n      dup3\n      dup2\n      mstore\n      0x036b6384b5eca791c62761152d0c79bb0604c104a5fb6f4eb0703f3154bb3db0\n      swap1\n      swap2\n      add\n      dup4\n      swap1\n      sstore\n        /* \"contracts/scMarketplace.sol\":14659:14678  _activeItems.length */\n      swap1\n      sload\n        /* \"contracts/scMarketplace.sol\":14741:15207  MarketItem(... */\n      0x40\n      dup1\n      mload\n      0x0180\n      dup2\n      add\n      dup3\n      mstore\n      dup5\n      dup2\n      mstore\n        /* \"contracts/scMarketplace.sol\":14806:14825  input.tokenContract */\n      dup7\n      mload\n      sub(shl(0xa0, 0x01), 0x01)\n        /* \"contracts/scMarketplace.sol\":14741:15207  MarketItem(... */\n      swap1\n      dup2\n      and\n        /* \"contracts/scMarketplace.sol\":14557:14588  _activeItems.push(marketItemId) */\n      0x20\n        /* \"contracts/scMarketplace.sol\":14741:15207  MarketItem(... */\n      dup4\n      dup2\n      add\n      swap2\n      swap1\n      swap2\n      mstore\n        /* \"contracts/scMarketplace.sol\":14852:14865  input.tokenId */\n      dup9\n      add\n      mload\n        /* \"contracts/scMarketplace.sol\":14741:15207  MarketItem(... */\n      dup3\n      dup5\n      add\n      mstore\n      dup9\n      dup2\n      and\n      0x60\n      dup1\n      dup5\n      add\n      swap2\n      swap1\n      swap2\n      mstore\n      0x80\n      dup4\n      add\n      dup7\n      swap1\n      mstore\n        /* \"contracts/scMarketplace.sol\":14957:14976  input.priceContract */\n      swap3\n      dup9\n      add\n      mload\n        /* \"contracts/scMarketplace.sol\":14741:15207  MarketItem(... */\n      and\n      0xa0\n      dup3\n      add\n      mstore\n        /* \"contracts/scMarketplace.sol\":15003:15020  input.priceAmount */\n      swap1\n      dup7\n      add\n      mload\n        /* \"contracts/scMarketplace.sol\":14741:15207  MarketItem(... */\n      0xc0\n      dup3\n      add\n      mstore\n        /* \"contracts/scMarketplace.sol\":14466:14507  uint256 marketItemId = _itemIds.current() */\n      swap3\n      swap4\n      pop\n        /* \"contracts/scMarketplace.sol\":14659:14678  _activeItems.length */\n      swap2\n        /* \"contracts/scMarketplace.sol\":14741:15207  MarketItem(... */\n      swap1\n      0xe0\n      dup3\n      add\n      swap1\n      dup2\n      mstore\n        /* \"contracts/scMarketplace.sol\":15086:15087  0 */\n      0x00\n        /* \"contracts/scMarketplace.sol\":14741:15207  MarketItem(... */\n      0x20\n      dup1\n      dup4\n      add\n      dup3\n      swap1\n      mstore\n      0x40\n      dup1\n      dup5\n      add\n      dup7\n      swap1\n      mstore\n      0x60\n      dup1\n      dup6\n      add\n      dup5\n      swap1\n      mstore\n      0x80\n        /* \"contracts/scMarketplace.sol\":15161:15176  input.whiteList */\n      dup10\n      dup2\n      add\n      mload\n        /* \"contracts/scMarketplace.sol\":14741:15207  MarketItem(... */\n      swap6\n      dup2\n      add\n      swap6\n      swap1\n      swap6\n      mstore\n        /* \"contracts/scMarketplace.sol\":14718:14738  _items[marketItemId] */\n      dup8\n      dup5\n      mstore\n        /* \"contracts/scMarketplace.sol\":14718:14724  _items */\n      0x04\n        /* \"contracts/scMarketplace.sol\":14718:14738  _items[marketItemId] */\n      dup1\n      dup5\n      mstore\n      swap4\n      dup3\n      swap1\n      keccak256\n        /* \"contracts/scMarketplace.sol\":14718:15207  _items[marketItemId] = MarketItem(... */\n      dup7\n      mload\n      dup2\n      sstore\n      swap3\n      dup7\n      add\n      mload\n      0x01\n      dup1\n      dup6\n      add\n      dup1\n      sload\n      not(sub(shl(0xa0, 0x01), 0x01))\n      swap1\n      dup2\n      and\n      sub(shl(0xa0, 0x01), 0x01)\n      swap5\n      dup6\n      and\n      or\n      swap1\n      swap2\n      sstore\n      swap4\n      dup9\n      add\n      mload\n      0x02\n      dup7\n      add\n      sstore\n      swap2\n      dup8\n      add\n      mload\n      0x03\n      dup1\n      dup7\n      add\n      dup1\n      sload\n      dup7\n      and\n      swap3\n      dup5\n      and\n      swap3\n      swap1\n      swap3\n      or\n      swap1\n      swap2\n      sstore\n      swap6\n      dup8\n      add\n      mload\n      swap5\n      dup5\n      add\n      dup1\n      sload\n      dup5\n      and\n      swap6\n      dup3\n      and\n      swap6\n      swap1\n      swap6\n      or\n      swap1\n      swap5\n      sstore\n      0xa0\n      dup7\n      add\n      mload\n      0x05\n      dup5\n      add\n      dup1\n      sload\n      swap1\n      swap4\n      and\n      swap5\n      and\n      swap4\n      swap1\n      swap4\n      or\n      swap1\n      sstore\n      0xc0\n      dup5\n      add\n      mload\n      0x06\n      dup3\n      add\n      sstore\n      0xe0\n      dup5\n      add\n      mload\n      0x07\n      dup3\n      add\n      dup1\n      sload\n        /* \"contracts/scMarketplace.sol\":14718:14738  _items[marketItemId] */\n      swap3\n      swap5\n        /* \"contracts/scMarketplace.sol\":14718:15207  _items[marketItemId] = MarketItem(... */\n      swap2\n      swap4\n      swap1\n      swap3\n      not(0xff)\n      and\n      swap2\n      dup5\n      swap1\n      dup2\n      gt\n      iszero\n      tag_472\n      jumpi\n      tag_472\n      tag_221\n      jump\t// in\n    tag_472:\n      mul\n      or\n      swap1\n      sstore\n      pop\n      0x0100\n      dup3\n      add\n      mload\n      0x08\n      dup3\n      add\n      sstore\n      0x0120\n      dup3\n      add\n      mload\n      0x09\n      dup3\n      add\n      sstore\n      0x0140\n      dup3\n      add\n      mload\n      0x0a\n      dup3\n      add\n      sstore\n      0x0160\n      dup3\n      add\n      mload\n      dup1\n      mload\n      tag_473\n      swap2\n      0x0b\n      dup5\n      add\n      swap2\n      0x20\n      swap1\n      swap2\n      add\n      swap1\n      tag_474\n      jump\t// in\n    tag_473:\n      pop\n      pop\n        /* \"contracts/scMarketplace.sol\":15291:15310  input.tokenContract */\n      dup4\n      mload\n      sub(shl(0xa0, 0x01), 0x01)\n        /* \"contracts/scMarketplace.sol\":15277:15311  _activeTokens[input.tokenContract] */\n      and\n      0x00\n      swap1\n      dup2\n      mstore\n        /* \"contracts/scMarketplace.sol\":15277:15290  _activeTokens */\n      0x06\n        /* \"contracts/scMarketplace.sol\":15277:15311  _activeTokens[input.tokenContract] */\n      0x20\n      swap1\n      dup2\n      mstore\n      0x40\n      dup1\n      dup4\n      keccak256\n        /* \"contracts/scMarketplace.sol\":15312:15325  input.tokenId */\n      dup3\n      dup9\n      add\n      mload\n        /* \"contracts/scMarketplace.sol\":15277:15326  _activeTokens[input.tokenContract][input.tokenId] */\n      dup5\n      mstore\n      swap1\n      swap2\n      mstore\n      swap1\n      keccak256\n        /* \"contracts/scMarketplace.sol\":15277:15337  _activeTokens[input.tokenContract][input.tokenId] = position */\n      dup3\n      swap1\n      sstore\n      pop\n        /* \"contracts/scMarketplace.sol\":15391:15406  input.whiteList */\n      0x80\n      dup4\n      add\n      mload\n        /* \"contracts/scMarketplace.sol\":15391:15413  input.whiteList.length */\n      mload\n        /* \"contracts/scMarketplace.sol\":15391:15417  input.whiteList.length > 0 */\n      iszero\n        /* \"contracts/scMarketplace.sol\":15387:15550  if (input.whiteList.length > 0)... */\n      tag_475\n      jumpi\n        /* \"contracts/scMarketplace.sol\":15438:15444  uint i */\n      0x00\n        /* \"contracts/scMarketplace.sol\":15433:15542  for (uint i; i < input.whiteList.length; i++)... */\n    tag_476:\n        /* \"contracts/scMarketplace.sol\":15450:15455  input */\n      dup4\n        /* \"contracts/scMarketplace.sol\":15450:15465  input.whiteList */\n      0x80\n      add\n      mload\n        /* \"contracts/scMarketplace.sol\":15450:15472  input.whiteList.length */\n      mload\n        /* \"contracts/scMarketplace.sol\":15446:15447  i */\n      dup2\n        /* \"contracts/scMarketplace.sol\":15446:15472  i < input.whiteList.length */\n      lt\n        /* \"contracts/scMarketplace.sol\":15433:15542  for (uint i; i < input.whiteList.length; i++)... */\n      iszero\n      tag_477\n      jumpi\n        /* \"contracts/scMarketplace.sol\":15488:15515  _allowedToBuy[marketItemId] */\n      0x00\n      dup4\n      dup2\n      mstore\n        /* \"contracts/scMarketplace.sol\":15488:15501  _allowedToBuy */\n      0x08\n        /* \"contracts/scMarketplace.sol\":15488:15515  _allowedToBuy[marketItemId] */\n      0x20\n      mstore\n      0x40\n      dup2\n      keccak256\n        /* \"contracts/scMarketplace.sol\":15516:15531  input.whiteList */\n      0x80\n      dup7\n      add\n      mload\n        /* \"contracts/scMarketplace.sol\":15516:15534  input.whiteList[i] */\n      dup1\n      mload\n        /* \"contracts/scMarketplace.sol\":15538:15542  true */\n      0x01\n      swap4\n        /* \"contracts/scMarketplace.sol\":15488:15515  _allowedToBuy[marketItemId] */\n      swap2\n        /* \"contracts/scMarketplace.sol\":15516:15531  input.whiteList */\n      swap1\n        /* \"contracts/scMarketplace.sol\":15532:15533  i */\n      dup6\n      swap1\n        /* \"contracts/scMarketplace.sol\":15516:15534  input.whiteList[i] */\n      dup2\n      lt\n      tag_480\n      jumpi\n      tag_480\n      tag_178\n      jump\t// in\n    tag_480:\n      0x20\n      swap1\n      dup2\n      mul\n      swap2\n      swap1\n      swap2\n      add\n      dup2\n      add\n      mload\n      sub(shl(0xa0, 0x01), 0x01)\n        /* \"contracts/scMarketplace.sol\":15488:15535  _allowedToBuy[marketItemId][input.whiteList[i]] */\n      and\n      dup3\n      mstore\n      dup2\n      add\n      swap2\n      swap1\n      swap2\n      mstore\n      0x40\n      add\n      0x00\n      keccak256\n        /* \"contracts/scMarketplace.sol\":15488:15542  _allowedToBuy[marketItemId][input.whiteList[i]] = true */\n      dup1\n      sload\n      not(0xff)\n      and\n      swap2\n      iszero\n      iszero\n      swap2\n      swap1\n      swap2\n      or\n      swap1\n      sstore\n        /* \"contracts/scMarketplace.sol\":15474:15477  i++ */\n      dup1\n      tag_481\n      dup2\n      tag_203\n      jump\t// in\n    tag_481:\n      swap2\n      pop\n      pop\n        /* \"contracts/scMarketplace.sol\":15433:15542  for (uint i; i < input.whiteList.length; i++)... */\n      jump(tag_476)\n    tag_477:\n      pop\n        /* \"contracts/scMarketplace.sol\":15387:15550  if (input.whiteList.length > 0)... */\n    tag_475:\n        /* \"contracts/scMarketplace.sol\":15630:15636  seller */\n      dup4\n      sub(shl(0xa0, 0x01), 0x01)\n        /* \"contracts/scMarketplace.sol\":15563:15677  MarketItemPlaced(marketItemId, input.tokenContract, input.tokenId, seller, input.priceContract, input.priceAmount) */\n      and\n        /* \"contracts/scMarketplace.sol\":15594:15599  input */\n      dup4\n        /* \"contracts/scMarketplace.sol\":15594:15613  input.tokenContract */\n      0x00\n      add\n      mload\n      sub(shl(0xa0, 0x01), 0x01)\n        /* \"contracts/scMarketplace.sol\":15563:15677  MarketItemPlaced(marketItemId, input.tokenContract, input.tokenId, seller, input.priceContract, input.priceAmount) */\n      and\n        /* \"contracts/scMarketplace.sol\":15580:15592  marketItemId */\n      dup4\n        /* \"contracts/scMarketplace.sol\":15563:15677  MarketItemPlaced(marketItemId, input.tokenContract, input.tokenId, seller, input.priceContract, input.priceAmount) */\n      0xc48e6ef63d8ee5c32e1a12522041571cc6929dbabed66a5eba6b0e9c65ca8471\n        /* \"contracts/scMarketplace.sol\":15615:15620  input */\n      dup7\n        /* \"contracts/scMarketplace.sol\":15615:15628  input.tokenId */\n      0x20\n      add\n      mload\n        /* \"contracts/scMarketplace.sol\":15638:15643  input */\n      dup8\n        /* \"contracts/scMarketplace.sol\":15638:15657  input.priceContract */\n      0x40\n      add\n      mload\n        /* \"contracts/scMarketplace.sol\":15659:15664  input */\n      dup9\n        /* \"contracts/scMarketplace.sol\":15659:15676  input.priceAmount */\n      0x60\n      add\n      mload\n        /* \"contracts/scMarketplace.sol\":15563:15677  MarketItemPlaced(marketItemId, input.tokenContract, input.tokenId, seller, input.priceContract, input.priceAmount) */\n      mload(0x40)\n      tag_482\n      swap4\n      swap3\n      swap2\n      swap1\n        /* \"#utility.yul\":23261:23286   */\n      swap3\n      dup4\n      mstore\n      sub(shl(0xa0, 0x01), 0x01)\n        /* \"#utility.yul\":23322:23354   */\n      swap2\n      swap1\n      swap2\n      and\n        /* \"#utility.yul\":23317:23319   */\n      0x20\n        /* \"#utility.yul\":23302:23320   */\n      dup4\n      add\n        /* \"#utility.yul\":23295:23355   */\n      mstore\n        /* \"#utility.yul\":23386:23388   */\n      0x40\n        /* \"#utility.yul\":23371:23389   */\n      dup3\n      add\n        /* \"#utility.yul\":23364:23398   */\n      mstore\n        /* \"#utility.yul\":23249:23251   */\n      0x60\n        /* \"#utility.yul\":23234:23252   */\n      add\n      swap1\n        /* \"#utility.yul\":23059:23404   */\n      jump\n        /* \"contracts/scMarketplace.sol\":15563:15677  MarketItemPlaced(marketItemId, input.tokenContract, input.tokenId, seller, input.priceContract, input.priceAmount) */\n    tag_482:\n      mload(0x40)\n      dup1\n      swap2\n      sub\n      swap1\n      log4\n        /* \"contracts/scMarketplace.sol\":14405:15683  {... */\n      pop\n      pop\n        /* \"contracts/scMarketplace.sol\":14324:15683  function _createMarketItem(address seller, MarketItemInput memory input) private {... */\n      pop\n      pop\n      jump\t// out\n        /* \"@openzeppelin/contracts/access/Ownable.sol\":1359:1489  function _checkOwner() internal view virtual {... */\n    tag_206:\n        /* \"@openzeppelin/contracts/access/Ownable.sol\":1247:1254  address */\n      0x00\n        /* \"@openzeppelin/contracts/access/Ownable.sol\":1273:1279  _owner */\n      sload\n      sub(shl(0xa0, 0x01), 0x01)\n      and\n        /* \"@openzeppelin/contracts/utils/Context.sol\":719:729  msg.sender */\n      caller\n        /* \"@openzeppelin/contracts/access/Ownable.sol\":1422:1445  owner() == _msgSender() */\n      eq\n        /* \"@openzeppelin/contracts/access/Ownable.sol\":1414:1482  require(owner() == _msgSender(), \"Ownable: caller is not the owner\") */\n      tag_274\n      jumpi\n      mload(0x40)\n      shl(0xe5, 0x461bcd)\n      dup2\n      mstore\n        /* \"#utility.yul\":23611:23613   */\n      0x20\n        /* \"@openzeppelin/contracts/access/Ownable.sol\":1414:1482  require(owner() == _msgSender(), \"Ownable: caller is not the owner\") */\n      0x04\n      dup3\n      add\n        /* \"#utility.yul\":23593:23614   */\n      dup2\n      swap1\n      mstore\n        /* \"#utility.yul\":23630:23648   */\n      0x24\n      dup3\n      add\n        /* \"#utility.yul\":23623:23653   */\n      mstore\n        /* \"#utility.yul\":23689:23723   */\n      0x4f776e61626c653a2063616c6c6572206973206e6f7420746865206f776e6572\n        /* \"#utility.yul\":23669:23687   */\n      0x44\n      dup3\n      add\n        /* \"#utility.yul\":23662:23724   */\n      mstore\n        /* \"#utility.yul\":23741:23759   */\n      0x64\n      add\n        /* \"@openzeppelin/contracts/access/Ownable.sol\":1414:1482  require(owner() == _msgSender(), \"Ownable: caller is not the owner\") */\n      tag_136\n        /* \"#utility.yul\":23409:23765   */\n      jump\n        /* \"@openzeppelin/contracts/access/Ownable.sol\":2433:2620  function _transferOwnership(address newOwner) internal virtual {... */\n    tag_275:\n        /* \"@openzeppelin/contracts/access/Ownable.sol\":2506:2522  address oldOwner */\n      0x00\n        /* \"@openzeppelin/contracts/access/Ownable.sol\":2525:2531  _owner */\n      dup1\n      sload\n      sub(shl(0xa0, 0x01), 0x01)\n        /* \"@openzeppelin/contracts/access/Ownable.sol\":2541:2558  _owner = newOwner */\n      dup4\n      dup2\n      and\n      not(sub(shl(0xa0, 0x01), 0x01))\n      dup4\n      and\n      dup2\n      or\n      dup5\n      sstore\n        /* \"@openzeppelin/contracts/access/Ownable.sol\":2573:2613  OwnershipTransferred(oldOwner, newOwner) */\n      mload(0x40)\n        /* \"@openzeppelin/contracts/access/Ownable.sol\":2525:2531  _owner */\n      swap2\n      swap1\n      swap3\n      and\n      swap3\n      dup4\n      swap2\n        /* \"@openzeppelin/contracts/access/Ownable.sol\":2573:2613  OwnershipTransferred(oldOwner, newOwner) */\n      0x8be0079c531659141344cd1fd0a4f28419497f9722a3daafe3b4186f6b6457e0\n      swap2\n        /* \"@openzeppelin/contracts/access/Ownable.sol\":2506:2522  address oldOwner */\n      swap1\n        /* \"@openzeppelin/contracts/access/Ownable.sol\":2573:2613  OwnershipTransferred(oldOwner, newOwner) */\n      log3\n        /* \"@openzeppelin/contracts/access/Ownable.sol\":2496:2620  {... */\n      pop\n        /* \"@openzeppelin/contracts/access/Ownable.sol\":2433:2620  function _transferOwnership(address newOwner) internal virtual {... */\n      pop\n      jump\t// out\n        /* \"contracts/scMarketplace.sol\":15731:17395  function _removeMarketItem(uint256 marketItemId, MarketItemStatus status) private idExists(marketItemId) isActive(marketItemId) {... */\n    tag_303:\n        /* \"contracts/scMarketplace.sol\":15822:15834  marketItemId */\n      dup2\n        /* \"contracts/scMarketplace.sol\":4045:4046  0 */\n      0x00\n        /* \"contracts/scMarketplace.sol\":4030:4042  marketItemId */\n      dup2\n        /* \"contracts/scMarketplace.sol\":4030:4046  marketItemId > 0 */\n      gt\n        /* \"contracts/scMarketplace.sol\":4030:4084  marketItemId > 0 && marketItemId <= _itemIds.current() */\n      dup1\n      iszero\n      tag_493\n      jumpi\n      pop\n        /* \"contracts/scMarketplace.sol\":4066:4074  _itemIds */\n      0x03\n        /* \"@openzeppelin/contracts/utils/Counters.sol\":918:932  counter._value */\n      sload\n        /* \"contracts/scMarketplace.sol\":4050:4062  marketItemId */\n      dup2\n        /* \"contracts/scMarketplace.sol\":4050:4084  marketItemId <= _itemIds.current() */\n      gt\n      iszero\n        /* \"contracts/scMarketplace.sol\":4030:4084  marketItemId > 0 && marketItemId <= _itemIds.current() */\n    tag_493:\n        /* \"contracts/scMarketplace.sol\":4022:4112  require(marketItemId > 0 && marketItemId <= _itemIds.current(), \"Invalid Market Item ID!\") */\n      tag_495\n      jumpi\n      mload(0x40)\n      shl(0xe5, 0x461bcd)\n      dup2\n      mstore\n      0x04\n      add\n      tag_136\n      swap1\n      tag_282\n      jump\t// in\n    tag_495:\n        /* \"contracts/scMarketplace.sol\":15845:15857  marketItemId */\n      dup3\n        /* \"contracts/scMarketplace.sol\":4218:4241  MarketItemStatus.Active */\n      0x00\n        /* \"contracts/scMarketplace.sol\":4187:4207  _items[marketItemId] */\n      dup1\n      dup3\n      dup2\n      mstore\n        /* \"contracts/scMarketplace.sol\":4187:4193  _items */\n      0x04\n        /* \"contracts/scMarketplace.sol\":4187:4207  _items[marketItemId] */\n      0x20\n      mstore\n      0x40\n      swap1\n      keccak256\n        /* \"contracts/scMarketplace.sol\":4187:4214  _items[marketItemId].status */\n      0x07\n      add\n      sload\n      0xff\n      and\n        /* \"contracts/scMarketplace.sol\":4187:4241  _items[marketItemId].status == MarketItemStatus.Active */\n      0x03\n      dup2\n      gt\n      iszero\n      tag_501\n      jumpi\n      tag_501\n      tag_221\n      jump\t// in\n    tag_501:\n      eq\n        /* \"contracts/scMarketplace.sol\":4179:4271  require(_items[marketItemId].status == MarketItemStatus.Active, \"Market Item is not Active\") */\n      tag_502\n      jumpi\n      mload(0x40)\n      shl(0xe5, 0x461bcd)\n      dup2\n      mstore\n      0x04\n      add\n      tag_136\n      swap1\n      tag_290\n      jump\t// in\n    tag_502:\n        /* \"contracts/scMarketplace.sol\":15918:15928  uint index */\n      0x00\n        /* \"contracts/scMarketplace.sol\":15931:15951  _items[marketItemId] */\n      dup5\n      dup2\n      mstore\n        /* \"contracts/scMarketplace.sol\":15931:15937  _items */\n      0x04\n        /* \"contracts/scMarketplace.sol\":15931:15951  _items[marketItemId] */\n      0x20\n      mstore\n      0x40\n      dup2\n      keccak256\n        /* \"contracts/scMarketplace.sol\":15931:15960  _items[marketItemId].position */\n      0x09\n      add\n      sload\n        /* \"contracts/scMarketplace.sol\":15931:15964  _items[marketItemId].position - 1 */\n      tag_505\n      swap1\n        /* \"contracts/scMarketplace.sol\":15963:15964  1 */\n      0x01\n      swap1\n        /* \"contracts/scMarketplace.sol\":15931:15964  _items[marketItemId].position - 1 */\n      tag_252\n      jump\t// in\n    tag_505:\n        /* \"contracts/scMarketplace.sol\":15918:15964  uint index = _items[marketItemId].position - 1 */\n      swap1\n      pop\n        /* \"contracts/scMarketplace.sol\":16068:16080  _activeItems */\n      0x05\n        /* \"contracts/scMarketplace.sol\":16068:16087  _activeItems.length */\n      sload\n        /* \"contracts/scMarketplace.sol\":16060:16087  index < _activeItems.length */\n      dup2\n      lt\n        /* \"contracts/scMarketplace.sol\":16038:16141  require(index >= 0 && index < _activeItems.length, \"Market Item has no position in Active Items array\") */\n      tag_507\n      jumpi\n      mload(0x40)\n      shl(0xe5, 0x461bcd)\n      dup2\n      mstore\n        /* \"#utility.yul\":23972:23974   */\n      0x20\n        /* \"contracts/scMarketplace.sol\":16038:16141  require(index >= 0 && index < _activeItems.length, \"Market Item has no position in Active Items array\") */\n      0x04\n      dup3\n      add\n        /* \"#utility.yul\":23954:23975   */\n      mstore\n        /* \"#utility.yul\":24011:24013   */\n      0x31\n        /* \"#utility.yul\":23991:24009   */\n      0x24\n      dup3\n      add\n        /* \"#utility.yul\":23984:24014   */\n      mstore\n        /* \"#utility.yul\":24050:24084   */\n      0x4d61726b6574204974656d20686173206e6f20706f736974696f6e20696e2041\n        /* \"#utility.yul\":24030:24048   */\n      0x44\n      dup3\n      add\n        /* \"#utility.yul\":24023:24085   */\n      mstore\n      shl(0x78, 0x6374697665204974656d73206172726179)\n        /* \"#utility.yul\":24101:24119   */\n      0x64\n      dup3\n      add\n        /* \"#utility.yul\":24094:24141   */\n      mstore\n        /* \"#utility.yul\":24158:24177   */\n      0x84\n      add\n        /* \"contracts/scMarketplace.sol\":16038:16141  require(index >= 0 && index < _activeItems.length, \"Market Item has no position in Active Items array\") */\n      tag_136\n        /* \"#utility.yul\":23770:24183   */\n      jump\n        /* \"contracts/scMarketplace.sol\":16038:16141  require(index >= 0 && index < _activeItems.length, \"Market Item has no position in Active Items array\") */\n    tag_507:\n        /* \"contracts/scMarketplace.sol\":16243:16255  marketItemId */\n      dup5\n        /* \"contracts/scMarketplace.sol\":16220:16232  _activeItems */\n      0x05\n        /* \"contracts/scMarketplace.sol\":16233:16238  index */\n      dup3\n        /* \"contracts/scMarketplace.sol\":16220:16239  _activeItems[index] */\n      dup2\n      sload\n      dup2\n      lt\n      tag_511\n      jumpi\n      tag_511\n      tag_178\n      jump\t// in\n    tag_511:\n      swap1\n      0x00\n      mstore\n      keccak256(0x00, 0x20)\n      add\n      sload\n        /* \"contracts/scMarketplace.sol\":16220:16255  _activeItems[index] == marketItemId */\n      eq\n        /* \"contracts/scMarketplace.sol\":16212:16317  require(_activeItems[index] == marketItemId, \"Market Item is not on the position in Active Items array!\") */\n      tag_513\n      jumpi\n      mload(0x40)\n      shl(0xe5, 0x461bcd)\n      dup2\n      mstore\n        /* \"#utility.yul\":24390:24392   */\n      0x20\n        /* \"contracts/scMarketplace.sol\":16212:16317  require(_activeItems[index] == marketItemId, \"Market Item is not on the position in Active Items array!\") */\n      0x04\n      dup3\n      add\n        /* \"#utility.yul\":24372:24393   */\n      mstore\n        /* \"#utility.yul\":24429:24431   */\n      0x39\n        /* \"#utility.yul\":24409:24427   */\n      0x24\n      dup3\n      add\n        /* \"#utility.yul\":24402:24432   */\n      mstore\n        /* \"#utility.yul\":24468:24502   */\n      0x4d61726b6574204974656d206973206e6f74206f6e2074686520706f73697469\n        /* \"#utility.yul\":24448:24466   */\n      0x44\n      dup3\n      add\n        /* \"#utility.yul\":24441:24503   */\n      mstore\n        /* \"#utility.yul\":24539:24566   */\n      0x6f6e20696e20416374697665204974656d732061727261792100000000000000\n        /* \"#utility.yul\":24519:24537   */\n      0x64\n      dup3\n      add\n        /* \"#utility.yul\":24512:24567   */\n      mstore\n        /* \"#utility.yul\":24584:24603   */\n      0x84\n      add\n        /* \"contracts/scMarketplace.sol\":16212:16317  require(_activeItems[index] == marketItemId, \"Market Item is not on the position in Active Items array!\") */\n      tag_136\n        /* \"#utility.yul\":24188:24609   */\n      jump\n        /* \"contracts/scMarketplace.sol\":16212:16317  require(_activeItems[index] == marketItemId, \"Market Item is not on the position in Active Items array!\") */\n    tag_513:\n        /* \"contracts/scMarketplace.sol\":16393:16416  MarketItemStatus.Active */\n      0x00\n        /* \"contracts/scMarketplace.sol\":16383:16389  status */\n      dup5\n        /* \"contracts/scMarketplace.sol\":16383:16416  status != MarketItemStatus.Active */\n      0x03\n      dup2\n      gt\n      iszero\n      tag_519\n      jumpi\n      tag_519\n      tag_221\n      jump\t// in\n    tag_519:\n      sub\n        /* \"contracts/scMarketplace.sol\":16375:16466  require(status != MarketItemStatus.Active, \"Specify correct status to remove Market Item!\") */\n      tag_520\n      jumpi\n      mload(0x40)\n      shl(0xe5, 0x461bcd)\n      dup2\n      mstore\n        /* \"#utility.yul\":24816:24818   */\n      0x20\n        /* \"contracts/scMarketplace.sol\":16375:16466  require(status != MarketItemStatus.Active, \"Specify correct status to remove Market Item!\") */\n      0x04\n      dup3\n      add\n        /* \"#utility.yul\":24798:24819   */\n      mstore\n        /* \"#utility.yul\":24855:24857   */\n      0x2d\n        /* \"#utility.yul\":24835:24853   */\n      0x24\n      dup3\n      add\n        /* \"#utility.yul\":24828:24858   */\n      mstore\n        /* \"#utility.yul\":24894:24928   */\n      0x5370656369667920636f72726563742073746174757320746f2072656d6f7665\n        /* \"#utility.yul\":24874:24892   */\n      0x44\n      dup3\n      add\n        /* \"#utility.yul\":24867:24929   */\n      mstore\n      shl(0x98, 0x204d61726b6574204974656d21)\n        /* \"#utility.yul\":24945:24963   */\n      0x64\n      dup3\n      add\n        /* \"#utility.yul\":24938:24981   */\n      mstore\n        /* \"#utility.yul\":24998:25017   */\n      0x84\n      add\n        /* \"contracts/scMarketplace.sol\":16375:16466  require(status != MarketItemStatus.Active, \"Specify correct status to remove Market Item!\") */\n      tag_136\n        /* \"#utility.yul\":24614:25023   */\n      jump\n        /* \"contracts/scMarketplace.sol\":16375:16466  require(status != MarketItemStatus.Active, \"Specify correct status to remove Market Item!\") */\n    tag_520:\n        /* \"contracts/scMarketplace.sol\":16520:16540  _items[marketItemId] */\n      0x00\n      dup6\n      dup2\n      mstore\n        /* \"contracts/scMarketplace.sol\":16520:16526  _items */\n      0x04\n        /* \"contracts/scMarketplace.sol\":16520:16540  _items[marketItemId] */\n      0x20\n      mstore\n      0x40\n      swap1\n      keccak256\n        /* \"contracts/scMarketplace.sol\":16520:16547  _items[marketItemId].status */\n      0x07\n      add\n        /* \"contracts/scMarketplace.sol\":16520:16556  _items[marketItemId].status = status */\n      dup1\n      sload\n        /* \"contracts/scMarketplace.sol\":16550:16556  status */\n      dup6\n      swap2\n        /* \"contracts/scMarketplace.sol\":16520:16547  _items[marketItemId].status */\n      swap1\n      not(0xff)\n        /* \"contracts/scMarketplace.sol\":16520:16556  _items[marketItemId].status = status */\n      and\n      0x01\n        /* \"contracts/scMarketplace.sol\":16550:16556  status */\n      dup4\n        /* \"contracts/scMarketplace.sol\":16520:16556  _items[marketItemId].status = status */\n      0x03\n      dup2\n      gt\n      iszero\n      tag_524\n      jumpi\n      tag_524\n      tag_221\n      jump\t// in\n    tag_524:\n      mul\n      or\n      swap1\n      sstore\n      pop\n        /* \"contracts/scMarketplace.sol\":16595:16596  0 */\n      0x00\n        /* \"contracts/scMarketplace.sol\":16563:16583  _items[marketItemId] */\n      dup6\n      dup2\n      mstore\n        /* \"contracts/scMarketplace.sol\":16563:16569  _items */\n      0x04\n        /* \"contracts/scMarketplace.sol\":16563:16583  _items[marketItemId] */\n      0x20\n      mstore\n      0x40\n      dup2\n      keccak256\n        /* \"contracts/scMarketplace.sol\":16563:16592  _items[marketItemId].position */\n      0x09\n      add\n        /* \"contracts/scMarketplace.sol\":16563:16596  _items[marketItemId].position = 0 */\n      sstore\n        /* \"contracts/scMarketplace.sol\":16680:16692  _activeItems */\n      0x05\n        /* \"contracts/scMarketplace.sol\":16680:16699  _activeItems.length */\n      sload\n        /* \"contracts/scMarketplace.sol\":16680:16703  _activeItems.length - 1 */\n      tag_525\n      swap1\n        /* \"contracts/scMarketplace.sol\":16702:16703  1 */\n      0x01\n      swap1\n        /* \"contracts/scMarketplace.sol\":16680:16703  _activeItems.length - 1 */\n      tag_252\n      jump\t// in\n    tag_525:\n        /* \"contracts/scMarketplace.sol\":16672:16677  index */\n      dup2\n        /* \"contracts/scMarketplace.sol\":16672:16703  index < _activeItems.length - 1 */\n      lt\n        /* \"contracts/scMarketplace.sol\":16668:17097  if (index < _activeItems.length - 1) {... */\n      iszero\n      tag_526\n      jumpi\n        /* \"contracts/scMarketplace.sol\":16779:16791  _activeItems */\n      0x05\n        /* \"contracts/scMarketplace.sol\":16792:16811  _activeItems.length */\n      dup1\n      sload\n        /* \"contracts/scMarketplace.sol\":16758:16776  uint256 lastItemId */\n      0x00\n      swap2\n        /* \"contracts/scMarketplace.sol\":16779:16791  _activeItems */\n      swap1\n        /* \"contracts/scMarketplace.sol\":16792:16815  _activeItems.length - 1 */\n      tag_527\n      swap1\n        /* \"contracts/scMarketplace.sol\":16814:16815  1 */\n      0x01\n      swap1\n        /* \"contracts/scMarketplace.sol\":16792:16815  _activeItems.length - 1 */\n      tag_252\n      jump\t// in\n    tag_527:\n        /* \"contracts/scMarketplace.sol\":16779:16816  _activeItems[_activeItems.length - 1] */\n      dup2\n      sload\n      dup2\n      lt\n      tag_529\n      jumpi\n      tag_529\n      tag_178\n      jump\t// in\n    tag_529:\n      swap1\n      0x00\n      mstore\n      keccak256(0x00, 0x20)\n      add\n      sload\n        /* \"contracts/scMarketplace.sol\":16758:16816  uint256 lastItemId = _activeItems[_activeItems.length - 1] */\n      swap1\n      pop\n        /* \"contracts/scMarketplace.sol\":16885:16895  lastItemId */\n      dup1\n        /* \"contracts/scMarketplace.sol\":16863:16875  _activeItems */\n      0x05\n        /* \"contracts/scMarketplace.sol\":16876:16881  index */\n      dup4\n        /* \"contracts/scMarketplace.sol\":16863:16882  _activeItems[index] */\n      dup2\n      sload\n      dup2\n      lt\n      tag_532\n      jumpi\n      tag_532\n      tag_178\n      jump\t// in\n    tag_532:\n      0x00\n      swap2\n      dup3\n      mstore\n      0x20\n      swap1\n      swap2\n      keccak256\n      add\n        /* \"contracts/scMarketplace.sol\":16863:16895  _activeItems[index] = lastItemId */\n      sstore\n        /* \"contracts/scMarketplace.sol\":16984:16993  index + 1 */\n      tag_534\n        /* \"contracts/scMarketplace.sol\":16984:16989  index */\n      dup3\n        /* \"contracts/scMarketplace.sol\":16992:16993  1 */\n      0x01\n        /* \"contracts/scMarketplace.sol\":16984:16993  index + 1 */\n      tag_535\n      jump\t// in\n    tag_534:\n        /* \"contracts/scMarketplace.sol\":16954:16972  _items[lastItemId] */\n      0x00\n      dup3\n      dup2\n      mstore\n        /* \"contracts/scMarketplace.sol\":16954:16960  _items */\n      0x04\n        /* \"contracts/scMarketplace.sol\":16954:16972  _items[lastItemId] */\n      0x20\n      mstore\n      0x40\n      swap1\n      keccak256\n        /* \"contracts/scMarketplace.sol\":16954:16981  _items[lastItemId].position */\n      0x09\n      add\n        /* \"contracts/scMarketplace.sol\":16954:16993  _items[lastItemId].position = index + 1 */\n      sstore\n        /* \"contracts/scMarketplace.sol\":17080:17089  index + 1 */\n      tag_536\n        /* \"contracts/scMarketplace.sol\":17080:17085  index */\n      dup3\n        /* \"contracts/scMarketplace.sol\":17088:17089  1 */\n      0x01\n        /* \"contracts/scMarketplace.sol\":17080:17089  index + 1 */\n      tag_535\n      jump\t// in\n    tag_536:\n        /* \"contracts/scMarketplace.sol\":17002:17049  _activeTokens[_items[lastItemId].tokenContract] */\n      0x00\n        /* \"contracts/scMarketplace.sol\":17016:17034  _items[lastItemId] */\n      swap2\n      dup3\n      mstore\n        /* \"contracts/scMarketplace.sol\":17016:17022  _items */\n      0x04\n        /* \"contracts/scMarketplace.sol\":17016:17034  _items[lastItemId] */\n      0x20\n      swap1\n      dup2\n      mstore\n      0x40\n      dup1\n      dup5\n      keccak256\n        /* \"contracts/scMarketplace.sol\":17016:17048  _items[lastItemId].tokenContract */\n      0x01\n      dup2\n      add\n      sload\n      sub(shl(0xa0, 0x01), 0x01)\n      and\n        /* \"contracts/scMarketplace.sol\":17002:17049  _activeTokens[_items[lastItemId].tokenContract] */\n      dup6\n      mstore\n        /* \"contracts/scMarketplace.sol\":17002:17015  _activeTokens */\n      0x06\n        /* \"contracts/scMarketplace.sol\":17002:17049  _activeTokens[_items[lastItemId].tokenContract] */\n      dup4\n      mstore\n      dup2\n      dup6\n      keccak256\n        /* \"contracts/scMarketplace.sol\":17050:17076  _items[lastItemId].tokenId */\n      0x02\n      swap1\n      swap2\n      add\n      sload\n        /* \"contracts/scMarketplace.sol\":17002:17077  _activeTokens[_items[lastItemId].tokenContract][_items[lastItemId].tokenId] */\n      dup6\n      mstore\n      swap1\n      swap2\n      mstore\n      swap1\n      swap2\n      keccak256\n        /* \"contracts/scMarketplace.sol\":17002:17089  _activeTokens[_items[lastItemId].tokenContract][_items[lastItemId].tokenId] = index + 1 */\n      sstore\n        /* \"contracts/scMarketplace.sol\":16668:17097  if (index < _activeItems.length - 1) {... */\n    tag_526:\n        /* \"contracts/scMarketplace.sol\":17169:17181  _activeItems */\n      0x05\n        /* \"contracts/scMarketplace.sol\":17169:17187  _activeItems.pop() */\n      dup1\n      sload\n      dup1\n      tag_538\n      jumpi\n      tag_538\n      tag_539\n      jump\t// in\n    tag_538:\n      0x00\n      dup3\n      dup2\n      mstore\n      0x20\n      dup1\n      dup3\n      keccak256\n      dup4\n      add\n      not(0x00)\n      swap1\n      dup2\n      add\n      dup4\n      swap1\n      sstore\n      swap1\n      swap3\n      add\n      swap1\n      swap3\n      sstore\n        /* \"contracts/scMarketplace.sol\":17271:17291  _items[marketItemId] */\n      dup7\n      dup3\n      mstore\n        /* \"contracts/scMarketplace.sol\":17271:17277  _items */\n      0x04\n        /* \"contracts/scMarketplace.sol\":17271:17291  _items[marketItemId] */\n      dup2\n      mstore\n      0x40\n      dup1\n      dup4\n      keccak256\n        /* \"contracts/scMarketplace.sol\":17169:17187  _activeItems.pop() */\n      0x01\n        /* \"contracts/scMarketplace.sol\":17271:17305  _items[marketItemId].tokenContract */\n      dup2\n      add\n      sload\n      sub(shl(0xa0, 0x01), 0x01)\n      and\n        /* \"contracts/scMarketplace.sol\":17257:17306  _activeTokens[_items[marketItemId].tokenContract] */\n      dup5\n      mstore\n        /* \"contracts/scMarketplace.sol\":17257:17270  _activeTokens */\n      0x06\n        /* \"contracts/scMarketplace.sol\":17257:17306  _activeTokens[_items[marketItemId].tokenContract] */\n      dup4\n      mstore\n      dup2\n      dup5\n      keccak256\n        /* \"contracts/scMarketplace.sol\":17307:17335  _items[marketItemId].tokenId */\n      0x02\n      swap1\n      swap2\n      add\n      sload\n        /* \"contracts/scMarketplace.sol\":17257:17336  _activeTokens[_items[marketItemId].tokenContract][_items[marketItemId].tokenId] */\n      dup5\n      mstore\n      swap1\n      swap2\n      mstore\n      dup1\n      dup3\n      keccak256\n        /* \"contracts/scMarketplace.sol\":17250:17336  delete _activeTokens[_items[marketItemId].tokenContract][_items[marketItemId].tokenId] */\n      swap2\n      swap1\n      swap2\n      sstore\n        /* \"contracts/scMarketplace.sol\":17350:17389  MarketItemRemoved(marketItemId, status) */\n      mload\n        /* \"contracts/scMarketplace.sol\":17278:17290  marketItemId */\n      dup6\n      swap1\n        /* \"contracts/scMarketplace.sol\":17350:17389  MarketItemRemoved(marketItemId, status) */\n      0x471936d15caaa62c7c9222e363a0323e64ed408a1c87a4ef46c7596655eb1b3d\n      swap1\n      tag_541\n      swap1\n        /* \"contracts/scMarketplace.sol\":17382:17388  status */\n      dup8\n      swap1\n        /* \"contracts/scMarketplace.sol\":17350:17389  MarketItemRemoved(marketItemId, status) */\n      tag_542\n      jump\t// in\n    tag_541:\n      mload(0x40)\n      dup1\n      swap2\n      sub\n      swap1\n      log2\n        /* \"contracts/scMarketplace.sol\":15859:17395  {... */\n      pop\n        /* \"contracts/scMarketplace.sol\":4119:4120  _ */\n      pop\n        /* \"contracts/scMarketplace.sol\":15731:17395  function _removeMarketItem(uint256 marketItemId, MarketItemStatus status) private idExists(marketItemId) isActive(marketItemId) {... */\n      pop\n      pop\n      pop\n      jump\t// out\n        /* \"contracts/scBeneficiary.sol\":3479:3648  function _isBeneficiaryExists() internal view virtual returns (bool){... */\n    tag_327:\n        /* \"contracts/scBeneficiary.sol\":3542:3546  bool */\n      0x00\n      dup1\n        /* \"contracts/scBeneficiary.sol\":3561:3573  _beneficiary */\n      0x01\n        /* \"contracts/scBeneficiary.sol\":3561:3578  _beneficiary.mode */\n      sload\n      0xff\n      and\n        /* \"contracts/scBeneficiary.sol\":3561:3602  _beneficiary.mode != BeneficiaryMode.None */\n      0x02\n      dup2\n      gt\n      iszero\n      tag_547\n      jumpi\n      tag_547\n      tag_221\n      jump\t// in\n    tag_547:\n      eq\n      iszero\n        /* \"contracts/scBeneficiary.sol\":3561:3642  _beneficiary.mode != BeneficiaryMode.None && _beneficiary.recipient != address(0) */\n      dup1\n      iszero\n      tag_214\n      jumpi\n      pop\n        /* \"contracts/scBeneficiary.sol\":3606:3618  _beneficiary */\n      0x01\n        /* \"contracts/scBeneficiary.sol\":3606:3628  _beneficiary.recipient */\n      sload\n      0x0100\n      swap1\n      div\n      sub(shl(0xa0, 0x01), 0x01)\n      and\n        /* \"contracts/scBeneficiary.sol\":3606:3642  _beneficiary.recipient != address(0) */\n      iszero\n      iszero\n        /* \"contracts/scBeneficiary.sol\":3554:3642  return _beneficiary.mode != BeneficiaryMode.None && _beneficiary.recipient != address(0) */\n      swap1\n      pop\n        /* \"contracts/scBeneficiary.sol\":3479:3648  function _isBeneficiaryExists() internal view virtual returns (bool){... */\n      swap1\n      jump\t// out\n        /* \"@openzeppelin/contracts/token/ERC20/utils/SafeERC20.sol\":763:968  function safeTransfer(... */\n    tag_350:\n        /* \"@openzeppelin/contracts/token/ERC20/utils/SafeERC20.sol\":902:960  abi.encodeWithSelector(token.transfer.selector, to, value) */\n      mload(0x40)\n      sub(shl(0xa0, 0x01), 0x01)\n        /* \"#utility.yul\":25712:25744   */\n      dup4\n      and\n        /* \"@openzeppelin/contracts/token/ERC20/utils/SafeERC20.sol\":902:960  abi.encodeWithSelector(token.transfer.selector, to, value) */\n      0x24\n      dup3\n      add\n        /* \"#utility.yul\":25694:25745   */\n      mstore\n        /* \"#utility.yul\":25761:25779   */\n      0x44\n      dup2\n      add\n        /* \"#utility.yul\":25754:25788   */\n      dup3\n      swap1\n      mstore\n        /* \"@openzeppelin/contracts/token/ERC20/utils/SafeERC20.sol\":875:961  _callOptionalReturn(token, abi.encodeWithSelector(token.transfer.selector, to, value)) */\n      tag_340\n      swap1\n        /* \"@openzeppelin/contracts/token/ERC20/utils/SafeERC20.sol\":895:900  token */\n      dup5\n      swap1\n      shl(0xe0, 0xa9059cbb)\n        /* \"@openzeppelin/contracts/token/ERC20/utils/SafeERC20.sol\":925:948  token.transfer.selector */\n      swap1\n        /* \"#utility.yul\":25667:25685   */\n      0x64\n      add\n        /* \"@openzeppelin/contracts/token/ERC20/utils/SafeERC20.sol\":902:960  abi.encodeWithSelector(token.transfer.selector, to, value) */\n    tag_551:\n      0x40\n      dup1\n      mload\n      not(0x1f)\n      dup2\n      dup5\n      sub\n      add\n      dup2\n      mstore\n      swap2\n      swap1\n      mstore\n      0x20\n      dup2\n      add\n      dup1\n      mload\n      sub(shl(0xe0, 0x01), 0x01)\n      and\n      not(sub(shl(0xe0, 0x01), 0x01))\n      swap1\n      swap4\n      and\n      swap3\n      swap1\n      swap3\n      or\n      swap1\n      swap2\n      mstore\n        /* \"@openzeppelin/contracts/token/ERC20/utils/SafeERC20.sol\":875:894  _callOptionalReturn */\n      tag_553\n        /* \"@openzeppelin/contracts/token/ERC20/utils/SafeERC20.sol\":875:961  _callOptionalReturn(token, abi.encodeWithSelector(token.transfer.selector, to, value)) */\n      jump\t// in\n        /* \"contracts/scMarketplace.sol\":13050:13159  function _getCustomRate(address adr) private view returns (MarketRate memory) {... */\n    tag_356:\n        /* \"contracts/scMarketplace.sol\":13109:13126  MarketRate memory */\n      tag_554\n      mload(0x40)\n      dup1\n      0x80\n      add\n      0x40\n      mstore\n      dup1\n      iszero(iszero(0x00))\n      dup2\n      mstore\n      0x20\n      add\n      0x00\n      dup2\n      mstore\n      0x20\n      add\n      0x00\n      dup2\n      mstore\n      0x20\n      add\n      0x00\n      dup2\n      mstore\n      pop\n      swap1\n      jump\n    tag_554:\n      pop\n      sub(shl(0xa0, 0x01), 0x01)\n        /* \"contracts/scMarketplace.sol\":13142:13153  _rates[adr] */\n      and\n      0x00\n      swap1\n      dup2\n      mstore\n        /* \"contracts/scMarketplace.sol\":13142:13148  _rates */\n      0x07\n        /* \"contracts/scMarketplace.sol\":13142:13153  _rates[adr] */\n      0x20\n      swap1\n      dup2\n      mstore\n      0x40\n      swap2\n      dup3\n      swap1\n      keccak256\n        /* \"contracts/scMarketplace.sol\":13135:13153  return _rates[adr] */\n      dup3\n      mload\n      0x80\n      dup2\n      add\n      dup5\n      mstore\n      dup2\n      sload\n      0xff\n      and\n      iszero\n      iszero\n      dup2\n      mstore\n      0x01\n      dup3\n      add\n      sload\n      swap3\n      dup2\n      add\n      swap3\n      swap1\n      swap3\n      mstore\n      0x02\n      dup2\n      add\n      sload\n      swap3\n      dup3\n      add\n      swap3\n      swap1\n      swap3\n      mstore\n      0x03\n      swap1\n      swap2\n      add\n      sload\n      0x60\n      dup3\n      add\n      mstore\n      swap1\n        /* \"contracts/scMarketplace.sol\":13050:13159  function _getCustomRate(address adr) private view returns (MarketRate memory) {... */\n      jump\t// out\n        /* \"@openzeppelin/contracts/token/ERC20/utils/SafeERC20.sol\":1475:2078  function safeApprove(... */\n    tag_359:\n        /* \"@openzeppelin/contracts/token/ERC20/utils/SafeERC20.sol\":1830:1840  value == 0 */\n      dup1\n      iszero\n      dup1\n        /* \"@openzeppelin/contracts/token/ERC20/utils/SafeERC20.sol\":1829:1891  (value == 0) || (token.allowance(address(this), spender) == 0) */\n      tag_557\n      jumpi\n      pop\n        /* \"@openzeppelin/contracts/token/ERC20/utils/SafeERC20.sol\":1846:1885  token.allowance(address(this), spender) */\n      mload(0x40)\n      shl(0xe1, 0x6eb1769f)\n      dup2\n      mstore\n        /* \"@openzeppelin/contracts/token/ERC20/utils/SafeERC20.sol\":1870:1874  this */\n      address\n        /* \"@openzeppelin/contracts/token/ERC20/utils/SafeERC20.sol\":1846:1885  token.allowance(address(this), spender) */\n      0x04\n      dup3\n      add\n        /* \"#utility.yul\":20176:20210   */\n      mstore\n      sub(shl(0xa0, 0x01), 0x01)\n        /* \"#utility.yul\":20246:20261   */\n      dup4\n      dup2\n      and\n        /* \"#utility.yul\":20226:20244   */\n      0x24\n      dup4\n      add\n        /* \"#utility.yul\":20219:20262   */\n      mstore\n        /* \"@openzeppelin/contracts/token/ERC20/utils/SafeERC20.sol\":1846:1861  token.allowance */\n      dup5\n      and\n      swap1\n      0xdd62ed3e\n      swap1\n        /* \"#utility.yul\":20111:20129   */\n      0x44\n      add\n        /* \"@openzeppelin/contracts/token/ERC20/utils/SafeERC20.sol\":1846:1885  token.allowance(address(this), spender) */\n      0x20\n      mload(0x40)\n      dup1\n      dup4\n      sub\n      dup2\n      dup7\n      gas\n      staticcall\n      iszero\n      dup1\n      iszero\n      tag_560\n      jumpi\n      returndatasize\n      0x00\n      dup1\n      returndatacopy\n      revert(0x00, returndatasize)\n    tag_560:\n      pop\n      pop\n      pop\n      pop\n      mload(0x40)\n      returndatasize\n      not(0x1f)\n      0x1f\n      dup3\n      add\n      and\n      dup3\n      add\n      dup1\n      0x40\n      mstore\n      pop\n      dup2\n      add\n      swap1\n      tag_561\n      swap2\n      swap1\n      tag_345\n      jump\t// in\n    tag_561:\n        /* \"@openzeppelin/contracts/token/ERC20/utils/SafeERC20.sol\":1846:1890  token.allowance(address(this), spender) == 0 */\n      iszero\n        /* \"@openzeppelin/contracts/token/ERC20/utils/SafeERC20.sol\":1829:1891  (value == 0) || (token.allowance(address(this), spender) == 0) */\n    tag_557:\n        /* \"@openzeppelin/contracts/token/ERC20/utils/SafeERC20.sol\":1808:1971  require(... */\n      tag_562\n      jumpi\n      mload(0x40)\n      shl(0xe5, 0x461bcd)\n      dup2\n      mstore\n        /* \"#utility.yul\":26001:26003   */\n      0x20\n        /* \"@openzeppelin/contracts/token/ERC20/utils/SafeERC20.sol\":1808:1971  require(... */\n      0x04\n      dup3\n      add\n        /* \"#utility.yul\":25983:26004   */\n      mstore\n        /* \"#utility.yul\":26040:26042   */\n      0x36\n        /* \"#utility.yul\":26020:26038   */\n      0x24\n      dup3\n      add\n        /* \"#utility.yul\":26013:26043   */\n      mstore\n        /* \"#utility.yul\":26079:26113   */\n      0x5361666545524332303a20617070726f76652066726f6d206e6f6e2d7a65726f\n        /* \"#utility.yul\":26059:26077   */\n      0x44\n      dup3\n      add\n        /* \"#utility.yul\":26052:26114   */\n      mstore\n      shl(0x50, 0x20746f206e6f6e2d7a65726f20616c6c6f77616e6365)\n        /* \"#utility.yul\":26130:26148   */\n      0x64\n      dup3\n      add\n        /* \"#utility.yul\":26123:26175   */\n      mstore\n        /* \"#utility.yul\":26192:26211   */\n      0x84\n      add\n        /* \"@openzeppelin/contracts/token/ERC20/utils/SafeERC20.sol\":1808:1971  require(... */\n      tag_136\n        /* \"#utility.yul\":25799:26217   */\n      jump\n        /* \"@openzeppelin/contracts/token/ERC20/utils/SafeERC20.sol\":1808:1971  require(... */\n    tag_562:\n        /* \"@openzeppelin/contracts/token/ERC20/utils/SafeERC20.sol\":2008:2070  abi.encodeWithSelector(token.approve.selector, spender, value) */\n      mload(0x40)\n      sub(shl(0xa0, 0x01), 0x01)\n        /* \"#utility.yul\":25712:25744   */\n      dup4\n      and\n        /* \"@openzeppelin/contracts/token/ERC20/utils/SafeERC20.sol\":2008:2070  abi.encodeWithSelector(token.approve.selector, spender, value) */\n      0x24\n      dup3\n      add\n        /* \"#utility.yul\":25694:25745   */\n      mstore\n        /* \"#utility.yul\":25761:25779   */\n      0x44\n      dup2\n      add\n        /* \"#utility.yul\":25754:25788   */\n      dup3\n      swap1\n      mstore\n        /* \"@openzeppelin/contracts/token/ERC20/utils/SafeERC20.sol\":1981:2071  _callOptionalReturn(token, abi.encodeWithSelector(token.approve.selector, spender, value)) */\n      tag_340\n      swap1\n        /* \"@openzeppelin/contracts/token/ERC20/utils/SafeERC20.sol\":2001:2006  token */\n      dup5\n      swap1\n      shl(0xe0, 0x095ea7b3)\n        /* \"@openzeppelin/contracts/token/ERC20/utils/SafeERC20.sol\":2031:2053  token.approve.selector */\n      swap1\n        /* \"#utility.yul\":25667:25685   */\n      0x64\n      add\n        /* \"@openzeppelin/contracts/token/ERC20/utils/SafeERC20.sol\":2008:2070  abi.encodeWithSelector(token.approve.selector, spender, value) */\n      tag_551\n        /* \"#utility.yul\":25520:25794   */\n      jump\n        /* \"contracts/scMarketplace.sol\":17447:19508  function _chargePrice(... */\n    tag_417:\n        /* \"contracts/scMarketplace.sol\":17537:17544  uint256 */\n      0x00\n        /* \"contracts/scMarketplace.sol\":17620:17640  _items[marketItemId] */\n      dup3\n      dup2\n      mstore\n        /* \"contracts/scMarketplace.sol\":17620:17626  _items */\n      0x04\n        /* \"contracts/scMarketplace.sol\":17620:17640  _items[marketItemId] */\n      0x20\n      mstore\n      0x40\n      dup2\n      keccak256\n        /* \"contracts/scMarketplace.sol\":17620:17647  _items[marketItemId].seller */\n      0x03\n      dup2\n      add\n      sload\n        /* \"contracts/scMarketplace.sol\":17697:17723  _items[marketItemId].price */\n      0x06\n      dup3\n      add\n      sload\n        /* \"contracts/scMarketplace.sol\":17777:17811  _items[marketItemId].priceContract */\n      0x05\n      swap1\n      swap3\n      add\n      sload\n      sub(shl(0xa0, 0x01), 0x01)\n        /* \"contracts/scMarketplace.sol\":17620:17647  _items[marketItemId].seller */\n      swap2\n      dup3\n      and\n      swap3\n        /* \"contracts/scMarketplace.sol\":17697:17723  _items[marketItemId].price */\n      swap2\n        /* \"contracts/scMarketplace.sol\":17777:17811  _items[marketItemId].priceContract */\n      and\n        /* \"contracts/scMarketplace.sol\":17537:17544  uint256 */\n      dup4\n        /* \"contracts/scMarketplace.sol\":17871:17892  _getValidRate(seller) */\n      tag_568\n        /* \"contracts/scMarketplace.sol\":17620:17647  _items[marketItemId].seller */\n      dup5\n        /* \"contracts/scMarketplace.sol\":17871:17884  _getValidRate */\n      tag_156\n        /* \"contracts/scMarketplace.sol\":17871:17892  _getValidRate(seller) */\n      jump\t// in\n    tag_568:\n        /* \"contracts/scMarketplace.sol\":17871:17903  _getValidRate(seller).feePercent */\n      0x60\n      add\n      mload\n      swap1\n      pop\n        /* \"contracts/scMarketplace.sol\":17940:17957  uint256 feeAmount */\n      0x00\n        /* \"contracts/scMarketplace.sol\":17987:17990  100 */\n      0x64\n        /* \"contracts/scMarketplace.sol\":17960:17984  feePercent * priceAmount */\n      tag_569\n        /* \"contracts/scMarketplace.sol\":17973:17984  priceAmount */\n      dup6\n        /* \"contracts/scMarketplace.sol\":17871:17903  _getValidRate(seller).feePercent */\n      dup5\n        /* \"contracts/scMarketplace.sol\":17960:17984  feePercent * priceAmount */\n      tag_172\n      jump\t// in\n    tag_569:\n        /* \"contracts/scMarketplace.sol\":17960:17990  feePercent * priceAmount / 100 */\n      tag_570\n      swap2\n      swap1\n      tag_571\n      jump\t// in\n    tag_570:\n        /* \"contracts/scMarketplace.sol\":17940:17990  uint256 feeAmount = feePercent * priceAmount / 100 */\n      swap1\n      pop\n        /* \"contracts/scMarketplace.sol\":18044:18064  uint256 sellerAmount */\n      0x00\n        /* \"contracts/scMarketplace.sol\":18067:18090  priceAmount - feeAmount */\n      tag_572\n        /* \"contracts/scMarketplace.sol\":17940:17990  uint256 feeAmount = feePercent * priceAmount / 100 */\n      dup3\n        /* \"contracts/scMarketplace.sol\":18067:18078  priceAmount */\n      dup7\n        /* \"contracts/scMarketplace.sol\":18067:18090  priceAmount - feeAmount */\n      tag_252\n      jump\t// in\n    tag_572:\n        /* \"contracts/scMarketplace.sol\":18044:18090  uint256 sellerAmount = priceAmount - feeAmount */\n      swap1\n      pop\n        /* \"contracts/scMarketplace.sol\":18120:18121  0 */\n      0x00\n        /* \"contracts/scMarketplace.sol\":18105:18117  sellerAmount */\n      dup2\n        /* \"contracts/scMarketplace.sol\":18105:18121  sellerAmount > 0 */\n      gt\n        /* \"contracts/scMarketplace.sol\":18097:18159  require(sellerAmount > 0, \"Invalid Seller Amount calculated!\") */\n      tag_573\n      jumpi\n      mload(0x40)\n      shl(0xe5, 0x461bcd)\n      dup2\n      mstore\n        /* \"#utility.yul\":26646:26648   */\n      0x20\n        /* \"contracts/scMarketplace.sol\":18097:18159  require(sellerAmount > 0, \"Invalid Seller Amount calculated!\") */\n      0x04\n      dup3\n      add\n        /* \"#utility.yul\":26628:26649   */\n      mstore\n        /* \"#utility.yul\":26685:26687   */\n      0x21\n        /* \"#utility.yul\":26665:26683   */\n      0x24\n      dup3\n      add\n        /* \"#utility.yul\":26658:26688   */\n      mstore\n        /* \"#utility.yul\":26724:26758   */\n      0x496e76616c69642053656c6c657220416d6f756e742063616c63756c61746564\n        /* \"#utility.yul\":26704:26722   */\n      0x44\n      dup3\n      add\n        /* \"#utility.yul\":26697:26759   */\n      mstore\n      shl(0xf8, 0x21)\n        /* \"#utility.yul\":26775:26793   */\n      0x64\n      dup3\n      add\n        /* \"#utility.yul\":26768:26799   */\n      mstore\n        /* \"#utility.yul\":26816:26835   */\n      0x84\n      add\n        /* \"contracts/scMarketplace.sol\":18097:18159  require(sellerAmount > 0, \"Invalid Seller Amount calculated!\") */\n      tag_136\n        /* \"#utility.yul\":26444:26841   */\n      jump\n        /* \"contracts/scMarketplace.sol\":18097:18159  require(sellerAmount > 0, \"Invalid Seller Amount calculated!\") */\n    tag_573:\n      sub(shl(0xa0, 0x01), 0x01)\n        /* \"contracts/scMarketplace.sol\":18218:18245  priceContract == address(0) */\n      dup5\n      and\n        /* \"contracts/scMarketplace.sol\":18214:19478  if (priceContract == address(0))... */\n      tag_576\n      jumpi\n        /* \"contracts/scMarketplace.sol\":18282:18293  priceAmount */\n      dup5\n        /* \"contracts/scMarketplace.sol\":18269:18278  msg.value */\n      callvalue\n        /* \"contracts/scMarketplace.sol\":18269:18293  msg.value >= priceAmount */\n      lt\n      iszero\n        /* \"contracts/scMarketplace.sol\":18261:18362  require(msg.value >= priceAmount, \"Please submit the Price amount in order to complete the purchase\") */\n      tag_577\n      jumpi\n      0x40\n      dup1\n      mload\n      shl(0xe5, 0x461bcd)\n      dup2\n      mstore\n        /* \"#utility.yul\":27048:27050   */\n      0x20\n        /* \"contracts/scMarketplace.sol\":18261:18362  require(msg.value >= priceAmount, \"Please submit the Price amount in order to complete the purchase\") */\n      0x04\n      dup3\n      add\n        /* \"#utility.yul\":27030:27051   */\n      mstore\n        /* \"#utility.yul\":27067:27085   */\n      0x24\n      dup2\n      add\n        /* \"#utility.yul\":27060:27090   */\n      swap2\n      swap1\n      swap2\n      mstore\n        /* \"#utility.yul\":27126:27160   */\n      0x506c65617365207375626d69742074686520507269636520616d6f756e742069\n        /* \"#utility.yul\":27106:27124   */\n      0x44\n      dup3\n      add\n        /* \"#utility.yul\":27099:27161   */\n      mstore\n        /* \"#utility.yul\":27197:27231   */\n      0x6e206f7264657220746f20636f6d706c65746520746865207075726368617365\n        /* \"#utility.yul\":27177:27195   */\n      0x64\n      dup3\n      add\n        /* \"#utility.yul\":27170:27232   */\n      mstore\n        /* \"#utility.yul\":27249:27268   */\n      0x84\n      add\n        /* \"contracts/scMarketplace.sol\":18261:18362  require(msg.value >= priceAmount, \"Please submit the Price amount in order to complete the purchase\") */\n      tag_136\n        /* \"#utility.yul\":26846:27274   */\n      jump\n        /* \"contracts/scMarketplace.sol\":18261:18362  require(msg.value >= priceAmount, \"Please submit the Price amount in order to complete the purchase\") */\n    tag_577:\n        /* \"contracts/scMarketplace.sol\":18416:18445  seller.transfer(sellerAmount) */\n      mload(0x40)\n      sub(shl(0xa0, 0x01), 0x01)\n        /* \"contracts/scMarketplace.sol\":18416:18431  seller.transfer */\n      dup8\n      and\n      swap1\n        /* \"contracts/scMarketplace.sol\":18416:18445  seller.transfer(sellerAmount) */\n      dup3\n      iszero\n      0x08fc\n      mul\n      swap1\n        /* \"contracts/scMarketplace.sol\":18432:18444  sellerAmount */\n      dup4\n      swap1\n        /* \"contracts/scMarketplace.sol\":18416:18445  seller.transfer(sellerAmount) */\n      0x00\n      dup2\n      dup2\n      dup2\n        /* \"contracts/scMarketplace.sol\":18432:18444  sellerAmount */\n      dup6\n        /* \"contracts/scMarketplace.sol\":18416:18431  seller.transfer */\n      dup9\n        /* \"contracts/scMarketplace.sol\":18416:18445  seller.transfer(sellerAmount) */\n      dup9\n      call\n      swap4\n      pop\n      pop\n      pop\n      pop\n      iszero\n      dup1\n      iszero\n      tag_581\n      jumpi\n      returndatasize\n      0x00\n      dup1\n      returndatacopy\n      revert(0x00, returndatasize)\n    tag_581:\n      pop\n        /* \"contracts/scMarketplace.sol\":18501:18523  _isBeneficiaryExists() */\n      tag_582\n        /* \"contracts/scMarketplace.sol\":18501:18521  _isBeneficiaryExists */\n      tag_327\n        /* \"contracts/scMarketplace.sol\":18501:18523  _isBeneficiaryExists() */\n      jump\t// in\n    tag_582:\n        /* \"contracts/scMarketplace.sol\":18501:18540  _isBeneficiaryExists() && feeAmount > 0 */\n      dup1\n      iszero\n      tag_583\n      jumpi\n      pop\n        /* \"contracts/scMarketplace.sol\":18539:18540  0 */\n      0x00\n        /* \"contracts/scMarketplace.sol\":18527:18536  feeAmount */\n      dup3\n        /* \"contracts/scMarketplace.sol\":18527:18540  feeAmount > 0 */\n      gt\n        /* \"contracts/scMarketplace.sol\":18501:18540  _isBeneficiaryExists() && feeAmount > 0 */\n    tag_583:\n        /* \"contracts/scMarketplace.sol\":18497:18593  if (_isBeneficiaryExists() && feeAmount > 0)... */\n      iszero\n      tag_584\n      jumpi\n        /* \"contracts/scMarketplace.sol\":18551:18563  _beneficiary */\n      0x01\n        /* \"contracts/scMarketplace.sol\":18551:18573  _beneficiary.recipient */\n      sload\n        /* \"contracts/scMarketplace.sol\":18551:18593  _beneficiary.recipient.transfer(feeAmount) */\n      mload(0x40)\n        /* \"contracts/scMarketplace.sol\":18551:18573  _beneficiary.recipient */\n      0x0100\n      swap1\n      swap2\n      div\n      sub(shl(0xa0, 0x01), 0x01)\n      and\n      swap1\n        /* \"contracts/scMarketplace.sol\":18551:18593  _beneficiary.recipient.transfer(feeAmount) */\n      0x08fc\n      dup5\n      iszero\n      mul\n      swap1\n      dup5\n      swap1\n        /* \"contracts/scMarketplace.sol\":18551:18573  _beneficiary.recipient */\n      0x00\n        /* \"contracts/scMarketplace.sol\":18551:18593  _beneficiary.recipient.transfer(feeAmount) */\n      dup2\n        /* \"contracts/scMarketplace.sol\":18551:18573  _beneficiary.recipient */\n      dup2\n        /* \"contracts/scMarketplace.sol\":18551:18593  _beneficiary.recipient.transfer(feeAmount) */\n      dup2\n      dup6\n        /* \"contracts/scMarketplace.sol\":18551:18573  _beneficiary.recipient */\n      dup9\n        /* \"contracts/scMarketplace.sol\":18551:18593  _beneficiary.recipient.transfer(feeAmount) */\n      dup9\n      call\n      swap4\n      pop\n      pop\n      pop\n      pop\n      iszero\n      dup1\n      iszero\n      tag_586\n      jumpi\n      returndatasize\n      0x00\n      dup1\n      returndatacopy\n      revert(0x00, returndatasize)\n    tag_586:\n      pop\n        /* \"contracts/scMarketplace.sol\":18497:18593  if (_isBeneficiaryExists() && feeAmount > 0)... */\n    tag_584:\n        /* \"contracts/scMarketplace.sol\":18214:19478  if (priceContract == address(0))... */\n      jump(tag_587)\n    tag_576:\n        /* \"contracts/scMarketplace.sol\":18899:18946  hostPriceContract.allowance(buyer, marketplace) */\n      mload(0x40)\n      shl(0xe1, 0x6eb1769f)\n      dup2\n      mstore\n      sub(shl(0xa0, 0x01), 0x01)\n        /* \"#utility.yul\":20194:20209   */\n      dup10\n      dup2\n      and\n        /* \"contracts/scMarketplace.sol\":18899:18946  hostPriceContract.allowance(buyer, marketplace) */\n      0x04\n      dup4\n      add\n        /* \"#utility.yul\":20176:20210   */\n      mstore\n        /* \"contracts/scMarketplace.sol\":18745:18749  this */\n      address\n        /* \"#utility.yul\":20226:20244   */\n      0x24\n      dup4\n      add\n        /* \"#utility.yul\":20219:20262   */\n      dup2\n      swap1\n      mstore\n        /* \"contracts/scMarketplace.sol\":18745:18749  this */\n      swap2\n        /* \"contracts/scMarketplace.sol\":18849:18862  priceContract */\n      dup7\n      swap2\n        /* \"contracts/scMarketplace.sol\":18715:18734  address marketplace */\n      0x00\n      swap2\n        /* \"contracts/scMarketplace.sol\":18899:18926  hostPriceContract.allowance */\n      swap1\n      dup4\n      and\n      swap1\n      0xdd62ed3e\n      swap1\n        /* \"#utility.yul\":20111:20129   */\n      0x44\n      add\n        /* \"contracts/scMarketplace.sol\":18899:18946  hostPriceContract.allowance(buyer, marketplace) */\n      0x20\n      mload(0x40)\n      dup1\n      dup4\n      sub\n      dup2\n      dup7\n      gas\n      staticcall\n      iszero\n      dup1\n      iszero\n      tag_590\n      jumpi\n      returndatasize\n      0x00\n      dup1\n      returndatacopy\n      revert(0x00, returndatasize)\n    tag_590:\n      pop\n      pop\n      pop\n      pop\n      mload(0x40)\n      returndatasize\n      not(0x1f)\n      0x1f\n      dup3\n      add\n      and\n      dup3\n      add\n      dup1\n      0x40\n      mstore\n      pop\n      dup2\n      add\n      swap1\n      tag_591\n      swap2\n      swap1\n      tag_345\n      jump\t// in\n    tag_591:\n        /* \"contracts/scMarketplace.sol\":18874:18946  uint256 priceAllowance = hostPriceContract.allowance(buyer, marketplace) */\n      swap1\n      pop\n        /* \"contracts/scMarketplace.sol\":18981:18992  priceAmount */\n      dup8\n        /* \"contracts/scMarketplace.sol\":18963:18977  priceAllowance */\n      dup2\n        /* \"contracts/scMarketplace.sol\":18963:18992  priceAllowance >= priceAmount */\n      lt\n      iszero\n        /* \"contracts/scMarketplace.sol\":18955:19068  require(priceAllowance >= priceAmount, \"Please allow Price amount of ERC-20 Token in order to complete purchase\") */\n      tag_592\n      jumpi\n      mload(0x40)\n      shl(0xe5, 0x461bcd)\n      dup2\n      mstore\n        /* \"#utility.yul\":27481:27483   */\n      0x20\n        /* \"contracts/scMarketplace.sol\":18955:19068  require(priceAllowance >= priceAmount, \"Please allow Price amount of ERC-20 Token in order to complete purchase\") */\n      0x04\n      dup3\n      add\n        /* \"#utility.yul\":27463:27484   */\n      mstore\n        /* \"#utility.yul\":27520:27522   */\n      0x47\n        /* \"#utility.yul\":27500:27518   */\n      0x24\n      dup3\n      add\n        /* \"#utility.yul\":27493:27523   */\n      mstore\n        /* \"#utility.yul\":27559:27593   */\n      0x506c6561736520616c6c6f7720507269636520616d6f756e74206f6620455243\n        /* \"#utility.yul\":27539:27557   */\n      0x44\n      dup3\n      add\n        /* \"#utility.yul\":27532:27594   */\n      mstore\n        /* \"#utility.yul\":27630:27664   */\n      0x2d323020546f6b656e20696e206f7264657220746f20636f6d706c6574652070\n        /* \"#utility.yul\":27610:27628   */\n      0x64\n      dup3\n      add\n        /* \"#utility.yul\":27603:27665   */\n      mstore\n      shl(0xc8, 0x75726368617365)\n        /* \"#utility.yul\":27681:27700   */\n      0x84\n      dup3\n      add\n        /* \"#utility.yul\":27674:27712   */\n      mstore\n        /* \"#utility.yul\":27729:27748   */\n      0xa4\n      add\n        /* \"contracts/scMarketplace.sol\":18955:19068  require(priceAllowance >= priceAmount, \"Please allow Price amount of ERC-20 Token in order to complete purchase\") */\n      tag_136\n        /* \"#utility.yul\":27279:27754   */\n      jump\n        /* \"contracts/scMarketplace.sol\":18955:19068  require(priceAllowance >= priceAmount, \"Please allow Price amount of ERC-20 Token in order to complete purchase\") */\n    tag_592:\n        /* \"contracts/scMarketplace.sol\":19126:19193  hostPriceContract.safeTransferFrom(buyer, marketplace, priceAmount) */\n      tag_595\n      sub(shl(0xa0, 0x01), 0x01)\n        /* \"contracts/scMarketplace.sol\":19126:19160  hostPriceContract.safeTransferFrom */\n      dup4\n      and\n        /* \"contracts/scMarketplace.sol\":19161:19166  buyer */\n      dup13\n        /* \"contracts/scMarketplace.sol\":19168:19179  marketplace */\n      dup6\n        /* \"contracts/scMarketplace.sol\":19181:19192  priceAmount */\n      dup12\n        /* \"contracts/scMarketplace.sol\":19126:19160  hostPriceContract.safeTransferFrom */\n      tag_596\n        /* \"contracts/scMarketplace.sol\":19126:19193  hostPriceContract.safeTransferFrom(buyer, marketplace, priceAmount) */\n      jump\t// in\n    tag_595:\n        /* \"contracts/scMarketplace.sol\":19247:19299  hostPriceContract.safeTransfer(seller, sellerAmount) */\n      tag_597\n      sub(shl(0xa0, 0x01), 0x01)\n        /* \"contracts/scMarketplace.sol\":19247:19277  hostPriceContract.safeTransfer */\n      dup4\n      and\n        /* \"contracts/scMarketplace.sol\":19278:19284  seller */\n      dup11\n        /* \"contracts/scMarketplace.sol\":19286:19298  sellerAmount */\n      dup7\n        /* \"contracts/scMarketplace.sol\":19247:19277  hostPriceContract.safeTransfer */\n      tag_350\n        /* \"contracts/scMarketplace.sol\":19247:19299  hostPriceContract.safeTransfer(seller, sellerAmount) */\n      jump\t// in\n    tag_597:\n        /* \"contracts/scMarketplace.sol\":19355:19377  _isBeneficiaryExists() */\n      tag_598\n        /* \"contracts/scMarketplace.sol\":19355:19375  _isBeneficiaryExists */\n      tag_327\n        /* \"contracts/scMarketplace.sol\":19355:19377  _isBeneficiaryExists() */\n      jump\t// in\n    tag_598:\n        /* \"contracts/scMarketplace.sol\":19355:19394  _isBeneficiaryExists() && feeAmount > 0 */\n      dup1\n      iszero\n      tag_599\n      jumpi\n      pop\n        /* \"contracts/scMarketplace.sol\":19393:19394  0 */\n      0x00\n        /* \"contracts/scMarketplace.sol\":19381:19390  feeAmount */\n      dup6\n        /* \"contracts/scMarketplace.sol\":19381:19394  feeAmount > 0 */\n      gt\n        /* \"contracts/scMarketplace.sol\":19355:19394  _isBeneficiaryExists() && feeAmount > 0 */\n    tag_599:\n        /* \"contracts/scMarketplace.sol\":19351:19470  if (_isBeneficiaryExists() && feeAmount > 0)... */\n      iszero\n      tag_601\n      jumpi\n        /* \"contracts/scMarketplace.sol\":19436:19448  _beneficiary */\n      0x01\n        /* \"contracts/scMarketplace.sol\":19436:19458  _beneficiary.recipient */\n      sload\n        /* \"contracts/scMarketplace.sol\":19405:19470  hostPriceContract.safeTransfer(_beneficiary.recipient, feeAmount) */\n      tag_601\n      swap1\n      sub(shl(0xa0, 0x01), 0x01)\n        /* \"contracts/scMarketplace.sol\":19405:19435  hostPriceContract.safeTransfer */\n      dup5\n      dup2\n      and\n      swap2\n        /* \"contracts/scMarketplace.sol\":19436:19458  _beneficiary.recipient */\n      0x0100\n      swap1\n      div\n      and\n        /* \"contracts/scMarketplace.sol\":19460:19469  feeAmount */\n      dup8\n        /* \"contracts/scMarketplace.sol\":19405:19435  hostPriceContract.safeTransfer */\n      tag_350\n        /* \"contracts/scMarketplace.sol\":19405:19470  hostPriceContract.safeTransfer(_beneficiary.recipient, feeAmount) */\n      jump\t// in\n    tag_601:\n        /* \"contracts/scMarketplace.sol\":18662:19478  {... */\n      pop\n      pop\n      pop\n        /* \"contracts/scMarketplace.sol\":18214:19478  if (priceContract == address(0))... */\n    tag_587:\n      pop\n        /* \"contracts/scMarketplace.sol\":19493:19502  feeAmount */\n      swap8\n        /* \"contracts/scMarketplace.sol\":17447:19508  function _chargePrice(... */\n      swap7\n      pop\n      pop\n      pop\n      pop\n      pop\n      pop\n      pop\n      jump\t// out\n        /* \"@openzeppelin/contracts/token/ERC20/utils/SafeERC20.sol\":3747:4453  function _callOptionalReturn(IERC20 token, bytes memory data) private {... */\n    tag_553:\n        /* \"@openzeppelin/contracts/token/ERC20/utils/SafeERC20.sol\":4166:4189  bytes memory returndata */\n      0x00\n        /* \"@openzeppelin/contracts/token/ERC20/utils/SafeERC20.sol\":4192:4261  address(token).functionCall(data, \"SafeERC20: low-level call failed\") */\n      tag_604\n        /* \"@openzeppelin/contracts/token/ERC20/utils/SafeERC20.sol\":4220:4224  data */\n      dup3\n        /* \"@openzeppelin/contracts/token/ERC20/utils/SafeERC20.sol\":4192:4261  address(token).functionCall(data, \"SafeERC20: low-level call failed\") */\n      mload(0x40)\n      dup1\n      0x40\n      add\n      0x40\n      mstore\n      dup1\n      0x20\n      dup2\n      mstore\n      0x20\n      add\n      0x5361666545524332303a206c6f772d6c6576656c2063616c6c206661696c6564\n      dup2\n      mstore\n      pop\n        /* \"@openzeppelin/contracts/token/ERC20/utils/SafeERC20.sol\":4200:4205  token */\n      dup6\n      sub(shl(0xa0, 0x01), 0x01)\n        /* \"@openzeppelin/contracts/token/ERC20/utils/SafeERC20.sol\":4192:4219  address(token).functionCall */\n      and\n      tag_605\n      swap1\n        /* \"@openzeppelin/contracts/token/ERC20/utils/SafeERC20.sol\":4192:4261  address(token).functionCall(data, \"SafeERC20: low-level call failed\") */\n      swap3\n      swap2\n      swap1\n      0xffffffff\n      and\n      jump\t// in\n    tag_604:\n        /* \"@openzeppelin/contracts/token/ERC20/utils/SafeERC20.sol\":4275:4292  returndata.length */\n      dup1\n      mload\n        /* \"@openzeppelin/contracts/token/ERC20/utils/SafeERC20.sol\":4166:4261  bytes memory returndata = address(token).functionCall(data, \"SafeERC20: low-level call failed\") */\n      swap1\n      swap2\n      pop\n        /* \"@openzeppelin/contracts/token/ERC20/utils/SafeERC20.sol\":4275:4296  returndata.length > 0 */\n      iszero\n        /* \"@openzeppelin/contracts/token/ERC20/utils/SafeERC20.sol\":4271:4447  if (returndata.length > 0) {... */\n      tag_340\n      jumpi\n        /* \"@openzeppelin/contracts/token/ERC20/utils/SafeERC20.sol\":4370:4380  returndata */\n      dup1\n        /* \"@openzeppelin/contracts/token/ERC20/utils/SafeERC20.sol\":4359:4389  abi.decode(returndata, (bool)) */\n      dup1\n      0x20\n      add\n      swap1\n      mload\n      dup2\n      add\n      swap1\n      tag_607\n      swap2\n      swap1\n      tag_402\n      jump\t// in\n    tag_607:\n        /* \"@openzeppelin/contracts/token/ERC20/utils/SafeERC20.sol\":4351:4436  require(abi.decode(returndata, (bool)), \"SafeERC20: ERC20 operation did not succeed\") */\n      tag_340\n      jumpi\n      mload(0x40)\n      shl(0xe5, 0x461bcd)\n      dup2\n      mstore\n        /* \"#utility.yul\":27961:27963   */\n      0x20\n        /* \"@openzeppelin/contracts/token/ERC20/utils/SafeERC20.sol\":4351:4436  require(abi.decode(returndata, (bool)), \"SafeERC20: ERC20 operation did not succeed\") */\n      0x04\n      dup3\n      add\n        /* \"#utility.yul\":27943:27964   */\n      mstore\n        /* \"#utility.yul\":28000:28002   */\n      0x2a\n        /* \"#utility.yul\":27980:27998   */\n      0x24\n      dup3\n      add\n        /* \"#utility.yul\":27973:28003   */\n      mstore\n        /* \"#utility.yul\":28039:28073   */\n      0x5361666545524332303a204552433230206f7065726174696f6e20646964206e\n        /* \"#utility.yul\":28019:28037   */\n      0x44\n      dup3\n      add\n        /* \"#utility.yul\":28012:28074   */\n      mstore\n      shl(0xb2, 0x1bdd081cdd58d8d95959)\n        /* \"#utility.yul\":28090:28108   */\n      0x64\n      dup3\n      add\n        /* \"#utility.yul\":28083:28123   */\n      mstore\n        /* \"#utility.yul\":28140:28159   */\n      0x84\n      add\n        /* \"@openzeppelin/contracts/token/ERC20/utils/SafeERC20.sol\":4351:4436  require(abi.decode(returndata, (bool)), \"SafeERC20: ERC20 operation did not succeed\") */\n      tag_136\n        /* \"#utility.yul\":27759:28165   */\n      jump\n        /* \"@openzeppelin/contracts/token/ERC20/utils/SafeERC20.sol\":974:1215  function safeTransferFrom(... */\n    tag_596:\n        /* \"@openzeppelin/contracts/token/ERC20/utils/SafeERC20.sol\":1139:1207  abi.encodeWithSelector(token.transferFrom.selector, from, to, value) */\n      mload(0x40)\n      sub(shl(0xa0, 0x01), 0x01)\n        /* \"#utility.yul\":21977:21992   */\n      dup1\n      dup6\n      and\n        /* \"@openzeppelin/contracts/token/ERC20/utils/SafeERC20.sol\":1139:1207  abi.encodeWithSelector(token.transferFrom.selector, from, to, value) */\n      0x24\n      dup4\n      add\n        /* \"#utility.yul\":21959:21993   */\n      mstore\n        /* \"#utility.yul\":22029:22044   */\n      dup4\n      and\n        /* \"#utility.yul\":22009:22027   */\n      0x44\n      dup3\n      add\n        /* \"#utility.yul\":22002:22045   */\n      mstore\n        /* \"#utility.yul\":22061:22079   */\n      0x64\n      dup2\n      add\n        /* \"#utility.yul\":22054:22088   */\n      dup3\n      swap1\n      mstore\n        /* \"@openzeppelin/contracts/token/ERC20/utils/SafeERC20.sol\":1112:1208  _callOptionalReturn(token, abi.encodeWithSelector(token.transferFrom.selector, from, to, value)) */\n      tag_174\n      swap1\n        /* \"@openzeppelin/contracts/token/ERC20/utils/SafeERC20.sol\":1132:1137  token */\n      dup6\n      swap1\n      shl(0xe0, 0x23b872dd)\n        /* \"@openzeppelin/contracts/token/ERC20/utils/SafeERC20.sol\":1162:1189  token.transferFrom.selector */\n      swap1\n        /* \"#utility.yul\":21894:21912   */\n      0x84\n      add\n        /* \"@openzeppelin/contracts/token/ERC20/utils/SafeERC20.sol\":1139:1207  abi.encodeWithSelector(token.transferFrom.selector, from, to, value) */\n      tag_551\n        /* \"#utility.yul\":21711:22094   */\n      jump\n        /* \"@openzeppelin/contracts/utils/Address.sol\":3861:4084  function functionCall(... */\n    tag_605:\n        /* \"@openzeppelin/contracts/utils/Address.sol\":3994:4006  bytes memory */\n      0x60\n        /* \"@openzeppelin/contracts/utils/Address.sol\":4025:4077  functionCallWithValue(target, data, 0, errorMessage) */\n      tag_616\n        /* \"@openzeppelin/contracts/utils/Address.sol\":4047:4053  target */\n      dup5\n        /* \"@openzeppelin/contracts/utils/Address.sol\":4055:4059  data */\n      dup5\n        /* \"@openzeppelin/contracts/utils/Address.sol\":4061:4062  0 */\n      0x00\n        /* \"@openzeppelin/contracts/utils/Address.sol\":4064:4076  errorMessage */\n      dup6\n        /* \"@openzeppelin/contracts/utils/Address.sol\":4025:4046  functionCallWithValue */\n      tag_617\n        /* \"@openzeppelin/contracts/utils/Address.sol\":4025:4077  functionCallWithValue(target, data, 0, errorMessage) */\n      jump\t// in\n    tag_616:\n        /* \"@openzeppelin/contracts/utils/Address.sol\":4018:4077  return functionCallWithValue(target, data, 0, errorMessage) */\n      swap5\n        /* \"@openzeppelin/contracts/utils/Address.sol\":3861:4084  function functionCall(... */\n      swap4\n      pop\n      pop\n      pop\n      pop\n      jump\t// out\n        /* \"@openzeppelin/contracts/utils/Address.sol\":4948:5447  function functionCallWithValue(... */\n    tag_617:\n        /* \"@openzeppelin/contracts/utils/Address.sol\":5113:5125  bytes memory */\n      0x60\n        /* \"@openzeppelin/contracts/utils/Address.sol\":5170:5175  value */\n      dup3\n        /* \"@openzeppelin/contracts/utils/Address.sol\":5145:5166  address(this).balance */\n      selfbalance\n        /* \"@openzeppelin/contracts/utils/Address.sol\":5145:5175  address(this).balance >= value */\n      lt\n      iszero\n        /* \"@openzeppelin/contracts/utils/Address.sol\":5137:5218  require(address(this).balance >= value, \"Address: insufficient balance for call\") */\n      tag_619\n      jumpi\n      mload(0x40)\n      shl(0xe5, 0x461bcd)\n      dup2\n      mstore\n        /* \"#utility.yul\":28752:28754   */\n      0x20\n        /* \"@openzeppelin/contracts/utils/Address.sol\":5137:5218  require(address(this).balance >= value, \"Address: insufficient balance for call\") */\n      0x04\n      dup3\n      add\n        /* \"#utility.yul\":28734:28755   */\n      mstore\n        /* \"#utility.yul\":28791:28793   */\n      0x26\n        /* \"#utility.yul\":28771:28789   */\n      0x24\n      dup3\n      add\n        /* \"#utility.yul\":28764:28794   */\n      mstore\n        /* \"#utility.yul\":28830:28864   */\n      0x416464726573733a20696e73756666696369656e742062616c616e636520666f\n        /* \"#utility.yul\":28810:28828   */\n      0x44\n      dup3\n      add\n        /* \"#utility.yul\":28803:28865   */\n      mstore\n      shl(0xd2, 0x1c8818d85b1b)\n        /* \"#utility.yul\":28881:28899   */\n      0x64\n      dup3\n      add\n        /* \"#utility.yul\":28874:28910   */\n      mstore\n        /* \"#utility.yul\":28927:28946   */\n      0x84\n      add\n        /* \"@openzeppelin/contracts/utils/Address.sol\":5137:5218  require(address(this).balance >= value, \"Address: insufficient balance for call\") */\n      tag_136\n        /* \"#utility.yul\":28550:28952   */\n      jump\n        /* \"@openzeppelin/contracts/utils/Address.sol\":5137:5218  require(address(this).balance >= value, \"Address: insufficient balance for call\") */\n    tag_619:\n      sub(shl(0xa0, 0x01), 0x01)\n        /* \"@openzeppelin/contracts/utils/Address.sol\":1465:1484  account.code.length */\n      dup6\n      and\n      extcodesize\n        /* \"@openzeppelin/contracts/utils/Address.sol\":5228:5288  require(isContract(target), \"Address: call to non-contract\") */\n      tag_624\n      jumpi\n      mload(0x40)\n      shl(0xe5, 0x461bcd)\n      dup2\n      mstore\n        /* \"#utility.yul\":29159:29161   */\n      0x20\n        /* \"@openzeppelin/contracts/utils/Address.sol\":5228:5288  require(isContract(target), \"Address: call to non-contract\") */\n      0x04\n      dup3\n      add\n        /* \"#utility.yul\":29141:29162   */\n      mstore\n        /* \"#utility.yul\":29198:29200   */\n      0x1d\n        /* \"#utility.yul\":29178:29196   */\n      0x24\n      dup3\n      add\n        /* \"#utility.yul\":29171:29201   */\n      mstore\n        /* \"#utility.yul\":29237:29268   */\n      0x416464726573733a2063616c6c20746f206e6f6e2d636f6e7472616374000000\n        /* \"#utility.yul\":29217:29235   */\n      0x44\n      dup3\n      add\n        /* \"#utility.yul\":29210:29269   */\n      mstore\n        /* \"#utility.yul\":29286:29304   */\n      0x64\n      add\n        /* \"@openzeppelin/contracts/utils/Address.sol\":5228:5288  require(isContract(target), \"Address: call to non-contract\") */\n      tag_136\n        /* \"#utility.yul\":28957:29310   */\n      jump\n        /* \"@openzeppelin/contracts/utils/Address.sol\":5228:5288  require(isContract(target), \"Address: call to non-contract\") */\n    tag_624:\n        /* \"@openzeppelin/contracts/utils/Address.sol\":5300:5312  bool success */\n      0x00\n        /* \"@openzeppelin/contracts/utils/Address.sol\":5314:5337  bytes memory returndata */\n      dup1\n        /* \"@openzeppelin/contracts/utils/Address.sol\":5341:5347  target */\n      dup7\n      sub(shl(0xa0, 0x01), 0x01)\n        /* \"@openzeppelin/contracts/utils/Address.sol\":5341:5352  target.call */\n      and\n        /* \"@openzeppelin/contracts/utils/Address.sol\":5360:5365  value */\n      dup6\n        /* \"@openzeppelin/contracts/utils/Address.sol\":5367:5371  data */\n      dup8\n        /* \"@openzeppelin/contracts/utils/Address.sol\":5341:5372  target.call{value: value}(data) */\n      mload(0x40)\n      tag_627\n      swap2\n      swap1\n      tag_628\n      jump\t// in\n    tag_627:\n      0x00\n      mload(0x40)\n      dup1\n      dup4\n      sub\n      dup2\n      dup6\n      dup8\n      gas\n      call\n      swap3\n      pop\n      pop\n      pop\n      returndatasize\n      dup1\n      0x00\n      dup2\n      eq\n      tag_631\n      jumpi\n      mload(0x40)\n      swap2\n      pop\n      and(add(returndatasize, 0x3f), not(0x1f))\n      dup3\n      add\n      0x40\n      mstore\n      returndatasize\n      dup3\n      mstore\n      returndatasize\n      0x00\n      0x20\n      dup5\n      add\n      returndatacopy\n      jump(tag_630)\n    tag_631:\n      0x60\n      swap2\n      pop\n    tag_630:\n      pop\n        /* \"@openzeppelin/contracts/utils/Address.sol\":5299:5372  (bool success, bytes memory returndata) = target.call{value: value}(data) */\n      swap2\n      pop\n      swap2\n      pop\n        /* \"@openzeppelin/contracts/utils/Address.sol\":5389:5440  verifyCallResult(success, returndata, errorMessage) */\n      tag_632\n        /* \"@openzeppelin/contracts/utils/Address.sol\":5406:5413  success */\n      dup3\n        /* \"@openzeppelin/contracts/utils/Address.sol\":5415:5425  returndata */\n      dup3\n        /* \"@openzeppelin/contracts/utils/Address.sol\":5427:5439  errorMessage */\n      dup7\n        /* \"@openzeppelin/contracts/utils/Address.sol\":5389:5405  verifyCallResult */\n      tag_633\n        /* \"@openzeppelin/contracts/utils/Address.sol\":5389:5440  verifyCallResult(success, returndata, errorMessage) */\n      jump\t// in\n    tag_632:\n        /* \"@openzeppelin/contracts/utils/Address.sol\":5382:5440  return verifyCallResult(success, returndata, errorMessage) */\n      swap8\n        /* \"@openzeppelin/contracts/utils/Address.sol\":4948:5447  function functionCallWithValue(... */\n      swap7\n      pop\n      pop\n      pop\n      pop\n      pop\n      pop\n      pop\n      jump\t// out\n        /* \"@openzeppelin/contracts/utils/Address.sol\":7561:8303  function verifyCallResult(... */\n    tag_633:\n        /* \"@openzeppelin/contracts/utils/Address.sol\":7707:7719  bytes memory */\n      0x60\n        /* \"@openzeppelin/contracts/utils/Address.sol\":7735:7742  success */\n      dup4\n        /* \"@openzeppelin/contracts/utils/Address.sol\":7731:8297  if (success) {... */\n      iszero\n      tag_636\n      jumpi\n      pop\n        /* \"@openzeppelin/contracts/utils/Address.sol\":7765:7775  returndata */\n      dup2\n        /* \"@openzeppelin/contracts/utils/Address.sol\":7758:7775  return returndata */\n      jump(tag_435)\n        /* \"@openzeppelin/contracts/utils/Address.sol\":7731:8297  if (success) {... */\n    tag_636:\n        /* \"@openzeppelin/contracts/utils/Address.sol\":7876:7893  returndata.length */\n      dup3\n      mload\n        /* \"@openzeppelin/contracts/utils/Address.sol\":7876:7897  returndata.length > 0 */\n      iszero\n        /* \"@openzeppelin/contracts/utils/Address.sol\":7872:8287  if (returndata.length > 0) {... */\n      tag_638\n      jumpi\n        /* \"@openzeppelin/contracts/utils/Address.sol\":8120:8130  returndata */\n      dup3\n        /* \"@openzeppelin/contracts/utils/Address.sol\":8114:8131  mload(returndata) */\n      mload\n        /* \"@openzeppelin/contracts/utils/Address.sol\":8180:8195  returndata_size */\n      dup1\n        /* \"@openzeppelin/contracts/utils/Address.sol\":8167:8177  returndata */\n      dup5\n        /* \"@openzeppelin/contracts/utils/Address.sol\":8163:8165  32 */\n      0x20\n        /* \"@openzeppelin/contracts/utils/Address.sol\":8159:8178  add(32, returndata) */\n      add\n        /* \"@openzeppelin/contracts/utils/Address.sol\":8152:8196  revert(add(32, returndata), returndata_size) */\n      revert\n        /* \"@openzeppelin/contracts/utils/Address.sol\":7872:8287  if (returndata.length > 0) {... */\n    tag_638:\n        /* \"@openzeppelin/contracts/utils/Address.sol\":8259:8271  errorMessage */\n      dup2\n        /* \"@openzeppelin/contracts/utils/Address.sol\":8252:8272  revert(errorMessage) */\n      mload(0x40)\n      shl(0xe5, 0x461bcd)\n      dup2\n      mstore\n      0x04\n      add\n      tag_136\n      swap2\n      swap1\n      tag_459\n      jump\t// in\n    tag_242:\n      0x40\n      dup1\n      mload\n      0x0180\n      dup2\n      add\n      dup3\n      mstore\n      0x00\n      dup1\n      dup3\n      mstore\n      0x20\n      dup3\n      add\n      dup2\n      swap1\n      mstore\n      swap2\n      dup2\n      add\n      dup3\n      swap1\n      mstore\n      0x60\n      dup2\n      add\n      dup3\n      swap1\n      mstore\n      0x80\n      dup2\n      add\n      dup3\n      swap1\n      mstore\n      0xa0\n      dup2\n      add\n      dup3\n      swap1\n      mstore\n      0xc0\n      dup2\n      add\n      dup3\n      swap1\n      mstore\n      swap1\n      0xe0\n      dup3\n      add\n      swap1\n      dup2\n      mstore\n      0x20\n      add\n      0x00\n      dup2\n      mstore\n      0x20\n      add\n      0x00\n      dup2\n      mstore\n      0x20\n      add\n      0x00\n      dup2\n      mstore\n      0x20\n      add\n      0x60\n      dup2\n      mstore\n      pop\n      swap1\n      jump\t// out\n    tag_474:\n      dup3\n      dup1\n      sload\n      dup3\n      dup3\n      sstore\n      swap1\n      0x00\n      mstore\n      keccak256(0x00, 0x20)\n      swap1\n      dup2\n      add\n      swap3\n      dup3\n      iszero\n      tag_647\n      jumpi\n      swap2\n      0x20\n      mul\n      dup3\n      add\n    tag_646:\n      dup3\n      dup2\n      gt\n      iszero\n      tag_647\n      jumpi\n      dup3\n      mload\n      dup3\n      sload\n      not(sub(shl(0xa0, 0x01), 0x01))\n      and\n      sub(shl(0xa0, 0x01), 0x01)\n      swap1\n      swap2\n      and\n      or\n      dup3\n      sstore\n      0x20\n      swap1\n      swap3\n      add\n      swap2\n      0x01\n      swap1\n      swap2\n      add\n      swap1\n      jump(tag_646)\n    tag_647:\n      pop\n      tag_648\n      swap3\n      swap2\n      pop\n      tag_649\n      jump\t// in\n    tag_648:\n      pop\n      swap1\n      jump\t// out\n    tag_649:\n    tag_650:\n      dup1\n      dup3\n      gt\n      iszero\n      tag_648\n      jumpi\n      0x00\n      dup2\n      sstore\n      0x01\n      add\n      jump(tag_650)\n        /* \"#utility.yul\":14:145   */\n    tag_652:\n      sub(shl(0xa0, 0x01), 0x01)\n        /* \"#utility.yul\":89:120   */\n      dup2\n      and\n        /* \"#utility.yul\":79:121   */\n      dup2\n      eq\n        /* \"#utility.yul\":69:139   */\n      tag_210\n      jumpi\n        /* \"#utility.yul\":135:136   */\n      0x00\n        /* \"#utility.yul\":132:133   */\n      dup1\n        /* \"#utility.yul\":125:137   */\n      revert\n        /* \"#utility.yul\":150:277   */\n    tag_653:\n        /* \"#utility.yul\":211:221   */\n      0x4e487b71\n        /* \"#utility.yul\":206:209   */\n      0xe0\n        /* \"#utility.yul\":202:222   */\n      shl\n        /* \"#utility.yul\":199:200   */\n      0x00\n        /* \"#utility.yul\":192:223   */\n      mstore\n        /* \"#utility.yul\":242:246   */\n      0x41\n        /* \"#utility.yul\":239:240   */\n      0x04\n        /* \"#utility.yul\":232:247   */\n      mstore\n        /* \"#utility.yul\":266:270   */\n      0x24\n        /* \"#utility.yul\":263:264   */\n      0x00\n        /* \"#utility.yul\":256:271   */\n      revert\n        /* \"#utility.yul\":282:535   */\n    tag_654:\n        /* \"#utility.yul\":354:356   */\n      0x40\n        /* \"#utility.yul\":348:357   */\n      mload\n        /* \"#utility.yul\":396:400   */\n      0xa0\n        /* \"#utility.yul\":384:401   */\n      dup2\n      add\n        /* \"#utility.yul\":431:449   */\n      0xffffffffffffffff\n        /* \"#utility.yul\":416:450   */\n      dup2\n      gt\n        /* \"#utility.yul\":452:474   */\n      dup3\n      dup3\n      lt\n        /* \"#utility.yul\":413:475   */\n      or\n        /* \"#utility.yul\":410:498   */\n      iszero\n      tag_669\n      jumpi\n        /* \"#utility.yul\":478:496   */\n      tag_669\n      tag_653\n      jump\t// in\n    tag_669:\n        /* \"#utility.yul\":514:516   */\n      0x40\n        /* \"#utility.yul\":507:529   */\n      mstore\n        /* \"#utility.yul\":282:535   */\n      swap1\n      jump\t// out\n        /* \"#utility.yul\":540:815   */\n    tag_655:\n        /* \"#utility.yul\":611:613   */\n      0x40\n        /* \"#utility.yul\":605:614   */\n      mload\n        /* \"#utility.yul\":676:678   */\n      0x1f\n        /* \"#utility.yul\":657:670   */\n      dup3\n      add\n      not(0x1f)\n        /* \"#utility.yul\":653:680   */\n      and\n        /* \"#utility.yul\":641:681   */\n      dup2\n      add\n        /* \"#utility.yul\":711:729   */\n      0xffffffffffffffff\n        /* \"#utility.yul\":696:730   */\n      dup2\n      gt\n        /* \"#utility.yul\":732:754   */\n      dup3\n      dup3\n      lt\n        /* \"#utility.yul\":693:755   */\n      or\n        /* \"#utility.yul\":690:778   */\n      iszero\n      tag_672\n      jumpi\n        /* \"#utility.yul\":758:776   */\n      tag_672\n      tag_653\n      jump\t// in\n    tag_672:\n        /* \"#utility.yul\":794:796   */\n      0x40\n        /* \"#utility.yul\":787:809   */\n      mstore\n        /* \"#utility.yul\":540:815   */\n      swap2\n      swap1\n      pop\n      jump\t// out\n        /* \"#utility.yul\":820:1003   */\n    tag_656:\n        /* \"#utility.yul\":880:884   */\n      0x00\n        /* \"#utility.yul\":913:931   */\n      0xffffffffffffffff\n        /* \"#utility.yul\":905:911   */\n      dup3\n        /* \"#utility.yul\":902:932   */\n      gt\n        /* \"#utility.yul\":899:955   */\n      iszero\n      tag_675\n      jumpi\n        /* \"#utility.yul\":935:953   */\n      tag_675\n      tag_653\n      jump\t// in\n    tag_675:\n      pop\n        /* \"#utility.yul\":980:981   */\n      0x05\n        /* \"#utility.yul\":976:990   */\n      shl\n        /* \"#utility.yul\":992:996   */\n      0x20\n        /* \"#utility.yul\":972:997   */\n      add\n      swap1\n        /* \"#utility.yul\":820:1003   */\n      jump\t// out\n        /* \"#utility.yul\":1008:1745   */\n    tag_657:\n        /* \"#utility.yul\":1062:1067   */\n      0x00\n        /* \"#utility.yul\":1115:1118   */\n      dup3\n        /* \"#utility.yul\":1108:1112   */\n      0x1f\n        /* \"#utility.yul\":1100:1106   */\n      dup4\n        /* \"#utility.yul\":1096:1113   */\n      add\n        /* \"#utility.yul\":1092:1119   */\n      slt\n        /* \"#utility.yul\":1082:1137   */\n      tag_677\n      jumpi\n        /* \"#utility.yul\":1133:1134   */\n      0x00\n        /* \"#utility.yul\":1130:1131   */\n      dup1\n        /* \"#utility.yul\":1123:1135   */\n      revert\n        /* \"#utility.yul\":1082:1137   */\n    tag_677:\n        /* \"#utility.yul\":1169:1175   */\n      dup2\n        /* \"#utility.yul\":1156:1176   */\n      calldataload\n        /* \"#utility.yul\":1195:1199   */\n      0x20\n        /* \"#utility.yul\":1219:1279   */\n      tag_678\n        /* \"#utility.yul\":1235:1278   */\n      tag_679\n        /* \"#utility.yul\":1275:1277   */\n      dup4\n        /* \"#utility.yul\":1235:1278   */\n      tag_656\n      jump\t// in\n    tag_679:\n        /* \"#utility.yul\":1219:1279   */\n      tag_655\n      jump\t// in\n    tag_678:\n        /* \"#utility.yul\":1313:1328   */\n      dup3\n      dup2\n      mstore\n        /* \"#utility.yul\":1399:1400   */\n      0x05\n        /* \"#utility.yul\":1395:1405   */\n      swap3\n      swap1\n      swap3\n      shl\n        /* \"#utility.yul\":1383:1406   */\n      dup5\n      add\n        /* \"#utility.yul\":1379:1411   */\n      dup2\n      add\n      swap2\n        /* \"#utility.yul\":1344:1356   */\n      dup2\n      dup2\n      add\n      swap1\n        /* \"#utility.yul\":1423:1438   */\n      dup7\n      dup5\n      gt\n        /* \"#utility.yul\":1420:1455   */\n      iszero\n      tag_680\n      jumpi\n        /* \"#utility.yul\":1451:1452   */\n      0x00\n        /* \"#utility.yul\":1448:1449   */\n      dup1\n        /* \"#utility.yul\":1441:1453   */\n      revert\n        /* \"#utility.yul\":1420:1455   */\n    tag_680:\n        /* \"#utility.yul\":1487:1489   */\n      dup3\n        /* \"#utility.yul\":1479:1485   */\n      dup7\n        /* \"#utility.yul\":1475:1490   */\n      add\n        /* \"#utility.yul\":1499:1716   */\n    tag_681:\n        /* \"#utility.yul\":1515:1521   */\n      dup5\n        /* \"#utility.yul\":1510:1513   */\n      dup2\n        /* \"#utility.yul\":1507:1522   */\n      lt\n        /* \"#utility.yul\":1499:1716   */\n      iszero\n      tag_683\n      jumpi\n        /* \"#utility.yul\":1595:1598   */\n      dup1\n        /* \"#utility.yul\":1582:1599   */\n      calldataload\n        /* \"#utility.yul\":1612:1643   */\n      tag_684\n        /* \"#utility.yul\":1637:1642   */\n      dup2\n        /* \"#utility.yul\":1612:1643   */\n      tag_652\n      jump\t// in\n    tag_684:\n        /* \"#utility.yul\":1656:1674   */\n      dup4\n      mstore\n        /* \"#utility.yul\":1694:1706   */\n      swap2\n      dup4\n      add\n      swap2\n        /* \"#utility.yul\":1532:1544   */\n      dup4\n      add\n        /* \"#utility.yul\":1499:1716   */\n      jump(tag_681)\n    tag_683:\n      pop\n        /* \"#utility.yul\":1734:1739   */\n      swap7\n        /* \"#utility.yul\":1008:1745   */\n      swap6\n      pop\n      pop\n      pop\n      pop\n      pop\n      pop\n      jump\t// out\n        /* \"#utility.yul\":1750:2512   */\n    tag_30:\n        /* \"#utility.yul\":1870:1876   */\n      0x00\n        /* \"#utility.yul\":1878:1884   */\n      dup1\n        /* \"#utility.yul\":1886:1892   */\n      0x00\n        /* \"#utility.yul\":1894:1900   */\n      dup1\n        /* \"#utility.yul\":1902:1908   */\n      0x00\n        /* \"#utility.yul\":1955:1958   */\n      0xa0\n        /* \"#utility.yul\":1943:1952   */\n      dup7\n        /* \"#utility.yul\":1934:1941   */\n      dup9\n        /* \"#utility.yul\":1930:1953   */\n      sub\n        /* \"#utility.yul\":1926:1959   */\n      slt\n        /* \"#utility.yul\":1923:1976   */\n      iszero\n      tag_686\n      jumpi\n        /* \"#utility.yul\":1972:1973   */\n      0x00\n        /* \"#utility.yul\":1969:1970   */\n      dup1\n        /* \"#utility.yul\":1962:1974   */\n      revert\n        /* \"#utility.yul\":1923:1976   */\n    tag_686:\n        /* \"#utility.yul\":2011:2020   */\n      dup6\n        /* \"#utility.yul\":1998:2021   */\n      calldataload\n        /* \"#utility.yul\":2030:2061   */\n      tag_687\n        /* \"#utility.yul\":2055:2060   */\n      dup2\n        /* \"#utility.yul\":2030:2061   */\n      tag_652\n      jump\t// in\n    tag_687:\n        /* \"#utility.yul\":2080:2085   */\n      swap5\n      pop\n        /* \"#utility.yul\":2132:2134   */\n      0x20\n        /* \"#utility.yul\":2117:2135   */\n      dup7\n      add\n        /* \"#utility.yul\":2104:2136   */\n      calldataload\n      swap4\n      pop\n        /* \"#utility.yul\":2188:2190   */\n      0x40\n        /* \"#utility.yul\":2173:2191   */\n      dup7\n      add\n        /* \"#utility.yul\":2160:2192   */\n      calldataload\n        /* \"#utility.yul\":2201:2234   */\n      tag_688\n        /* \"#utility.yul\":2160:2192   */\n      dup2\n        /* \"#utility.yul\":2201:2234   */\n      tag_652\n      jump\t// in\n    tag_688:\n        /* \"#utility.yul\":2253:2260   */\n      swap3\n      pop\n        /* \"#utility.yul\":2307:2309   */\n      0x60\n        /* \"#utility.yul\":2292:2310   */\n      dup7\n      add\n        /* \"#utility.yul\":2279:2311   */\n      calldataload\n      swap2\n      pop\n        /* \"#utility.yul\":2362:2365   */\n      0x80\n        /* \"#utility.yul\":2347:2366   */\n      dup7\n      add\n        /* \"#utility.yul\":2334:2367   */\n      calldataload\n        /* \"#utility.yul\":2390:2408   */\n      0xffffffffffffffff\n        /* \"#utility.yul\":2379:2409   */\n      dup2\n      gt\n        /* \"#utility.yul\":2376:2426   */\n      iszero\n      tag_689\n      jumpi\n        /* \"#utility.yul\":2422:2423   */\n      0x00\n        /* \"#utility.yul\":2419:2420   */\n      dup1\n        /* \"#utility.yul\":2412:2424   */\n      revert\n        /* \"#utility.yul\":2376:2426   */\n    tag_689:\n        /* \"#utility.yul\":2445:2506   */\n      tag_690\n        /* \"#utility.yul\":2498:2505   */\n      dup9\n        /* \"#utility.yul\":2489:2495   */\n      dup3\n        /* \"#utility.yul\":2478:2487   */\n      dup10\n        /* \"#utility.yul\":2474:2496   */\n      add\n        /* \"#utility.yul\":2445:2506   */\n      tag_657\n      jump\t// in\n    tag_690:\n        /* \"#utility.yul\":2435:2506   */\n      swap2\n      pop\n      pop\n        /* \"#utility.yul\":1750:2512   */\n      swap3\n      swap6\n      pop\n      swap3\n      swap6\n      swap1\n      swap4\n      pop\n      jump\t// out\n        /* \"#utility.yul\":2517:4642   */\n    tag_34:\n        /* \"#utility.yul\":2634:2640   */\n      0x00\n        /* \"#utility.yul\":2665:2667   */\n      0x20\n        /* \"#utility.yul\":2708:2710   */\n      dup1\n        /* \"#utility.yul\":2696:2705   */\n      dup4\n        /* \"#utility.yul\":2687:2694   */\n      dup6\n        /* \"#utility.yul\":2683:2706   */\n      sub\n        /* \"#utility.yul\":2679:2711   */\n      slt\n        /* \"#utility.yul\":2676:2728   */\n      iszero\n      tag_692\n      jumpi\n        /* \"#utility.yul\":2724:2725   */\n      0x00\n        /* \"#utility.yul\":2721:2722   */\n      dup1\n        /* \"#utility.yul\":2714:2726   */\n      revert\n        /* \"#utility.yul\":2676:2728   */\n    tag_692:\n        /* \"#utility.yul\":2764:2773   */\n      dup3\n        /* \"#utility.yul\":2751:2774   */\n      calldataload\n        /* \"#utility.yul\":2793:2811   */\n      0xffffffffffffffff\n        /* \"#utility.yul\":2834:2836   */\n      dup1\n        /* \"#utility.yul\":2826:2832   */\n      dup3\n        /* \"#utility.yul\":2823:2837   */\n      gt\n        /* \"#utility.yul\":2820:2854   */\n      iszero\n      tag_693\n      jumpi\n        /* \"#utility.yul\":2850:2851   */\n      0x00\n        /* \"#utility.yul\":2847:2848   */\n      dup1\n        /* \"#utility.yul\":2840:2852   */\n      revert\n        /* \"#utility.yul\":2820:2854   */\n    tag_693:\n        /* \"#utility.yul\":2888:2894   */\n      dup2\n        /* \"#utility.yul\":2877:2886   */\n      dup6\n        /* \"#utility.yul\":2873:2895   */\n      add\n        /* \"#utility.yul\":2863:2895   */\n      swap2\n      pop\n        /* \"#utility.yul\":2933:2940   */\n      dup6\n        /* \"#utility.yul\":2926:2930   */\n      0x1f\n        /* \"#utility.yul\":2922:2924   */\n      dup4\n        /* \"#utility.yul\":2918:2931   */\n      add\n        /* \"#utility.yul\":2914:2941   */\n      slt\n        /* \"#utility.yul\":2904:2959   */\n      tag_694\n      jumpi\n        /* \"#utility.yul\":2955:2956   */\n      0x00\n        /* \"#utility.yul\":2952:2953   */\n      dup1\n        /* \"#utility.yul\":2945:2957   */\n      revert\n        /* \"#utility.yul\":2904:2959   */\n    tag_694:\n        /* \"#utility.yul\":2991:2993   */\n      dup2\n        /* \"#utility.yul\":2978:2994   */\n      calldataload\n        /* \"#utility.yul\":3014:3074   */\n      tag_695\n        /* \"#utility.yul\":3030:3073   */\n      tag_679\n        /* \"#utility.yul\":3070:3072   */\n      dup3\n        /* \"#utility.yul\":3030:3073   */\n      tag_656\n      jump\t// in\n        /* \"#utility.yul\":3014:3074   */\n    tag_695:\n        /* \"#utility.yul\":3108:3123   */\n      dup2\n      dup2\n      mstore\n        /* \"#utility.yul\":3190:3191   */\n      0x05\n        /* \"#utility.yul\":3186:3196   */\n      swap2\n      swap1\n      swap2\n      shl\n        /* \"#utility.yul\":3178:3197   */\n      dup4\n      add\n        /* \"#utility.yul\":3174:3202   */\n      dup5\n      add\n      swap1\n        /* \"#utility.yul\":3139:3151   */\n      dup5\n      dup2\n      add\n      swap1\n        /* \"#utility.yul\":3214:3233   */\n      dup9\n      dup4\n      gt\n        /* \"#utility.yul\":3211:3250   */\n      iszero\n      tag_697\n      jumpi\n        /* \"#utility.yul\":3246:3247   */\n      0x00\n        /* \"#utility.yul\":3243:3244   */\n      dup1\n        /* \"#utility.yul\":3236:3248   */\n      revert\n        /* \"#utility.yul\":3211:3250   */\n    tag_697:\n        /* \"#utility.yul\":3278:3280   */\n      dup6\n        /* \"#utility.yul\":3274:3276   */\n      dup6\n        /* \"#utility.yul\":3270:3281   */\n      add\n        /* \"#utility.yul\":3290:4612   */\n    tag_698:\n        /* \"#utility.yul\":3306:3312   */\n      dup4\n        /* \"#utility.yul\":3301:3304   */\n      dup2\n        /* \"#utility.yul\":3298:3313   */\n      lt\n        /* \"#utility.yul\":3290:4612   */\n      iszero\n      tag_700\n      jumpi\n        /* \"#utility.yul\":3392:3395   */\n      dup1\n        /* \"#utility.yul\":3379:3396   */\n      calldataload\n        /* \"#utility.yul\":3428:3430   */\n      dup6\n        /* \"#utility.yul\":3415:3426   */\n      dup2\n        /* \"#utility.yul\":3412:3431   */\n      gt\n        /* \"#utility.yul\":3409:3518   */\n      iszero\n      tag_701\n      jumpi\n        /* \"#utility.yul\":3472:3473   */\n      0x00\n        /* \"#utility.yul\":3501:3503   */\n      dup1\n        /* \"#utility.yul\":3497:3499   */\n      dup2\n        /* \"#utility.yul\":3490:3504   */\n      revert\n        /* \"#utility.yul\":3409:3518   */\n    tag_701:\n        /* \"#utility.yul\":3541:3561   */\n      dup7\n      add\n        /* \"#utility.yul\":3584:3588   */\n      0xa0\n        /* \"#utility.yul\":3612:3628   */\n      dup2\n      dup13\n      sub\n      not(0x1f)\n        /* \"#utility.yul\":3608:3638   */\n      add\n        /* \"#utility.yul\":3604:3643   */\n      dup2\n      sgt\n        /* \"#utility.yul\":3601:3730   */\n      iszero\n      tag_702\n      jumpi\n        /* \"#utility.yul\":3684:3685   */\n      0x00\n        /* \"#utility.yul\":3713:3715   */\n      dup1\n        /* \"#utility.yul\":3709:3711   */\n      dup2\n        /* \"#utility.yul\":3702:3716   */\n      revert\n        /* \"#utility.yul\":3601:3730   */\n    tag_702:\n        /* \"#utility.yul\":3756:3778   */\n      tag_703\n      tag_654\n      jump\t// in\n    tag_703:\n        /* \"#utility.yul\":3827:3829   */\n      dup10\n        /* \"#utility.yul\":3823:3825   */\n      dup4\n        /* \"#utility.yul\":3819:3830   */\n      add\n        /* \"#utility.yul\":3806:3831   */\n      calldataload\n        /* \"#utility.yul\":3844:3877   */\n      tag_704\n        /* \"#utility.yul\":3869:3876   */\n      dup2\n        /* \"#utility.yul\":3844:3877   */\n      tag_652\n      jump\t// in\n    tag_704:\n        /* \"#utility.yul\":3890:3912   */\n      dup2\n      mstore\n        /* \"#utility.yul\":3935:3937   */\n      0x40\n        /* \"#utility.yul\":3986:3997   */\n      dup4\n      dup2\n      add\n        /* \"#utility.yul\":3973:3998   */\n      calldataload\n        /* \"#utility.yul\":3957:3971   */\n      dup12\n      dup4\n      add\n        /* \"#utility.yul\":3950:3999   */\n      mstore\n        /* \"#utility.yul\":4023:4025   */\n      0x60\n        /* \"#utility.yul\":4066:4078   */\n      dup1\n      dup6\n      add\n        /* \"#utility.yul\":4053:4079   */\n      calldataload\n        /* \"#utility.yul\":4092:4125   */\n      tag_705\n        /* \"#utility.yul\":4053:4079   */\n      dup2\n        /* \"#utility.yul\":4092:4125   */\n      tag_652\n      jump\t// in\n    tag_705:\n        /* \"#utility.yul\":4161:4168   */\n      dup1\n        /* \"#utility.yul\":4156:4158   */\n      dup4\n        /* \"#utility.yul\":4149:4154   */\n      dup6\n        /* \"#utility.yul\":4145:4159   */\n      add\n        /* \"#utility.yul\":4138:4169   */\n      mstore\n      pop\n        /* \"#utility.yul\":4193:4196   */\n      0x80\n        /* \"#utility.yul\":4182:4196   */\n      swap2\n      pop\n        /* \"#utility.yul\":4254:4257   */\n      dup2\n        /* \"#utility.yul\":4250:4252   */\n      dup6\n        /* \"#utility.yul\":4246:4258   */\n      add\n        /* \"#utility.yul\":4233:4259   */\n      calldataload\n        /* \"#utility.yul\":4227:4230   */\n      dup2\n        /* \"#utility.yul\":4220:4225   */\n      dup5\n        /* \"#utility.yul\":4216:4231   */\n      add\n        /* \"#utility.yul\":4209:4260   */\n      mstore\n      pop\n        /* \"#utility.yul\":4310:4312   */\n      dup3\n        /* \"#utility.yul\":4306:4308   */\n      dup5\n        /* \"#utility.yul\":4302:4313   */\n      add\n        /* \"#utility.yul\":4289:4314   */\n      calldataload\n        /* \"#utility.yul\":4273:4314   */\n      swap3\n      pop\n        /* \"#utility.yul\":4343:4345   */\n      dup9\n        /* \"#utility.yul\":4333:4341   */\n      dup4\n        /* \"#utility.yul\":4330:4346   */\n      gt\n        /* \"#utility.yul\":4327:4436   */\n      iszero\n      tag_706\n      jumpi\n        /* \"#utility.yul\":4388:4389   */\n      0x00\n        /* \"#utility.yul\":4418:4421   */\n      dup1\n        /* \"#utility.yul\":4413:4416   */\n      dup2\n        /* \"#utility.yul\":4406:4422   */\n      revert\n        /* \"#utility.yul\":4327:4436   */\n    tag_706:\n        /* \"#utility.yul\":4473:4538   */\n      tag_707\n        /* \"#utility.yul\":4530:4537   */\n      dup15\n        /* \"#utility.yul\":4525:4527   */\n      dup13\n        /* \"#utility.yul\":4514:4522   */\n      dup6\n        /* \"#utility.yul\":4510:4512   */\n      dup8\n        /* \"#utility.yul\":4506:4523   */\n      add\n        /* \"#utility.yul\":4502:4528   */\n      add\n        /* \"#utility.yul\":4473:4538   */\n      tag_657\n      jump\t// in\n    tag_707:\n        /* \"#utility.yul\":4456:4471   */\n      swap1\n      dup3\n      add\n        /* \"#utility.yul\":4449:4539   */\n      mstore\n        /* \"#utility.yul\":4552:4570   */\n      dup6\n      mstore\n      pop\n      pop\n        /* \"#utility.yul\":4590:4602   */\n      swap2\n      dup7\n      add\n      swap2\n        /* \"#utility.yul\":3323:3335   */\n      dup7\n      add\n        /* \"#utility.yul\":3290:4612   */\n      jump(tag_698)\n    tag_700:\n      pop\n        /* \"#utility.yul\":4631:4636   */\n      swap9\n        /* \"#utility.yul\":2517:4642   */\n      swap8\n      pop\n      pop\n      pop\n      pop\n      pop\n      pop\n      pop\n      pop\n      jump\t// out\n        /* \"#utility.yul\":4647:5099   */\n    tag_39:\n        /* \"#utility.yul\":4733:4739   */\n      0x00\n        /* \"#utility.yul\":4741:4747   */\n      dup1\n        /* \"#utility.yul\":4749:4755   */\n      0x00\n        /* \"#utility.yul\":4757:4763   */\n      dup1\n        /* \"#utility.yul\":4810:4813   */\n      0x80\n        /* \"#utility.yul\":4798:4807   */\n      dup6\n        /* \"#utility.yul\":4789:4796   */\n      dup8\n        /* \"#utility.yul\":4785:4808   */\n      sub\n        /* \"#utility.yul\":4781:4814   */\n      slt\n        /* \"#utility.yul\":4778:4831   */\n      iszero\n      tag_709\n      jumpi\n        /* \"#utility.yul\":4827:4828   */\n      0x00\n        /* \"#utility.yul\":4824:4825   */\n      dup1\n        /* \"#utility.yul\":4817:4829   */\n      revert\n        /* \"#utility.yul\":4778:4831   */\n    tag_709:\n        /* \"#utility.yul\":4866:4875   */\n      dup5\n        /* \"#utility.yul\":4853:4876   */\n      calldataload\n        /* \"#utility.yul\":4885:4916   */\n      tag_710\n        /* \"#utility.yul\":4910:4915   */\n      dup2\n        /* \"#utility.yul\":4885:4916   */\n      tag_652\n      jump\t// in\n    tag_710:\n        /* \"#utility.yul\":4935:4940   */\n      swap7\n        /* \"#utility.yul\":4987:4989   */\n      0x20\n        /* \"#utility.yul\":4972:4990   */\n      dup7\n      add\n        /* \"#utility.yul\":4959:4991   */\n      calldataload\n      swap7\n      pop\n        /* \"#utility.yul\":5038:5040   */\n      0x40\n        /* \"#utility.yul\":5023:5041   */\n      dup7\n      add\n        /* \"#utility.yul\":5010:5042   */\n      calldataload\n      swap6\n        /* \"#utility.yul\":5089:5091   */\n      0x60\n        /* \"#utility.yul\":5074:5092   */\n      add\n        /* \"#utility.yul\":5061:5093   */\n      calldataload\n      swap5\n      pop\n        /* \"#utility.yul\":4647:5099   */\n      swap3\n      pop\n      pop\n      pop\n      jump\t// out\n        /* \"#utility.yul\":5104:5351   */\n    tag_44:\n        /* \"#utility.yul\":5163:5169   */\n      0x00\n        /* \"#utility.yul\":5216:5218   */\n      0x20\n        /* \"#utility.yul\":5204:5213   */\n      dup3\n        /* \"#utility.yul\":5195:5202   */\n      dup5\n        /* \"#utility.yul\":5191:5214   */\n      sub\n        /* \"#utility.yul\":5187:5219   */\n      slt\n        /* \"#utility.yul\":5184:5236   */\n      iszero\n      tag_712\n      jumpi\n        /* \"#utility.yul\":5232:5233   */\n      0x00\n        /* \"#utility.yul\":5229:5230   */\n      dup1\n        /* \"#utility.yul\":5222:5234   */\n      revert\n        /* \"#utility.yul\":5184:5236   */\n    tag_712:\n        /* \"#utility.yul\":5271:5280   */\n      dup2\n        /* \"#utility.yul\":5258:5281   */\n      calldataload\n        /* \"#utility.yul\":5290:5321   */\n      tag_435\n        /* \"#utility.yul\":5315:5320   */\n      dup2\n        /* \"#utility.yul\":5290:5321   */\n      tag_652\n      jump\t// in\n        /* \"#utility.yul\":5356:5671   */\n    tag_49:\n        /* \"#utility.yul\":5424:5430   */\n      0x00\n        /* \"#utility.yul\":5432:5438   */\n      dup1\n        /* \"#utility.yul\":5485:5487   */\n      0x40\n        /* \"#utility.yul\":5473:5482   */\n      dup4\n        /* \"#utility.yul\":5464:5471   */\n      dup6\n        /* \"#utility.yul\":5460:5483   */\n      sub\n        /* \"#utility.yul\":5456:5488   */\n      slt\n        /* \"#utility.yul\":5453:5505   */\n      iszero\n      tag_715\n      jumpi\n        /* \"#utility.yul\":5501:5502   */\n      0x00\n        /* \"#utility.yul\":5498:5499   */\n      dup1\n        /* \"#utility.yul\":5491:5503   */\n      revert\n        /* \"#utility.yul\":5453:5505   */\n    tag_715:\n        /* \"#utility.yul\":5540:5549   */\n      dup3\n        /* \"#utility.yul\":5527:5550   */\n      calldataload\n        /* \"#utility.yul\":5559:5590   */\n      tag_716\n        /* \"#utility.yul\":5584:5589   */\n      dup2\n        /* \"#utility.yul\":5559:5590   */\n      tag_652\n      jump\t// in\n    tag_716:\n        /* \"#utility.yul\":5609:5614   */\n      swap5\n        /* \"#utility.yul\":5661:5663   */\n      0x20\n        /* \"#utility.yul\":5646:5664   */\n      swap4\n      swap1\n      swap4\n      add\n        /* \"#utility.yul\":5633:5665   */\n      calldataload\n      swap4\n      pop\n      pop\n      pop\n        /* \"#utility.yul\":5356:5671   */\n      jump\t// out\n        /* \"#utility.yul\":5858:6283   */\n    tag_60:\n        /* \"#utility.yul\":5954:5960   */\n      0x00\n        /* \"#utility.yul\":5962:5968   */\n      dup1\n        /* \"#utility.yul\":6015:6017   */\n      0x40\n        /* \"#utility.yul\":6003:6012   */\n      dup4\n        /* \"#utility.yul\":5994:6001   */\n      dup6\n        /* \"#utility.yul\":5990:6013   */\n      sub\n        /* \"#utility.yul\":5986:6018   */\n      slt\n        /* \"#utility.yul\":5983:6035   */\n      iszero\n      tag_719\n      jumpi\n        /* \"#utility.yul\":6031:6032   */\n      0x00\n        /* \"#utility.yul\":6028:6029   */\n      dup1\n        /* \"#utility.yul\":6021:6033   */\n      revert\n        /* \"#utility.yul\":5983:6035   */\n    tag_719:\n        /* \"#utility.yul\":6070:6079   */\n      dup3\n        /* \"#utility.yul\":6057:6080   */\n      calldataload\n        /* \"#utility.yul\":6109:6110   */\n      0x03\n        /* \"#utility.yul\":6102:6107   */\n      dup2\n        /* \"#utility.yul\":6099:6111   */\n      lt\n        /* \"#utility.yul\":6089:6129   */\n      tag_720\n      jumpi\n        /* \"#utility.yul\":6125:6126   */\n      0x00\n        /* \"#utility.yul\":6122:6123   */\n      dup1\n        /* \"#utility.yul\":6115:6127   */\n      revert\n        /* \"#utility.yul\":6089:6129   */\n    tag_720:\n        /* \"#utility.yul\":6148:6153   */\n      swap2\n      pop\n        /* \"#utility.yul\":6205:6207   */\n      0x20\n        /* \"#utility.yul\":6190:6208   */\n      dup4\n      add\n        /* \"#utility.yul\":6177:6209   */\n      calldataload\n        /* \"#utility.yul\":6218:6251   */\n      tag_721\n        /* \"#utility.yul\":6177:6209   */\n      dup2\n        /* \"#utility.yul\":6218:6251   */\n      tag_652\n      jump\t// in\n    tag_721:\n        /* \"#utility.yul\":6270:6277   */\n      dup1\n        /* \"#utility.yul\":6260:6277   */\n      swap2\n      pop\n      pop\n        /* \"#utility.yul\":5858:6283   */\n      swap3\n      pop\n      swap3\n      swap1\n      pop\n      jump\t// out\n        /* \"#utility.yul\":6288:6415   */\n    tag_221:\n        /* \"#utility.yul\":6349:6359   */\n      0x4e487b71\n        /* \"#utility.yul\":6344:6347   */\n      0xe0\n        /* \"#utility.yul\":6340:6360   */\n      shl\n        /* \"#utility.yul\":6337:6338   */\n      0x00\n        /* \"#utility.yul\":6330:6361   */\n      mstore\n        /* \"#utility.yul\":6380:6384   */\n      0x21\n        /* \"#utility.yul\":6377:6378   */\n      0x04\n        /* \"#utility.yul\":6370:6385   */\n      mstore\n        /* \"#utility.yul\":6404:6408   */\n      0x24\n        /* \"#utility.yul\":6401:6402   */\n      0x00\n        /* \"#utility.yul\":6394:6409   */\n      revert\n        /* \"#utility.yul\":6537:6941   */\n    tag_66:\n        /* \"#utility.yul\":6751:6764   */\n      dup2\n      mload\n        /* \"#utility.yul\":6729:6731   */\n      0x40\n        /* \"#utility.yul\":6714:6732   */\n      dup3\n      add\n      swap1\n        /* \"#utility.yul\":6790:6791   */\n      0x03\n        /* \"#utility.yul\":6783:6792   */\n      dup2\n      lt\n        /* \"#utility.yul\":6773:6816   */\n      tag_726\n      jumpi\n        /* \"#utility.yul\":6796:6814   */\n      tag_726\n      tag_221\n      jump\t// in\n    tag_726:\n        /* \"#utility.yul\":6825:6846   */\n      dup3\n      mstore\n        /* \"#utility.yul\":6906:6910   */\n      0x20\n        /* \"#utility.yul\":6894:6911   */\n      swap3\n      dup4\n      add\n        /* \"#utility.yul\":6888:6912   */\n      mload\n      sub(shl(0xa0, 0x01), 0x01)\n        /* \"#utility.yul\":6884:6934   */\n      and\n        /* \"#utility.yul\":6862:6882   */\n      swap3\n      swap1\n      swap2\n      add\n        /* \"#utility.yul\":6855:6935   */\n      swap2\n      swap1\n      swap2\n      mstore\n        /* \"#utility.yul\":6537:6941   */\n      swap1\n      jump\t// out\n        /* \"#utility.yul\":6946:7126   */\n    tag_70:\n        /* \"#utility.yul\":7005:7011   */\n      0x00\n        /* \"#utility.yul\":7058:7060   */\n      0x20\n        /* \"#utility.yul\":7046:7055   */\n      dup3\n        /* \"#utility.yul\":7037:7044   */\n      dup5\n        /* \"#utility.yul\":7033:7056   */\n      sub\n        /* \"#utility.yul\":7029:7061   */\n      slt\n        /* \"#utility.yul\":7026:7078   */\n      iszero\n      tag_728\n      jumpi\n        /* \"#utility.yul\":7074:7075   */\n      0x00\n        /* \"#utility.yul\":7071:7072   */\n      dup1\n        /* \"#utility.yul\":7064:7076   */\n      revert\n        /* \"#utility.yul\":7026:7078   */\n    tag_728:\n      pop\n        /* \"#utility.yul\":7097:7120   */\n      calldataload\n      swap2\n        /* \"#utility.yul\":6946:7126   */\n      swap1\n      pop\n      jump\t// out\n        /* \"#utility.yul\":7131:7278   */\n    tag_659:\n        /* \"#utility.yul\":7219:7220   */\n      0x04\n        /* \"#utility.yul\":7212:7217   */\n      dup2\n        /* \"#utility.yul\":7209:7221   */\n      lt\n        /* \"#utility.yul\":7199:7245   */\n      tag_731\n      jumpi\n        /* \"#utility.yul\":7225:7243   */\n      tag_731\n      tag_221\n      jump\t// in\n    tag_731:\n        /* \"#utility.yul\":7254:7272   */\n      swap1\n      mstore\n        /* \"#utility.yul\":7131:7278   */\n      jump\t// out\n        /* \"#utility.yul\":7283:7744   */\n    tag_660:\n        /* \"#utility.yul\":7336:7339   */\n      0x00\n        /* \"#utility.yul\":7374:7379   */\n      dup2\n        /* \"#utility.yul\":7368:7380   */\n      mload\n        /* \"#utility.yul\":7401:7407   */\n      dup1\n        /* \"#utility.yul\":7396:7399   */\n      dup5\n        /* \"#utility.yul\":7389:7408   */\n      mstore\n        /* \"#utility.yul\":7427:7431   */\n      0x20\n        /* \"#utility.yul\":7456:7458   */\n      dup1\n        /* \"#utility.yul\":7451:7454   */\n      dup6\n        /* \"#utility.yul\":7447:7459   */\n      add\n        /* \"#utility.yul\":7440:7459   */\n      swap5\n      pop\n        /* \"#utility.yul\":7493:7495   */\n      dup1\n        /* \"#utility.yul\":7486:7491   */\n      dup5\n        /* \"#utility.yul\":7482:7496   */\n      add\n        /* \"#utility.yul\":7514:7515   */\n      0x00\n        /* \"#utility.yul\":7524:7719   */\n    tag_733:\n        /* \"#utility.yul\":7538:7544   */\n      dup4\n        /* \"#utility.yul\":7535:7536   */\n      dup2\n        /* \"#utility.yul\":7532:7545   */\n      lt\n        /* \"#utility.yul\":7524:7719   */\n      iszero\n      tag_735\n      jumpi\n        /* \"#utility.yul\":7603:7616   */\n      dup2\n      mload\n      sub(shl(0xa0, 0x01), 0x01)\n        /* \"#utility.yul\":7599:7638   */\n      and\n        /* \"#utility.yul\":7587:7639   */\n      dup8\n      mstore\n        /* \"#utility.yul\":7659:7671   */\n      swap6\n      dup3\n      add\n      swap6\n        /* \"#utility.yul\":7694:7709   */\n      swap1\n      dup3\n      add\n      swap1\n        /* \"#utility.yul\":7635:7636   */\n      0x01\n        /* \"#utility.yul\":7553:7562   */\n      add\n        /* \"#utility.yul\":7524:7719   */\n      jump(tag_733)\n    tag_735:\n      pop\n        /* \"#utility.yul\":7735:7738   */\n      swap5\n      swap6\n        /* \"#utility.yul\":7283:7744   */\n      swap5\n      pop\n      pop\n      pop\n      pop\n      pop\n      jump\t// out\n        /* \"#utility.yul\":7749:9268   */\n    tag_73:\n        /* \"#utility.yul\":7934:7936   */\n      0x20\n        /* \"#utility.yul\":7923:7932   */\n      dup2\n        /* \"#utility.yul\":7916:7937   */\n      mstore\n        /* \"#utility.yul\":7979:7985   */\n      dup2\n        /* \"#utility.yul\":7973:7986   */\n      mload\n        /* \"#utility.yul\":7968:7970   */\n      0x20\n        /* \"#utility.yul\":7957:7966   */\n      dup3\n        /* \"#utility.yul\":7953:7971   */\n      add\n        /* \"#utility.yul\":7946:7987   */\n      mstore\n        /* \"#utility.yul\":7897:7901   */\n      0x00\n        /* \"#utility.yul\":8034:8036   */\n      0x20\n        /* \"#utility.yul\":8026:8032   */\n      dup4\n        /* \"#utility.yul\":8022:8037   */\n      add\n        /* \"#utility.yul\":8016:8038   */\n      mload\n        /* \"#utility.yul\":8047:8107   */\n      tag_737\n        /* \"#utility.yul\":8103:8105   */\n      0x40\n        /* \"#utility.yul\":8092:8101   */\n      dup5\n        /* \"#utility.yul\":8088:8106   */\n      add\n        /* \"#utility.yul\":8074:8086   */\n      dup3\n      sub(shl(0xa0, 0x01), 0x01)\n        /* \"#utility.yul\":6494:6525   */\n      and\n        /* \"#utility.yul\":6482:6526   */\n      swap1\n      mstore\n        /* \"#utility.yul\":6420:6532   */\n      jump\n        /* \"#utility.yul\":8047:8107   */\n    tag_737:\n      pop\n        /* \"#utility.yul\":8161:8163   */\n      0x40\n        /* \"#utility.yul\":8153:8159   */\n      dup4\n        /* \"#utility.yul\":8149:8164   */\n      add\n        /* \"#utility.yul\":8143:8165   */\n      mload\n        /* \"#utility.yul\":8138:8140   */\n      0x60\n        /* \"#utility.yul\":8127:8136   */\n      dup4\n        /* \"#utility.yul\":8123:8141   */\n      add\n        /* \"#utility.yul\":8116:8166   */\n      mstore\n        /* \"#utility.yul\":8215:8217   */\n      0x60\n        /* \"#utility.yul\":8207:8213   */\n      dup4\n        /* \"#utility.yul\":8203:8218   */\n      add\n        /* \"#utility.yul\":8197:8219   */\n      mload\n        /* \"#utility.yul\":8228:8291   */\n      tag_738\n        /* \"#utility.yul\":8286:8289   */\n      0x80\n        /* \"#utility.yul\":8275:8284   */\n      dup5\n        /* \"#utility.yul\":8271:8290   */\n      add\n        /* \"#utility.yul\":8255:8269   */\n      dup3\n      sub(shl(0xa0, 0x01), 0x01)\n        /* \"#utility.yul\":6494:6525   */\n      and\n        /* \"#utility.yul\":6482:6526   */\n      swap1\n      mstore\n        /* \"#utility.yul\":6420:6532   */\n      jump\n        /* \"#utility.yul\":8228:8291   */\n    tag_738:\n      pop\n        /* \"#utility.yul\":8340:8343   */\n      0x80\n        /* \"#utility.yul\":8328:8344   */\n      dup4\n      add\n        /* \"#utility.yul\":8322:8345   */\n      mload\n      sub(shl(0xa0, 0x01), 0x01)\n        /* \"#utility.yul\":6494:6525   */\n      dup2\n      and\n        /* \"#utility.yul\":8412:8415   */\n      0xa0\n        /* \"#utility.yul\":8397:8416   */\n      dup5\n      add\n        /* \"#utility.yul\":6482:6526   */\n      mstore\n      pop\n        /* \"#utility.yul\":8466:8469   */\n      0xa0\n        /* \"#utility.yul\":8454:8470   */\n      dup4\n      add\n        /* \"#utility.yul\":8448:8471   */\n      mload\n      sub(shl(0xa0, 0x01), 0x01)\n        /* \"#utility.yul\":6494:6525   */\n      dup2\n      and\n        /* \"#utility.yul\":8538:8541   */\n      0xc0\n        /* \"#utility.yul\":8523:8542   */\n      dup5\n      add\n        /* \"#utility.yul\":6482:6526   */\n      mstore\n        /* \"#utility.yul\":8480:8543   */\n      pop\n        /* \"#utility.yul\":8598:8601   */\n      0xc0\n        /* \"#utility.yul\":8590:8596   */\n      dup4\n        /* \"#utility.yul\":8586:8602   */\n      add\n        /* \"#utility.yul\":8580:8603   */\n      mload\n        /* \"#utility.yul\":8574:8577   */\n      0xe0\n        /* \"#utility.yul\":8563:8572   */\n      dup4\n        /* \"#utility.yul\":8559:8578   */\n      add\n        /* \"#utility.yul\":8552:8604   */\n      mstore\n        /* \"#utility.yul\":8653:8656   */\n      0xe0\n        /* \"#utility.yul\":8645:8651   */\n      dup4\n        /* \"#utility.yul\":8641:8657   */\n      add\n        /* \"#utility.yul\":8635:8658   */\n      mload\n        /* \"#utility.yul\":8677:8680   */\n      0x0100\n        /* \"#utility.yul\":8689:8757   */\n      tag_741\n        /* \"#utility.yul\":8753:8755   */\n      dup2\n        /* \"#utility.yul\":8742:8751   */\n      dup6\n        /* \"#utility.yul\":8738:8756   */\n      add\n        /* \"#utility.yul\":8722:8736   */\n      dup4\n        /* \"#utility.yul\":8689:8757   */\n      tag_659\n      jump\t// in\n    tag_741:\n        /* \"#utility.yul\":8782:8797   */\n      dup5\n      add\n        /* \"#utility.yul\":8776:8798   */\n      mload\n        /* \"#utility.yul\":8817:8820   */\n      0x0120\n        /* \"#utility.yul\":8836:8854   */\n      dup5\n      dup2\n      add\n        /* \"#utility.yul\":8829:8859   */\n      swap2\n      swap1\n      swap2\n      mstore\n        /* \"#utility.yul\":8884:8899   */\n      dup5\n      add\n        /* \"#utility.yul\":8878:8900   */\n      mload\n        /* \"#utility.yul\":8919:8922   */\n      0x0140\n        /* \"#utility.yul\":8938:8956   */\n      dup1\n      dup6\n      add\n        /* \"#utility.yul\":8931:8961   */\n      swap2\n      swap1\n      swap2\n      mstore\n        /* \"#utility.yul\":8986:9001   */\n      dup5\n      add\n        /* \"#utility.yul\":8980:9002   */\n      mload\n        /* \"#utility.yul\":9021:9024   */\n      0x0160\n        /* \"#utility.yul\":9040:9058   */\n      dup1\n      dup6\n      add\n        /* \"#utility.yul\":9033:9063   */\n      swap2\n      swap1\n      swap2\n      mstore\n        /* \"#utility.yul\":9100:9115   */\n      dup5\n      add\n        /* \"#utility.yul\":9094:9116   */\n      mload\n        /* \"#utility.yul\":9135:9141   */\n      0x0180\n        /* \"#utility.yul\":9157:9175   */\n      dup1\n      dup6\n      add\n        /* \"#utility.yul\":9150:9180   */\n      mstore\n        /* \"#utility.yul\":9094:9116   */\n      swap1\n      pop\n        /* \"#utility.yul\":9197:9262   */\n      tag_616\n        /* \"#utility.yul\":9257:9260   */\n      0x01a0\n        /* \"#utility.yul\":9242:9261   */\n      dup5\n      add\n        /* \"#utility.yul\":9094:9116   */\n      dup3\n        /* \"#utility.yul\":9197:9262   */\n      tag_660\n      jump\t// in\n        /* \"#utility.yul\":9932:10247   */\n    tag_109:\n        /* \"#utility.yul\":10000:10006   */\n      0x00\n        /* \"#utility.yul\":10008:10014   */\n      dup1\n        /* \"#utility.yul\":10061:10063   */\n      0x40\n        /* \"#utility.yul\":10049:10058   */\n      dup4\n        /* \"#utility.yul\":10040:10047   */\n      dup6\n        /* \"#utility.yul\":10036:10059   */\n      sub\n        /* \"#utility.yul\":10032:10064   */\n      slt\n        /* \"#utility.yul\":10029:10081   */\n      iszero\n      tag_746\n      jumpi\n        /* \"#utility.yul\":10077:10078   */\n      0x00\n        /* \"#utility.yul\":10074:10075   */\n      dup1\n        /* \"#utility.yul\":10067:10079   */\n      revert\n        /* \"#utility.yul\":10029:10081   */\n    tag_746:\n        /* \"#utility.yul\":10113:10122   */\n      dup3\n        /* \"#utility.yul\":10100:10123   */\n      calldataload\n        /* \"#utility.yul\":10090:10123   */\n      swap2\n      pop\n        /* \"#utility.yul\":10173:10175   */\n      0x20\n        /* \"#utility.yul\":10162:10171   */\n      dup4\n        /* \"#utility.yul\":10158:10176   */\n      add\n        /* \"#utility.yul\":10145:10177   */\n      calldataload\n        /* \"#utility.yul\":10186:10217   */\n      tag_721\n        /* \"#utility.yul\":10211:10216   */\n      dup2\n        /* \"#utility.yul\":10186:10217   */\n      tag_652\n      jump\t// in\n        /* \"#utility.yul\":10252:10708   */\n    tag_119:\n        /* \"#utility.yul\":10329:10335   */\n      0x00\n        /* \"#utility.yul\":10337:10343   */\n      dup1\n        /* \"#utility.yul\":10345:10351   */\n      0x00\n        /* \"#utility.yul\":10398:10400   */\n      0x60\n        /* \"#utility.yul\":10386:10395   */\n      dup5\n        /* \"#utility.yul\":10377:10384   */\n      dup7\n        /* \"#utility.yul\":10373:10396   */\n      sub\n        /* \"#utility.yul\":10369:10401   */\n      slt\n        /* \"#utility.yul\":10366:10418   */\n      iszero\n      tag_749\n      jumpi\n        /* \"#utility.yul\":10414:10415   */\n      0x00\n        /* \"#utility.yul\":10411:10412   */\n      dup1\n        /* \"#utility.yul\":10404:10416   */\n      revert\n        /* \"#utility.yul\":10366:10418   */\n    tag_749:\n        /* \"#utility.yul\":10453:10462   */\n      dup4\n        /* \"#utility.yul\":10440:10463   */\n      calldataload\n        /* \"#utility.yul\":10472:10503   */\n      tag_750\n        /* \"#utility.yul\":10497:10502   */\n      dup2\n        /* \"#utility.yul\":10472:10503   */\n      tag_652\n      jump\t// in\n    tag_750:\n        /* \"#utility.yul\":10522:10527   */\n      swap3\n      pop\n        /* \"#utility.yul\":10579:10581   */\n      0x20\n        /* \"#utility.yul\":10564:10582   */\n      dup5\n      add\n        /* \"#utility.yul\":10551:10583   */\n      calldataload\n        /* \"#utility.yul\":10592:10625   */\n      tag_751\n        /* \"#utility.yul\":10551:10583   */\n      dup2\n        /* \"#utility.yul\":10592:10625   */\n      tag_652\n      jump\t// in\n    tag_751:\n        /* \"#utility.yul\":10252:10708   */\n      swap3\n      swap6\n        /* \"#utility.yul\":10644:10651   */\n      swap3\n      swap5\n      pop\n      pop\n      pop\n        /* \"#utility.yul\":10698:10700   */\n      0x40\n        /* \"#utility.yul\":10683:10701   */\n      swap2\n      swap1\n      swap2\n      add\n        /* \"#utility.yul\":10670:10702   */\n      calldataload\n      swap1\n        /* \"#utility.yul\":10252:10708   */\n      jump\t// out\n        /* \"#utility.yul\":10713:10961   */\n    tag_132:\n        /* \"#utility.yul\":10781:10787   */\n      0x00\n        /* \"#utility.yul\":10789:10795   */\n      dup1\n        /* \"#utility.yul\":10842:10844   */\n      0x40\n        /* \"#utility.yul\":10830:10839   */\n      dup4\n        /* \"#utility.yul\":10821:10828   */\n      dup6\n        /* \"#utility.yul\":10817:10840   */\n      sub\n        /* \"#utility.yul\":10813:10845   */\n      slt\n        /* \"#utility.yul\":10810:10862   */\n      iszero\n      tag_753\n      jumpi\n        /* \"#utility.yul\":10858:10859   */\n      0x00\n        /* \"#utility.yul\":10855:10856   */\n      dup1\n        /* \"#utility.yul\":10848:10860   */\n      revert\n        /* \"#utility.yul\":10810:10862   */\n    tag_753:\n      pop\n      pop\n        /* \"#utility.yul\":10881:10904   */\n      dup1\n      calldataload\n      swap3\n        /* \"#utility.yul\":10951:10953   */\n      0x20\n        /* \"#utility.yul\":10936:10954   */\n      swap1\n      swap2\n      add\n        /* \"#utility.yul\":10923:10955   */\n      calldataload\n      swap2\n      pop\n        /* \"#utility.yul\":10713:10961   */\n      jump\t// out\n        /* \"#utility.yul\":10966:11369   */\n    tag_137:\n        /* \"#utility.yul\":11168:11170   */\n      0x20\n        /* \"#utility.yul\":11150:11171   */\n      dup1\n      dup3\n      mstore\n        /* \"#utility.yul\":11207:11209   */\n      0x27\n        /* \"#utility.yul\":11187:11205   */\n      swap1\n      dup3\n      add\n        /* \"#utility.yul\":11180:11210   */\n      mstore\n        /* \"#utility.yul\":11246:11280   */\n      0x5072696365206d75737420626520706f73697469766520286174206c65617374\n        /* \"#utility.yul\":11241:11243   */\n      0x40\n        /* \"#utility.yul\":11226:11244   */\n      dup3\n      add\n        /* \"#utility.yul\":11219:11281   */\n      mstore\n      shl(0xc8, 0x20312077656929)\n        /* \"#utility.yul\":11312:11314   */\n      0x60\n        /* \"#utility.yul\":11297:11315   */\n      dup3\n      add\n        /* \"#utility.yul\":11290:11327   */\n      mstore\n        /* \"#utility.yul\":11359:11362   */\n      0x80\n        /* \"#utility.yul\":11344:11363   */\n      add\n      swap1\n        /* \"#utility.yul\":10966:11369   */\n      jump\t// out\n        /* \"#utility.yul\":11374:11780   */\n    tag_141:\n        /* \"#utility.yul\":11576:11578   */\n      0x20\n        /* \"#utility.yul\":11558:11579   */\n      dup1\n      dup3\n      mstore\n        /* \"#utility.yul\":11615:11617   */\n      0x2a\n        /* \"#utility.yul\":11595:11613   */\n      swap1\n      dup3\n      add\n        /* \"#utility.yul\":11588:11618   */\n      mstore\n        /* \"#utility.yul\":11654:11688   */\n      0x5468617420746f6b656e20697320616c726561647920706c61636564206f6e20\n        /* \"#utility.yul\":11649:11651   */\n      0x40\n        /* \"#utility.yul\":11634:11652   */\n      dup3\n      add\n        /* \"#utility.yul\":11627:11689   */\n      mstore\n      shl(0xb2, 0x1d1a19481b585c9ad95d)\n        /* \"#utility.yul\":11720:11722   */\n      0x60\n        /* \"#utility.yul\":11705:11723   */\n      dup3\n      add\n        /* \"#utility.yul\":11698:11738   */\n      mstore\n        /* \"#utility.yul\":11770:11773   */\n      0x80\n        /* \"#utility.yul\":11755:11774   */\n      add\n      swap1\n        /* \"#utility.yul\":11374:11780   */\n      jump\t// out\n        /* \"#utility.yul\":11785:12202   */\n    tag_148:\n        /* \"#utility.yul\":11987:11989   */\n      0x20\n        /* \"#utility.yul\":11969:11990   */\n      dup1\n      dup3\n      mstore\n        /* \"#utility.yul\":12026:12028   */\n      0x35\n        /* \"#utility.yul\":12006:12024   */\n      swap1\n      dup3\n      add\n        /* \"#utility.yul\":11999:12029   */\n      mstore\n        /* \"#utility.yul\":12065:12099   */\n      0x4f6e6c79206f776e6572206f6620746865204e46542063616e20706c61636520\n        /* \"#utility.yul\":12060:12062   */\n      0x40\n        /* \"#utility.yul\":12045:12063   */\n      dup3\n      add\n        /* \"#utility.yul\":12038:12100   */\n      mstore\n      shl(0x58, 0x697420746f20746865204d61726b6574706c616365)\n        /* \"#utility.yul\":12131:12133   */\n      0x60\n        /* \"#utility.yul\":12116:12134   */\n      dup3\n      add\n        /* \"#utility.yul\":12109:12160   */\n      mstore\n        /* \"#utility.yul\":12192:12195   */\n      0x80\n        /* \"#utility.yul\":12177:12196   */\n      add\n      swap1\n        /* \"#utility.yul\":11785:12202   */\n      jump\t// out\n        /* \"#utility.yul\":12207:12612   */\n    tag_151:\n        /* \"#utility.yul\":12409:12411   */\n      0x20\n        /* \"#utility.yul\":12391:12412   */\n      dup1\n      dup3\n      mstore\n        /* \"#utility.yul\":12448:12450   */\n      0x29\n        /* \"#utility.yul\":12428:12446   */\n      swap1\n      dup3\n      add\n        /* \"#utility.yul\":12421:12451   */\n      mstore\n        /* \"#utility.yul\":12487:12521   */\n      0x4e46542073686f756c6420626520617070726f76656420746f20746865204d61\n        /* \"#utility.yul\":12482:12484   */\n      0x40\n        /* \"#utility.yul\":12467:12485   */\n      dup3\n      add\n        /* \"#utility.yul\":12460:12522   */\n      mstore\n      shl(0xb8, 0x726b6574706c616365)\n        /* \"#utility.yul\":12553:12555   */\n      0x60\n        /* \"#utility.yul\":12538:12556   */\n      dup3\n      add\n        /* \"#utility.yul\":12531:12570   */\n      mstore\n        /* \"#utility.yul\":12602:12605   */\n      0x80\n        /* \"#utility.yul\":12587:12606   */\n      add\n      swap1\n        /* \"#utility.yul\":12207:12612   */\n      jump\t// out\n        /* \"#utility.yul\":12617:13027   */\n    tag_154:\n        /* \"#utility.yul\":12819:12821   */\n      0x20\n        /* \"#utility.yul\":12801:12822   */\n      dup1\n      dup3\n      mstore\n        /* \"#utility.yul\":12858:12860   */\n      0x2e\n        /* \"#utility.yul\":12838:12856   */\n      swap1\n      dup3\n      add\n        /* \"#utility.yul\":12831:12861   */\n      mstore\n        /* \"#utility.yul\":12897:12931   */\n      0x4e4654206973206e6f742076616c696420746f20626520736f6c64206f6e2074\n        /* \"#utility.yul\":12892:12894   */\n      0x40\n        /* \"#utility.yul\":12877:12895   */\n      dup3\n      add\n        /* \"#utility.yul\":12870:12932   */\n      mstore\n      shl(0x90, 0x6865204d61726b6574706c616365)\n        /* \"#utility.yul\":12963:12965   */\n      0x60\n        /* \"#utility.yul\":12948:12966   */\n      dup3\n      add\n        /* \"#utility.yul\":12941:12985   */\n      mstore\n        /* \"#utility.yul\":13017:13020   */\n      0x80\n        /* \"#utility.yul\":13002:13021   */\n      add\n      swap1\n        /* \"#utility.yul\":12617:13027   */\n      jump\t// out\n        /* \"#utility.yul\":13869:13996   */\n    tag_661:\n        /* \"#utility.yul\":13930:13940   */\n      0x4e487b71\n        /* \"#utility.yul\":13925:13928   */\n      0xe0\n        /* \"#utility.yul\":13921:13941   */\n      shl\n        /* \"#utility.yul\":13918:13919   */\n      0x00\n        /* \"#utility.yul\":13911:13942   */\n      mstore\n        /* \"#utility.yul\":13961:13965   */\n      0x11\n        /* \"#utility.yul\":13958:13959   */\n      0x04\n        /* \"#utility.yul\":13951:13966   */\n      mstore\n        /* \"#utility.yul\":13985:13989   */\n      0x24\n        /* \"#utility.yul\":13982:13983   */\n      0x00\n        /* \"#utility.yul\":13975:13990   */\n      revert\n        /* \"#utility.yul\":14001:14169   */\n    tag_172:\n        /* \"#utility.yul\":14041:14048   */\n      0x00\n        /* \"#utility.yul\":14107:14108   */\n      dup2\n        /* \"#utility.yul\":14103:14104   */\n      0x00\n        /* \"#utility.yul\":14099:14105   */\n      not\n        /* \"#utility.yul\":14095:14109   */\n      div\n        /* \"#utility.yul\":14092:14093   */\n      dup4\n        /* \"#utility.yul\":14089:14110   */\n      gt\n        /* \"#utility.yul\":14084:14085   */\n      dup3\n        /* \"#utility.yul\":14077:14086   */\n      iszero\n        /* \"#utility.yul\":14070:14087   */\n      iszero\n        /* \"#utility.yul\":14066:14111   */\n      and\n        /* \"#utility.yul\":14063:14134   */\n      iszero\n      tag_764\n      jumpi\n        /* \"#utility.yul\":14114:14132   */\n      tag_764\n      tag_661\n      jump\t// in\n    tag_764:\n      pop\n        /* \"#utility.yul\":14154:14163   */\n      mul\n      swap1\n        /* \"#utility.yul\":14001:14169   */\n      jump\t// out\n        /* \"#utility.yul\":14174:14301   */\n    tag_178:\n        /* \"#utility.yul\":14235:14245   */\n      0x4e487b71\n        /* \"#utility.yul\":14230:14233   */\n      0xe0\n        /* \"#utility.yul\":14226:14246   */\n      shl\n        /* \"#utility.yul\":14223:14224   */\n      0x00\n        /* \"#utility.yul\":14216:14247   */\n      mstore\n        /* \"#utility.yul\":14266:14270   */\n      0x32\n        /* \"#utility.yul\":14263:14264   */\n      0x04\n        /* \"#utility.yul\":14256:14271   */\n      mstore\n        /* \"#utility.yul\":14290:14294   */\n      0x24\n        /* \"#utility.yul\":14287:14288   */\n      0x00\n        /* \"#utility.yul\":14280:14295   */\n      revert\n        /* \"#utility.yul\":14306:14441   */\n    tag_203:\n        /* \"#utility.yul\":14345:14348   */\n      0x00\n        /* \"#utility.yul\":14366:14383   */\n      0x01\n      dup3\n      add\n        /* \"#utility.yul\":14363:14406   */\n      tag_768\n      jumpi\n        /* \"#utility.yul\":14386:14404   */\n      tag_768\n      tag_661\n      jump\t// in\n    tag_768:\n      pop\n        /* \"#utility.yul\":14433:14434   */\n      0x01\n        /* \"#utility.yul\":14422:14435   */\n      add\n      swap1\n        /* \"#utility.yul\":14306:14441   */\n      jump\t// out\n        /* \"#utility.yul\":16186:16311   */\n    tag_252:\n        /* \"#utility.yul\":16226:16230   */\n      0x00\n        /* \"#utility.yul\":16254:16255   */\n      dup3\n        /* \"#utility.yul\":16251:16252   */\n      dup3\n        /* \"#utility.yul\":16248:16256   */\n      lt\n        /* \"#utility.yul\":16245:16279   */\n      iszero\n      tag_775\n      jumpi\n        /* \"#utility.yul\":16259:16277   */\n      tag_775\n      tag_661\n      jump\t// in\n    tag_775:\n      pop\n        /* \"#utility.yul\":16296:16305   */\n      sub\n      swap1\n        /* \"#utility.yul\":16186:16311   */\n      jump\t// out\n        /* \"#utility.yul\":16316:16663   */\n    tag_282:\n        /* \"#utility.yul\":16518:16520   */\n      0x20\n        /* \"#utility.yul\":16500:16521   */\n      dup1\n      dup3\n      mstore\n        /* \"#utility.yul\":16557:16559   */\n      0x17\n        /* \"#utility.yul\":16537:16555   */\n      swap1\n      dup3\n      add\n        /* \"#utility.yul\":16530:16560   */\n      mstore\n        /* \"#utility.yul\":16596:16621   */\n      0x496e76616c6964204d61726b6574204974656d20494421000000000000000000\n        /* \"#utility.yul\":16591:16593   */\n      0x40\n        /* \"#utility.yul\":16576:16594   */\n      dup3\n      add\n        /* \"#utility.yul\":16569:16622   */\n      mstore\n        /* \"#utility.yul\":16654:16656   */\n      0x60\n        /* \"#utility.yul\":16639:16657   */\n      add\n      swap1\n        /* \"#utility.yul\":16316:16663   */\n      jump\t// out\n        /* \"#utility.yul\":16668:17017   */\n    tag_290:\n        /* \"#utility.yul\":16870:16872   */\n      0x20\n        /* \"#utility.yul\":16852:16873   */\n      dup1\n      dup3\n      mstore\n        /* \"#utility.yul\":16909:16911   */\n      0x19\n        /* \"#utility.yul\":16889:16907   */\n      swap1\n      dup3\n      add\n        /* \"#utility.yul\":16882:16912   */\n      mstore\n        /* \"#utility.yul\":16948:16975   */\n      0x4d61726b6574204974656d206973206e6f742041637469766500000000000000\n        /* \"#utility.yul\":16943:16945   */\n      0x40\n        /* \"#utility.yul\":16928:16946   */\n      dup3\n      add\n        /* \"#utility.yul\":16921:16976   */\n      mstore\n        /* \"#utility.yul\":17008:17010   */\n      0x60\n        /* \"#utility.yul\":16993:17011   */\n      add\n      swap1\n        /* \"#utility.yul\":16668:17017   */\n      jump\t// out\n        /* \"#utility.yul\":17022:17377   */\n    tag_294:\n        /* \"#utility.yul\":17224:17226   */\n      0x20\n        /* \"#utility.yul\":17206:17227   */\n      dup1\n      dup3\n      mstore\n        /* \"#utility.yul\":17263:17265   */\n      0x1f\n        /* \"#utility.yul\":17243:17261   */\n      swap1\n      dup3\n      add\n        /* \"#utility.yul\":17236:17266   */\n      mstore\n        /* \"#utility.yul\":17302:17335   */\n      0x5265656e7472616e637947756172643a207265656e7472616e742063616c6c00\n        /* \"#utility.yul\":17297:17299   */\n      0x40\n        /* \"#utility.yul\":17282:17300   */\n      dup3\n      add\n        /* \"#utility.yul\":17275:17336   */\n      mstore\n        /* \"#utility.yul\":17368:17370   */\n      0x60\n        /* \"#utility.yul\":17353:17371   */\n      add\n      swap1\n        /* \"#utility.yul\":17022:17377   */\n      jump\t// out\n        /* \"#utility.yul\":18933:19117   */\n    tag_345:\n        /* \"#utility.yul\":19003:19009   */\n      0x00\n        /* \"#utility.yul\":19056:19058   */\n      0x20\n        /* \"#utility.yul\":19044:19053   */\n      dup3\n        /* \"#utility.yul\":19035:19042   */\n      dup5\n        /* \"#utility.yul\":19031:19054   */\n      sub\n        /* \"#utility.yul\":19027:19059   */\n      slt\n        /* \"#utility.yul\":19024:19076   */\n      iszero\n      tag_784\n      jumpi\n        /* \"#utility.yul\":19072:19073   */\n      0x00\n        /* \"#utility.yul\":19069:19070   */\n      dup1\n        /* \"#utility.yul\":19062:19074   */\n      revert\n        /* \"#utility.yul\":19024:19076   */\n    tag_784:\n      pop\n        /* \"#utility.yul\":19095:19111   */\n      mload\n      swap2\n        /* \"#utility.yul\":18933:19117   */\n      swap1\n      pop\n      jump\t// out\n        /* \"#utility.yul\":20273:20550   */\n    tag_402:\n        /* \"#utility.yul\":20340:20346   */\n      0x00\n        /* \"#utility.yul\":20393:20395   */\n      0x20\n        /* \"#utility.yul\":20381:20390   */\n      dup3\n        /* \"#utility.yul\":20372:20379   */\n      dup5\n        /* \"#utility.yul\":20368:20391   */\n      sub\n        /* \"#utility.yul\":20364:20396   */\n      slt\n        /* \"#utility.yul\":20361:20413   */\n      iszero\n      tag_789\n      jumpi\n        /* \"#utility.yul\":20409:20410   */\n      0x00\n        /* \"#utility.yul\":20406:20407   */\n      dup1\n        /* \"#utility.yul\":20399:20411   */\n      revert\n        /* \"#utility.yul\":20361:20413   */\n    tag_789:\n        /* \"#utility.yul\":20441:20450   */\n      dup2\n        /* \"#utility.yul\":20435:20451   */\n      mload\n        /* \"#utility.yul\":20494:20499   */\n      dup1\n        /* \"#utility.yul\":20487:20500   */\n      iszero\n        /* \"#utility.yul\":20480:20501   */\n      iszero\n        /* \"#utility.yul\":20473:20478   */\n      dup2\n        /* \"#utility.yul\":20470:20502   */\n      eq\n        /* \"#utility.yul\":20460:20520   */\n      tag_435\n      jumpi\n        /* \"#utility.yul\":20516:20517   */\n      0x00\n        /* \"#utility.yul\":20513:20514   */\n      dup1\n        /* \"#utility.yul\":20506:20518   */\n      revert\n        /* \"#utility.yul\":20555:20806   */\n    tag_408:\n        /* \"#utility.yul\":20625:20631   */\n      0x00\n        /* \"#utility.yul\":20678:20680   */\n      0x20\n        /* \"#utility.yul\":20666:20675   */\n      dup3\n        /* \"#utility.yul\":20657:20664   */\n      dup5\n        /* \"#utility.yul\":20653:20676   */\n      sub\n        /* \"#utility.yul\":20649:20681   */\n      slt\n        /* \"#utility.yul\":20646:20698   */\n      iszero\n      tag_792\n      jumpi\n        /* \"#utility.yul\":20694:20695   */\n      0x00\n        /* \"#utility.yul\":20691:20692   */\n      dup1\n        /* \"#utility.yul\":20684:20696   */\n      revert\n        /* \"#utility.yul\":20646:20698   */\n    tag_792:\n        /* \"#utility.yul\":20726:20735   */\n      dup2\n        /* \"#utility.yul\":20720:20736   */\n      mload\n        /* \"#utility.yul\":20745:20776   */\n      tag_435\n        /* \"#utility.yul\":20770:20775   */\n      dup2\n        /* \"#utility.yul\":20745:20776   */\n      tag_652\n      jump\t// in\n        /* \"#utility.yul\":22408:22666   */\n    tag_662:\n        /* \"#utility.yul\":22480:22481   */\n      0x00\n        /* \"#utility.yul\":22490:22603   */\n    tag_799:\n        /* \"#utility.yul\":22504:22510   */\n      dup4\n        /* \"#utility.yul\":22501:22502   */\n      dup2\n        /* \"#utility.yul\":22498:22511   */\n      lt\n        /* \"#utility.yul\":22490:22603   */\n      iszero\n      tag_801\n      jumpi\n        /* \"#utility.yul\":22580:22591   */\n      dup2\n      dup2\n      add\n        /* \"#utility.yul\":22574:22592   */\n      mload\n        /* \"#utility.yul\":22561:22572   */\n      dup4\n      dup3\n      add\n        /* \"#utility.yul\":22554:22593   */\n      mstore\n        /* \"#utility.yul\":22526:22528   */\n      0x20\n        /* \"#utility.yul\":22519:22529   */\n      add\n        /* \"#utility.yul\":22490:22603   */\n      jump(tag_799)\n    tag_801:\n        /* \"#utility.yul\":22621:22627   */\n      dup4\n        /* \"#utility.yul\":22618:22619   */\n      dup2\n        /* \"#utility.yul\":22615:22628   */\n      gt\n        /* \"#utility.yul\":22612:22660   */\n      iszero\n      tag_174\n      jumpi\n      pop\n      pop\n        /* \"#utility.yul\":22656:22657   */\n      0x00\n        /* \"#utility.yul\":22638:22654   */\n      swap2\n      add\n        /* \"#utility.yul\":22631:22658   */\n      mstore\n        /* \"#utility.yul\":22408:22666   */\n      jump\t// out\n        /* \"#utility.yul\":22671:23054   */\n    tag_459:\n        /* \"#utility.yul\":22820:22822   */\n      0x20\n        /* \"#utility.yul\":22809:22818   */\n      dup2\n        /* \"#utility.yul\":22802:22823   */\n      mstore\n        /* \"#utility.yul\":22783:22787   */\n      0x00\n        /* \"#utility.yul\":22852:22858   */\n      dup3\n        /* \"#utility.yul\":22846:22859   */\n      mload\n        /* \"#utility.yul\":22895:22901   */\n      dup1\n        /* \"#utility.yul\":22890:22892   */\n      0x20\n        /* \"#utility.yul\":22879:22888   */\n      dup5\n        /* \"#utility.yul\":22875:22893   */\n      add\n        /* \"#utility.yul\":22868:22902   */\n      mstore\n        /* \"#utility.yul\":22911:22977   */\n      tag_804\n        /* \"#utility.yul\":22970:22976   */\n      dup2\n        /* \"#utility.yul\":22965:22967   */\n      0x40\n        /* \"#utility.yul\":22954:22963   */\n      dup6\n        /* \"#utility.yul\":22950:22968   */\n      add\n        /* \"#utility.yul\":22945:22947   */\n      0x20\n        /* \"#utility.yul\":22937:22943   */\n      dup8\n        /* \"#utility.yul\":22933:22948   */\n      add\n        /* \"#utility.yul\":22911:22977   */\n      tag_662\n      jump\t// in\n    tag_804:\n        /* \"#utility.yul\":23038:23040   */\n      0x1f\n        /* \"#utility.yul\":23017:23032   */\n      add\n      not(0x1f)\n        /* \"#utility.yul\":23013:23042   */\n      and\n        /* \"#utility.yul\":22998:23043   */\n      swap2\n      swap1\n      swap2\n      add\n        /* \"#utility.yul\":23045:23047   */\n      0x40\n        /* \"#utility.yul\":22994:23048   */\n      add\n      swap3\n        /* \"#utility.yul\":22671:23054   */\n      swap2\n      pop\n      pop\n      jump\t// out\n        /* \"#utility.yul\":25028:25156   */\n    tag_535:\n        /* \"#utility.yul\":25068:25071   */\n      0x00\n        /* \"#utility.yul\":25099:25100   */\n      dup3\n        /* \"#utility.yul\":25095:25101   */\n      not\n        /* \"#utility.yul\":25092:25093   */\n      dup3\n        /* \"#utility.yul\":25089:25102   */\n      gt\n        /* \"#utility.yul\":25086:25125   */\n      iszero\n      tag_812\n      jumpi\n        /* \"#utility.yul\":25105:25123   */\n      tag_812\n      tag_661\n      jump\t// in\n    tag_812:\n      pop\n        /* \"#utility.yul\":25141:25150   */\n      add\n      swap1\n        /* \"#utility.yul\":25028:25156   */\n      jump\t// out\n        /* \"#utility.yul\":25161:25288   */\n    tag_539:\n        /* \"#utility.yul\":25222:25232   */\n      0x4e487b71\n        /* \"#utility.yul\":25217:25220   */\n      0xe0\n        /* \"#utility.yul\":25213:25233   */\n      shl\n        /* \"#utility.yul\":25210:25211   */\n      0x00\n        /* \"#utility.yul\":25203:25234   */\n      mstore\n        /* \"#utility.yul\":25253:25257   */\n      0x31\n        /* \"#utility.yul\":25250:25251   */\n      0x04\n        /* \"#utility.yul\":25243:25258   */\n      mstore\n        /* \"#utility.yul\":25277:25281   */\n      0x24\n        /* \"#utility.yul\":25274:25275   */\n      0x00\n        /* \"#utility.yul\":25267:25282   */\n      revert\n        /* \"#utility.yul\":25293:25515   */\n    tag_542:\n        /* \"#utility.yul\":25446:25448   */\n      0x20\n        /* \"#utility.yul\":25431:25449   */\n      dup2\n      add\n        /* \"#utility.yul\":25458:25509   */\n      tag_212\n        /* \"#utility.yul\":25435:25444   */\n      dup3\n        /* \"#utility.yul\":25491:25497   */\n      dup5\n        /* \"#utility.yul\":25458:25509   */\n      tag_659\n      jump\t// in\n        /* \"#utility.yul\":26222:26439   */\n    tag_571:\n        /* \"#utility.yul\":26262:26263   */\n      0x00\n        /* \"#utility.yul\":26288:26289   */\n      dup3\n        /* \"#utility.yul\":26278:26410   */\n      tag_819\n      jumpi\n        /* \"#utility.yul\":26332:26342   */\n      0x4e487b71\n        /* \"#utility.yul\":26327:26330   */\n      0xe0\n        /* \"#utility.yul\":26323:26343   */\n      shl\n        /* \"#utility.yul\":26320:26321   */\n      0x00\n        /* \"#utility.yul\":26313:26344   */\n      mstore\n        /* \"#utility.yul\":26367:26371   */\n      0x12\n        /* \"#utility.yul\":26364:26365   */\n      0x04\n        /* \"#utility.yul\":26357:26372   */\n      mstore\n        /* \"#utility.yul\":26395:26399   */\n      0x24\n        /* \"#utility.yul\":26392:26393   */\n      0x00\n        /* \"#utility.yul\":26385:26400   */\n      revert\n        /* \"#utility.yul\":26278:26410   */\n    tag_819:\n      pop\n        /* \"#utility.yul\":26424:26433   */\n      div\n      swap1\n        /* \"#utility.yul\":26222:26439   */\n      jump\t// out\n        /* \"#utility.yul\":29315:29589   */\n    tag_628:\n        /* \"#utility.yul\":29444:29447   */\n      0x00\n        /* \"#utility.yul\":29482:29488   */\n      dup3\n        /* \"#utility.yul\":29476:29489   */\n      mload\n        /* \"#utility.yul\":29498:29551   */\n      tag_828\n        /* \"#utility.yul\":29544:29550   */\n      dup2\n        /* \"#utility.yul\":29539:29542   */\n      dup5\n        /* \"#utility.yul\":29532:29536   */\n      0x20\n        /* \"#utility.yul\":29524:29530   */\n      dup8\n        /* \"#utility.yul\":29520:29537   */\n      add\n        /* \"#utility.yul\":29498:29551   */\n      tag_662\n      jump\t// in\n    tag_828:\n        /* \"#utility.yul\":29567:29583   */\n      swap2\n      swap1\n      swap2\n      add\n      swap3\n        /* \"#utility.yul\":29315:29589   */\n      swap2\n      pop\n      pop\n      jump\t// out\n    stop\n    data_033badd9fa0384b4027e1c52b4430f63c675f4b32ddecfc78fb9ae8ef2f09261 4c697374696e672050726963652073686f756c642062652073656e7420746f20706c616365204e4654206f6e20746865204d61726b6574706c616365\n    data_cd5fbf7c960197202c89a7323f376133bf98ea0f253905bbc1002edcae373b58 43616e63656c2050726963652073686f756c642062652073656e7420746f2063616e63656c204e465420706c6163656d656e74206f6e20746865204d61726b6574706c616365\n\n    auxdata: 0xa2646970667358221220cf8450f44742d412c8fdbe47b656bf84135eb40478fc2cf6d6bd3c08100c478464736f6c634300080f0033\n}\n",
				"bytecode": {
					"linkReferences": {},
					"object": "60806040523480156200001157600080fd5b506200001d336200013b565b600160028190556040805180820182526000808252602091820181905283546001600160a81b0319169093558151928352820190819052905162000064916005916200018b565b50604080516080810182526001815260006020808301828152938301828152600360608501908152928052600790915291517f6d5257204ebe7d88fd91ae87941cb2dd9d8062b64ae5a2bd2d28ec40b9fbf6df805460ff191691151591909117905591517f6d5257204ebe7d88fd91ae87941cb2dd9d8062b64ae5a2bd2d28ec40b9fbf6e055517f6d5257204ebe7d88fd91ae87941cb2dd9d8062b64ae5a2bd2d28ec40b9fbf6e155517f6d5257204ebe7d88fd91ae87941cb2dd9d8062b64ae5a2bd2d28ec40b9fbf6e2556064600955620001f2565b600080546001600160a01b038381166001600160a01b0319831681178455604051919092169283917f8be0079c531659141344cd1fd0a4f28419497f9722a3daafe3b4186f6b6457e09190a35050565b828054828255906000526020600020908101928215620001c9579160200282015b82811115620001c9578251825591602001919060010190620001ac565b50620001d7929150620001db565b5090565b5b80821115620001d75760008155600101620001dc565b6136bc80620002026000396000f3fe6080604052600436106101405760003560e01c80636e2d5a13116100b6578063b26867741161006f578063b268677414610369578063b2dcecbe14610389578063c5e553eb146103a9578063c7be7a49146103c9578063f2fde38b146103e9578063f33c80ee1461040957600080fd5b80636e2d5a13146102c3578063715018a6146102e35780638da5cb5b146102f8578063a6e22b0214610320578063a9c0714514610333578063abb8334b1461035357600080fd5b80634229eef2116101085780634229eef2146101e057806343c06213146101f5578063565a2e2c146102155780635d3e8b0814610237578063679aefce1461026457806368220e87146102ae57600080fd5b806317de01351461014557806318d3a1be1461015a57806318eb81ed1461016d57806327cdb4b31461018d578063347149fc146101ad575b600080fd5b610158610153366004612dc2565b61041c565b005b610158610168366004612e38565b610564565b34801561017957600080fd5b50610158610188366004612f5d565b610815565b34801561019957600080fd5b506101586101a8366004612f98565b610881565b3480156101b957600080fd5b506101cd6101c8366004612fb5565b6108ce565b6040519081526020015b60405180910390f35b3480156101ec57600080fd5b506101cd6108f9565b34801561020157600080fd5b50610158610210366004612fe1565b610909565b34801561022157600080fd5b5061022a610a69565b6040516101d79190613034565b34801561024357600080fd5b50610257610252366004613067565b610acf565b6040516101d791906130d8565b34801561027057600080fd5b50610279610d30565b6040516101d7919081511515815260208083015190820152604080830151908201526060918201519181019190915260800190565b3480156102ba57600080fd5b506005546101cd565b3480156102cf57600080fd5b506101586102de366004613067565b610d66565b3480156102ef57600080fd5b50610158610d73565b34801561030457600080fd5b506000546040516001600160a01b0390911681526020016101d7565b61015861032e366004613067565b610d87565b34801561033f57600080fd5b5061015861034e366004613067565b610edf565b34801561035f57600080fd5b506101cd60095481565b34801561037557600080fd5b506101586103843660046131ae565b610f95565b34801561039557600080fd5b506102796103a4366004612f98565b611221565b3480156103b557600080fd5b506101586103c43660046131d3565b61125f565b3480156103d557600080fd5b506102576103e4366004613067565b611274565b3480156103f557600080fd5b50610158610404366004612f98565b6113d8565b610158610417366004613214565b61144e565b600082116104455760405162461bcd60e51b815260040161043c90613236565b60405180910390fd5b600061045186866108ce565b905080156104715760405162461bcd60e51b815260040161043c9061327d565b33600061047f8289896118de565b9050801961049f5760405162461bcd60e51b815260040161043c906132c7565b80600119036104c05760405162461bcd60e51b815260040161043c9061331c565b80156104de5760405162461bcd60e51b815260040161043c90613365565b60006104e983611a8d565b602001519050610511816040518060600160405280603c8152602001613605603c9139611be7565b60006040518060a001604052808b6001600160a01b031681526020018a8152602001896001600160a01b031681526020018881526020018781525090506105588482611c62565b50505050505050505050565b60008151116105c95760405162461bcd60e51b815260206004820152602b60248201527f4174206c65617374206f6e65206974656d20696e7075742073686f756c64206260448201526a19481cdc1958da599a595960aa1b606482015260840161043c565b600954815111156106425760405162461bcd60e51b815260206004820152603860248201527f416d6f756e74206f6620737065636966696564206974656d732065786365656460448201527f73204d6178696d756d20416c6c6f77656420416d6f756e740000000000000000606482015260840161043c565b33600061064e82611a8d565b60200151905061068283518261066491906133c9565b6040518060600160405280603c8152602001613605603c9139611be7565b60005b835181101561080f5760008482815181106106a2576106a26133e8565b602002602001015160600151116106cb5760405162461bcd60e51b815260040161043c90613236565b60006107118583815181106106e2576106e26133e8565b602002602001015160000151868481518110610700576107006133e8565b6020026020010151602001516108ce565b905080156107315760405162461bcd60e51b815260040161043c9061327d565b600061077885878581518110610749576107496133e8565b602002602001015160000151888681518110610767576107676133e8565b6020026020010151602001516118de565b905080196107985760405162461bcd60e51b815260040161043c906132c7565b80600119036107b95760405162461bcd60e51b815260040161043c9061331c565b80156107d75760405162461bcd60e51b815260040161043c90613365565b6107fa858785815181106107ed576107ed6133e8565b6020026020010151611c62565b50508080610807906133fe565b915050610685565b50505050565b61081d611f63565b6040805160808101825260018082526020808301968752828401958652606083019485526001600160a01b039790971660009081526007909752919095209451855460ff191690151517855592519284019290925551600283015551600390910155565b610889611f63565b6001600160a01b038116156108cb576001600160a01b0381166000908152600760205260408120805460ff191681556001810182905560028101829055600301555b50565b6001600160a01b03821660009081526006602090815260408083208484529091529020545b92915050565b600061090460035490565b905090565b610911611f63565b60008260028111156109255761092561301e565b036109ac576001600160a01b038116156109a75760405162461bcd60e51b815260206004820152603960248201527f42656e65666963696172206d6f6465204e6f6e65207265717569726573207a6560448201527f726f206164647265737320666f7220726563697069656e742100000000000000606482015260840161043c565b610a1d565b6001600160a01b038116610a1d5760405162461bcd60e51b815260206004820152603260248201527f42656e656669636961727920726563697069656e7420616464726573732073686044820152716f756c64206265207370656369666965642160701b606482015260840161043c565b6001805483919060ff191681836002811115610a3b57610a3b61301e565b0217905550600180546001600160a01b0390921661010002610100600160a81b031990921691909117905550565b60408051808201909152600080825260208201526040805180820190915260018054829060ff166002811115610aa157610aa161301e565b6002811115610ab257610ab261301e565b8152905461010090046001600160a01b0316602090910152919050565b610ad7612bca565b600554610b385760405162461bcd60e51b815260206004820152602960248201527f546865726520617265206e6f20616e7920416374697665204d61726b6574204960448201526874656d73207965742160b81b606482015260840161043c565b60018210158015610b4b57506005548211155b610bd25760405162461bcd60e51b815260206004820152604c60248201527f506f736974696f6e2073686f756c6420626520706f736974697665206e756d6260448201527f657220696e20416374697665204d61726b6574204974656d7320436f756e742060648201526b72616e67652028312e2e4e2960a01b608482015260a40161043c565b600460006005610be3600186613417565b81548110610bf357610bf36133e8565b6000918252602080832090910154835282810193909352604091820190208151610180810183528154815260018201546001600160a01b039081169482019490945260028201549281019290925260038082015484166060840152600482015484166080840152600582015490931660a0830152600681015460c083015260078101549192909160e084019160ff90911690811115610c9457610c9461301e565b6003811115610ca557610ca561301e565b81526020016008820154815260200160098201548152602001600a8201548152602001600b8201805480602002602001604051908101604052809291908181526020018280548015610d2057602002820191906000526020600020905b81546001600160a01b03168152600190910190602001808311610d02575b5050505050815250509050919050565b610d5d60405180608001604052806000151581526020016000815260200160008152602001600081525090565b61090433611a8d565b610d6e611f63565b600955565b610d7b611f63565b610d856000611fbd565b565b80600081118015610d9a57506003548111155b610db65760405162461bcd60e51b815260040161043c9061342e565b816000808281526004602052604090206007015460ff166003811115610dde57610dde61301e565b14610dfb5760405162461bcd60e51b815260040161043c90613465565b6002805403610e1c5760405162461bcd60e51b815260040161043c9061349c565b600280556000838152600460205260409020600301546001600160a01b0316338114610e955760405162461bcd60e51b815260206004820152602260248201527f4f6e6c792053656c6c65722063616e2063616e63656c204d61726b6574204974604482015261656d60f01b606482015260840161043c565b6000610ea082611a8d565b604001519050610ec88160405180608001604052806046815260200161364160469139611be7565b610ed385600261200d565b50506001600255505050565b610ee7611f63565b80600081118015610efa57506003548111155b610f165760405162461bcd60e51b815260040161043c9061342e565b816000808281526004602052604090206007015460ff166003811115610f3e57610f3e61301e565b14610f5b5760405162461bcd60e51b815260040161043c90613465565b6002805403610f7c5760405162461bcd60e51b815260040161043c9061349c565b60028055610f8b83600361200d565b5050600160025550565b610f9d611f63565b610fa56123c1565b610ff15760405162461bcd60e51b815260206004820181905260248201527f42656e65666963696172792073686f756c642062652073706563696669656421604482015260640161043c565b600082116110415760405162461bcd60e51b815260206004820152601f60248201527f53656e6420416d6f756e742073686f756c6420626520706f7369746976652100604482015260640161043c565b306001600160a01b038216611116576001600160a01b03811631838110156110d15760405162461bcd60e51b815260206004820152603a60248201527f53656e6420416d6f756e74206578636565647320536d61727420436f6e74726160448201527f63742773206e617469766520746f6b656e2062616c616e636521000000000000606482015260840161043c565b6001546040516101009091046001600160a01b0316906108fc8615029086906000818181858888f1935050505015801561110f573d6000803e3d6000fd5b5050505050565b6040516370a0823160e01b81526001600160a01b03828116600483015283916000918316906370a0823190602401602060405180830381865afa158015611161573d6000803e3d6000fd5b505050506040513d601f19601f8201168201806040525081019061118591906134d3565b9050848110156111fd5760405162461bcd60e51b815260206004820152603a60248201527f53656e6420416d6f756e74206578636565647320536d61727420436f6e74726160448201527f63742773204552432d323020746f6b656e2062616c616e636521000000000000606482015260840161043c565b60015461110f906001600160a01b0384811691610100900416876123fc565b505050565b61124e60405180608001604052806000151581526020016000815260200160008152602001600081525090565b611256611f63565b6108f38261245f565b8261080f6001600160a01b03821684846124df565b61127c612bca565b8160008111801561128f57506003548111155b6112ab5760405162461bcd60e51b815260040161043c9061342e565b6000838152600460208181526040928390208351610180810185528154815260018201546001600160a01b0390811693820193909352600282015494810194909452600380820154831660608601529281015482166080850152600581015490911660a0840152600681015460c08401526007810154909160e084019160ff169081111561133b5761133b61301e565b600381111561134c5761134c61301e565b81526020016008820154815260200160098201548152602001600a8201548152602001600b82018054806020026020016040519081016040528092919081815260200182805480156113c757602002820191906000526020600020905b81546001600160a01b031681526001909101906020018083116113a9575b505050505081525050915050919050565b6113e0611f63565b6001600160a01b0381166114455760405162461bcd60e51b815260206004820152602660248201527f4f776e61626c653a206e6577206f776e657220697320746865207a65726f206160448201526564647265737360d01b606482015260840161043c565b6108cb81611fbd565b8160008111801561146157506003548111155b61147d5760405162461bcd60e51b815260040161043c9061342e565b826000808281526004602052604090206007015460ff1660038111156114a5576114a561301e565b146114c25760405162461bcd60e51b815260040161043c90613465565b60028054036114e35760405162461bcd60e51b815260040161043c9061349c565b60028055600033600086815260046020819052604080832060038101546002820154600190920154925163e985e9c560e01b81526001600160a01b0391821694810185905230602482015295965092949093929091169190829063e985e9c590604401602060405180830381865afa158015611563573d6000803e3d6000fd5b505050506040513d601f19601f8201168201806040525081019061158791906134ec565b90508061167c5760405163020604bf60e21b8152600481018490526000906001600160a01b0384169063081812fc90602401602060405180830381865afa1580156115d6573d6000803e3d6000fd5b505050506040513d601f19601f820116820180604052508101906115fa919061350e565b90506001600160a01b038116301461167a5760405162461bcd60e51b815260206004820152603760248201527f4d61726b6574204974656d20284e4654292073686f756c64206265206170707260448201527f6f76656420746f20746865204d61726b6574706c616365000000000000000000606482015260840161043c565b505b6000898152600460205260409020600b01541561173c5760008981526008602090815260408083206001600160a01b038916845290915290205460ff16151560011461173c5760405162461bcd60e51b815260206004820152604360248201527f596f75722061646472657373206973206e6f742073706563696669656420696e60448201527f2057686974652d4c69737420666f722063757272656e74204d61726b6574204960648201526274656d60e81b608482015260a40161043c565b60006117488a876125f4565b60008b81526004602081905260409182902080820180546001600160a01b0319166001600160a01b038c811691821790925560088301869055600a9092018e90559251632142170760e11b8152898416928101929092526024820152604481018790529192508416906342842e0e90606401600060405180830381600087803b1580156117d457600080fd5b505af11580156117e8573d6000803e3d6000fd5b505050506117f78a600161200d565b600260015460ff1660028111156118105761181061301e565b14801561182c575060015461010090046001600160a01b031615155b15611897576001546040516391c05b0b60e01b8152600481018c90526101009091046001600160a01b03169081906391c05b0b90602401600060405180830381600087803b15801561187d57600080fd5b505af1158015611891573d6000803e3d6000fd5b50505050505b6040516001600160a01b038716908b907f2073b2706c235effb1e3840575370a51749afd8181b4018f93bff955d50792cb90600090a3505060016002555050505050505050565b6040516331a9108f60e11b815260048101829052600090839082906001600160a01b03831690636352211e90602401602060405180830381865afa15801561192a573d6000803e3d6000fd5b505050506040513d601f19601f8201168201806040525081019061194e919061350e565b9050856001600160a01b0316816001600160a01b0316146119755760001992505050611a86565b60405163e985e9c560e01b81526001600160a01b0387811660048301523060248301526000919084169063e985e9c590604401602060405180830381865afa1580156119c5573d6000803e3d6000fd5b505050506040513d601f19601f820116820180604052508101906119e991906134ec565b905080611a7e5760405163020604bf60e21b8152600481018690526000906001600160a01b0385169063081812fc90602401602060405180830381865afa158015611a38573d6000803e3d6000fd5b505050506040513d601f19601f82011682018060405250810190611a5c919061350e565b90506001600160a01b0381163014611a7c57600119945050505050611a86565b505b600093505050505b9392505050565b611aba60405180608001604052806000151581526020016000815260200160008152602001600081525090565b6001600160a01b03821660009081526007602052604090205460ff1615611b2e57506001600160a01b03166000908152600760209081526040918290208251608081018452815460ff1615158152600182015492810192909252600281015492820192909252600390910154606082015290565b50506000805260076020908152604080516080810182527f6d5257204ebe7d88fd91ae87941cb2dd9d8062b64ae5a2bd2d28ec40b9fbf6df5460ff16151581527f6d5257204ebe7d88fd91ae87941cb2dd9d8062b64ae5a2bd2d28ec40b9fbf6e054928101929092527f6d5257204ebe7d88fd91ae87941cb2dd9d8062b64ae5a2bd2d28ec40b9fbf6e154908201527f6d5257204ebe7d88fd91ae87941cb2dd9d8062b64ae5a2bd2d28ec40b9fbf6e254606082015290565b8115611c5e57813410158190611c105760405162461bcd60e51b815260040161043c9190613557565b50611c196123c1565b15611c5e576001546040516001600160a01b0361010090920491909116903480156108fc02916000818181858888f1935050505015801561121c573d6000803e3d6000fd5b5050565b611c70600380546001019055565b6000611c7b60035490565b6005805460018101825560008281527f036b6384b5eca791c62761152d0c79bb0604c104a5fb6f4eb0703f3154bb3db09091018390559054604080516101808101825284815286516001600160a01b039081166020838101919091528801518284015288811660608084019190915260808301869052928801511660a08201529086015160c0820152929350919060e082019081526000602080830182905260408084018690526060808501849052608089810151958101959095528784526004808452938290208651815592860151600180850180546001600160a01b03199081166001600160a01b0394851617909155938801516002860155918701516003808601805486169284169290921790915595870151948401805484169582169590951790945560a0860151600584018054909316941693909317905560c0840151600682015560e084015160078201805492949193909260ff1916918490811115611de957611de961301e565b021790555061010082015160088201556101208201516009820155610140820151600a8201556101608201518051611e2b91600b840191602090910190612c2b565b505083516001600160a01b0316600090815260066020908152604080832082880151845290915290208290555060808301515115611ee35760005b836080015151811015611ee157600083815260086020526040812060808601518051600193919085908110611e9d57611e9d6133e8565b6020908102919091018101516001600160a01b03168252810191909152604001600020805460ff191691151591909117905580611ed9816133fe565b915050611e66565b505b836001600160a01b031683600001516001600160a01b0316837fc48e6ef63d8ee5c32e1a12522041571cc6929dbabed66a5eba6b0e9c65ca8471866020015187604001518860600151604051611f55939291909283526001600160a01b03919091166020830152604082015260600190565b60405180910390a450505050565b6000546001600160a01b03163314610d855760405162461bcd60e51b815260206004820181905260248201527f4f776e61626c653a2063616c6c6572206973206e6f7420746865206f776e6572604482015260640161043c565b600080546001600160a01b038381166001600160a01b0319831681178455604051919092169283917f8be0079c531659141344cd1fd0a4f28419497f9722a3daafe3b4186f6b6457e09190a35050565b8160008111801561202057506003548111155b61203c5760405162461bcd60e51b815260040161043c9061342e565b826000808281526004602052604090206007015460ff1660038111156120645761206461301e565b146120815760405162461bcd60e51b815260040161043c90613465565b60008481526004602052604081206009015461209f90600190613417565b9050600554811061210c5760405162461bcd60e51b815260206004820152603160248201527f4d61726b6574204974656d20686173206e6f20706f736974696f6e20696e20416044820152706374697665204974656d7320617272617960781b606482015260840161043c565b8460058281548110612120576121206133e8565b90600052602060002001541461219e5760405162461bcd60e51b815260206004820152603960248201527f4d61726b6574204974656d206973206e6f74206f6e2074686520706f7369746960448201527f6f6e20696e20416374697665204974656d732061727261792100000000000000606482015260840161043c565b60008460038111156121b2576121b261301e565b036122155760405162461bcd60e51b815260206004820152602d60248201527f5370656369667920636f72726563742073746174757320746f2072656d6f766560448201526c204d61726b6574204974656d2160981b606482015260840161043c565b6000858152600460205260409020600701805485919060ff191660018360038111156122435761224361301e565b021790555060008581526004602052604081206009015560055461226990600190613417565b81101561232157600580546000919061228490600190613417565b81548110612294576122946133e8565b9060005260206000200154905080600583815481106122b5576122b56133e8565b6000918252602090912001556122cc82600161358a565b6000828152600460205260409020600901556122e982600161358a565b600091825260046020908152604080842060018101546001600160a01b03168552600683528185206002909101548552909152909120555b6005805480612332576123326135a2565b60008281526020808220830160001990810183905590920190925586825260048152604080832060018101546001600160a01b03168452600683528184206002909101548452909152808220919091555185907f471936d15caaa62c7c9222e363a0323e64ed408a1c87a4ef46c7596655eb1b3d906123b29087906135b8565b60405180910390a25050505050565b60008060015460ff1660028111156123db576123db61301e565b14158015610904575060015461010090046001600160a01b03161515905090565b6040516001600160a01b03831660248201526044810182905261121c90849063a9059cbb60e01b906064015b60408051601f198184030181529190526020810180516001600160e01b03166001600160e01b03199093169290921790915261293f565b61248c60405180608001604052806000151581526020016000815260200160008152602001600081525090565b506001600160a01b03166000908152600760209081526040918290208251608081018452815460ff1615158152600182015492810192909252600281015492820192909252600390910154606082015290565b8015806125595750604051636eb1769f60e11b81523060048201526001600160a01b03838116602483015284169063dd62ed3e90604401602060405180830381865afa158015612533573d6000803e3d6000fd5b505050506040513d601f19601f8201168201806040525081019061255791906134d3565b155b6125c45760405162461bcd60e51b815260206004820152603660248201527f5361666545524332303a20617070726f76652066726f6d206e6f6e2d7a65726f60448201527520746f206e6f6e2d7a65726f20616c6c6f77616e636560501b606482015260840161043c565b6040516001600160a01b03831660248201526044810182905261121c90849063095ea7b360e01b90606401612428565b6000828152600460205260408120600381015460068201546005909201546001600160a01b039182169291168361262a84611a8d565b6060015190506000606461263e85846133c9565b61264891906135c6565b905060006126568286613417565b9050600081116126b25760405162461bcd60e51b815260206004820152602160248201527f496e76616c69642053656c6c657220416d6f756e742063616c63756c617465646044820152602160f81b606482015260840161043c565b6001600160a01b0384166127cd5784341015612738576040805162461bcd60e51b81526020600482015260248101919091527f506c65617365207375626d69742074686520507269636520616d6f756e74206960448201527f6e206f7264657220746f20636f6d706c65746520746865207075726368617365606482015260840161043c565b6040516001600160a01b0387169082156108fc029083906000818181858888f1935050505015801561276e573d6000803e3d6000fd5b506127776123c1565b80156127835750600082115b156127c8576001546040516101009091046001600160a01b0316906108fc8415029084906000818181858888f193505050501580156127c6573d6000803e3d6000fd5b505b612933565b604051636eb1769f60e11b81526001600160a01b03898116600483015230602483018190529186916000919083169063dd62ed3e90604401602060405180830381865afa158015612822573d6000803e3d6000fd5b505050506040513d601f19601f8201168201806040525081019061284691906134d3565b9050878110156128ce5760405162461bcd60e51b815260206004820152604760248201527f506c6561736520616c6c6f7720507269636520616d6f756e74206f662045524360448201527f2d323020546f6b656e20696e206f7264657220746f20636f6d706c65746520706064820152667572636861736560c81b608482015260a40161043c565b6128e36001600160a01b0383168c858b612a11565b6128f76001600160a01b0383168a866123fc565b6128ff6123c1565b801561290b5750600085115b1561292f5760015461292f906001600160a01b0384811691610100900416876123fc565b5050505b50979650505050505050565b6000612994826040518060400160405280602081526020017f5361666545524332303a206c6f772d6c6576656c2063616c6c206661696c6564815250856001600160a01b0316612a499092919063ffffffff16565b80519091501561121c57808060200190518101906129b291906134ec565b61121c5760405162461bcd60e51b815260206004820152602a60248201527f5361666545524332303a204552433230206f7065726174696f6e20646964206e6044820152691bdd081cdd58d8d9595960b21b606482015260840161043c565b6040516001600160a01b038085166024830152831660448201526064810182905261080f9085906323b872dd60e01b90608401612428565b6060612a588484600085612a60565b949350505050565b606082471015612ac15760405162461bcd60e51b815260206004820152602660248201527f416464726573733a20696e73756666696369656e742062616c616e636520666f6044820152651c8818d85b1b60d21b606482015260840161043c565b6001600160a01b0385163b612b185760405162461bcd60e51b815260206004820152601d60248201527f416464726573733a2063616c6c20746f206e6f6e2d636f6e7472616374000000604482015260640161043c565b600080866001600160a01b03168587604051612b3491906135e8565b60006040518083038185875af1925050503d8060008114612b71576040519150601f19603f3d011682016040523d82523d6000602084013e612b76565b606091505b5091509150612b86828286612b91565b979650505050505050565b60608315612ba0575081611a86565b825115612bb05782518084602001fd5b8160405162461bcd60e51b815260040161043c9190613557565b6040805161018081018252600080825260208201819052918101829052606081018290526080810182905260a0810182905260c081018290529060e08201908152602001600081526020016000815260200160008152602001606081525090565b828054828255906000526020600020908101928215612c80579160200282015b82811115612c8057825182546001600160a01b0319166001600160a01b03909116178255602090920191600190910190612c4b565b50612c8c929150612c90565b5090565b5b80821115612c8c5760008155600101612c91565b6001600160a01b03811681146108cb57600080fd5b634e487b7160e01b600052604160045260246000fd5b60405160a0810167ffffffffffffffff81118282101715612cf357612cf3612cba565b60405290565b604051601f8201601f1916810167ffffffffffffffff81118282101715612d2257612d22612cba565b604052919050565b600067ffffffffffffffff821115612d4457612d44612cba565b5060051b60200190565b600082601f830112612d5f57600080fd5b81356020612d74612d6f83612d2a565b612cf9565b82815260059290921b84018101918181019086841115612d9357600080fd5b8286015b84811015612db7578035612daa81612ca5565b8352918301918301612d97565b509695505050505050565b600080600080600060a08688031215612dda57600080fd5b8535612de581612ca5565b9450602086013593506040860135612dfc81612ca5565b925060608601359150608086013567ffffffffffffffff811115612e1f57600080fd5b612e2b88828901612d4e565b9150509295509295909350565b60006020808385031215612e4b57600080fd5b823567ffffffffffffffff80821115612e6357600080fd5b818501915085601f830112612e7757600080fd5b8135612e85612d6f82612d2a565b81815260059190911b83018401908481019088831115612ea457600080fd5b8585015b83811015612f5057803585811115612ec05760008081fd5b860160a0818c03601f1901811315612ed85760008081fd5b612ee0612cd0565b89830135612eed81612ca5565b81526040838101358b830152606080850135612f0881612ca5565b8083850152506080915081850135818401525082840135925088831115612f2f5760008081fd5b612f3d8e8c85870101612d4e565b9082015285525050918601918601612ea8565b5098975050505050505050565b60008060008060808587031215612f7357600080fd5b8435612f7e81612ca5565b966020860135965060408601359560600135945092505050565b600060208284031215612faa57600080fd5b8135611a8681612ca5565b60008060408385031215612fc857600080fd5b8235612fd381612ca5565b946020939093013593505050565b60008060408385031215612ff457600080fd5b82356003811061300357600080fd5b9150602083013561301381612ca5565b809150509250929050565b634e487b7160e01b600052602160045260246000fd5b815160408201906003811061304b5761304b61301e565b82526020928301516001600160a01b0316929091019190915290565b60006020828403121561307957600080fd5b5035919050565b600481106130905761309061301e565b9052565b600081518084526020808501945080840160005b838110156130cd5781516001600160a01b0316875295820195908201906001016130a8565b509495945050505050565b6020815281516020820152600060208301516130ff60408401826001600160a01b03169052565b5060408301516060830152606083015161312460808401826001600160a01b03169052565b5060808301516001600160a01b03811660a08401525060a08301516001600160a01b03811660c08401525060c083015160e083015260e083015161010061316d81850183613080565b840151610120848101919091528401516101408085019190915284015161016080850191909152840151610180808501529050612a586101a0840182613094565b600080604083850312156131c157600080fd5b82359150602083013561301381612ca5565b6000806000606084860312156131e857600080fd5b83356131f381612ca5565b9250602084013561320381612ca5565b929592945050506040919091013590565b6000806040838503121561322757600080fd5b50508035926020909101359150565b60208082526027908201527f5072696365206d75737420626520706f73697469766520286174206c656173746040820152662031207765692960c81b606082015260800190565b6020808252602a908201527f5468617420746f6b656e20697320616c726561647920706c61636564206f6e206040820152691d1a19481b585c9ad95d60b21b606082015260800190565b60208082526035908201527f4f6e6c79206f776e6572206f6620746865204e46542063616e20706c61636520604082015274697420746f20746865204d61726b6574706c61636560581b606082015260800190565b60208082526029908201527f4e46542073686f756c6420626520617070726f76656420746f20746865204d61604082015268726b6574706c61636560b81b606082015260800190565b6020808252602e908201527f4e4654206973206e6f742076616c696420746f20626520736f6c64206f6e207460408201526d6865204d61726b6574706c61636560901b606082015260800190565b634e487b7160e01b600052601160045260246000fd5b60008160001904831182151516156133e3576133e36133b3565b500290565b634e487b7160e01b600052603260045260246000fd5b600060018201613410576134106133b3565b5060010190565b600082821015613429576134296133b3565b500390565b60208082526017908201527f496e76616c6964204d61726b6574204974656d20494421000000000000000000604082015260600190565b60208082526019908201527f4d61726b6574204974656d206973206e6f742041637469766500000000000000604082015260600190565b6020808252601f908201527f5265656e7472616e637947756172643a207265656e7472616e742063616c6c00604082015260600190565b6000602082840312156134e557600080fd5b5051919050565b6000602082840312156134fe57600080fd5b81518015158114611a8657600080fd5b60006020828403121561352057600080fd5b8151611a8681612ca5565b60005b8381101561354657818101518382015260200161352e565b8381111561080f5750506000910152565b602081526000825180602084015261357681604085016020870161352b565b601f01601f19169190910160400192915050565b6000821982111561359d5761359d6133b3565b500190565b634e487b7160e01b600052603160045260246000fd5b602081016108f38284613080565b6000826135e357634e487b7160e01b600052601260045260246000fd5b500490565b600082516135fa81846020870161352b565b919091019291505056fe4c697374696e672050726963652073686f756c642062652073656e7420746f20706c616365204e4654206f6e20746865204d61726b6574706c61636543616e63656c2050726963652073686f756c642062652073656e7420746f2063616e63656c204e465420706c6163656d656e74206f6e20746865204d61726b6574706c616365a2646970667358221220cf8450f44742d412c8fdbe47b656bf84135eb40478fc2cf6d6bd3c08100c478464736f6c634300080f0033",
					"opcodes": "PUSH1 0x80 PUSH1 0x40 MSTORE CALLVALUE DUP1 ISZERO PUSH3 0x11 JUMPI PUSH1 0x0 DUP1 REVERT JUMPDEST POP PUSH3 0x1D CALLER PUSH3 0x13B JUMP JUMPDEST PUSH1 0x1 PUSH1 0x2 DUP2 SWAP1 SSTORE PUSH1 0x40 DUP1 MLOAD DUP1 DUP3 ADD DUP3 MSTORE PUSH1 0x0 DUP1 DUP3 MSTORE PUSH1 0x20 SWAP2 DUP3 ADD DUP2 SWAP1 MSTORE DUP4 SLOAD PUSH1 0x1 PUSH1 0x1 PUSH1 0xA8 SHL SUB NOT AND SWAP1 SWAP4 SSTORE DUP2 MLOAD SWAP3 DUP4 MSTORE DUP3 ADD SWAP1 DUP2 SWAP1 MSTORE SWAP1 MLOAD PUSH3 0x64 SWAP2 PUSH1 0x5 SWAP2 PUSH3 0x18B JUMP JUMPDEST POP PUSH1 0x40 DUP1 MLOAD PUSH1 0x80 DUP2 ADD DUP3 MSTORE PUSH1 0x1 DUP2 MSTORE PUSH1 0x0 PUSH1 0x20 DUP1 DUP4 ADD DUP3 DUP2 MSTORE SWAP4 DUP4 ADD DUP3 DUP2 MSTORE PUSH1 0x3 PUSH1 0x60 DUP6 ADD SWAP1 DUP2 MSTORE SWAP3 DUP1 MSTORE PUSH1 0x7 SWAP1 SWAP2 MSTORE SWAP2 MLOAD PUSH32 0x6D5257204EBE7D88FD91AE87941CB2DD9D8062B64AE5A2BD2D28EC40B9FBF6DF DUP1 SLOAD PUSH1 0xFF NOT AND SWAP2 ISZERO ISZERO SWAP2 SWAP1 SWAP2 OR SWAP1 SSTORE SWAP2 MLOAD PUSH32 0x6D5257204EBE7D88FD91AE87941CB2DD9D8062B64AE5A2BD2D28EC40B9FBF6E0 SSTORE MLOAD PUSH32 0x6D5257204EBE7D88FD91AE87941CB2DD9D8062B64AE5A2BD2D28EC40B9FBF6E1 SSTORE MLOAD PUSH32 0x6D5257204EBE7D88FD91AE87941CB2DD9D8062B64AE5A2BD2D28EC40B9FBF6E2 SSTORE PUSH1 0x64 PUSH1 0x9 SSTORE PUSH3 0x1F2 JUMP JUMPDEST PUSH1 0x0 DUP1 SLOAD PUSH1 0x1 PUSH1 0x1 PUSH1 0xA0 SHL SUB DUP4 DUP2 AND PUSH1 0x1 PUSH1 0x1 PUSH1 0xA0 SHL SUB NOT DUP4 AND DUP2 OR DUP5 SSTORE PUSH1 0x40 MLOAD SWAP2 SWAP1 SWAP3 AND SWAP3 DUP4 SWAP2 PUSH32 0x8BE0079C531659141344CD1FD0A4F28419497F9722A3DAAFE3B4186F6B6457E0 SWAP2 SWAP1 LOG3 POP POP JUMP JUMPDEST DUP3 DUP1 SLOAD DUP3 DUP3 SSTORE SWAP1 PUSH1 0x0 MSTORE PUSH1 0x20 PUSH1 0x0 KECCAK256 SWAP1 DUP2 ADD SWAP3 DUP3 ISZERO PUSH3 0x1C9 JUMPI SWAP2 PUSH1 0x20 MUL DUP3 ADD JUMPDEST DUP3 DUP2 GT ISZERO PUSH3 0x1C9 JUMPI DUP3 MLOAD DUP3 SSTORE SWAP2 PUSH1 0x20 ADD SWAP2 SWAP1 PUSH1 0x1 ADD SWAP1 PUSH3 0x1AC JUMP JUMPDEST POP PUSH3 0x1D7 SWAP3 SWAP2 POP PUSH3 0x1DB JUMP JUMPDEST POP SWAP1 JUMP JUMPDEST JUMPDEST DUP1 DUP3 GT ISZERO PUSH3 0x1D7 JUMPI PUSH1 0x0 DUP2 SSTORE PUSH1 0x1 ADD PUSH3 0x1DC JUMP JUMPDEST PUSH2 0x36BC DUP1 PUSH3 0x202 PUSH1 0x0 CODECOPY PUSH1 0x0 RETURN INVALID PUSH1 0x80 PUSH1 0x40 MSTORE PUSH1 0x4 CALLDATASIZE LT PUSH2 0x140 JUMPI PUSH1 0x0 CALLDATALOAD PUSH1 0xE0 SHR DUP1 PUSH4 0x6E2D5A13 GT PUSH2 0xB6 JUMPI DUP1 PUSH4 0xB2686774 GT PUSH2 0x6F JUMPI DUP1 PUSH4 0xB2686774 EQ PUSH2 0x369 JUMPI DUP1 PUSH4 0xB2DCECBE EQ PUSH2 0x389 JUMPI DUP1 PUSH4 0xC5E553EB EQ PUSH2 0x3A9 JUMPI DUP1 PUSH4 0xC7BE7A49 EQ PUSH2 0x3C9 JUMPI DUP1 PUSH4 0xF2FDE38B EQ PUSH2 0x3E9 JUMPI DUP1 PUSH4 0xF33C80EE EQ PUSH2 0x409 JUMPI PUSH1 0x0 DUP1 REVERT JUMPDEST DUP1 PUSH4 0x6E2D5A13 EQ PUSH2 0x2C3 JUMPI DUP1 PUSH4 0x715018A6 EQ PUSH2 0x2E3 JUMPI DUP1 PUSH4 0x8DA5CB5B EQ PUSH2 0x2F8 JUMPI DUP1 PUSH4 0xA6E22B02 EQ PUSH2 0x320 JUMPI DUP1 PUSH4 0xA9C07145 EQ PUSH2 0x333 JUMPI DUP1 PUSH4 0xABB8334B EQ PUSH2 0x353 JUMPI PUSH1 0x0 DUP1 REVERT JUMPDEST DUP1 PUSH4 0x4229EEF2 GT PUSH2 0x108 JUMPI DUP1 PUSH4 0x4229EEF2 EQ PUSH2 0x1E0 JUMPI DUP1 PUSH4 0x43C06213 EQ PUSH2 0x1F5 JUMPI DUP1 PUSH4 0x565A2E2C EQ PUSH2 0x215 JUMPI DUP1 PUSH4 0x5D3E8B08 EQ PUSH2 0x237 JUMPI DUP1 PUSH4 0x679AEFCE EQ PUSH2 0x264 JUMPI DUP1 PUSH4 0x68220E87 EQ PUSH2 0x2AE JUMPI PUSH1 0x0 DUP1 REVERT JUMPDEST DUP1 PUSH4 0x17DE0135 EQ PUSH2 0x145 JUMPI DUP1 PUSH4 0x18D3A1BE EQ PUSH2 0x15A JUMPI DUP1 PUSH4 0x18EB81ED EQ PUSH2 0x16D JUMPI DUP1 PUSH4 0x27CDB4B3 EQ PUSH2 0x18D JUMPI DUP1 PUSH4 0x347149FC EQ PUSH2 0x1AD JUMPI JUMPDEST PUSH1 0x0 DUP1 REVERT JUMPDEST PUSH2 0x158 PUSH2 0x153 CALLDATASIZE PUSH1 0x4 PUSH2 0x2DC2 JUMP JUMPDEST PUSH2 0x41C JUMP JUMPDEST STOP JUMPDEST PUSH2 0x158 PUSH2 0x168 CALLDATASIZE PUSH1 0x4 PUSH2 0x2E38 JUMP JUMPDEST PUSH2 0x564 JUMP JUMPDEST CALLVALUE DUP1 ISZERO PUSH2 0x179 JUMPI PUSH1 0x0 DUP1 REVERT JUMPDEST POP PUSH2 0x158 PUSH2 0x188 CALLDATASIZE PUSH1 0x4 PUSH2 0x2F5D JUMP JUMPDEST PUSH2 0x815 JUMP JUMPDEST CALLVALUE DUP1 ISZERO PUSH2 0x199 JUMPI PUSH1 0x0 DUP1 REVERT JUMPDEST POP PUSH2 0x158 PUSH2 0x1A8 CALLDATASIZE PUSH1 0x4 PUSH2 0x2F98 JUMP JUMPDEST PUSH2 0x881 JUMP JUMPDEST CALLVALUE DUP1 ISZERO PUSH2 0x1B9 JUMPI PUSH1 0x0 DUP1 REVERT JUMPDEST POP PUSH2 0x1CD PUSH2 0x1C8 CALLDATASIZE PUSH1 0x4 PUSH2 0x2FB5 JUMP JUMPDEST PUSH2 0x8CE JUMP JUMPDEST PUSH1 0x40 MLOAD SWAP1 DUP2 MSTORE PUSH1 0x20 ADD JUMPDEST PUSH1 0x40 MLOAD DUP1 SWAP2 SUB SWAP1 RETURN JUMPDEST CALLVALUE DUP1 ISZERO PUSH2 0x1EC JUMPI PUSH1 0x0 DUP1 REVERT JUMPDEST POP PUSH2 0x1CD PUSH2 0x8F9 JUMP JUMPDEST CALLVALUE DUP1 ISZERO PUSH2 0x201 JUMPI PUSH1 0x0 DUP1 REVERT JUMPDEST POP PUSH2 0x158 PUSH2 0x210 CALLDATASIZE PUSH1 0x4 PUSH2 0x2FE1 JUMP JUMPDEST PUSH2 0x909 JUMP JUMPDEST CALLVALUE DUP1 ISZERO PUSH2 0x221 JUMPI PUSH1 0x0 DUP1 REVERT JUMPDEST POP PUSH2 0x22A PUSH2 0xA69 JUMP JUMPDEST PUSH1 0x40 MLOAD PUSH2 0x1D7 SWAP2 SWAP1 PUSH2 0x3034 JUMP JUMPDEST CALLVALUE DUP1 ISZERO PUSH2 0x243 JUMPI PUSH1 0x0 DUP1 REVERT JUMPDEST POP PUSH2 0x257 PUSH2 0x252 CALLDATASIZE PUSH1 0x4 PUSH2 0x3067 JUMP JUMPDEST PUSH2 0xACF JUMP JUMPDEST PUSH1 0x40 MLOAD PUSH2 0x1D7 SWAP2 SWAP1 PUSH2 0x30D8 JUMP JUMPDEST CALLVALUE DUP1 ISZERO PUSH2 0x270 JUMPI PUSH1 0x0 DUP1 REVERT JUMPDEST POP PUSH2 0x279 PUSH2 0xD30 JUMP JUMPDEST PUSH1 0x40 MLOAD PUSH2 0x1D7 SWAP2 SWAP1 DUP2 MLOAD ISZERO ISZERO DUP2 MSTORE PUSH1 0x20 DUP1 DUP4 ADD MLOAD SWAP1 DUP3 ADD MSTORE PUSH1 0x40 DUP1 DUP4 ADD MLOAD SWAP1 DUP3 ADD MSTORE PUSH1 0x60 SWAP2 DUP3 ADD MLOAD SWAP2 DUP2 ADD SWAP2 SWAP1 SWAP2 MSTORE PUSH1 0x80 ADD SWAP1 JUMP JUMPDEST CALLVALUE DUP1 ISZERO PUSH2 0x2BA JUMPI PUSH1 0x0 DUP1 REVERT JUMPDEST POP PUSH1 0x5 SLOAD PUSH2 0x1CD JUMP JUMPDEST CALLVALUE DUP1 ISZERO PUSH2 0x2CF JUMPI PUSH1 0x0 DUP1 REVERT JUMPDEST POP PUSH2 0x158 PUSH2 0x2DE CALLDATASIZE PUSH1 0x4 PUSH2 0x3067 JUMP JUMPDEST PUSH2 0xD66 JUMP JUMPDEST CALLVALUE DUP1 ISZERO PUSH2 0x2EF JUMPI PUSH1 0x0 DUP1 REVERT JUMPDEST POP PUSH2 0x158 PUSH2 0xD73 JUMP JUMPDEST CALLVALUE DUP1 ISZERO PUSH2 0x304 JUMPI PUSH1 0x0 DUP1 REVERT JUMPDEST POP PUSH1 0x0 SLOAD PUSH1 0x40 MLOAD PUSH1 0x1 PUSH1 0x1 PUSH1 0xA0 SHL SUB SWAP1 SWAP2 AND DUP2 MSTORE PUSH1 0x20 ADD PUSH2 0x1D7 JUMP JUMPDEST PUSH2 0x158 PUSH2 0x32E CALLDATASIZE PUSH1 0x4 PUSH2 0x3067 JUMP JUMPDEST PUSH2 0xD87 JUMP JUMPDEST CALLVALUE DUP1 ISZERO PUSH2 0x33F JUMPI PUSH1 0x0 DUP1 REVERT JUMPDEST POP PUSH2 0x158 PUSH2 0x34E CALLDATASIZE PUSH1 0x4 PUSH2 0x3067 JUMP JUMPDEST PUSH2 0xEDF JUMP JUMPDEST CALLVALUE DUP1 ISZERO PUSH2 0x35F JUMPI PUSH1 0x0 DUP1 REVERT JUMPDEST POP PUSH2 0x1CD PUSH1 0x9 SLOAD DUP2 JUMP JUMPDEST CALLVALUE DUP1 ISZERO PUSH2 0x375 JUMPI PUSH1 0x0 DUP1 REVERT JUMPDEST POP PUSH2 0x158 PUSH2 0x384 CALLDATASIZE PUSH1 0x4 PUSH2 0x31AE JUMP JUMPDEST PUSH2 0xF95 JUMP JUMPDEST CALLVALUE DUP1 ISZERO PUSH2 0x395 JUMPI PUSH1 0x0 DUP1 REVERT JUMPDEST POP PUSH2 0x279 PUSH2 0x3A4 CALLDATASIZE PUSH1 0x4 PUSH2 0x2F98 JUMP JUMPDEST PUSH2 0x1221 JUMP JUMPDEST CALLVALUE DUP1 ISZERO PUSH2 0x3B5 JUMPI PUSH1 0x0 DUP1 REVERT JUMPDEST POP PUSH2 0x158 PUSH2 0x3C4 CALLDATASIZE PUSH1 0x4 PUSH2 0x31D3 JUMP JUMPDEST PUSH2 0x125F JUMP JUMPDEST CALLVALUE DUP1 ISZERO PUSH2 0x3D5 JUMPI PUSH1 0x0 DUP1 REVERT JUMPDEST POP PUSH2 0x257 PUSH2 0x3E4 CALLDATASIZE PUSH1 0x4 PUSH2 0x3067 JUMP JUMPDEST PUSH2 0x1274 JUMP JUMPDEST CALLVALUE DUP1 ISZERO PUSH2 0x3F5 JUMPI PUSH1 0x0 DUP1 REVERT JUMPDEST POP PUSH2 0x158 PUSH2 0x404 CALLDATASIZE PUSH1 0x4 PUSH2 0x2F98 JUMP JUMPDEST PUSH2 0x13D8 JUMP JUMPDEST PUSH2 0x158 PUSH2 0x417 CALLDATASIZE PUSH1 0x4 PUSH2 0x3214 JUMP JUMPDEST PUSH2 0x144E JUMP JUMPDEST PUSH1 0x0 DUP3 GT PUSH2 0x445 JUMPI PUSH1 0x40 MLOAD PUSH3 0x461BCD PUSH1 0xE5 SHL DUP2 MSTORE PUSH1 0x4 ADD PUSH2 0x43C SWAP1 PUSH2 0x3236 JUMP JUMPDEST PUSH1 0x40 MLOAD DUP1 SWAP2 SUB SWAP1 REVERT JUMPDEST PUSH1 0x0 PUSH2 0x451 DUP7 DUP7 PUSH2 0x8CE JUMP JUMPDEST SWAP1 POP DUP1 ISZERO PUSH2 0x471 JUMPI PUSH1 0x40 MLOAD PUSH3 0x461BCD PUSH1 0xE5 SHL DUP2 MSTORE PUSH1 0x4 ADD PUSH2 0x43C SWAP1 PUSH2 0x327D JUMP JUMPDEST CALLER PUSH1 0x0 PUSH2 0x47F DUP3 DUP10 DUP10 PUSH2 0x18DE JUMP JUMPDEST SWAP1 POP DUP1 NOT PUSH2 0x49F JUMPI PUSH1 0x40 MLOAD PUSH3 0x461BCD PUSH1 0xE5 SHL DUP2 MSTORE PUSH1 0x4 ADD PUSH2 0x43C SWAP1 PUSH2 0x32C7 JUMP JUMPDEST DUP1 PUSH1 0x1 NOT SUB PUSH2 0x4C0 JUMPI PUSH1 0x40 MLOAD PUSH3 0x461BCD PUSH1 0xE5 SHL DUP2 MSTORE PUSH1 0x4 ADD PUSH2 0x43C SWAP1 PUSH2 0x331C JUMP JUMPDEST DUP1 ISZERO PUSH2 0x4DE JUMPI PUSH1 0x40 MLOAD PUSH3 0x461BCD PUSH1 0xE5 SHL DUP2 MSTORE PUSH1 0x4 ADD PUSH2 0x43C SWAP1 PUSH2 0x3365 JUMP JUMPDEST PUSH1 0x0 PUSH2 0x4E9 DUP4 PUSH2 0x1A8D JUMP JUMPDEST PUSH1 0x20 ADD MLOAD SWAP1 POP PUSH2 0x511 DUP2 PUSH1 0x40 MLOAD DUP1 PUSH1 0x60 ADD PUSH1 0x40 MSTORE DUP1 PUSH1 0x3C DUP2 MSTORE PUSH1 0x20 ADD PUSH2 0x3605 PUSH1 0x3C SWAP2 CODECOPY PUSH2 0x1BE7 JUMP JUMPDEST PUSH1 0x0 PUSH1 0x40 MLOAD DUP1 PUSH1 0xA0 ADD PUSH1 0x40 MSTORE DUP1 DUP12 PUSH1 0x1 PUSH1 0x1 PUSH1 0xA0 SHL SUB AND DUP2 MSTORE PUSH1 0x20 ADD DUP11 DUP2 MSTORE PUSH1 0x20 ADD DUP10 PUSH1 0x1 PUSH1 0x1 PUSH1 0xA0 SHL SUB AND DUP2 MSTORE PUSH1 0x20 ADD DUP9 DUP2 MSTORE PUSH1 0x20 ADD DUP8 DUP2 MSTORE POP SWAP1 POP PUSH2 0x558 DUP5 DUP3 PUSH2 0x1C62 JUMP JUMPDEST POP POP POP POP POP POP POP POP POP POP JUMP JUMPDEST PUSH1 0x0 DUP2 MLOAD GT PUSH2 0x5C9 JUMPI PUSH1 0x40 MLOAD PUSH3 0x461BCD PUSH1 0xE5 SHL DUP2 MSTORE PUSH1 0x20 PUSH1 0x4 DUP3 ADD MSTORE PUSH1 0x2B PUSH1 0x24 DUP3 ADD MSTORE PUSH32 0x4174206C65617374206F6E65206974656D20696E7075742073686F756C642062 PUSH1 0x44 DUP3 ADD MSTORE PUSH11 0x19481CDC1958DA599A5959 PUSH1 0xAA SHL PUSH1 0x64 DUP3 ADD MSTORE PUSH1 0x84 ADD PUSH2 0x43C JUMP JUMPDEST PUSH1 0x9 SLOAD DUP2 MLOAD GT ISZERO PUSH2 0x642 JUMPI PUSH1 0x40 MLOAD PUSH3 0x461BCD PUSH1 0xE5 SHL DUP2 MSTORE PUSH1 0x20 PUSH1 0x4 DUP3 ADD MSTORE PUSH1 0x38 PUSH1 0x24 DUP3 ADD MSTORE PUSH32 0x416D6F756E74206F6620737065636966696564206974656D7320657863656564 PUSH1 0x44 DUP3 ADD MSTORE PUSH32 0x73204D6178696D756D20416C6C6F77656420416D6F756E740000000000000000 PUSH1 0x64 DUP3 ADD MSTORE PUSH1 0x84 ADD PUSH2 0x43C JUMP JUMPDEST CALLER PUSH1 0x0 PUSH2 0x64E DUP3 PUSH2 0x1A8D JUMP JUMPDEST PUSH1 0x20 ADD MLOAD SWAP1 POP PUSH2 0x682 DUP4 MLOAD DUP3 PUSH2 0x664 SWAP2 SWAP1 PUSH2 0x33C9 JUMP JUMPDEST PUSH1 0x40 MLOAD DUP1 PUSH1 0x60 ADD PUSH1 0x40 MSTORE DUP1 PUSH1 0x3C DUP2 MSTORE PUSH1 0x20 ADD PUSH2 0x3605 PUSH1 0x3C SWAP2 CODECOPY PUSH2 0x1BE7 JUMP JUMPDEST PUSH1 0x0 JUMPDEST DUP4 MLOAD DUP2 LT ISZERO PUSH2 0x80F JUMPI PUSH1 0x0 DUP5 DUP3 DUP2 MLOAD DUP2 LT PUSH2 0x6A2 JUMPI PUSH2 0x6A2 PUSH2 0x33E8 JUMP JUMPDEST PUSH1 0x20 MUL PUSH1 0x20 ADD ADD MLOAD PUSH1 0x60 ADD MLOAD GT PUSH2 0x6CB JUMPI PUSH1 0x40 MLOAD PUSH3 0x461BCD PUSH1 0xE5 SHL DUP2 MSTORE PUSH1 0x4 ADD PUSH2 0x43C SWAP1 PUSH2 0x3236 JUMP JUMPDEST PUSH1 0x0 PUSH2 0x711 DUP6 DUP4 DUP2 MLOAD DUP2 LT PUSH2 0x6E2 JUMPI PUSH2 0x6E2 PUSH2 0x33E8 JUMP JUMPDEST PUSH1 0x20 MUL PUSH1 0x20 ADD ADD MLOAD PUSH1 0x0 ADD MLOAD DUP7 DUP5 DUP2 MLOAD DUP2 LT PUSH2 0x700 JUMPI PUSH2 0x700 PUSH2 0x33E8 JUMP JUMPDEST PUSH1 0x20 MUL PUSH1 0x20 ADD ADD MLOAD PUSH1 0x20 ADD MLOAD PUSH2 0x8CE JUMP JUMPDEST SWAP1 POP DUP1 ISZERO PUSH2 0x731 JUMPI PUSH1 0x40 MLOAD PUSH3 0x461BCD PUSH1 0xE5 SHL DUP2 MSTORE PUSH1 0x4 ADD PUSH2 0x43C SWAP1 PUSH2 0x327D JUMP JUMPDEST PUSH1 0x0 PUSH2 0x778 DUP6 DUP8 DUP6 DUP2 MLOAD DUP2 LT PUSH2 0x749 JUMPI PUSH2 0x749 PUSH2 0x33E8 JUMP JUMPDEST PUSH1 0x20 MUL PUSH1 0x20 ADD ADD MLOAD PUSH1 0x0 ADD MLOAD DUP9 DUP7 DUP2 MLOAD DUP2 LT PUSH2 0x767 JUMPI PUSH2 0x767 PUSH2 0x33E8 JUMP JUMPDEST PUSH1 0x20 MUL PUSH1 0x20 ADD ADD MLOAD PUSH1 0x20 ADD MLOAD PUSH2 0x18DE JUMP JUMPDEST SWAP1 POP DUP1 NOT PUSH2 0x798 JUMPI PUSH1 0x40 MLOAD PUSH3 0x461BCD PUSH1 0xE5 SHL DUP2 MSTORE PUSH1 0x4 ADD PUSH2 0x43C SWAP1 PUSH2 0x32C7 JUMP JUMPDEST DUP1 PUSH1 0x1 NOT SUB PUSH2 0x7B9 JUMPI PUSH1 0x40 MLOAD PUSH3 0x461BCD PUSH1 0xE5 SHL DUP2 MSTORE PUSH1 0x4 ADD PUSH2 0x43C SWAP1 PUSH2 0x331C JUMP JUMPDEST DUP1 ISZERO PUSH2 0x7D7 JUMPI PUSH1 0x40 MLOAD PUSH3 0x461BCD PUSH1 0xE5 SHL DUP2 MSTORE PUSH1 0x4 ADD PUSH2 0x43C SWAP1 PUSH2 0x3365 JUMP JUMPDEST PUSH2 0x7FA DUP6 DUP8 DUP6 DUP2 MLOAD DUP2 LT PUSH2 0x7ED JUMPI PUSH2 0x7ED PUSH2 0x33E8 JUMP JUMPDEST PUSH1 0x20 MUL PUSH1 0x20 ADD ADD MLOAD PUSH2 0x1C62 JUMP JUMPDEST POP POP DUP1 DUP1 PUSH2 0x807 SWAP1 PUSH2 0x33FE JUMP JUMPDEST SWAP2 POP POP PUSH2 0x685 JUMP JUMPDEST POP POP POP POP JUMP JUMPDEST PUSH2 0x81D PUSH2 0x1F63 JUMP JUMPDEST PUSH1 0x40 DUP1 MLOAD PUSH1 0x80 DUP2 ADD DUP3 MSTORE PUSH1 0x1 DUP1 DUP3 MSTORE PUSH1 0x20 DUP1 DUP4 ADD SWAP7 DUP8 MSTORE DUP3 DUP5 ADD SWAP6 DUP7 MSTORE PUSH1 0x60 DUP4 ADD SWAP5 DUP6 MSTORE PUSH1 0x1 PUSH1 0x1 PUSH1 0xA0 SHL SUB SWAP8 SWAP1 SWAP8 AND PUSH1 0x0 SWAP1 DUP2 MSTORE PUSH1 0x7 SWAP1 SWAP8 MSTORE SWAP2 SWAP1 SWAP6 KECCAK256 SWAP5 MLOAD DUP6 SLOAD PUSH1 0xFF NOT AND SWAP1 ISZERO ISZERO OR DUP6 SSTORE SWAP3 MLOAD SWAP3 DUP5 ADD SWAP3 SWAP1 SWAP3 SSTORE MLOAD PUSH1 0x2 DUP4 ADD SSTORE MLOAD PUSH1 0x3 SWAP1 SWAP2 ADD SSTORE JUMP JUMPDEST PUSH2 0x889 PUSH2 0x1F63 JUMP JUMPDEST PUSH1 0x1 PUSH1 0x1 PUSH1 0xA0 SHL SUB DUP2 AND ISZERO PUSH2 0x8CB JUMPI PUSH1 0x1 PUSH1 0x1 PUSH1 0xA0 SHL SUB DUP2 AND PUSH1 0x0 SWAP1 DUP2 MSTORE PUSH1 0x7 PUSH1 0x20 MSTORE PUSH1 0x40 DUP2 KECCAK256 DUP1 SLOAD PUSH1 0xFF NOT AND DUP2 SSTORE PUSH1 0x1 DUP2 ADD DUP3 SWAP1 SSTORE PUSH1 0x2 DUP2 ADD DUP3 SWAP1 SSTORE PUSH1 0x3 ADD SSTORE JUMPDEST POP JUMP JUMPDEST PUSH1 0x1 PUSH1 0x1 PUSH1 0xA0 SHL SUB DUP3 AND PUSH1 0x0 SWAP1 DUP2 MSTORE PUSH1 0x6 PUSH1 0x20 SWAP1 DUP2 MSTORE PUSH1 0x40 DUP1 DUP4 KECCAK256 DUP5 DUP5 MSTORE SWAP1 SWAP2 MSTORE SWAP1 KECCAK256 SLOAD JUMPDEST SWAP3 SWAP2 POP POP JUMP JUMPDEST PUSH1 0x0 PUSH2 0x904 PUSH1 0x3 SLOAD SWAP1 JUMP JUMPDEST SWAP1 POP SWAP1 JUMP JUMPDEST PUSH2 0x911 PUSH2 0x1F63 JUMP JUMPDEST PUSH1 0x0 DUP3 PUSH1 0x2 DUP2 GT ISZERO PUSH2 0x925 JUMPI PUSH2 0x925 PUSH2 0x301E JUMP JUMPDEST SUB PUSH2 0x9AC JUMPI PUSH1 0x1 PUSH1 0x1 PUSH1 0xA0 SHL SUB DUP2 AND ISZERO PUSH2 0x9A7 JUMPI PUSH1 0x40 MLOAD PUSH3 0x461BCD PUSH1 0xE5 SHL DUP2 MSTORE PUSH1 0x20 PUSH1 0x4 DUP3 ADD MSTORE PUSH1 0x39 PUSH1 0x24 DUP3 ADD MSTORE PUSH32 0x42656E65666963696172206D6F6465204E6F6E65207265717569726573207A65 PUSH1 0x44 DUP3 ADD MSTORE PUSH32 0x726F206164647265737320666F7220726563697069656E742100000000000000 PUSH1 0x64 DUP3 ADD MSTORE PUSH1 0x84 ADD PUSH2 0x43C JUMP JUMPDEST PUSH2 0xA1D JUMP JUMPDEST PUSH1 0x1 PUSH1 0x1 PUSH1 0xA0 SHL SUB DUP2 AND PUSH2 0xA1D JUMPI PUSH1 0x40 MLOAD PUSH3 0x461BCD PUSH1 0xE5 SHL DUP2 MSTORE PUSH1 0x20 PUSH1 0x4 DUP3 ADD MSTORE PUSH1 0x32 PUSH1 0x24 DUP3 ADD MSTORE PUSH32 0x42656E656669636961727920726563697069656E742061646472657373207368 PUSH1 0x44 DUP3 ADD MSTORE PUSH18 0x6F756C642062652073706563696669656421 PUSH1 0x70 SHL PUSH1 0x64 DUP3 ADD MSTORE PUSH1 0x84 ADD PUSH2 0x43C JUMP JUMPDEST PUSH1 0x1 DUP1 SLOAD DUP4 SWAP2 SWAP1 PUSH1 0xFF NOT AND DUP2 DUP4 PUSH1 0x2 DUP2 GT ISZERO PUSH2 0xA3B JUMPI PUSH2 0xA3B PUSH2 0x301E JUMP JUMPDEST MUL OR SWAP1 SSTORE POP PUSH1 0x1 DUP1 SLOAD PUSH1 0x1 PUSH1 0x1 PUSH1 0xA0 SHL SUB SWAP1 SWAP3 AND PUSH2 0x100 MUL PUSH2 0x100 PUSH1 0x1 PUSH1 0xA8 SHL SUB NOT SWAP1 SWAP3 AND SWAP2 SWAP1 SWAP2 OR SWAP1 SSTORE POP JUMP JUMPDEST PUSH1 0x40 DUP1 MLOAD DUP1 DUP3 ADD SWAP1 SWAP2 MSTORE PUSH1 0x0 DUP1 DUP3 MSTORE PUSH1 0x20 DUP3 ADD MSTORE PUSH1 0x40 DUP1 MLOAD DUP1 DUP3 ADD SWAP1 SWAP2 MSTORE PUSH1 0x1 DUP1 SLOAD DUP3 SWAP1 PUSH1 0xFF AND PUSH1 0x2 DUP2 GT ISZERO PUSH2 0xAA1 JUMPI PUSH2 0xAA1 PUSH2 0x301E JUMP JUMPDEST PUSH1 0x2 DUP2 GT ISZERO PUSH2 0xAB2 JUMPI PUSH2 0xAB2 PUSH2 0x301E JUMP JUMPDEST DUP2 MSTORE SWAP1 SLOAD PUSH2 0x100 SWAP1 DIV PUSH1 0x1 PUSH1 0x1 PUSH1 0xA0 SHL SUB AND PUSH1 0x20 SWAP1 SWAP2 ADD MSTORE SWAP2 SWAP1 POP JUMP JUMPDEST PUSH2 0xAD7 PUSH2 0x2BCA JUMP JUMPDEST PUSH1 0x5 SLOAD PUSH2 0xB38 JUMPI PUSH1 0x40 MLOAD PUSH3 0x461BCD PUSH1 0xE5 SHL DUP2 MSTORE PUSH1 0x20 PUSH1 0x4 DUP3 ADD MSTORE PUSH1 0x29 PUSH1 0x24 DUP3 ADD MSTORE PUSH32 0x546865726520617265206E6F20616E7920416374697665204D61726B65742049 PUSH1 0x44 DUP3 ADD MSTORE PUSH9 0x74656D732079657421 PUSH1 0xB8 SHL PUSH1 0x64 DUP3 ADD MSTORE PUSH1 0x84 ADD PUSH2 0x43C JUMP JUMPDEST PUSH1 0x1 DUP3 LT ISZERO DUP1 ISZERO PUSH2 0xB4B JUMPI POP PUSH1 0x5 SLOAD DUP3 GT ISZERO JUMPDEST PUSH2 0xBD2 JUMPI PUSH1 0x40 MLOAD PUSH3 0x461BCD PUSH1 0xE5 SHL DUP2 MSTORE PUSH1 0x20 PUSH1 0x4 DUP3 ADD MSTORE PUSH1 0x4C PUSH1 0x24 DUP3 ADD MSTORE PUSH32 0x506F736974696F6E2073686F756C6420626520706F736974697665206E756D62 PUSH1 0x44 DUP3 ADD MSTORE PUSH32 0x657220696E20416374697665204D61726B6574204974656D7320436F756E7420 PUSH1 0x64 DUP3 ADD MSTORE PUSH12 0x72616E67652028312E2E4E29 PUSH1 0xA0 SHL PUSH1 0x84 DUP3 ADD MSTORE PUSH1 0xA4 ADD PUSH2 0x43C JUMP JUMPDEST PUSH1 0x4 PUSH1 0x0 PUSH1 0x5 PUSH2 0xBE3 PUSH1 0x1 DUP7 PUSH2 0x3417 JUMP JUMPDEST DUP2 SLOAD DUP2 LT PUSH2 0xBF3 JUMPI PUSH2 0xBF3 PUSH2 0x33E8 JUMP JUMPDEST PUSH1 0x0 SWAP2 DUP3 MSTORE PUSH1 0x20 DUP1 DUP4 KECCAK256 SWAP1 SWAP2 ADD SLOAD DUP4 MSTORE DUP3 DUP2 ADD SWAP4 SWAP1 SWAP4 MSTORE PUSH1 0x40 SWAP2 DUP3 ADD SWAP1 KECCAK256 DUP2 MLOAD PUSH2 0x180 DUP2 ADD DUP4 MSTORE DUP2 SLOAD DUP2 MSTORE PUSH1 0x1 DUP3 ADD SLOAD PUSH1 0x1 PUSH1 0x1 PUSH1 0xA0 SHL SUB SWAP1 DUP2 AND SWAP5 DUP3 ADD SWAP5 SWAP1 SWAP5 MSTORE PUSH1 0x2 DUP3 ADD SLOAD SWAP3 DUP2 ADD SWAP3 SWAP1 SWAP3 MSTORE PUSH1 0x3 DUP1 DUP3 ADD SLOAD DUP5 AND PUSH1 0x60 DUP5 ADD MSTORE PUSH1 0x4 DUP3 ADD SLOAD DUP5 AND PUSH1 0x80 DUP5 ADD MSTORE PUSH1 0x5 DUP3 ADD SLOAD SWAP1 SWAP4 AND PUSH1 0xA0 DUP4 ADD MSTORE PUSH1 0x6 DUP2 ADD SLOAD PUSH1 0xC0 DUP4 ADD MSTORE PUSH1 0x7 DUP2 ADD SLOAD SWAP2 SWAP3 SWAP1 SWAP2 PUSH1 0xE0 DUP5 ADD SWAP2 PUSH1 0xFF SWAP1 SWAP2 AND SWAP1 DUP2 GT ISZERO PUSH2 0xC94 JUMPI PUSH2 0xC94 PUSH2 0x301E JUMP JUMPDEST PUSH1 0x3 DUP2 GT ISZERO PUSH2 0xCA5 JUMPI PUSH2 0xCA5 PUSH2 0x301E JUMP JUMPDEST DUP2 MSTORE PUSH1 0x20 ADD PUSH1 0x8 DUP3 ADD SLOAD DUP2 MSTORE PUSH1 0x20 ADD PUSH1 0x9 DUP3 ADD SLOAD DUP2 MSTORE PUSH1 0x20 ADD PUSH1 0xA DUP3 ADD SLOAD DUP2 MSTORE PUSH1 0x20 ADD PUSH1 0xB DUP3 ADD DUP1 SLOAD DUP1 PUSH1 0x20 MUL PUSH1 0x20 ADD PUSH1 0x40 MLOAD SWAP1 DUP2 ADD PUSH1 0x40 MSTORE DUP1 SWAP3 SWAP2 SWAP1 DUP2 DUP2 MSTORE PUSH1 0x20 ADD DUP3 DUP1 SLOAD DUP1 ISZERO PUSH2 0xD20 JUMPI PUSH1 0x20 MUL DUP3 ADD SWAP2 SWAP1 PUSH1 0x0 MSTORE PUSH1 0x20 PUSH1 0x0 KECCAK256 SWAP1 JUMPDEST DUP2 SLOAD PUSH1 0x1 PUSH1 0x1 PUSH1 0xA0 SHL SUB AND DUP2 MSTORE PUSH1 0x1 SWAP1 SWAP2 ADD SWAP1 PUSH1 0x20 ADD DUP1 DUP4 GT PUSH2 0xD02 JUMPI JUMPDEST POP POP POP POP POP DUP2 MSTORE POP POP SWAP1 POP SWAP2 SWAP1 POP JUMP JUMPDEST PUSH2 0xD5D PUSH1 0x40 MLOAD DUP1 PUSH1 0x80 ADD PUSH1 0x40 MSTORE DUP1 PUSH1 0x0 ISZERO ISZERO DUP2 MSTORE PUSH1 0x20 ADD PUSH1 0x0 DUP2 MSTORE PUSH1 0x20 ADD PUSH1 0x0 DUP2 MSTORE PUSH1 0x20 ADD PUSH1 0x0 DUP2 MSTORE POP SWAP1 JUMP JUMPDEST PUSH2 0x904 CALLER PUSH2 0x1A8D JUMP JUMPDEST PUSH2 0xD6E PUSH2 0x1F63 JUMP JUMPDEST PUSH1 0x9 SSTORE JUMP JUMPDEST PUSH2 0xD7B PUSH2 0x1F63 JUMP JUMPDEST PUSH2 0xD85 PUSH1 0x0 PUSH2 0x1FBD JUMP JUMPDEST JUMP JUMPDEST DUP1 PUSH1 0x0 DUP2 GT DUP1 ISZERO PUSH2 0xD9A JUMPI POP PUSH1 0x3 SLOAD DUP2 GT ISZERO JUMPDEST PUSH2 0xDB6 JUMPI PUSH1 0x40 MLOAD PUSH3 0x461BCD PUSH1 0xE5 SHL DUP2 MSTORE PUSH1 0x4 ADD PUSH2 0x43C SWAP1 PUSH2 0x342E JUMP JUMPDEST DUP2 PUSH1 0x0 DUP1 DUP3 DUP2 MSTORE PUSH1 0x4 PUSH1 0x20 MSTORE PUSH1 0x40 SWAP1 KECCAK256 PUSH1 0x7 ADD SLOAD PUSH1 0xFF AND PUSH1 0x3 DUP2 GT ISZERO PUSH2 0xDDE JUMPI PUSH2 0xDDE PUSH2 0x301E JUMP JUMPDEST EQ PUSH2 0xDFB JUMPI PUSH1 0x40 MLOAD PUSH3 0x461BCD PUSH1 0xE5 SHL DUP2 MSTORE PUSH1 0x4 ADD PUSH2 0x43C SWAP1 PUSH2 0x3465 JUMP JUMPDEST PUSH1 0x2 DUP1 SLOAD SUB PUSH2 0xE1C JUMPI PUSH1 0x40 MLOAD PUSH3 0x461BCD PUSH1 0xE5 SHL DUP2 MSTORE PUSH1 0x4 ADD PUSH2 0x43C SWAP1 PUSH2 0x349C JUMP JUMPDEST PUSH1 0x2 DUP1 SSTORE PUSH1 0x0 DUP4 DUP2 MSTORE PUSH1 0x4 PUSH1 0x20 MSTORE PUSH1 0x40 SWAP1 KECCAK256 PUSH1 0x3 ADD SLOAD PUSH1 0x1 PUSH1 0x1 PUSH1 0xA0 SHL SUB AND CALLER DUP2 EQ PUSH2 0xE95 JUMPI PUSH1 0x40 MLOAD PUSH3 0x461BCD PUSH1 0xE5 SHL DUP2 MSTORE PUSH1 0x20 PUSH1 0x4 DUP3 ADD MSTORE PUSH1 0x22 PUSH1 0x24 DUP3 ADD MSTORE PUSH32 0x4F6E6C792053656C6C65722063616E2063616E63656C204D61726B6574204974 PUSH1 0x44 DUP3 ADD MSTORE PUSH2 0x656D PUSH1 0xF0 SHL PUSH1 0x64 DUP3 ADD MSTORE PUSH1 0x84 ADD PUSH2 0x43C JUMP JUMPDEST PUSH1 0x0 PUSH2 0xEA0 DUP3 PUSH2 0x1A8D JUMP JUMPDEST PUSH1 0x40 ADD MLOAD SWAP1 POP PUSH2 0xEC8 DUP2 PUSH1 0x40 MLOAD DUP1 PUSH1 0x80 ADD PUSH1 0x40 MSTORE DUP1 PUSH1 0x46 DUP2 MSTORE PUSH1 0x20 ADD PUSH2 0x3641 PUSH1 0x46 SWAP2 CODECOPY PUSH2 0x1BE7 JUMP JUMPDEST PUSH2 0xED3 DUP6 PUSH1 0x2 PUSH2 0x200D JUMP JUMPDEST POP POP PUSH1 0x1 PUSH1 0x2 SSTORE POP POP POP JUMP JUMPDEST PUSH2 0xEE7 PUSH2 0x1F63 JUMP JUMPDEST DUP1 PUSH1 0x0 DUP2 GT DUP1 ISZERO PUSH2 0xEFA JUMPI POP PUSH1 0x3 SLOAD DUP2 GT ISZERO JUMPDEST PUSH2 0xF16 JUMPI PUSH1 0x40 MLOAD PUSH3 0x461BCD PUSH1 0xE5 SHL DUP2 MSTORE PUSH1 0x4 ADD PUSH2 0x43C SWAP1 PUSH2 0x342E JUMP JUMPDEST DUP2 PUSH1 0x0 DUP1 DUP3 DUP2 MSTORE PUSH1 0x4 PUSH1 0x20 MSTORE PUSH1 0x40 SWAP1 KECCAK256 PUSH1 0x7 ADD SLOAD PUSH1 0xFF AND PUSH1 0x3 DUP2 GT ISZERO PUSH2 0xF3E JUMPI PUSH2 0xF3E PUSH2 0x301E JUMP JUMPDEST EQ PUSH2 0xF5B JUMPI PUSH1 0x40 MLOAD PUSH3 0x461BCD PUSH1 0xE5 SHL DUP2 MSTORE PUSH1 0x4 ADD PUSH2 0x43C SWAP1 PUSH2 0x3465 JUMP JUMPDEST PUSH1 0x2 DUP1 SLOAD SUB PUSH2 0xF7C JUMPI PUSH1 0x40 MLOAD PUSH3 0x461BCD PUSH1 0xE5 SHL DUP2 MSTORE PUSH1 0x4 ADD PUSH2 0x43C SWAP1 PUSH2 0x349C JUMP JUMPDEST PUSH1 0x2 DUP1 SSTORE PUSH2 0xF8B DUP4 PUSH1 0x3 PUSH2 0x200D JUMP JUMPDEST POP POP PUSH1 0x1 PUSH1 0x2 SSTORE POP JUMP JUMPDEST PUSH2 0xF9D PUSH2 0x1F63 JUMP JUMPDEST PUSH2 0xFA5 PUSH2 0x23C1 JUMP JUMPDEST PUSH2 0xFF1 JUMPI PUSH1 0x40 MLOAD PUSH3 0x461BCD PUSH1 0xE5 SHL DUP2 MSTORE PUSH1 0x20 PUSH1 0x4 DUP3 ADD DUP2 SWAP1 MSTORE PUSH1 0x24 DUP3 ADD MSTORE PUSH32 0x42656E65666963696172792073686F756C642062652073706563696669656421 PUSH1 0x44 DUP3 ADD MSTORE PUSH1 0x64 ADD PUSH2 0x43C JUMP JUMPDEST PUSH1 0x0 DUP3 GT PUSH2 0x1041 JUMPI PUSH1 0x40 MLOAD PUSH3 0x461BCD PUSH1 0xE5 SHL DUP2 MSTORE PUSH1 0x20 PUSH1 0x4 DUP3 ADD MSTORE PUSH1 0x1F PUSH1 0x24 DUP3 ADD MSTORE PUSH32 0x53656E6420416D6F756E742073686F756C6420626520706F7369746976652100 PUSH1 0x44 DUP3 ADD MSTORE PUSH1 0x64 ADD PUSH2 0x43C JUMP JUMPDEST ADDRESS PUSH1 0x1 PUSH1 0x1 PUSH1 0xA0 SHL SUB DUP3 AND PUSH2 0x1116 JUMPI PUSH1 0x1 PUSH1 0x1 PUSH1 0xA0 SHL SUB DUP2 AND BALANCE DUP4 DUP2 LT ISZERO PUSH2 0x10D1 JUMPI PUSH1 0x40 MLOAD PUSH3 0x461BCD PUSH1 0xE5 SHL DUP2 MSTORE PUSH1 0x20 PUSH1 0x4 DUP3 ADD MSTORE PUSH1 0x3A PUSH1 0x24 DUP3 ADD MSTORE PUSH32 0x53656E6420416D6F756E74206578636565647320536D61727420436F6E747261 PUSH1 0x44 DUP3 ADD MSTORE PUSH32 0x63742773206E617469766520746F6B656E2062616C616E636521000000000000 PUSH1 0x64 DUP3 ADD MSTORE PUSH1 0x84 ADD PUSH2 0x43C JUMP JUMPDEST PUSH1 0x1 SLOAD PUSH1 0x40 MLOAD PUSH2 0x100 SWAP1 SWAP2 DIV PUSH1 0x1 PUSH1 0x1 PUSH1 0xA0 SHL SUB AND SWAP1 PUSH2 0x8FC DUP7 ISZERO MUL SWAP1 DUP7 SWAP1 PUSH1 0x0 DUP2 DUP2 DUP2 DUP6 DUP9 DUP9 CALL SWAP4 POP POP POP POP ISZERO DUP1 ISZERO PUSH2 0x110F JUMPI RETURNDATASIZE PUSH1 0x0 DUP1 RETURNDATACOPY RETURNDATASIZE PUSH1 0x0 REVERT JUMPDEST POP POP POP POP POP JUMP JUMPDEST PUSH1 0x40 MLOAD PUSH4 0x70A08231 PUSH1 0xE0 SHL DUP2 MSTORE PUSH1 0x1 PUSH1 0x1 PUSH1 0xA0 SHL SUB DUP3 DUP2 AND PUSH1 0x4 DUP4 ADD MSTORE DUP4 SWAP2 PUSH1 0x0 SWAP2 DUP4 AND SWAP1 PUSH4 0x70A08231 SWAP1 PUSH1 0x24 ADD PUSH1 0x20 PUSH1 0x40 MLOAD DUP1 DUP4 SUB DUP2 DUP7 GAS STATICCALL ISZERO DUP1 ISZERO PUSH2 0x1161 JUMPI RETURNDATASIZE PUSH1 0x0 DUP1 RETURNDATACOPY RETURNDATASIZE PUSH1 0x0 REVERT JUMPDEST POP POP POP POP PUSH1 0x40 MLOAD RETURNDATASIZE PUSH1 0x1F NOT PUSH1 0x1F DUP3 ADD AND DUP3 ADD DUP1 PUSH1 0x40 MSTORE POP DUP2 ADD SWAP1 PUSH2 0x1185 SWAP2 SWAP1 PUSH2 0x34D3 JUMP JUMPDEST SWAP1 POP DUP5 DUP2 LT ISZERO PUSH2 0x11FD JUMPI PUSH1 0x40 MLOAD PUSH3 0x461BCD PUSH1 0xE5 SHL DUP2 MSTORE PUSH1 0x20 PUSH1 0x4 DUP3 ADD MSTORE PUSH1 0x3A PUSH1 0x24 DUP3 ADD MSTORE PUSH32 0x53656E6420416D6F756E74206578636565647320536D61727420436F6E747261 PUSH1 0x44 DUP3 ADD MSTORE PUSH32 0x63742773204552432D323020746F6B656E2062616C616E636521000000000000 PUSH1 0x64 DUP3 ADD MSTORE PUSH1 0x84 ADD PUSH2 0x43C JUMP JUMPDEST PUSH1 0x1 SLOAD PUSH2 0x110F SWAP1 PUSH1 0x1 PUSH1 0x1 PUSH1 0xA0 SHL SUB DUP5 DUP2 AND SWAP2 PUSH2 0x100 SWAP1 DIV AND DUP8 PUSH2 0x23FC JUMP JUMPDEST POP POP POP JUMP JUMPDEST PUSH2 0x124E PUSH1 0x40 MLOAD DUP1 PUSH1 0x80 ADD PUSH1 0x40 MSTORE DUP1 PUSH1 0x0 ISZERO ISZERO DUP2 MSTORE PUSH1 0x20 ADD PUSH1 0x0 DUP2 MSTORE PUSH1 0x20 ADD PUSH1 0x0 DUP2 MSTORE PUSH1 0x20 ADD PUSH1 0x0 DUP2 MSTORE POP SWAP1 JUMP JUMPDEST PUSH2 0x1256 PUSH2 0x1F63 JUMP JUMPDEST PUSH2 0x8F3 DUP3 PUSH2 0x245F JUMP JUMPDEST DUP3 PUSH2 0x80F PUSH1 0x1 PUSH1 0x1 PUSH1 0xA0 SHL SUB DUP3 AND DUP5 DUP5 PUSH2 0x24DF JUMP JUMPDEST PUSH2 0x127C PUSH2 0x2BCA JUMP JUMPDEST DUP2 PUSH1 0x0 DUP2 GT DUP1 ISZERO PUSH2 0x128F JUMPI POP PUSH1 0x3 SLOAD DUP2 GT ISZERO JUMPDEST PUSH2 0x12AB JUMPI PUSH1 0x40 MLOAD PUSH3 0x461BCD PUSH1 0xE5 SHL DUP2 MSTORE PUSH1 0x4 ADD PUSH2 0x43C SWAP1 PUSH2 0x342E JUMP JUMPDEST PUSH1 0x0 DUP4 DUP2 MSTORE PUSH1 0x4 PUSH1 0x20 DUP2 DUP2 MSTORE PUSH1 0x40 SWAP3 DUP4 SWAP1 KECCAK256 DUP4 MLOAD PUSH2 0x180 DUP2 ADD DUP6 MSTORE DUP2 SLOAD DUP2 MSTORE PUSH1 0x1 DUP3 ADD SLOAD PUSH1 0x1 PUSH1 0x1 PUSH1 0xA0 SHL SUB SWAP1 DUP2 AND SWAP4 DUP3 ADD SWAP4 SWAP1 SWAP4 MSTORE PUSH1 0x2 DUP3 ADD SLOAD SWAP5 DUP2 ADD SWAP5 SWAP1 SWAP5 MSTORE PUSH1 0x3 DUP1 DUP3 ADD SLOAD DUP4 AND PUSH1 0x60 DUP7 ADD MSTORE SWAP3 DUP2 ADD SLOAD DUP3 AND PUSH1 0x80 DUP6 ADD MSTORE PUSH1 0x5 DUP2 ADD SLOAD SWAP1 SWAP2 AND PUSH1 0xA0 DUP5 ADD MSTORE PUSH1 0x6 DUP2 ADD SLOAD PUSH1 0xC0 DUP5 ADD MSTORE PUSH1 0x7 DUP2 ADD SLOAD SWAP1 SWAP2 PUSH1 0xE0 DUP5 ADD SWAP2 PUSH1 0xFF AND SWAP1 DUP2 GT ISZERO PUSH2 0x133B JUMPI PUSH2 0x133B PUSH2 0x301E JUMP JUMPDEST PUSH1 0x3 DUP2 GT ISZERO PUSH2 0x134C JUMPI PUSH2 0x134C PUSH2 0x301E JUMP JUMPDEST DUP2 MSTORE PUSH1 0x20 ADD PUSH1 0x8 DUP3 ADD SLOAD DUP2 MSTORE PUSH1 0x20 ADD PUSH1 0x9 DUP3 ADD SLOAD DUP2 MSTORE PUSH1 0x20 ADD PUSH1 0xA DUP3 ADD SLOAD DUP2 MSTORE PUSH1 0x20 ADD PUSH1 0xB DUP3 ADD DUP1 SLOAD DUP1 PUSH1 0x20 MUL PUSH1 0x20 ADD PUSH1 0x40 MLOAD SWAP1 DUP2 ADD PUSH1 0x40 MSTORE DUP1 SWAP3 SWAP2 SWAP1 DUP2 DUP2 MSTORE PUSH1 0x20 ADD DUP3 DUP1 SLOAD DUP1 ISZERO PUSH2 0x13C7 JUMPI PUSH1 0x20 MUL DUP3 ADD SWAP2 SWAP1 PUSH1 0x0 MSTORE PUSH1 0x20 PUSH1 0x0 KECCAK256 SWAP1 JUMPDEST DUP2 SLOAD PUSH1 0x1 PUSH1 0x1 PUSH1 0xA0 SHL SUB AND DUP2 MSTORE PUSH1 0x1 SWAP1 SWAP2 ADD SWAP1 PUSH1 0x20 ADD DUP1 DUP4 GT PUSH2 0x13A9 JUMPI JUMPDEST POP POP POP POP POP DUP2 MSTORE POP POP SWAP2 POP POP SWAP2 SWAP1 POP JUMP JUMPDEST PUSH2 0x13E0 PUSH2 0x1F63 JUMP JUMPDEST PUSH1 0x1 PUSH1 0x1 PUSH1 0xA0 SHL SUB DUP2 AND PUSH2 0x1445 JUMPI PUSH1 0x40 MLOAD PUSH3 0x461BCD PUSH1 0xE5 SHL DUP2 MSTORE PUSH1 0x20 PUSH1 0x4 DUP3 ADD MSTORE PUSH1 0x26 PUSH1 0x24 DUP3 ADD MSTORE PUSH32 0x4F776E61626C653A206E6577206F776E657220697320746865207A65726F2061 PUSH1 0x44 DUP3 ADD MSTORE PUSH6 0x646472657373 PUSH1 0xD0 SHL PUSH1 0x64 DUP3 ADD MSTORE PUSH1 0x84 ADD PUSH2 0x43C JUMP JUMPDEST PUSH2 0x8CB DUP2 PUSH2 0x1FBD JUMP JUMPDEST DUP2 PUSH1 0x0 DUP2 GT DUP1 ISZERO PUSH2 0x1461 JUMPI POP PUSH1 0x3 SLOAD DUP2 GT ISZERO JUMPDEST PUSH2 0x147D JUMPI PUSH1 0x40 MLOAD PUSH3 0x461BCD PUSH1 0xE5 SHL DUP2 MSTORE PUSH1 0x4 ADD PUSH2 0x43C SWAP1 PUSH2 0x342E JUMP JUMPDEST DUP3 PUSH1 0x0 DUP1 DUP3 DUP2 MSTORE PUSH1 0x4 PUSH1 0x20 MSTORE PUSH1 0x40 SWAP1 KECCAK256 PUSH1 0x7 ADD SLOAD PUSH1 0xFF AND PUSH1 0x3 DUP2 GT ISZERO PUSH2 0x14A5 JUMPI PUSH2 0x14A5 PUSH2 0x301E JUMP JUMPDEST EQ PUSH2 0x14C2 JUMPI PUSH1 0x40 MLOAD PUSH3 0x461BCD PUSH1 0xE5 SHL DUP2 MSTORE PUSH1 0x4 ADD PUSH2 0x43C SWAP1 PUSH2 0x3465 JUMP JUMPDEST PUSH1 0x2 DUP1 SLOAD SUB PUSH2 0x14E3 JUMPI PUSH1 0x40 MLOAD PUSH3 0x461BCD PUSH1 0xE5 SHL DUP2 MSTORE PUSH1 0x4 ADD PUSH2 0x43C SWAP1 PUSH2 0x349C JUMP JUMPDEST PUSH1 0x2 DUP1 SSTORE PUSH1 0x0 CALLER PUSH1 0x0 DUP7 DUP2 MSTORE PUSH1 0x4 PUSH1 0x20 DUP2 SWAP1 MSTORE PUSH1 0x40 DUP1 DUP4 KECCAK256 PUSH1 0x3 DUP2 ADD SLOAD PUSH1 0x2 DUP3 ADD SLOAD PUSH1 0x1 SWAP1 SWAP3 ADD SLOAD SWAP3 MLOAD PUSH4 0xE985E9C5 PUSH1 0xE0 SHL DUP2 MSTORE PUSH1 0x1 PUSH1 0x1 PUSH1 0xA0 SHL SUB SWAP2 DUP3 AND SWAP5 DUP2 ADD DUP6 SWAP1 MSTORE ADDRESS PUSH1 0x24 DUP3 ADD MSTORE SWAP6 SWAP7 POP SWAP3 SWAP5 SWAP1 SWAP4 SWAP3 SWAP1 SWAP2 AND SWAP2 SWAP1 DUP3 SWAP1 PUSH4 0xE985E9C5 SWAP1 PUSH1 0x44 ADD PUSH1 0x20 PUSH1 0x40 MLOAD DUP1 DUP4 SUB DUP2 DUP7 GAS STATICCALL ISZERO DUP1 ISZERO PUSH2 0x1563 JUMPI RETURNDATASIZE PUSH1 0x0 DUP1 RETURNDATACOPY RETURNDATASIZE PUSH1 0x0 REVERT JUMPDEST POP POP POP POP PUSH1 0x40 MLOAD RETURNDATASIZE PUSH1 0x1F NOT PUSH1 0x1F DUP3 ADD AND DUP3 ADD DUP1 PUSH1 0x40 MSTORE POP DUP2 ADD SWAP1 PUSH2 0x1587 SWAP2 SWAP1 PUSH2 0x34EC JUMP JUMPDEST SWAP1 POP DUP1 PUSH2 0x167C JUMPI PUSH1 0x40 MLOAD PUSH4 0x20604BF PUSH1 0xE2 SHL DUP2 MSTORE PUSH1 0x4 DUP2 ADD DUP5 SWAP1 MSTORE PUSH1 0x0 SWAP1 PUSH1 0x1 PUSH1 0x1 PUSH1 0xA0 SHL SUB DUP5 AND SWAP1 PUSH4 0x81812FC SWAP1 PUSH1 0x24 ADD PUSH1 0x20 PUSH1 0x40 MLOAD DUP1 DUP4 SUB DUP2 DUP7 GAS STATICCALL ISZERO DUP1 ISZERO PUSH2 0x15D6 JUMPI RETURNDATASIZE PUSH1 0x0 DUP1 RETURNDATACOPY RETURNDATASIZE PUSH1 0x0 REVERT JUMPDEST POP POP POP POP PUSH1 0x40 MLOAD RETURNDATASIZE PUSH1 0x1F NOT PUSH1 0x1F DUP3 ADD AND DUP3 ADD DUP1 PUSH1 0x40 MSTORE POP DUP2 ADD SWAP1 PUSH2 0x15FA SWAP2 SWAP1 PUSH2 0x350E JUMP JUMPDEST SWAP1 POP PUSH1 0x1 PUSH1 0x1 PUSH1 0xA0 SHL SUB DUP2 AND ADDRESS EQ PUSH2 0x167A JUMPI PUSH1 0x40 MLOAD PUSH3 0x461BCD PUSH1 0xE5 SHL DUP2 MSTORE PUSH1 0x20 PUSH1 0x4 DUP3 ADD MSTORE PUSH1 0x37 PUSH1 0x24 DUP3 ADD MSTORE PUSH32 0x4D61726B6574204974656D20284E4654292073686F756C642062652061707072 PUSH1 0x44 DUP3 ADD MSTORE PUSH32 0x6F76656420746F20746865204D61726B6574706C616365000000000000000000 PUSH1 0x64 DUP3 ADD MSTORE PUSH1 0x84 ADD PUSH2 0x43C JUMP JUMPDEST POP JUMPDEST PUSH1 0x0 DUP10 DUP2 MSTORE PUSH1 0x4 PUSH1 0x20 MSTORE PUSH1 0x40 SWAP1 KECCAK256 PUSH1 0xB ADD SLOAD ISZERO PUSH2 0x173C JUMPI PUSH1 0x0 DUP10 DUP2 MSTORE PUSH1 0x8 PUSH1 0x20 SWAP1 DUP2 MSTORE PUSH1 0x40 DUP1 DUP4 KECCAK256 PUSH1 0x1 PUSH1 0x1 PUSH1 0xA0 SHL SUB DUP10 AND DUP5 MSTORE SWAP1 SWAP2 MSTORE SWAP1 KECCAK256 SLOAD PUSH1 0xFF AND ISZERO ISZERO PUSH1 0x1 EQ PUSH2 0x173C JUMPI PUSH1 0x40 MLOAD PUSH3 0x461BCD PUSH1 0xE5 SHL DUP2 MSTORE PUSH1 0x20 PUSH1 0x4 DUP3 ADD MSTORE PUSH1 0x43 PUSH1 0x24 DUP3 ADD MSTORE PUSH32 0x596F75722061646472657373206973206E6F742073706563696669656420696E PUSH1 0x44 DUP3 ADD MSTORE PUSH32 0x2057686974652D4C69737420666F722063757272656E74204D61726B65742049 PUSH1 0x64 DUP3 ADD MSTORE PUSH3 0x74656D PUSH1 0xE8 SHL PUSH1 0x84 DUP3 ADD MSTORE PUSH1 0xA4 ADD PUSH2 0x43C JUMP JUMPDEST PUSH1 0x0 PUSH2 0x1748 DUP11 DUP8 PUSH2 0x25F4 JUMP JUMPDEST PUSH1 0x0 DUP12 DUP2 MSTORE PUSH1 0x4 PUSH1 0x20 DUP2 SWAP1 MSTORE PUSH1 0x40 SWAP2 DUP3 SWAP1 KECCAK256 DUP1 DUP3 ADD DUP1 SLOAD PUSH1 0x1 PUSH1 0x1 PUSH1 0xA0 SHL SUB NOT AND PUSH1 0x1 PUSH1 0x1 PUSH1 0xA0 SHL SUB DUP13 DUP2 AND SWAP2 DUP3 OR SWAP1 SWAP3 SSTORE PUSH1 0x8 DUP4 ADD DUP7 SWAP1 SSTORE PUSH1 0xA SWAP1 SWAP3 ADD DUP15 SWAP1 SSTORE SWAP3 MLOAD PUSH4 0x21421707 PUSH1 0xE1 SHL DUP2 MSTORE DUP10 DUP5 AND SWAP3 DUP2 ADD SWAP3 SWAP1 SWAP3 MSTORE PUSH1 0x24 DUP3 ADD MSTORE PUSH1 0x44 DUP2 ADD DUP8 SWAP1 MSTORE SWAP2 SWAP3 POP DUP5 AND SWAP1 PUSH4 0x42842E0E SWAP1 PUSH1 0x64 ADD PUSH1 0x0 PUSH1 0x40 MLOAD DUP1 DUP4 SUB DUP2 PUSH1 0x0 DUP8 DUP1 EXTCODESIZE ISZERO DUP1 ISZERO PUSH2 0x17D4 JUMPI PUSH1 0x0 DUP1 REVERT JUMPDEST POP GAS CALL ISZERO DUP1 ISZERO PUSH2 0x17E8 JUMPI RETURNDATASIZE PUSH1 0x0 DUP1 RETURNDATACOPY RETURNDATASIZE PUSH1 0x0 REVERT JUMPDEST POP POP POP POP PUSH2 0x17F7 DUP11 PUSH1 0x1 PUSH2 0x200D JUMP JUMPDEST PUSH1 0x2 PUSH1 0x1 SLOAD PUSH1 0xFF AND PUSH1 0x2 DUP2 GT ISZERO PUSH2 0x1810 JUMPI PUSH2 0x1810 PUSH2 0x301E JUMP JUMPDEST EQ DUP1 ISZERO PUSH2 0x182C JUMPI POP PUSH1 0x1 SLOAD PUSH2 0x100 SWAP1 DIV PUSH1 0x1 PUSH1 0x1 PUSH1 0xA0 SHL SUB AND ISZERO ISZERO JUMPDEST ISZERO PUSH2 0x1897 JUMPI PUSH1 0x1 SLOAD PUSH1 0x40 MLOAD PUSH4 0x91C05B0B PUSH1 0xE0 SHL DUP2 MSTORE PUSH1 0x4 DUP2 ADD DUP13 SWAP1 MSTORE PUSH2 0x100 SWAP1 SWAP2 DIV PUSH1 0x1 PUSH1 0x1 PUSH1 0xA0 SHL SUB AND SWAP1 DUP2 SWAP1 PUSH4 0x91C05B0B SWAP1 PUSH1 0x24 ADD PUSH1 0x0 PUSH1 0x40 MLOAD DUP1 DUP4 SUB DUP2 PUSH1 0x0 DUP8 DUP1 EXTCODESIZE ISZERO DUP1 ISZERO PUSH2 0x187D JUMPI PUSH1 0x0 DUP1 REVERT JUMPDEST POP GAS CALL ISZERO DUP1 ISZERO PUSH2 0x1891 JUMPI RETURNDATASIZE PUSH1 0x0 DUP1 RETURNDATACOPY RETURNDATASIZE PUSH1 0x0 REVERT JUMPDEST POP POP POP POP POP JUMPDEST PUSH1 0x40 MLOAD PUSH1 0x1 PUSH1 0x1 PUSH1 0xA0 SHL SUB DUP8 AND SWAP1 DUP12 SWAP1 PUSH32 0x2073B2706C235EFFB1E3840575370A51749AFD8181B4018F93BFF955D50792CB SWAP1 PUSH1 0x0 SWAP1 LOG3 POP POP PUSH1 0x1 PUSH1 0x2 SSTORE POP POP POP POP POP POP POP POP JUMP JUMPDEST PUSH1 0x40 MLOAD PUSH4 0x31A9108F PUSH1 0xE1 SHL DUP2 MSTORE PUSH1 0x4 DUP2 ADD DUP3 SWAP1 MSTORE PUSH1 0x0 SWAP1 DUP4 SWAP1 DUP3 SWAP1 PUSH1 0x1 PUSH1 0x1 PUSH1 0xA0 SHL SUB DUP4 AND SWAP1 PUSH4 0x6352211E SWAP1 PUSH1 0x24 ADD PUSH1 0x20 PUSH1 0x40 MLOAD DUP1 DUP4 SUB DUP2 DUP7 GAS STATICCALL ISZERO DUP1 ISZERO PUSH2 0x192A JUMPI RETURNDATASIZE PUSH1 0x0 DUP1 RETURNDATACOPY RETURNDATASIZE PUSH1 0x0 REVERT JUMPDEST POP POP POP POP PUSH1 0x40 MLOAD RETURNDATASIZE PUSH1 0x1F NOT PUSH1 0x1F DUP3 ADD AND DUP3 ADD DUP1 PUSH1 0x40 MSTORE POP DUP2 ADD SWAP1 PUSH2 0x194E SWAP2 SWAP1 PUSH2 0x350E JUMP JUMPDEST SWAP1 POP DUP6 PUSH1 0x1 PUSH1 0x1 PUSH1 0xA0 SHL SUB AND DUP2 PUSH1 0x1 PUSH1 0x1 PUSH1 0xA0 SHL SUB AND EQ PUSH2 0x1975 JUMPI PUSH1 0x0 NOT SWAP3 POP POP POP PUSH2 0x1A86 JUMP JUMPDEST PUSH1 0x40 MLOAD PUSH4 0xE985E9C5 PUSH1 0xE0 SHL DUP2 MSTORE PUSH1 0x1 PUSH1 0x1 PUSH1 0xA0 SHL SUB DUP8 DUP2 AND PUSH1 0x4 DUP4 ADD MSTORE ADDRESS PUSH1 0x24 DUP4 ADD MSTORE PUSH1 0x0 SWAP2 SWAP1 DUP5 AND SWAP1 PUSH4 0xE985E9C5 SWAP1 PUSH1 0x44 ADD PUSH1 0x20 PUSH1 0x40 MLOAD DUP1 DUP4 SUB DUP2 DUP7 GAS STATICCALL ISZERO DUP1 ISZERO PUSH2 0x19C5 JUMPI RETURNDATASIZE PUSH1 0x0 DUP1 RETURNDATACOPY RETURNDATASIZE PUSH1 0x0 REVERT JUMPDEST POP POP POP POP PUSH1 0x40 MLOAD RETURNDATASIZE PUSH1 0x1F NOT PUSH1 0x1F DUP3 ADD AND DUP3 ADD DUP1 PUSH1 0x40 MSTORE POP DUP2 ADD SWAP1 PUSH2 0x19E9 SWAP2 SWAP1 PUSH2 0x34EC JUMP JUMPDEST SWAP1 POP DUP1 PUSH2 0x1A7E JUMPI PUSH1 0x40 MLOAD PUSH4 0x20604BF PUSH1 0xE2 SHL DUP2 MSTORE PUSH1 0x4 DUP2 ADD DUP7 SWAP1 MSTORE PUSH1 0x0 SWAP1 PUSH1 0x1 PUSH1 0x1 PUSH1 0xA0 SHL SUB DUP6 AND SWAP1 PUSH4 0x81812FC SWAP1 PUSH1 0x24 ADD PUSH1 0x20 PUSH1 0x40 MLOAD DUP1 DUP4 SUB DUP2 DUP7 GAS STATICCALL ISZERO DUP1 ISZERO PUSH2 0x1A38 JUMPI RETURNDATASIZE PUSH1 0x0 DUP1 RETURNDATACOPY RETURNDATASIZE PUSH1 0x0 REVERT JUMPDEST POP POP POP POP PUSH1 0x40 MLOAD RETURNDATASIZE PUSH1 0x1F NOT PUSH1 0x1F DUP3 ADD AND DUP3 ADD DUP1 PUSH1 0x40 MSTORE POP DUP2 ADD SWAP1 PUSH2 0x1A5C SWAP2 SWAP1 PUSH2 0x350E JUMP JUMPDEST SWAP1 POP PUSH1 0x1 PUSH1 0x1 PUSH1 0xA0 SHL SUB DUP2 AND ADDRESS EQ PUSH2 0x1A7C JUMPI PUSH1 0x1 NOT SWAP5 POP POP POP POP POP PUSH2 0x1A86 JUMP JUMPDEST POP JUMPDEST PUSH1 0x0 SWAP4 POP POP POP POP JUMPDEST SWAP4 SWAP3 POP POP POP JUMP JUMPDEST PUSH2 0x1ABA PUSH1 0x40 MLOAD DUP1 PUSH1 0x80 ADD PUSH1 0x40 MSTORE DUP1 PUSH1 0x0 ISZERO ISZERO DUP2 MSTORE PUSH1 0x20 ADD PUSH1 0x0 DUP2 MSTORE PUSH1 0x20 ADD PUSH1 0x0 DUP2 MSTORE PUSH1 0x20 ADD PUSH1 0x0 DUP2 MSTORE POP SWAP1 JUMP JUMPDEST PUSH1 0x1 PUSH1 0x1 PUSH1 0xA0 SHL SUB DUP3 AND PUSH1 0x0 SWAP1 DUP2 MSTORE PUSH1 0x7 PUSH1 0x20 MSTORE PUSH1 0x40 SWAP1 KECCAK256 SLOAD PUSH1 0xFF AND ISZERO PUSH2 0x1B2E JUMPI POP PUSH1 0x1 PUSH1 0x1 PUSH1 0xA0 SHL SUB AND PUSH1 0x0 SWAP1 DUP2 MSTORE PUSH1 0x7 PUSH1 0x20 SWAP1 DUP2 MSTORE PUSH1 0x40 SWAP2 DUP3 SWAP1 KECCAK256 DUP3 MLOAD PUSH1 0x80 DUP2 ADD DUP5 MSTORE DUP2 SLOAD PUSH1 0xFF AND ISZERO ISZERO DUP2 MSTORE PUSH1 0x1 DUP3 ADD SLOAD SWAP3 DUP2 ADD SWAP3 SWAP1 SWAP3 MSTORE PUSH1 0x2 DUP2 ADD SLOAD SWAP3 DUP3 ADD SWAP3 SWAP1 SWAP3 MSTORE PUSH1 0x3 SWAP1 SWAP2 ADD SLOAD PUSH1 0x60 DUP3 ADD MSTORE SWAP1 JUMP JUMPDEST POP POP PUSH1 0x0 DUP1 MSTORE PUSH1 0x7 PUSH1 0x20 SWAP1 DUP2 MSTORE PUSH1 0x40 DUP1 MLOAD PUSH1 0x80 DUP2 ADD DUP3 MSTORE PUSH32 0x6D5257204EBE7D88FD91AE87941CB2DD9D8062B64AE5A2BD2D28EC40B9FBF6DF SLOAD PUSH1 0xFF AND ISZERO ISZERO DUP2 MSTORE PUSH32 0x6D5257204EBE7D88FD91AE87941CB2DD9D8062B64AE5A2BD2D28EC40B9FBF6E0 SLOAD SWAP3 DUP2 ADD SWAP3 SWAP1 SWAP3 MSTORE PUSH32 0x6D5257204EBE7D88FD91AE87941CB2DD9D8062B64AE5A2BD2D28EC40B9FBF6E1 SLOAD SWAP1 DUP3 ADD MSTORE PUSH32 0x6D5257204EBE7D88FD91AE87941CB2DD9D8062B64AE5A2BD2D28EC40B9FBF6E2 SLOAD PUSH1 0x60 DUP3 ADD MSTORE SWAP1 JUMP JUMPDEST DUP2 ISZERO PUSH2 0x1C5E JUMPI DUP2 CALLVALUE LT ISZERO DUP2 SWAP1 PUSH2 0x1C10 JUMPI PUSH1 0x40 MLOAD PUSH3 0x461BCD PUSH1 0xE5 SHL DUP2 MSTORE PUSH1 0x4 ADD PUSH2 0x43C SWAP2 SWAP1 PUSH2 0x3557 JUMP JUMPDEST POP PUSH2 0x1C19 PUSH2 0x23C1 JUMP JUMPDEST ISZERO PUSH2 0x1C5E JUMPI PUSH1 0x1 SLOAD PUSH1 0x40 MLOAD PUSH1 0x1 PUSH1 0x1 PUSH1 0xA0 SHL SUB PUSH2 0x100 SWAP1 SWAP3 DIV SWAP2 SWAP1 SWAP2 AND SWAP1 CALLVALUE DUP1 ISZERO PUSH2 0x8FC MUL SWAP2 PUSH1 0x0 DUP2 DUP2 DUP2 DUP6 DUP9 DUP9 CALL SWAP4 POP POP POP POP ISZERO DUP1 ISZERO PUSH2 0x121C JUMPI RETURNDATASIZE PUSH1 0x0 DUP1 RETURNDATACOPY RETURNDATASIZE PUSH1 0x0 REVERT JUMPDEST POP POP JUMP JUMPDEST PUSH2 0x1C70 PUSH1 0x3 DUP1 SLOAD PUSH1 0x1 ADD SWAP1 SSTORE JUMP JUMPDEST PUSH1 0x0 PUSH2 0x1C7B PUSH1 0x3 SLOAD SWAP1 JUMP JUMPDEST PUSH1 0x5 DUP1 SLOAD PUSH1 0x1 DUP2 ADD DUP3 SSTORE PUSH1 0x0 DUP3 DUP2 MSTORE PUSH32 0x36B6384B5ECA791C62761152D0C79BB0604C104A5FB6F4EB0703F3154BB3DB0 SWAP1 SWAP2 ADD DUP4 SWAP1 SSTORE SWAP1 SLOAD PUSH1 0x40 DUP1 MLOAD PUSH2 0x180 DUP2 ADD DUP3 MSTORE DUP5 DUP2 MSTORE DUP7 MLOAD PUSH1 0x1 PUSH1 0x1 PUSH1 0xA0 SHL SUB SWAP1 DUP2 AND PUSH1 0x20 DUP4 DUP2 ADD SWAP2 SWAP1 SWAP2 MSTORE DUP9 ADD MLOAD DUP3 DUP5 ADD MSTORE DUP9 DUP2 AND PUSH1 0x60 DUP1 DUP5 ADD SWAP2 SWAP1 SWAP2 MSTORE PUSH1 0x80 DUP4 ADD DUP7 SWAP1 MSTORE SWAP3 DUP9 ADD MLOAD AND PUSH1 0xA0 DUP3 ADD MSTORE SWAP1 DUP7 ADD MLOAD PUSH1 0xC0 DUP3 ADD MSTORE SWAP3 SWAP4 POP SWAP2 SWAP1 PUSH1 0xE0 DUP3 ADD SWAP1 DUP2 MSTORE PUSH1 0x0 PUSH1 0x20 DUP1 DUP4 ADD DUP3 SWAP1 MSTORE PUSH1 0x40 DUP1 DUP5 ADD DUP7 SWAP1 MSTORE PUSH1 0x60 DUP1 DUP6 ADD DUP5 SWAP1 MSTORE PUSH1 0x80 DUP10 DUP2 ADD MLOAD SWAP6 DUP2 ADD SWAP6 SWAP1 SWAP6 MSTORE DUP8 DUP5 MSTORE PUSH1 0x4 DUP1 DUP5 MSTORE SWAP4 DUP3 SWAP1 KECCAK256 DUP7 MLOAD DUP2 SSTORE SWAP3 DUP7 ADD MLOAD PUSH1 0x1 DUP1 DUP6 ADD DUP1 SLOAD PUSH1 0x1 PUSH1 0x1 PUSH1 0xA0 SHL SUB NOT SWAP1 DUP2 AND PUSH1 0x1 PUSH1 0x1 PUSH1 0xA0 SHL SUB SWAP5 DUP6 AND OR SWAP1 SWAP2 SSTORE SWAP4 DUP9 ADD MLOAD PUSH1 0x2 DUP7 ADD SSTORE SWAP2 DUP8 ADD MLOAD PUSH1 0x3 DUP1 DUP7 ADD DUP1 SLOAD DUP7 AND SWAP3 DUP5 AND SWAP3 SWAP1 SWAP3 OR SWAP1 SWAP2 SSTORE SWAP6 DUP8 ADD MLOAD SWAP5 DUP5 ADD DUP1 SLOAD DUP5 AND SWAP6 DUP3 AND SWAP6 SWAP1 SWAP6 OR SWAP1 SWAP5 SSTORE PUSH1 0xA0 DUP7 ADD MLOAD PUSH1 0x5 DUP5 ADD DUP1 SLOAD SWAP1 SWAP4 AND SWAP5 AND SWAP4 SWAP1 SWAP4 OR SWAP1 SSTORE PUSH1 0xC0 DUP5 ADD MLOAD PUSH1 0x6 DUP3 ADD SSTORE PUSH1 0xE0 DUP5 ADD MLOAD PUSH1 0x7 DUP3 ADD DUP1 SLOAD SWAP3 SWAP5 SWAP2 SWAP4 SWAP1 SWAP3 PUSH1 0xFF NOT AND SWAP2 DUP5 SWAP1 DUP2 GT ISZERO PUSH2 0x1DE9 JUMPI PUSH2 0x1DE9 PUSH2 0x301E JUMP JUMPDEST MUL OR SWAP1 SSTORE POP PUSH2 0x100 DUP3 ADD MLOAD PUSH1 0x8 DUP3 ADD SSTORE PUSH2 0x120 DUP3 ADD MLOAD PUSH1 0x9 DUP3 ADD SSTORE PUSH2 0x140 DUP3 ADD MLOAD PUSH1 0xA DUP3 ADD SSTORE PUSH2 0x160 DUP3 ADD MLOAD DUP1 MLOAD PUSH2 0x1E2B SWAP2 PUSH1 0xB DUP5 ADD SWAP2 PUSH1 0x20 SWAP1 SWAP2 ADD SWAP1 PUSH2 0x2C2B JUMP JUMPDEST POP POP DUP4 MLOAD PUSH1 0x1 PUSH1 0x1 PUSH1 0xA0 SHL SUB AND PUSH1 0x0 SWAP1 DUP2 MSTORE PUSH1 0x6 PUSH1 0x20 SWAP1 DUP2 MSTORE PUSH1 0x40 DUP1 DUP4 KECCAK256 DUP3 DUP9 ADD MLOAD DUP5 MSTORE SWAP1 SWAP2 MSTORE SWAP1 KECCAK256 DUP3 SWAP1 SSTORE POP PUSH1 0x80 DUP4 ADD MLOAD MLOAD ISZERO PUSH2 0x1EE3 JUMPI PUSH1 0x0 JUMPDEST DUP4 PUSH1 0x80 ADD MLOAD MLOAD DUP2 LT ISZERO PUSH2 0x1EE1 JUMPI PUSH1 0x0 DUP4 DUP2 MSTORE PUSH1 0x8 PUSH1 0x20 MSTORE PUSH1 0x40 DUP2 KECCAK256 PUSH1 0x80 DUP7 ADD MLOAD DUP1 MLOAD PUSH1 0x1 SWAP4 SWAP2 SWAP1 DUP6 SWAP1 DUP2 LT PUSH2 0x1E9D JUMPI PUSH2 0x1E9D PUSH2 0x33E8 JUMP JUMPDEST PUSH1 0x20 SWAP1 DUP2 MUL SWAP2 SWAP1 SWAP2 ADD DUP2 ADD MLOAD PUSH1 0x1 PUSH1 0x1 PUSH1 0xA0 SHL SUB AND DUP3 MSTORE DUP2 ADD SWAP2 SWAP1 SWAP2 MSTORE PUSH1 0x40 ADD PUSH1 0x0 KECCAK256 DUP1 SLOAD PUSH1 0xFF NOT AND SWAP2 ISZERO ISZERO SWAP2 SWAP1 SWAP2 OR SWAP1 SSTORE DUP1 PUSH2 0x1ED9 DUP2 PUSH2 0x33FE JUMP JUMPDEST SWAP2 POP POP PUSH2 0x1E66 JUMP JUMPDEST POP JUMPDEST DUP4 PUSH1 0x1 PUSH1 0x1 PUSH1 0xA0 SHL SUB AND DUP4 PUSH1 0x0 ADD MLOAD PUSH1 0x1 PUSH1 0x1 PUSH1 0xA0 SHL SUB AND DUP4 PUSH32 0xC48E6EF63D8EE5C32E1A12522041571CC6929DBABED66A5EBA6B0E9C65CA8471 DUP7 PUSH1 0x20 ADD MLOAD DUP8 PUSH1 0x40 ADD MLOAD DUP9 PUSH1 0x60 ADD MLOAD PUSH1 0x40 MLOAD PUSH2 0x1F55 SWAP4 SWAP3 SWAP2 SWAP1 SWAP3 DUP4 MSTORE PUSH1 0x1 PUSH1 0x1 PUSH1 0xA0 SHL SUB SWAP2 SWAP1 SWAP2 AND PUSH1 0x20 DUP4 ADD MSTORE PUSH1 0x40 DUP3 ADD MSTORE PUSH1 0x60 ADD SWAP1 JUMP JUMPDEST PUSH1 0x40 MLOAD DUP1 SWAP2 SUB SWAP1 LOG4 POP POP POP POP JUMP JUMPDEST PUSH1 0x0 SLOAD PUSH1 0x1 PUSH1 0x1 PUSH1 0xA0 SHL SUB AND CALLER EQ PUSH2 0xD85 JUMPI PUSH1 0x40 MLOAD PUSH3 0x461BCD PUSH1 0xE5 SHL DUP2 MSTORE PUSH1 0x20 PUSH1 0x4 DUP3 ADD DUP2 SWAP1 MSTORE PUSH1 0x24 DUP3 ADD MSTORE PUSH32 0x4F776E61626C653A2063616C6C6572206973206E6F7420746865206F776E6572 PUSH1 0x44 DUP3 ADD MSTORE PUSH1 0x64 ADD PUSH2 0x43C JUMP JUMPDEST PUSH1 0x0 DUP1 SLOAD PUSH1 0x1 PUSH1 0x1 PUSH1 0xA0 SHL SUB DUP4 DUP2 AND PUSH1 0x1 PUSH1 0x1 PUSH1 0xA0 SHL SUB NOT DUP4 AND DUP2 OR DUP5 SSTORE PUSH1 0x40 MLOAD SWAP2 SWAP1 SWAP3 AND SWAP3 DUP4 SWAP2 PUSH32 0x8BE0079C531659141344CD1FD0A4F28419497F9722A3DAAFE3B4186F6B6457E0 SWAP2 SWAP1 LOG3 POP POP JUMP JUMPDEST DUP2 PUSH1 0x0 DUP2 GT DUP1 ISZERO PUSH2 0x2020 JUMPI POP PUSH1 0x3 SLOAD DUP2 GT ISZERO JUMPDEST PUSH2 0x203C JUMPI PUSH1 0x40 MLOAD PUSH3 0x461BCD PUSH1 0xE5 SHL DUP2 MSTORE PUSH1 0x4 ADD PUSH2 0x43C SWAP1 PUSH2 0x342E JUMP JUMPDEST DUP3 PUSH1 0x0 DUP1 DUP3 DUP2 MSTORE PUSH1 0x4 PUSH1 0x20 MSTORE PUSH1 0x40 SWAP1 KECCAK256 PUSH1 0x7 ADD SLOAD PUSH1 0xFF AND PUSH1 0x3 DUP2 GT ISZERO PUSH2 0x2064 JUMPI PUSH2 0x2064 PUSH2 0x301E JUMP JUMPDEST EQ PUSH2 0x2081 JUMPI PUSH1 0x40 MLOAD PUSH3 0x461BCD PUSH1 0xE5 SHL DUP2 MSTORE PUSH1 0x4 ADD PUSH2 0x43C SWAP1 PUSH2 0x3465 JUMP JUMPDEST PUSH1 0x0 DUP5 DUP2 MSTORE PUSH1 0x4 PUSH1 0x20 MSTORE PUSH1 0x40 DUP2 KECCAK256 PUSH1 0x9 ADD SLOAD PUSH2 0x209F SWAP1 PUSH1 0x1 SWAP1 PUSH2 0x3417 JUMP JUMPDEST SWAP1 POP PUSH1 0x5 SLOAD DUP2 LT PUSH2 0x210C JUMPI PUSH1 0x40 MLOAD PUSH3 0x461BCD PUSH1 0xE5 SHL DUP2 MSTORE PUSH1 0x20 PUSH1 0x4 DUP3 ADD MSTORE PUSH1 0x31 PUSH1 0x24 DUP3 ADD MSTORE PUSH32 0x4D61726B6574204974656D20686173206E6F20706F736974696F6E20696E2041 PUSH1 0x44 DUP3 ADD MSTORE PUSH17 0x6374697665204974656D73206172726179 PUSH1 0x78 SHL PUSH1 0x64 DUP3 ADD MSTORE PUSH1 0x84 ADD PUSH2 0x43C JUMP JUMPDEST DUP5 PUSH1 0x5 DUP3 DUP2 SLOAD DUP2 LT PUSH2 0x2120 JUMPI PUSH2 0x2120 PUSH2 0x33E8 JUMP JUMPDEST SWAP1 PUSH1 0x0 MSTORE PUSH1 0x20 PUSH1 0x0 KECCAK256 ADD SLOAD EQ PUSH2 0x219E JUMPI PUSH1 0x40 MLOAD PUSH3 0x461BCD PUSH1 0xE5 SHL DUP2 MSTORE PUSH1 0x20 PUSH1 0x4 DUP3 ADD MSTORE PUSH1 0x39 PUSH1 0x24 DUP3 ADD MSTORE PUSH32 0x4D61726B6574204974656D206973206E6F74206F6E2074686520706F73697469 PUSH1 0x44 DUP3 ADD MSTORE PUSH32 0x6F6E20696E20416374697665204974656D732061727261792100000000000000 PUSH1 0x64 DUP3 ADD MSTORE PUSH1 0x84 ADD PUSH2 0x43C JUMP JUMPDEST PUSH1 0x0 DUP5 PUSH1 0x3 DUP2 GT ISZERO PUSH2 0x21B2 JUMPI PUSH2 0x21B2 PUSH2 0x301E JUMP JUMPDEST SUB PUSH2 0x2215 JUMPI PUSH1 0x40 MLOAD PUSH3 0x461BCD PUSH1 0xE5 SHL DUP2 MSTORE PUSH1 0x20 PUSH1 0x4 DUP3 ADD MSTORE PUSH1 0x2D PUSH1 0x24 DUP3 ADD MSTORE PUSH32 0x5370656369667920636F72726563742073746174757320746F2072656D6F7665 PUSH1 0x44 DUP3 ADD MSTORE PUSH13 0x204D61726B6574204974656D21 PUSH1 0x98 SHL PUSH1 0x64 DUP3 ADD MSTORE PUSH1 0x84 ADD PUSH2 0x43C JUMP JUMPDEST PUSH1 0x0 DUP6 DUP2 MSTORE PUSH1 0x4 PUSH1 0x20 MSTORE PUSH1 0x40 SWAP1 KECCAK256 PUSH1 0x7 ADD DUP1 SLOAD DUP6 SWAP2 SWAP1 PUSH1 0xFF NOT AND PUSH1 0x1 DUP4 PUSH1 0x3 DUP2 GT ISZERO PUSH2 0x2243 JUMPI PUSH2 0x2243 PUSH2 0x301E JUMP JUMPDEST MUL OR SWAP1 SSTORE POP PUSH1 0x0 DUP6 DUP2 MSTORE PUSH1 0x4 PUSH1 0x20 MSTORE PUSH1 0x40 DUP2 KECCAK256 PUSH1 0x9 ADD SSTORE PUSH1 0x5 SLOAD PUSH2 0x2269 SWAP1 PUSH1 0x1 SWAP1 PUSH2 0x3417 JUMP JUMPDEST DUP2 LT ISZERO PUSH2 0x2321 JUMPI PUSH1 0x5 DUP1 SLOAD PUSH1 0x0 SWAP2 SWAP1 PUSH2 0x2284 SWAP1 PUSH1 0x1 SWAP1 PUSH2 0x3417 JUMP JUMPDEST DUP2 SLOAD DUP2 LT PUSH2 0x2294 JUMPI PUSH2 0x2294 PUSH2 0x33E8 JUMP JUMPDEST SWAP1 PUSH1 0x0 MSTORE PUSH1 0x20 PUSH1 0x0 KECCAK256 ADD SLOAD SWAP1 POP DUP1 PUSH1 0x5 DUP4 DUP2 SLOAD DUP2 LT PUSH2 0x22B5 JUMPI PUSH2 0x22B5 PUSH2 0x33E8 JUMP JUMPDEST PUSH1 0x0 SWAP2 DUP3 MSTORE PUSH1 0x20 SWAP1 SWAP2 KECCAK256 ADD SSTORE PUSH2 0x22CC DUP3 PUSH1 0x1 PUSH2 0x358A JUMP JUMPDEST PUSH1 0x0 DUP3 DUP2 MSTORE PUSH1 0x4 PUSH1 0x20 MSTORE PUSH1 0x40 SWAP1 KECCAK256 PUSH1 0x9 ADD SSTORE PUSH2 0x22E9 DUP3 PUSH1 0x1 PUSH2 0x358A JUMP JUMPDEST PUSH1 0x0 SWAP2 DUP3 MSTORE PUSH1 0x4 PUSH1 0x20 SWAP1 DUP2 MSTORE PUSH1 0x40 DUP1 DUP5 KECCAK256 PUSH1 0x1 DUP2 ADD SLOAD PUSH1 0x1 PUSH1 0x1 PUSH1 0xA0 SHL SUB AND DUP6 MSTORE PUSH1 0x6 DUP4 MSTORE DUP2 DUP6 KECCAK256 PUSH1 0x2 SWAP1 SWAP2 ADD SLOAD DUP6 MSTORE SWAP1 SWAP2 MSTORE SWAP1 SWAP2 KECCAK256 SSTORE JUMPDEST PUSH1 0x5 DUP1 SLOAD DUP1 PUSH2 0x2332 JUMPI PUSH2 0x2332 PUSH2 0x35A2 JUMP JUMPDEST PUSH1 0x0 DUP3 DUP2 MSTORE PUSH1 0x20 DUP1 DUP3 KECCAK256 DUP4 ADD PUSH1 0x0 NOT SWAP1 DUP2 ADD DUP4 SWAP1 SSTORE SWAP1 SWAP3 ADD SWAP1 SWAP3 SSTORE DUP7 DUP3 MSTORE PUSH1 0x4 DUP2 MSTORE PUSH1 0x40 DUP1 DUP4 KECCAK256 PUSH1 0x1 DUP2 ADD SLOAD PUSH1 0x1 PUSH1 0x1 PUSH1 0xA0 SHL SUB AND DUP5 MSTORE PUSH1 0x6 DUP4 MSTORE DUP2 DUP5 KECCAK256 PUSH1 0x2 SWAP1 SWAP2 ADD SLOAD DUP5 MSTORE SWAP1 SWAP2 MSTORE DUP1 DUP3 KECCAK256 SWAP2 SWAP1 SWAP2 SSTORE MLOAD DUP6 SWAP1 PUSH32 0x471936D15CAAA62C7C9222E363A0323E64ED408A1C87A4EF46C7596655EB1B3D SWAP1 PUSH2 0x23B2 SWAP1 DUP8 SWAP1 PUSH2 0x35B8 JUMP JUMPDEST PUSH1 0x40 MLOAD DUP1 SWAP2 SUB SWAP1 LOG2 POP POP POP POP POP JUMP JUMPDEST PUSH1 0x0 DUP1 PUSH1 0x1 SLOAD PUSH1 0xFF AND PUSH1 0x2 DUP2 GT ISZERO PUSH2 0x23DB JUMPI PUSH2 0x23DB PUSH2 0x301E JUMP JUMPDEST EQ ISZERO DUP1 ISZERO PUSH2 0x904 JUMPI POP PUSH1 0x1 SLOAD PUSH2 0x100 SWAP1 DIV PUSH1 0x1 PUSH1 0x1 PUSH1 0xA0 SHL SUB AND ISZERO ISZERO SWAP1 POP SWAP1 JUMP JUMPDEST PUSH1 0x40 MLOAD PUSH1 0x1 PUSH1 0x1 PUSH1 0xA0 SHL SUB DUP4 AND PUSH1 0x24 DUP3 ADD MSTORE PUSH1 0x44 DUP2 ADD DUP3 SWAP1 MSTORE PUSH2 0x121C SWAP1 DUP5 SWAP1 PUSH4 0xA9059CBB PUSH1 0xE0 SHL SWAP1 PUSH1 0x64 ADD JUMPDEST PUSH1 0x40 DUP1 MLOAD PUSH1 0x1F NOT DUP2 DUP5 SUB ADD DUP2 MSTORE SWAP2 SWAP1 MSTORE PUSH1 0x20 DUP2 ADD DUP1 MLOAD PUSH1 0x1 PUSH1 0x1 PUSH1 0xE0 SHL SUB AND PUSH1 0x1 PUSH1 0x1 PUSH1 0xE0 SHL SUB NOT SWAP1 SWAP4 AND SWAP3 SWAP1 SWAP3 OR SWAP1 SWAP2 MSTORE PUSH2 0x293F JUMP JUMPDEST PUSH2 0x248C PUSH1 0x40 MLOAD DUP1 PUSH1 0x80 ADD PUSH1 0x40 MSTORE DUP1 PUSH1 0x0 ISZERO ISZERO DUP2 MSTORE PUSH1 0x20 ADD PUSH1 0x0 DUP2 MSTORE PUSH1 0x20 ADD PUSH1 0x0 DUP2 MSTORE PUSH1 0x20 ADD PUSH1 0x0 DUP2 MSTORE POP SWAP1 JUMP JUMPDEST POP PUSH1 0x1 PUSH1 0x1 PUSH1 0xA0 SHL SUB AND PUSH1 0x0 SWAP1 DUP2 MSTORE PUSH1 0x7 PUSH1 0x20 SWAP1 DUP2 MSTORE PUSH1 0x40 SWAP2 DUP3 SWAP1 KECCAK256 DUP3 MLOAD PUSH1 0x80 DUP2 ADD DUP5 MSTORE DUP2 SLOAD PUSH1 0xFF AND ISZERO ISZERO DUP2 MSTORE PUSH1 0x1 DUP3 ADD SLOAD SWAP3 DUP2 ADD SWAP3 SWAP1 SWAP3 MSTORE PUSH1 0x2 DUP2 ADD SLOAD SWAP3 DUP3 ADD SWAP3 SWAP1 SWAP3 MSTORE PUSH1 0x3 SWAP1 SWAP2 ADD SLOAD PUSH1 0x60 DUP3 ADD MSTORE SWAP1 JUMP JUMPDEST DUP1 ISZERO DUP1 PUSH2 0x2559 JUMPI POP PUSH1 0x40 MLOAD PUSH4 0x6EB1769F PUSH1 0xE1 SHL DUP2 MSTORE ADDRESS PUSH1 0x4 DUP3 ADD MSTORE PUSH1 0x1 PUSH1 0x1 PUSH1 0xA0 SHL SUB DUP4 DUP2 AND PUSH1 0x24 DUP4 ADD MSTORE DUP5 AND SWAP1 PUSH4 0xDD62ED3E SWAP1 PUSH1 0x44 ADD PUSH1 0x20 PUSH1 0x40 MLOAD DUP1 DUP4 SUB DUP2 DUP7 GAS STATICCALL ISZERO DUP1 ISZERO PUSH2 0x2533 JUMPI RETURNDATASIZE PUSH1 0x0 DUP1 RETURNDATACOPY RETURNDATASIZE PUSH1 0x0 REVERT JUMPDEST POP POP POP POP PUSH1 0x40 MLOAD RETURNDATASIZE PUSH1 0x1F NOT PUSH1 0x1F DUP3 ADD AND DUP3 ADD DUP1 PUSH1 0x40 MSTORE POP DUP2 ADD SWAP1 PUSH2 0x2557 SWAP2 SWAP1 PUSH2 0x34D3 JUMP JUMPDEST ISZERO JUMPDEST PUSH2 0x25C4 JUMPI PUSH1 0x40 MLOAD PUSH3 0x461BCD PUSH1 0xE5 SHL DUP2 MSTORE PUSH1 0x20 PUSH1 0x4 DUP3 ADD MSTORE PUSH1 0x36 PUSH1 0x24 DUP3 ADD MSTORE PUSH32 0x5361666545524332303A20617070726F76652066726F6D206E6F6E2D7A65726F PUSH1 0x44 DUP3 ADD MSTORE PUSH22 0x20746F206E6F6E2D7A65726F20616C6C6F77616E6365 PUSH1 0x50 SHL PUSH1 0x64 DUP3 ADD MSTORE PUSH1 0x84 ADD PUSH2 0x43C JUMP JUMPDEST PUSH1 0x40 MLOAD PUSH1 0x1 PUSH1 0x1 PUSH1 0xA0 SHL SUB DUP4 AND PUSH1 0x24 DUP3 ADD MSTORE PUSH1 0x44 DUP2 ADD DUP3 SWAP1 MSTORE PUSH2 0x121C SWAP1 DUP5 SWAP1 PUSH4 0x95EA7B3 PUSH1 0xE0 SHL SWAP1 PUSH1 0x64 ADD PUSH2 0x2428 JUMP JUMPDEST PUSH1 0x0 DUP3 DUP2 MSTORE PUSH1 0x4 PUSH1 0x20 MSTORE PUSH1 0x40 DUP2 KECCAK256 PUSH1 0x3 DUP2 ADD SLOAD PUSH1 0x6 DUP3 ADD SLOAD PUSH1 0x5 SWAP1 SWAP3 ADD SLOAD PUSH1 0x1 PUSH1 0x1 PUSH1 0xA0 SHL SUB SWAP2 DUP3 AND SWAP3 SWAP2 AND DUP4 PUSH2 0x262A DUP5 PUSH2 0x1A8D JUMP JUMPDEST PUSH1 0x60 ADD MLOAD SWAP1 POP PUSH1 0x0 PUSH1 0x64 PUSH2 0x263E DUP6 DUP5 PUSH2 0x33C9 JUMP JUMPDEST PUSH2 0x2648 SWAP2 SWAP1 PUSH2 0x35C6 JUMP JUMPDEST SWAP1 POP PUSH1 0x0 PUSH2 0x2656 DUP3 DUP7 PUSH2 0x3417 JUMP JUMPDEST SWAP1 POP PUSH1 0x0 DUP2 GT PUSH2 0x26B2 JUMPI PUSH1 0x40 MLOAD PUSH3 0x461BCD PUSH1 0xE5 SHL DUP2 MSTORE PUSH1 0x20 PUSH1 0x4 DUP3 ADD MSTORE PUSH1 0x21 PUSH1 0x24 DUP3 ADD MSTORE PUSH32 0x496E76616C69642053656C6C657220416D6F756E742063616C63756C61746564 PUSH1 0x44 DUP3 ADD MSTORE PUSH1 0x21 PUSH1 0xF8 SHL PUSH1 0x64 DUP3 ADD MSTORE PUSH1 0x84 ADD PUSH2 0x43C JUMP JUMPDEST PUSH1 0x1 PUSH1 0x1 PUSH1 0xA0 SHL SUB DUP5 AND PUSH2 0x27CD JUMPI DUP5 CALLVALUE LT ISZERO PUSH2 0x2738 JUMPI PUSH1 0x40 DUP1 MLOAD PUSH3 0x461BCD PUSH1 0xE5 SHL DUP2 MSTORE PUSH1 0x20 PUSH1 0x4 DUP3 ADD MSTORE PUSH1 0x24 DUP2 ADD SWAP2 SWAP1 SWAP2 MSTORE PUSH32 0x506C65617365207375626D69742074686520507269636520616D6F756E742069 PUSH1 0x44 DUP3 ADD MSTORE PUSH32 0x6E206F7264657220746F20636F6D706C65746520746865207075726368617365 PUSH1 0x64 DUP3 ADD MSTORE PUSH1 0x84 ADD PUSH2 0x43C JUMP JUMPDEST PUSH1 0x40 MLOAD PUSH1 0x1 PUSH1 0x1 PUSH1 0xA0 SHL SUB DUP8 AND SWAP1 DUP3 ISZERO PUSH2 0x8FC MUL SWAP1 DUP4 SWAP1 PUSH1 0x0 DUP2 DUP2 DUP2 DUP6 DUP9 DUP9 CALL SWAP4 POP POP POP POP ISZERO DUP1 ISZERO PUSH2 0x276E JUMPI RETURNDATASIZE PUSH1 0x0 DUP1 RETURNDATACOPY RETURNDATASIZE PUSH1 0x0 REVERT JUMPDEST POP PUSH2 0x2777 PUSH2 0x23C1 JUMP JUMPDEST DUP1 ISZERO PUSH2 0x2783 JUMPI POP PUSH1 0x0 DUP3 GT JUMPDEST ISZERO PUSH2 0x27C8 JUMPI PUSH1 0x1 SLOAD PUSH1 0x40 MLOAD PUSH2 0x100 SWAP1 SWAP2 DIV PUSH1 0x1 PUSH1 0x1 PUSH1 0xA0 SHL SUB AND SWAP1 PUSH2 0x8FC DUP5 ISZERO MUL SWAP1 DUP5 SWAP1 PUSH1 0x0 DUP2 DUP2 DUP2 DUP6 DUP9 DUP9 CALL SWAP4 POP POP POP POP ISZERO DUP1 ISZERO PUSH2 0x27C6 JUMPI RETURNDATASIZE PUSH1 0x0 DUP1 RETURNDATACOPY RETURNDATASIZE PUSH1 0x0 REVERT JUMPDEST POP JUMPDEST PUSH2 0x2933 JUMP JUMPDEST PUSH1 0x40 MLOAD PUSH4 0x6EB1769F PUSH1 0xE1 SHL DUP2 MSTORE PUSH1 0x1 PUSH1 0x1 PUSH1 0xA0 SHL SUB DUP10 DUP2 AND PUSH1 0x4 DUP4 ADD MSTORE ADDRESS PUSH1 0x24 DUP4 ADD DUP2 SWAP1 MSTORE SWAP2 DUP7 SWAP2 PUSH1 0x0 SWAP2 SWAP1 DUP4 AND SWAP1 PUSH4 0xDD62ED3E SWAP1 PUSH1 0x44 ADD PUSH1 0x20 PUSH1 0x40 MLOAD DUP1 DUP4 SUB DUP2 DUP7 GAS STATICCALL ISZERO DUP1 ISZERO PUSH2 0x2822 JUMPI RETURNDATASIZE PUSH1 0x0 DUP1 RETURNDATACOPY RETURNDATASIZE PUSH1 0x0 REVERT JUMPDEST POP POP POP POP PUSH1 0x40 MLOAD RETURNDATASIZE PUSH1 0x1F NOT PUSH1 0x1F DUP3 ADD AND DUP3 ADD DUP1 PUSH1 0x40 MSTORE POP DUP2 ADD SWAP1 PUSH2 0x2846 SWAP2 SWAP1 PUSH2 0x34D3 JUMP JUMPDEST SWAP1 POP DUP8 DUP2 LT ISZERO PUSH2 0x28CE JUMPI PUSH1 0x40 MLOAD PUSH3 0x461BCD PUSH1 0xE5 SHL DUP2 MSTORE PUSH1 0x20 PUSH1 0x4 DUP3 ADD MSTORE PUSH1 0x47 PUSH1 0x24 DUP3 ADD MSTORE PUSH32 0x506C6561736520616C6C6F7720507269636520616D6F756E74206F6620455243 PUSH1 0x44 DUP3 ADD MSTORE PUSH32 0x2D323020546F6B656E20696E206F7264657220746F20636F6D706C6574652070 PUSH1 0x64 DUP3 ADD MSTORE PUSH7 0x75726368617365 PUSH1 0xC8 SHL PUSH1 0x84 DUP3 ADD MSTORE PUSH1 0xA4 ADD PUSH2 0x43C JUMP JUMPDEST PUSH2 0x28E3 PUSH1 0x1 PUSH1 0x1 PUSH1 0xA0 SHL SUB DUP4 AND DUP13 DUP6 DUP12 PUSH2 0x2A11 JUMP JUMPDEST PUSH2 0x28F7 PUSH1 0x1 PUSH1 0x1 PUSH1 0xA0 SHL SUB DUP4 AND DUP11 DUP7 PUSH2 0x23FC JUMP JUMPDEST PUSH2 0x28FF PUSH2 0x23C1 JUMP JUMPDEST DUP1 ISZERO PUSH2 0x290B JUMPI POP PUSH1 0x0 DUP6 GT JUMPDEST ISZERO PUSH2 0x292F JUMPI PUSH1 0x1 SLOAD PUSH2 0x292F SWAP1 PUSH1 0x1 PUSH1 0x1 PUSH1 0xA0 SHL SUB DUP5 DUP2 AND SWAP2 PUSH2 0x100 SWAP1 DIV AND DUP8 PUSH2 0x23FC JUMP JUMPDEST POP POP POP JUMPDEST POP SWAP8 SWAP7 POP POP POP POP POP POP POP JUMP JUMPDEST PUSH1 0x0 PUSH2 0x2994 DUP3 PUSH1 0x40 MLOAD DUP1 PUSH1 0x40 ADD PUSH1 0x40 MSTORE DUP1 PUSH1 0x20 DUP2 MSTORE PUSH1 0x20 ADD PUSH32 0x5361666545524332303A206C6F772D6C6576656C2063616C6C206661696C6564 DUP2 MSTORE POP DUP6 PUSH1 0x1 PUSH1 0x1 PUSH1 0xA0 SHL SUB AND PUSH2 0x2A49 SWAP1 SWAP3 SWAP2 SWAP1 PUSH4 0xFFFFFFFF AND JUMP JUMPDEST DUP1 MLOAD SWAP1 SWAP2 POP ISZERO PUSH2 0x121C JUMPI DUP1 DUP1 PUSH1 0x20 ADD SWAP1 MLOAD DUP2 ADD SWAP1 PUSH2 0x29B2 SWAP2 SWAP1 PUSH2 0x34EC JUMP JUMPDEST PUSH2 0x121C JUMPI PUSH1 0x40 MLOAD PUSH3 0x461BCD PUSH1 0xE5 SHL DUP2 MSTORE PUSH1 0x20 PUSH1 0x4 DUP3 ADD MSTORE PUSH1 0x2A PUSH1 0x24 DUP3 ADD MSTORE PUSH32 0x5361666545524332303A204552433230206F7065726174696F6E20646964206E PUSH1 0x44 DUP3 ADD MSTORE PUSH10 0x1BDD081CDD58D8D95959 PUSH1 0xB2 SHL PUSH1 0x64 DUP3 ADD MSTORE PUSH1 0x84 ADD PUSH2 0x43C JUMP JUMPDEST PUSH1 0x40 MLOAD PUSH1 0x1 PUSH1 0x1 PUSH1 0xA0 SHL SUB DUP1 DUP6 AND PUSH1 0x24 DUP4 ADD MSTORE DUP4 AND PUSH1 0x44 DUP3 ADD MSTORE PUSH1 0x64 DUP2 ADD DUP3 SWAP1 MSTORE PUSH2 0x80F SWAP1 DUP6 SWAP1 PUSH4 0x23B872DD PUSH1 0xE0 SHL SWAP1 PUSH1 0x84 ADD PUSH2 0x2428 JUMP JUMPDEST PUSH1 0x60 PUSH2 0x2A58 DUP5 DUP5 PUSH1 0x0 DUP6 PUSH2 0x2A60 JUMP JUMPDEST SWAP5 SWAP4 POP POP POP POP JUMP JUMPDEST PUSH1 0x60 DUP3 SELFBALANCE LT ISZERO PUSH2 0x2AC1 JUMPI PUSH1 0x40 MLOAD PUSH3 0x461BCD PUSH1 0xE5 SHL DUP2 MSTORE PUSH1 0x20 PUSH1 0x4 DUP3 ADD MSTORE PUSH1 0x26 PUSH1 0x24 DUP3 ADD MSTORE PUSH32 0x416464726573733A20696E73756666696369656E742062616C616E636520666F PUSH1 0x44 DUP3 ADD MSTORE PUSH6 0x1C8818D85B1B PUSH1 0xD2 SHL PUSH1 0x64 DUP3 ADD MSTORE PUSH1 0x84 ADD PUSH2 0x43C JUMP JUMPDEST PUSH1 0x1 PUSH1 0x1 PUSH1 0xA0 SHL SUB DUP6 AND EXTCODESIZE PUSH2 0x2B18 JUMPI PUSH1 0x40 MLOAD PUSH3 0x461BCD PUSH1 0xE5 SHL DUP2 MSTORE PUSH1 0x20 PUSH1 0x4 DUP3 ADD MSTORE PUSH1 0x1D PUSH1 0x24 DUP3 ADD MSTORE PUSH32 0x416464726573733A2063616C6C20746F206E6F6E2D636F6E7472616374000000 PUSH1 0x44 DUP3 ADD MSTORE PUSH1 0x64 ADD PUSH2 0x43C JUMP JUMPDEST PUSH1 0x0 DUP1 DUP7 PUSH1 0x1 PUSH1 0x1 PUSH1 0xA0 SHL SUB AND DUP6 DUP8 PUSH1 0x40 MLOAD PUSH2 0x2B34 SWAP2 SWAP1 PUSH2 0x35E8 JUMP JUMPDEST PUSH1 0x0 PUSH1 0x40 MLOAD DUP1 DUP4 SUB DUP2 DUP6 DUP8 GAS CALL SWAP3 POP POP POP RETURNDATASIZE DUP1 PUSH1 0x0 DUP2 EQ PUSH2 0x2B71 JUMPI PUSH1 0x40 MLOAD SWAP2 POP PUSH1 0x1F NOT PUSH1 0x3F RETURNDATASIZE ADD AND DUP3 ADD PUSH1 0x40 MSTORE RETURNDATASIZE DUP3 MSTORE RETURNDATASIZE PUSH1 0x0 PUSH1 0x20 DUP5 ADD RETURNDATACOPY PUSH2 0x2B76 JUMP JUMPDEST PUSH1 0x60 SWAP2 POP JUMPDEST POP SWAP2 POP SWAP2 POP PUSH2 0x2B86 DUP3 DUP3 DUP7 PUSH2 0x2B91 JUMP JUMPDEST SWAP8 SWAP7 POP POP POP POP POP POP POP JUMP JUMPDEST PUSH1 0x60 DUP4 ISZERO PUSH2 0x2BA0 JUMPI POP DUP2 PUSH2 0x1A86 JUMP JUMPDEST DUP3 MLOAD ISZERO PUSH2 0x2BB0 JUMPI DUP3 MLOAD DUP1 DUP5 PUSH1 0x20 ADD REVERT JUMPDEST DUP2 PUSH1 0x40 MLOAD PUSH3 0x461BCD PUSH1 0xE5 SHL DUP2 MSTORE PUSH1 0x4 ADD PUSH2 0x43C SWAP2 SWAP1 PUSH2 0x3557 JUMP JUMPDEST PUSH1 0x40 DUP1 MLOAD PUSH2 0x180 DUP2 ADD DUP3 MSTORE PUSH1 0x0 DUP1 DUP3 MSTORE PUSH1 0x20 DUP3 ADD DUP2 SWAP1 MSTORE SWAP2 DUP2 ADD DUP3 SWAP1 MSTORE PUSH1 0x60 DUP2 ADD DUP3 SWAP1 MSTORE PUSH1 0x80 DUP2 ADD DUP3 SWAP1 MSTORE PUSH1 0xA0 DUP2 ADD DUP3 SWAP1 MSTORE PUSH1 0xC0 DUP2 ADD DUP3 SWAP1 MSTORE SWAP1 PUSH1 0xE0 DUP3 ADD SWAP1 DUP2 MSTORE PUSH1 0x20 ADD PUSH1 0x0 DUP2 MSTORE PUSH1 0x20 ADD PUSH1 0x0 DUP2 MSTORE PUSH1 0x20 ADD PUSH1 0x0 DUP2 MSTORE PUSH1 0x20 ADD PUSH1 0x60 DUP2 MSTORE POP SWAP1 JUMP JUMPDEST DUP3 DUP1 SLOAD DUP3 DUP3 SSTORE SWAP1 PUSH1 0x0 MSTORE PUSH1 0x20 PUSH1 0x0 KECCAK256 SWAP1 DUP2 ADD SWAP3 DUP3 ISZERO PUSH2 0x2C80 JUMPI SWAP2 PUSH1 0x20 MUL DUP3 ADD JUMPDEST DUP3 DUP2 GT ISZERO PUSH2 0x2C80 JUMPI DUP3 MLOAD DUP3 SLOAD PUSH1 0x1 PUSH1 0x1 PUSH1 0xA0 SHL SUB NOT AND PUSH1 0x1 PUSH1 0x1 PUSH1 0xA0 SHL SUB SWAP1 SWAP2 AND OR DUP3 SSTORE PUSH1 0x20 SWAP1 SWAP3 ADD SWAP2 PUSH1 0x1 SWAP1 SWAP2 ADD SWAP1 PUSH2 0x2C4B JUMP JUMPDEST POP PUSH2 0x2C8C SWAP3 SWAP2 POP PUSH2 0x2C90 JUMP JUMPDEST POP SWAP1 JUMP JUMPDEST JUMPDEST DUP1 DUP3 GT ISZERO PUSH2 0x2C8C JUMPI PUSH1 0x0 DUP2 SSTORE PUSH1 0x1 ADD PUSH2 0x2C91 JUMP JUMPDEST PUSH1 0x1 PUSH1 0x1 PUSH1 0xA0 SHL SUB DUP2 AND DUP2 EQ PUSH2 0x8CB JUMPI PUSH1 0x0 DUP1 REVERT JUMPDEST PUSH4 0x4E487B71 PUSH1 0xE0 SHL PUSH1 0x0 MSTORE PUSH1 0x41 PUSH1 0x4 MSTORE PUSH1 0x24 PUSH1 0x0 REVERT JUMPDEST PUSH1 0x40 MLOAD PUSH1 0xA0 DUP2 ADD PUSH8 0xFFFFFFFFFFFFFFFF DUP2 GT DUP3 DUP3 LT OR ISZERO PUSH2 0x2CF3 JUMPI PUSH2 0x2CF3 PUSH2 0x2CBA JUMP JUMPDEST PUSH1 0x40 MSTORE SWAP1 JUMP JUMPDEST PUSH1 0x40 MLOAD PUSH1 0x1F DUP3 ADD PUSH1 0x1F NOT AND DUP2 ADD PUSH8 0xFFFFFFFFFFFFFFFF DUP2 GT DUP3 DUP3 LT OR ISZERO PUSH2 0x2D22 JUMPI PUSH2 0x2D22 PUSH2 0x2CBA JUMP JUMPDEST PUSH1 0x40 MSTORE SWAP2 SWAP1 POP JUMP JUMPDEST PUSH1 0x0 PUSH8 0xFFFFFFFFFFFFFFFF DUP3 GT ISZERO PUSH2 0x2D44 JUMPI PUSH2 0x2D44 PUSH2 0x2CBA JUMP JUMPDEST POP PUSH1 0x5 SHL PUSH1 0x20 ADD SWAP1 JUMP JUMPDEST PUSH1 0x0 DUP3 PUSH1 0x1F DUP4 ADD SLT PUSH2 0x2D5F JUMPI PUSH1 0x0 DUP1 REVERT JUMPDEST DUP2 CALLDATALOAD PUSH1 0x20 PUSH2 0x2D74 PUSH2 0x2D6F DUP4 PUSH2 0x2D2A JUMP JUMPDEST PUSH2 0x2CF9 JUMP JUMPDEST DUP3 DUP2 MSTORE PUSH1 0x5 SWAP3 SWAP1 SWAP3 SHL DUP5 ADD DUP2 ADD SWAP2 DUP2 DUP2 ADD SWAP1 DUP7 DUP5 GT ISZERO PUSH2 0x2D93 JUMPI PUSH1 0x0 DUP1 REVERT JUMPDEST DUP3 DUP7 ADD JUMPDEST DUP5 DUP2 LT ISZERO PUSH2 0x2DB7 JUMPI DUP1 CALLDATALOAD PUSH2 0x2DAA DUP2 PUSH2 0x2CA5 JUMP JUMPDEST DUP4 MSTORE SWAP2 DUP4 ADD SWAP2 DUP4 ADD PUSH2 0x2D97 JUMP JUMPDEST POP SWAP7 SWAP6 POP POP POP POP POP POP JUMP JUMPDEST PUSH1 0x0 DUP1 PUSH1 0x0 DUP1 PUSH1 0x0 PUSH1 0xA0 DUP7 DUP9 SUB SLT ISZERO PUSH2 0x2DDA JUMPI PUSH1 0x0 DUP1 REVERT JUMPDEST DUP6 CALLDATALOAD PUSH2 0x2DE5 DUP2 PUSH2 0x2CA5 JUMP JUMPDEST SWAP5 POP PUSH1 0x20 DUP7 ADD CALLDATALOAD SWAP4 POP PUSH1 0x40 DUP7 ADD CALLDATALOAD PUSH2 0x2DFC DUP2 PUSH2 0x2CA5 JUMP JUMPDEST SWAP3 POP PUSH1 0x60 DUP7 ADD CALLDATALOAD SWAP2 POP PUSH1 0x80 DUP7 ADD CALLDATALOAD PUSH8 0xFFFFFFFFFFFFFFFF DUP2 GT ISZERO PUSH2 0x2E1F JUMPI PUSH1 0x0 DUP1 REVERT JUMPDEST PUSH2 0x2E2B DUP9 DUP3 DUP10 ADD PUSH2 0x2D4E JUMP JUMPDEST SWAP2 POP POP SWAP3 SWAP6 POP SWAP3 SWAP6 SWAP1 SWAP4 POP JUMP JUMPDEST PUSH1 0x0 PUSH1 0x20 DUP1 DUP4 DUP6 SUB SLT ISZERO PUSH2 0x2E4B JUMPI PUSH1 0x0 DUP1 REVERT JUMPDEST DUP3 CALLDATALOAD PUSH8 0xFFFFFFFFFFFFFFFF DUP1 DUP3 GT ISZERO PUSH2 0x2E63 JUMPI PUSH1 0x0 DUP1 REVERT JUMPDEST DUP2 DUP6 ADD SWAP2 POP DUP6 PUSH1 0x1F DUP4 ADD SLT PUSH2 0x2E77 JUMPI PUSH1 0x0 DUP1 REVERT JUMPDEST DUP2 CALLDATALOAD PUSH2 0x2E85 PUSH2 0x2D6F DUP3 PUSH2 0x2D2A JUMP JUMPDEST DUP2 DUP2 MSTORE PUSH1 0x5 SWAP2 SWAP1 SWAP2 SHL DUP4 ADD DUP5 ADD SWAP1 DUP5 DUP2 ADD SWAP1 DUP9 DUP4 GT ISZERO PUSH2 0x2EA4 JUMPI PUSH1 0x0 DUP1 REVERT JUMPDEST DUP6 DUP6 ADD JUMPDEST DUP4 DUP2 LT ISZERO PUSH2 0x2F50 JUMPI DUP1 CALLDATALOAD DUP6 DUP2 GT ISZERO PUSH2 0x2EC0 JUMPI PUSH1 0x0 DUP1 DUP2 REVERT JUMPDEST DUP7 ADD PUSH1 0xA0 DUP2 DUP13 SUB PUSH1 0x1F NOT ADD DUP2 SGT ISZERO PUSH2 0x2ED8 JUMPI PUSH1 0x0 DUP1 DUP2 REVERT JUMPDEST PUSH2 0x2EE0 PUSH2 0x2CD0 JUMP JUMPDEST DUP10 DUP4 ADD CALLDATALOAD PUSH2 0x2EED DUP2 PUSH2 0x2CA5 JUMP JUMPDEST DUP2 MSTORE PUSH1 0x40 DUP4 DUP2 ADD CALLDATALOAD DUP12 DUP4 ADD MSTORE PUSH1 0x60 DUP1 DUP6 ADD CALLDATALOAD PUSH2 0x2F08 DUP2 PUSH2 0x2CA5 JUMP JUMPDEST DUP1 DUP4 DUP6 ADD MSTORE POP PUSH1 0x80 SWAP2 POP DUP2 DUP6 ADD CALLDATALOAD DUP2 DUP5 ADD MSTORE POP DUP3 DUP5 ADD CALLDATALOAD SWAP3 POP DUP9 DUP4 GT ISZERO PUSH2 0x2F2F JUMPI PUSH1 0x0 DUP1 DUP2 REVERT JUMPDEST PUSH2 0x2F3D DUP15 DUP13 DUP6 DUP8 ADD ADD PUSH2 0x2D4E JUMP JUMPDEST SWAP1 DUP3 ADD MSTORE DUP6 MSTORE POP POP SWAP2 DUP7 ADD SWAP2 DUP7 ADD PUSH2 0x2EA8 JUMP JUMPDEST POP SWAP9 SWAP8 POP POP POP POP POP POP POP POP JUMP JUMPDEST PUSH1 0x0 DUP1 PUSH1 0x0 DUP1 PUSH1 0x80 DUP6 DUP8 SUB SLT ISZERO PUSH2 0x2F73 JUMPI PUSH1 0x0 DUP1 REVERT JUMPDEST DUP5 CALLDATALOAD PUSH2 0x2F7E DUP2 PUSH2 0x2CA5 JUMP JUMPDEST SWAP7 PUSH1 0x20 DUP7 ADD CALLDATALOAD SWAP7 POP PUSH1 0x40 DUP7 ADD CALLDATALOAD SWAP6 PUSH1 0x60 ADD CALLDATALOAD SWAP5 POP SWAP3 POP POP POP JUMP JUMPDEST PUSH1 0x0 PUSH1 0x20 DUP3 DUP5 SUB SLT ISZERO PUSH2 0x2FAA JUMPI PUSH1 0x0 DUP1 REVERT JUMPDEST DUP2 CALLDATALOAD PUSH2 0x1A86 DUP2 PUSH2 0x2CA5 JUMP JUMPDEST PUSH1 0x0 DUP1 PUSH1 0x40 DUP4 DUP6 SUB SLT ISZERO PUSH2 0x2FC8 JUMPI PUSH1 0x0 DUP1 REVERT JUMPDEST DUP3 CALLDATALOAD PUSH2 0x2FD3 DUP2 PUSH2 0x2CA5 JUMP JUMPDEST SWAP5 PUSH1 0x20 SWAP4 SWAP1 SWAP4 ADD CALLDATALOAD SWAP4 POP POP POP JUMP JUMPDEST PUSH1 0x0 DUP1 PUSH1 0x40 DUP4 DUP6 SUB SLT ISZERO PUSH2 0x2FF4 JUMPI PUSH1 0x0 DUP1 REVERT JUMPDEST DUP3 CALLDATALOAD PUSH1 0x3 DUP2 LT PUSH2 0x3003 JUMPI PUSH1 0x0 DUP1 REVERT JUMPDEST SWAP2 POP PUSH1 0x20 DUP4 ADD CALLDATALOAD PUSH2 0x3013 DUP2 PUSH2 0x2CA5 JUMP JUMPDEST DUP1 SWAP2 POP POP SWAP3 POP SWAP3 SWAP1 POP JUMP JUMPDEST PUSH4 0x4E487B71 PUSH1 0xE0 SHL PUSH1 0x0 MSTORE PUSH1 0x21 PUSH1 0x4 MSTORE PUSH1 0x24 PUSH1 0x0 REVERT JUMPDEST DUP2 MLOAD PUSH1 0x40 DUP3 ADD SWAP1 PUSH1 0x3 DUP2 LT PUSH2 0x304B JUMPI PUSH2 0x304B PUSH2 0x301E JUMP JUMPDEST DUP3 MSTORE PUSH1 0x20 SWAP3 DUP4 ADD MLOAD PUSH1 0x1 PUSH1 0x1 PUSH1 0xA0 SHL SUB AND SWAP3 SWAP1 SWAP2 ADD SWAP2 SWAP1 SWAP2 MSTORE SWAP1 JUMP JUMPDEST PUSH1 0x0 PUSH1 0x20 DUP3 DUP5 SUB SLT ISZERO PUSH2 0x3079 JUMPI PUSH1 0x0 DUP1 REVERT JUMPDEST POP CALLDATALOAD SWAP2 SWAP1 POP JUMP JUMPDEST PUSH1 0x4 DUP2 LT PUSH2 0x3090 JUMPI PUSH2 0x3090 PUSH2 0x301E JUMP JUMPDEST SWAP1 MSTORE JUMP JUMPDEST PUSH1 0x0 DUP2 MLOAD DUP1 DUP5 MSTORE PUSH1 0x20 DUP1 DUP6 ADD SWAP5 POP DUP1 DUP5 ADD PUSH1 0x0 JUMPDEST DUP4 DUP2 LT ISZERO PUSH2 0x30CD JUMPI DUP2 MLOAD PUSH1 0x1 PUSH1 0x1 PUSH1 0xA0 SHL SUB AND DUP8 MSTORE SWAP6 DUP3 ADD SWAP6 SWAP1 DUP3 ADD SWAP1 PUSH1 0x1 ADD PUSH2 0x30A8 JUMP JUMPDEST POP SWAP5 SWAP6 SWAP5 POP POP POP POP POP JUMP JUMPDEST PUSH1 0x20 DUP2 MSTORE DUP2 MLOAD PUSH1 0x20 DUP3 ADD MSTORE PUSH1 0x0 PUSH1 0x20 DUP4 ADD MLOAD PUSH2 0x30FF PUSH1 0x40 DUP5 ADD DUP3 PUSH1 0x1 PUSH1 0x1 PUSH1 0xA0 SHL SUB AND SWAP1 MSTORE JUMP JUMPDEST POP PUSH1 0x40 DUP4 ADD MLOAD PUSH1 0x60 DUP4 ADD MSTORE PUSH1 0x60 DUP4 ADD MLOAD PUSH2 0x3124 PUSH1 0x80 DUP5 ADD DUP3 PUSH1 0x1 PUSH1 0x1 PUSH1 0xA0 SHL SUB AND SWAP1 MSTORE JUMP JUMPDEST POP PUSH1 0x80 DUP4 ADD MLOAD PUSH1 0x1 PUSH1 0x1 PUSH1 0xA0 SHL SUB DUP2 AND PUSH1 0xA0 DUP5 ADD MSTORE POP PUSH1 0xA0 DUP4 ADD MLOAD PUSH1 0x1 PUSH1 0x1 PUSH1 0xA0 SHL SUB DUP2 AND PUSH1 0xC0 DUP5 ADD MSTORE POP PUSH1 0xC0 DUP4 ADD MLOAD PUSH1 0xE0 DUP4 ADD MSTORE PUSH1 0xE0 DUP4 ADD MLOAD PUSH2 0x100 PUSH2 0x316D DUP2 DUP6 ADD DUP4 PUSH2 0x3080 JUMP JUMPDEST DUP5 ADD MLOAD PUSH2 0x120 DUP5 DUP2 ADD SWAP2 SWAP1 SWAP2 MSTORE DUP5 ADD MLOAD PUSH2 0x140 DUP1 DUP6 ADD SWAP2 SWAP1 SWAP2 MSTORE DUP5 ADD MLOAD PUSH2 0x160 DUP1 DUP6 ADD SWAP2 SWAP1 SWAP2 MSTORE DUP5 ADD MLOAD PUSH2 0x180 DUP1 DUP6 ADD MSTORE SWAP1 POP PUSH2 0x2A58 PUSH2 0x1A0 DUP5 ADD DUP3 PUSH2 0x3094 JUMP JUMPDEST PUSH1 0x0 DUP1 PUSH1 0x40 DUP4 DUP6 SUB SLT ISZERO PUSH2 0x31C1 JUMPI PUSH1 0x0 DUP1 REVERT JUMPDEST DUP3 CALLDATALOAD SWAP2 POP PUSH1 0x20 DUP4 ADD CALLDATALOAD PUSH2 0x3013 DUP2 PUSH2 0x2CA5 JUMP JUMPDEST PUSH1 0x0 DUP1 PUSH1 0x0 PUSH1 0x60 DUP5 DUP7 SUB SLT ISZERO PUSH2 0x31E8 JUMPI PUSH1 0x0 DUP1 REVERT JUMPDEST DUP4 CALLDATALOAD PUSH2 0x31F3 DUP2 PUSH2 0x2CA5 JUMP JUMPDEST SWAP3 POP PUSH1 0x20 DUP5 ADD CALLDATALOAD PUSH2 0x3203 DUP2 PUSH2 0x2CA5 JUMP JUMPDEST SWAP3 SWAP6 SWAP3 SWAP5 POP POP POP PUSH1 0x40 SWAP2 SWAP1 SWAP2 ADD CALLDATALOAD SWAP1 JUMP JUMPDEST PUSH1 0x0 DUP1 PUSH1 0x40 DUP4 DUP6 SUB SLT ISZERO PUSH2 0x3227 JUMPI PUSH1 0x0 DUP1 REVERT JUMPDEST POP POP DUP1 CALLDATALOAD SWAP3 PUSH1 0x20 SWAP1 SWAP2 ADD CALLDATALOAD SWAP2 POP JUMP JUMPDEST PUSH1 0x20 DUP1 DUP3 MSTORE PUSH1 0x27 SWAP1 DUP3 ADD MSTORE PUSH32 0x5072696365206D75737420626520706F73697469766520286174206C65617374 PUSH1 0x40 DUP3 ADD MSTORE PUSH7 0x20312077656929 PUSH1 0xC8 SHL PUSH1 0x60 DUP3 ADD MSTORE PUSH1 0x80 ADD SWAP1 JUMP JUMPDEST PUSH1 0x20 DUP1 DUP3 MSTORE PUSH1 0x2A SWAP1 DUP3 ADD MSTORE PUSH32 0x5468617420746F6B656E20697320616C726561647920706C61636564206F6E20 PUSH1 0x40 DUP3 ADD MSTORE PUSH10 0x1D1A19481B585C9AD95D PUSH1 0xB2 SHL PUSH1 0x60 DUP3 ADD MSTORE PUSH1 0x80 ADD SWAP1 JUMP JUMPDEST PUSH1 0x20 DUP1 DUP3 MSTORE PUSH1 0x35 SWAP1 DUP3 ADD MSTORE PUSH32 0x4F6E6C79206F776E6572206F6620746865204E46542063616E20706C61636520 PUSH1 0x40 DUP3 ADD MSTORE PUSH21 0x697420746F20746865204D61726B6574706C616365 PUSH1 0x58 SHL PUSH1 0x60 DUP3 ADD MSTORE PUSH1 0x80 ADD SWAP1 JUMP JUMPDEST PUSH1 0x20 DUP1 DUP3 MSTORE PUSH1 0x29 SWAP1 DUP3 ADD MSTORE PUSH32 0x4E46542073686F756C6420626520617070726F76656420746F20746865204D61 PUSH1 0x40 DUP3 ADD MSTORE PUSH9 0x726B6574706C616365 PUSH1 0xB8 SHL PUSH1 0x60 DUP3 ADD MSTORE PUSH1 0x80 ADD SWAP1 JUMP JUMPDEST PUSH1 0x20 DUP1 DUP3 MSTORE PUSH1 0x2E SWAP1 DUP3 ADD MSTORE PUSH32 0x4E4654206973206E6F742076616C696420746F20626520736F6C64206F6E2074 PUSH1 0x40 DUP3 ADD MSTORE PUSH14 0x6865204D61726B6574706C616365 PUSH1 0x90 SHL PUSH1 0x60 DUP3 ADD MSTORE PUSH1 0x80 ADD SWAP1 JUMP JUMPDEST PUSH4 0x4E487B71 PUSH1 0xE0 SHL PUSH1 0x0 MSTORE PUSH1 0x11 PUSH1 0x4 MSTORE PUSH1 0x24 PUSH1 0x0 REVERT JUMPDEST PUSH1 0x0 DUP2 PUSH1 0x0 NOT DIV DUP4 GT DUP3 ISZERO ISZERO AND ISZERO PUSH2 0x33E3 JUMPI PUSH2 0x33E3 PUSH2 0x33B3 JUMP JUMPDEST POP MUL SWAP1 JUMP JUMPDEST PUSH4 0x4E487B71 PUSH1 0xE0 SHL PUSH1 0x0 MSTORE PUSH1 0x32 PUSH1 0x4 MSTORE PUSH1 0x24 PUSH1 0x0 REVERT JUMPDEST PUSH1 0x0 PUSH1 0x1 DUP3 ADD PUSH2 0x3410 JUMPI PUSH2 0x3410 PUSH2 0x33B3 JUMP JUMPDEST POP PUSH1 0x1 ADD SWAP1 JUMP JUMPDEST PUSH1 0x0 DUP3 DUP3 LT ISZERO PUSH2 0x3429 JUMPI PUSH2 0x3429 PUSH2 0x33B3 JUMP JUMPDEST POP SUB SWAP1 JUMP JUMPDEST PUSH1 0x20 DUP1 DUP3 MSTORE PUSH1 0x17 SWAP1 DUP3 ADD MSTORE PUSH32 0x496E76616C6964204D61726B6574204974656D20494421000000000000000000 PUSH1 0x40 DUP3 ADD MSTORE PUSH1 0x60 ADD SWAP1 JUMP JUMPDEST PUSH1 0x20 DUP1 DUP3 MSTORE PUSH1 0x19 SWAP1 DUP3 ADD MSTORE PUSH32 0x4D61726B6574204974656D206973206E6F742041637469766500000000000000 PUSH1 0x40 DUP3 ADD MSTORE PUSH1 0x60 ADD SWAP1 JUMP JUMPDEST PUSH1 0x20 DUP1 DUP3 MSTORE PUSH1 0x1F SWAP1 DUP3 ADD MSTORE PUSH32 0x5265656E7472616E637947756172643A207265656E7472616E742063616C6C00 PUSH1 0x40 DUP3 ADD MSTORE PUSH1 0x60 ADD SWAP1 JUMP JUMPDEST PUSH1 0x0 PUSH1 0x20 DUP3 DUP5 SUB SLT ISZERO PUSH2 0x34E5 JUMPI PUSH1 0x0 DUP1 REVERT JUMPDEST POP MLOAD SWAP2 SWAP1 POP JUMP JUMPDEST PUSH1 0x0 PUSH1 0x20 DUP3 DUP5 SUB SLT ISZERO PUSH2 0x34FE JUMPI PUSH1 0x0 DUP1 REVERT JUMPDEST DUP2 MLOAD DUP1 ISZERO ISZERO DUP2 EQ PUSH2 0x1A86 JUMPI PUSH1 0x0 DUP1 REVERT JUMPDEST PUSH1 0x0 PUSH1 0x20 DUP3 DUP5 SUB SLT ISZERO PUSH2 0x3520 JUMPI PUSH1 0x0 DUP1 REVERT JUMPDEST DUP2 MLOAD PUSH2 0x1A86 DUP2 PUSH2 0x2CA5 JUMP JUMPDEST PUSH1 0x0 JUMPDEST DUP4 DUP2 LT ISZERO PUSH2 0x3546 JUMPI DUP2 DUP2 ADD MLOAD DUP4 DUP3 ADD MSTORE PUSH1 0x20 ADD PUSH2 0x352E JUMP JUMPDEST DUP4 DUP2 GT ISZERO PUSH2 0x80F JUMPI POP POP PUSH1 0x0 SWAP2 ADD MSTORE JUMP JUMPDEST PUSH1 0x20 DUP2 MSTORE PUSH1 0x0 DUP3 MLOAD DUP1 PUSH1 0x20 DUP5 ADD MSTORE PUSH2 0x3576 DUP2 PUSH1 0x40 DUP6 ADD PUSH1 0x20 DUP8 ADD PUSH2 0x352B JUMP JUMPDEST PUSH1 0x1F ADD PUSH1 0x1F NOT AND SWAP2 SWAP1 SWAP2 ADD PUSH1 0x40 ADD SWAP3 SWAP2 POP POP JUMP JUMPDEST PUSH1 0x0 DUP3 NOT DUP3 GT ISZERO PUSH2 0x359D JUMPI PUSH2 0x359D PUSH2 0x33B3 JUMP JUMPDEST POP ADD SWAP1 JUMP JUMPDEST PUSH4 0x4E487B71 PUSH1 0xE0 SHL PUSH1 0x0 MSTORE PUSH1 0x31 PUSH1 0x4 MSTORE PUSH1 0x24 PUSH1 0x0 REVERT JUMPDEST PUSH1 0x20 DUP2 ADD PUSH2 0x8F3 DUP3 DUP5 PUSH2 0x3080 JUMP JUMPDEST PUSH1 0x0 DUP3 PUSH2 0x35E3 JUMPI PUSH4 0x4E487B71 PUSH1 0xE0 SHL PUSH1 0x0 MSTORE PUSH1 0x12 PUSH1 0x4 MSTORE PUSH1 0x24 PUSH1 0x0 REVERT JUMPDEST POP DIV SWAP1 JUMP JUMPDEST PUSH1 0x0 DUP3 MLOAD PUSH2 0x35FA DUP2 DUP5 PUSH1 0x20 DUP8 ADD PUSH2 0x352B JUMP JUMPDEST SWAP2 SWAP1 SWAP2 ADD SWAP3 SWAP2 POP POP JUMP INVALID 0x4C PUSH10 0x7374696E672050726963 PUSH6 0x2073686F756C PUSH5 0x2062652073 PUSH6 0x6E7420746F20 PUSH17 0x6C616365204E4654206F6E20746865204D PUSH2 0x726B PUSH6 0x74706C616365 NUMBER PUSH2 0x6E63 PUSH6 0x6C2050726963 PUSH6 0x2073686F756C PUSH5 0x2062652073 PUSH6 0x6E7420746F20 PUSH4 0x616E6365 PUSH13 0x204E465420706C6163656D656E PUSH21 0x206F6E20746865204D61726B6574706C616365A264 PUSH10 0x70667358221220CF8450 DELEGATECALL SELFBALANCE TIMESTAMP 0xD4 SLT 0xC8 REVERT 0xBE SELFBALANCE 0xB6 JUMP 0xBF DUP5 SGT 0x5E 0xB4 DIV PUSH25 0xFC2CF6D6BD3C08100C478464736F6C634300080F0033000000 "
				},
				"gasEstimates": {
					"creation": {
						"codeDepositCost": "2802400",
						"executionCost": "infinite",
						"totalCost": "infinite"
					},
					"external": {
						"_maxItemsForSale()": "2417",
						"cancelMarketItem(uint256)": "infinite",
						"changeBeneficiary(uint8,address)": "51208",
						"deleteMarketItem(uint256)": "infinite",
						"findActiveMarketItem(address,uint256)": "2748",
						"getActiveMarketItem(uint256)": "infinite",
						"getActiveMarketItemsCount()": "2414",
						"getAllMarketItemsCount()": "2342",
						"getBeneficiary()": "4802",
						"getCustomRate(address)": "11583",
						"getMarketItem(uint256)": "infinite",
						"getRate()": "11543",
						"makeMarketSale(uint256,uint256)": "infinite",
						"owner()": "2368",
						"placeMarketItem(address,uint256,address,uint256,address[])": "infinite",
						"placeMarketItems((address,uint256,address,uint256,address[])[])": "infinite",
						"removeCustomRate(address)": "infinite",
						"renounceOwnership()": "infinite",
						"safeApproveERC20(address,address,uint256)": "infinite",
						"sendFunds(uint256,address)": "infinite",
						"setCustomRate(address,uint256,uint256,uint256)": "93377",
						"setMaxItemsForSale(uint256)": "24511",
						"transferOwnership(address)": "infinite"
					},
					"internal": {
						"_chargePrice(uint256,address)": "infinite",
						"_checkTokenValidity(address,address,uint256)": "infinite",
						"_createMarketItem(address,struct ScotchMarketplace.MarketItemInput memory)": "infinite",
						"_getCustomRate(address)": "infinite",
						"_getValidRate(address)": "infinite",
						"_removeMarketItem(uint256,enum ScotchMarketplace.MarketItemStatus)": "infinite"
					}
				},
				"methodIdentifiers": {
					"_maxItemsForSale()": "abb8334b",
					"cancelMarketItem(uint256)": "a6e22b02",
					"changeBeneficiary(uint8,address)": "43c06213",
					"deleteMarketItem(uint256)": "a9c07145",
					"findActiveMarketItem(address,uint256)": "347149fc",
					"getActiveMarketItem(uint256)": "5d3e8b08",
					"getActiveMarketItemsCount()": "68220e87",
					"getAllMarketItemsCount()": "4229eef2",
					"getBeneficiary()": "565a2e2c",
					"getCustomRate(address)": "b2dcecbe",
					"getMarketItem(uint256)": "c7be7a49",
					"getRate()": "679aefce",
					"makeMarketSale(uint256,uint256)": "f33c80ee",
					"owner()": "8da5cb5b",
					"placeMarketItem(address,uint256,address,uint256,address[])": "17de0135",
					"placeMarketItems((address,uint256,address,uint256,address[])[])": "18d3a1be",
					"removeCustomRate(address)": "27cdb4b3",
					"renounceOwnership()": "715018a6",
					"safeApproveERC20(address,address,uint256)": "c5e553eb",
					"sendFunds(uint256,address)": "b2686774",
					"setCustomRate(address,uint256,uint256,uint256)": "18eb81ed",
					"setMaxItemsForSale(uint256)": "6e2d5a13",
					"transferOwnership(address)": "f2fde38b"
				}
			},
			"storageLayout": {
				"storage": [
					{
						"astId": 7,
						"contract": "contracts/scMarketplace.sol:ScotchMarketplace",
						"label": "_owner",
						"offset": 0,
						"slot": "0",
						"type": "t_address"
					},
					{
						"astId": 1098,
						"contract": "contracts/scMarketplace.sol:ScotchMarketplace",
						"label": "_beneficiary",
						"offset": 0,
						"slot": "1",
						"type": "t_struct(Beneficiary)1095_storage"
					},
					{
						"astId": 123,
						"contract": "contracts/scMarketplace.sol:ScotchMarketplace",
						"label": "_status",
						"offset": 0,
						"slot": "2",
						"type": "t_uint256"
					},
					{
						"astId": 1424,
						"contract": "contracts/scMarketplace.sol:ScotchMarketplace",
						"label": "_itemIds",
						"offset": 0,
						"slot": "3",
						"type": "t_struct(Counter)986_storage"
					},
					{
						"astId": 1429,
						"contract": "contracts/scMarketplace.sol:ScotchMarketplace",
						"label": "_items",
						"offset": 0,
						"slot": "4",
						"type": "t_mapping(t_uint256,t_struct(MarketItem)1390_storage)"
					},
					{
						"astId": 1432,
						"contract": "contracts/scMarketplace.sol:ScotchMarketplace",
						"label": "_activeItems",
						"offset": 0,
						"slot": "5",
						"type": "t_array(t_uint256)dyn_storage"
					},
					{
						"astId": 1438,
						"contract": "contracts/scMarketplace.sol:ScotchMarketplace",
						"label": "_activeTokens",
						"offset": 0,
						"slot": "6",
						"type": "t_mapping(t_address,t_mapping(t_uint256,t_uint256))"
					},
					{
						"astId": 1443,
						"contract": "contracts/scMarketplace.sol:ScotchMarketplace",
						"label": "_rates",
						"offset": 0,
						"slot": "7",
						"type": "t_mapping(t_address,t_struct(MarketRate)1363_storage)"
					},
					{
						"astId": 1449,
						"contract": "contracts/scMarketplace.sol:ScotchMarketplace",
						"label": "_allowedToBuy",
						"offset": 0,
						"slot": "8",
						"type": "t_mapping(t_uint256,t_mapping(t_address,t_bool))"
					},
					{
						"astId": 1451,
						"contract": "contracts/scMarketplace.sol:ScotchMarketplace",
						"label": "_maxItemsForSale",
						"offset": 0,
						"slot": "9",
						"type": "t_uint256"
					}
				],
				"types": {
					"t_address": {
						"encoding": "inplace",
						"label": "address",
						"numberOfBytes": "20"
					},
					"t_address_payable": {
						"encoding": "inplace",
						"label": "address payable",
						"numberOfBytes": "20"
					},
					"t_array(t_address)dyn_storage": {
						"base": "t_address",
						"encoding": "dynamic_array",
						"label": "address[]",
						"numberOfBytes": "32"
					},
					"t_array(t_uint256)dyn_storage": {
						"base": "t_uint256",
						"encoding": "dynamic_array",
						"label": "uint256[]",
						"numberOfBytes": "32"
					},
					"t_bool": {
						"encoding": "inplace",
						"label": "bool",
						"numberOfBytes": "1"
					},
					"t_enum(BeneficiaryMode)1089": {
						"encoding": "inplace",
						"label": "enum ScotchBeneficiary.BeneficiaryMode",
						"numberOfBytes": "1"
					},
					"t_enum(MarketItemStatus)1342": {
						"encoding": "inplace",
						"label": "enum ScotchMarketplace.MarketItemStatus",
						"numberOfBytes": "1"
					},
					"t_mapping(t_address,t_bool)": {
						"encoding": "mapping",
						"key": "t_address",
						"label": "mapping(address => bool)",
						"numberOfBytes": "32",
						"value": "t_bool"
					},
					"t_mapping(t_address,t_mapping(t_uint256,t_uint256))": {
						"encoding": "mapping",
						"key": "t_address",
						"label": "mapping(address => mapping(uint256 => uint256))",
						"numberOfBytes": "32",
						"value": "t_mapping(t_uint256,t_uint256)"
					},
					"t_mapping(t_address,t_struct(MarketRate)1363_storage)": {
						"encoding": "mapping",
						"key": "t_address",
						"label": "mapping(address => struct ScotchMarketplace.MarketRate)",
						"numberOfBytes": "32",
						"value": "t_struct(MarketRate)1363_storage"
					},
					"t_mapping(t_uint256,t_mapping(t_address,t_bool))": {
						"encoding": "mapping",
						"key": "t_uint256",
						"label": "mapping(uint256 => mapping(address => bool))",
						"numberOfBytes": "32",
						"value": "t_mapping(t_address,t_bool)"
					},
					"t_mapping(t_uint256,t_struct(MarketItem)1390_storage)": {
						"encoding": "mapping",
						"key": "t_uint256",
						"label": "mapping(uint256 => struct ScotchMarketplace.MarketItem)",
						"numberOfBytes": "32",
						"value": "t_struct(MarketItem)1390_storage"
					},
					"t_mapping(t_uint256,t_uint256)": {
						"encoding": "mapping",
						"key": "t_uint256",
						"label": "mapping(uint256 => uint256)",
						"numberOfBytes": "32",
						"value": "t_uint256"
					},
					"t_struct(Beneficiary)1095_storage": {
						"encoding": "inplace",
						"label": "struct ScotchBeneficiary.Beneficiary",
						"members": [
							{
								"astId": 1092,
								"contract": "contracts/scMarketplace.sol:ScotchMarketplace",
								"label": "mode",
								"offset": 0,
								"slot": "0",
								"type": "t_enum(BeneficiaryMode)1089"
							},
							{
								"astId": 1094,
								"contract": "contracts/scMarketplace.sol:ScotchMarketplace",
								"label": "recipient",
								"offset": 1,
								"slot": "0",
								"type": "t_address_payable"
							}
						],
						"numberOfBytes": "32"
					},
					"t_struct(Counter)986_storage": {
						"encoding": "inplace",
						"label": "struct Counters.Counter",
						"members": [
							{
								"astId": 985,
								"contract": "contracts/scMarketplace.sol:ScotchMarketplace",
								"label": "_value",
								"offset": 0,
								"slot": "0",
								"type": "t_uint256"
							}
						],
						"numberOfBytes": "32"
					},
					"t_struct(MarketItem)1390_storage": {
						"encoding": "inplace",
						"label": "struct ScotchMarketplace.MarketItem",
						"members": [
							{
								"astId": 1365,
								"contract": "contracts/scMarketplace.sol:ScotchMarketplace",
								"label": "itemId",
								"offset": 0,
								"slot": "0",
								"type": "t_uint256"
							},
							{
								"astId": 1367,
								"contract": "contracts/scMarketplace.sol:ScotchMarketplace",
								"label": "tokenContract",
								"offset": 0,
								"slot": "1",
								"type": "t_address"
							},
							{
								"astId": 1369,
								"contract": "contracts/scMarketplace.sol:ScotchMarketplace",
								"label": "tokenId",
								"offset": 0,
								"slot": "2",
								"type": "t_uint256"
							},
							{
								"astId": 1371,
								"contract": "contracts/scMarketplace.sol:ScotchMarketplace",
								"label": "seller",
								"offset": 0,
								"slot": "3",
								"type": "t_address_payable"
							},
							{
								"astId": 1373,
								"contract": "contracts/scMarketplace.sol:ScotchMarketplace",
								"label": "buyer",
								"offset": 0,
								"slot": "4",
								"type": "t_address_payable"
							},
							{
								"astId": 1375,
								"contract": "contracts/scMarketplace.sol:ScotchMarketplace",
								"label": "priceContract",
								"offset": 0,
								"slot": "5",
								"type": "t_address"
							},
							{
								"astId": 1377,
								"contract": "contracts/scMarketplace.sol:ScotchMarketplace",
								"label": "price",
								"offset": 0,
								"slot": "6",
								"type": "t_uint256"
							},
							{
								"astId": 1380,
								"contract": "contracts/scMarketplace.sol:ScotchMarketplace",
								"label": "status",
								"offset": 0,
								"slot": "7",
								"type": "t_enum(MarketItemStatus)1342"
							},
							{
								"astId": 1382,
								"contract": "contracts/scMarketplace.sol:ScotchMarketplace",
								"label": "fee",
								"offset": 0,
								"slot": "8",
								"type": "t_uint256"
							},
							{
								"astId": 1384,
								"contract": "contracts/scMarketplace.sol:ScotchMarketplace",
								"label": "position",
								"offset": 0,
								"slot": "9",
								"type": "t_uint256"
							},
							{
								"astId": 1386,
								"contract": "contracts/scMarketplace.sol:ScotchMarketplace",
								"label": "partnerId",
								"offset": 0,
								"slot": "10",
								"type": "t_uint256"
							},
							{
								"astId": 1389,
								"contract": "contracts/scMarketplace.sol:ScotchMarketplace",
								"label": "whiteList",
								"offset": 0,
								"slot": "11",
								"type": "t_array(t_address)dyn_storage"
							}
						],
						"numberOfBytes": "384"
					},
					"t_struct(MarketRate)1363_storage": {
						"encoding": "inplace",
						"label": "struct ScotchMarketplace.MarketRate",
						"members": [
							{
								"astId": 1356,
								"contract": "contracts/scMarketplace.sol:ScotchMarketplace",
								"label": "isActive",
								"offset": 0,
								"slot": "0",
								"type": "t_bool"
							},
							{
								"astId": 1358,
								"contract": "contracts/scMarketplace.sol:ScotchMarketplace",
								"label": "listingPrice",
								"offset": 0,
								"slot": "1",
								"type": "t_uint256"
							},
							{
								"astId": 1360,
								"contract": "contracts/scMarketplace.sol:ScotchMarketplace",
								"label": "cancelPrice",
								"offset": 0,
								"slot": "2",
								"type": "t_uint256"
							},
							{
								"astId": 1362,
								"contract": "contracts/scMarketplace.sol:ScotchMarketplace",
								"label": "feePercent",
								"offset": 0,
								"slot": "3",
								"type": "t_uint256"
							}
						],
						"numberOfBytes": "128"
					},
					"t_uint256": {
						"encoding": "inplace",
						"label": "uint256",
						"numberOfBytes": "32"
					}
				}
			},
			"userdoc": {
				"kind": "user",
				"methods": {},
				"version": 1
			}
		}
	}
}