{
	"contracts/scPartners.sol": {
		"ScotchPartners": {
			"abi": [
				{
					"inputs": [],
					"stateMutability": "nonpayable",
					"type": "constructor"
				},
				{
					"anonymous": false,
					"inputs": [
						{
							"indexed": true,
							"internalType": "address",
							"name": "previousOwner",
							"type": "address"
						},
						{
							"indexed": true,
							"internalType": "address",
							"name": "newOwner",
							"type": "address"
						}
					],
					"name": "OwnershipTransferred",
					"type": "event"
				},
				{
					"inputs": [
						{
							"internalType": "string",
							"name": "name",
							"type": "string"
						},
						{
							"internalType": "address payable",
							"name": "recipient",
							"type": "address"
						},
						{
							"internalType": "uint256",
							"name": "cashbackRate",
							"type": "uint256"
						}
					],
					"name": "addPartner",
					"outputs": [
						{
							"internalType": "uint256",
							"name": "",
							"type": "uint256"
						}
					],
					"stateMutability": "nonpayable",
					"type": "function"
				},
				{
					"inputs": [
						{
							"internalType": "uint256",
							"name": "id",
							"type": "uint256"
						},
						{
							"internalType": "uint256",
							"name": "cashbackRate",
							"type": "uint256"
						}
					],
					"name": "changePartnerRate",
					"outputs": [],
					"stateMutability": "nonpayable",
					"type": "function"
				},
				{
					"inputs": [
						{
							"internalType": "uint256",
							"name": "id",
							"type": "uint256"
						},
						{
							"internalType": "address payable",
							"name": "recipient",
							"type": "address"
						}
					],
					"name": "changePartnerRecipient",
					"outputs": [],
					"stateMutability": "nonpayable",
					"type": "function"
				},
				{
					"inputs": [
						{
							"internalType": "string",
							"name": "name",
							"type": "string"
						}
					],
					"name": "getPartner",
					"outputs": [
						{
							"components": [
								{
									"internalType": "uint256",
									"name": "id",
									"type": "uint256"
								},
								{
									"internalType": "string",
									"name": "name",
									"type": "string"
								},
								{
									"internalType": "address payable",
									"name": "recipient",
									"type": "address"
								},
								{
									"internalType": "uint256",
									"name": "cashbackRate",
									"type": "uint256"
								}
							],
							"internalType": "struct ScotchPartners.Partner",
							"name": "",
							"type": "tuple"
						}
					],
					"stateMutability": "view",
					"type": "function"
				},
				{
					"inputs": [
						{
							"internalType": "uint256",
							"name": "id",
							"type": "uint256"
						}
					],
					"name": "getPartner",
					"outputs": [
						{
							"components": [
								{
									"internalType": "uint256",
									"name": "id",
									"type": "uint256"
								},
								{
									"internalType": "string",
									"name": "name",
									"type": "string"
								},
								{
									"internalType": "address payable",
									"name": "recipient",
									"type": "address"
								},
								{
									"internalType": "uint256",
									"name": "cashbackRate",
									"type": "uint256"
								}
							],
							"internalType": "struct ScotchPartners.Partner",
							"name": "",
							"type": "tuple"
						}
					],
					"stateMutability": "view",
					"type": "function"
				},
				{
					"inputs": [],
					"name": "owner",
					"outputs": [
						{
							"internalType": "address",
							"name": "",
							"type": "address"
						}
					],
					"stateMutability": "view",
					"type": "function"
				},
				{
					"inputs": [],
					"name": "renounceOwnership",
					"outputs": [],
					"stateMutability": "nonpayable",
					"type": "function"
				},
				{
					"inputs": [
						{
							"internalType": "address",
							"name": "newOwner",
							"type": "address"
						}
					],
					"name": "transferOwnership",
					"outputs": [],
					"stateMutability": "nonpayable",
					"type": "function"
				}
			],
			"devdoc": {
				"kind": "dev",
				"methods": {
					"owner()": {
						"details": "Returns the address of the current owner."
					},
					"renounceOwnership()": {
						"details": "Leaves the contract without owner. It will not be possible to call `onlyOwner` functions anymore. Can only be called by the current owner. NOTE: Renouncing ownership will leave the contract without an owner, thereby removing any functionality that is only available to the owner."
					},
					"transferOwnership(address)": {
						"details": "Transfers ownership of the contract to a new account (`newOwner`). Can only be called by the current owner."
					}
				},
				"version": 1
			},
			"evm": {
				"assembly": "    /* \"contracts/scPartners.sol\":170:2173  contract ScotchPartners is Ownable  {\r... */\n  mstore(0x40, 0x80)\n    /* \"contracts/scPartners.sol\":511:527  constructor() {} */\n  callvalue\n  dup1\n  iszero\n  tag_1\n  jumpi\n  0x00\n  dup1\n  revert\ntag_1:\n  pop\n    /* \"@openzeppelin/contracts/access/Ownable.sol\":921:953  _transferOwnership(_msgSender()) */\n  tag_5\n    /* \"@openzeppelin/contracts/access/Ownable.sol\":940:952  _msgSender() */\n  tag_6\n    /* \"@openzeppelin/contracts/access/Ownable.sol\":940:950  _msgSender */\n  shl(0x20, tag_7)\n    /* \"@openzeppelin/contracts/access/Ownable.sol\":940:952  _msgSender() */\n  0x20\n  shr\n  jump\t// in\ntag_6:\n    /* \"@openzeppelin/contracts/access/Ownable.sol\":921:939  _transferOwnership */\n  shl(0x20, tag_8)\n    /* \"@openzeppelin/contracts/access/Ownable.sol\":921:953  _transferOwnership(_msgSender()) */\n  0x20\n  shr\n  jump\t// in\ntag_5:\n    /* \"contracts/scPartners.sol\":170:2173  contract ScotchPartners is Ownable  {\r... */\n  jump(tag_10)\n    /* \"@openzeppelin/contracts/utils/Context.sol\":640:736  function _msgSender() internal view virtual returns (address) {... */\ntag_7:\n    /* \"@openzeppelin/contracts/utils/Context.sol\":693:700  address */\n  0x00\n    /* \"@openzeppelin/contracts/utils/Context.sol\":719:729  msg.sender */\n  caller\n    /* \"@openzeppelin/contracts/utils/Context.sol\":712:729  return msg.sender */\n  swap1\n  pop\n    /* \"@openzeppelin/contracts/utils/Context.sol\":640:736  function _msgSender() internal view virtual returns (address) {... */\n  swap1\n  jump\t// out\n    /* \"@openzeppelin/contracts/access/Ownable.sol\":2270:2457  function _transferOwnership(address newOwner) internal virtual {... */\ntag_8:\n    /* \"@openzeppelin/contracts/access/Ownable.sol\":2343:2359  address oldOwner */\n  0x00\n    /* \"@openzeppelin/contracts/access/Ownable.sol\":2362:2368  _owner */\n  dup1\n  0x00\n  swap1\n  sload\n  swap1\n  0x0100\n  exp\n  swap1\n  div\n  0xffffffffffffffffffffffffffffffffffffffff\n  and\n    /* \"@openzeppelin/contracts/access/Ownable.sol\":2343:2368  address oldOwner = _owner */\n  swap1\n  pop\n    /* \"@openzeppelin/contracts/access/Ownable.sol\":2387:2395  newOwner */\n  dup2\n    /* \"@openzeppelin/contracts/access/Ownable.sol\":2378:2384  _owner */\n  0x00\n  dup1\n    /* \"@openzeppelin/contracts/access/Ownable.sol\":2378:2395  _owner = newOwner */\n  0x0100\n  exp\n  dup2\n  sload\n  dup2\n  0xffffffffffffffffffffffffffffffffffffffff\n  mul\n  not\n  and\n  swap1\n  dup4\n  0xffffffffffffffffffffffffffffffffffffffff\n  and\n  mul\n  or\n  swap1\n  sstore\n  pop\n    /* \"@openzeppelin/contracts/access/Ownable.sol\":2441:2449  newOwner */\n  dup2\n    /* \"@openzeppelin/contracts/access/Ownable.sol\":2410:2450  OwnershipTransferred(oldOwner, newOwner) */\n  0xffffffffffffffffffffffffffffffffffffffff\n  and\n    /* \"@openzeppelin/contracts/access/Ownable.sol\":2431:2439  oldOwner */\n  dup2\n    /* \"@openzeppelin/contracts/access/Ownable.sol\":2410:2450  OwnershipTransferred(oldOwner, newOwner) */\n  0xffffffffffffffffffffffffffffffffffffffff\n  and\n  0x8be0079c531659141344cd1fd0a4f28419497f9722a3daafe3b4186f6b6457e0\n  mload(0x40)\n  mload(0x40)\n  dup1\n  swap2\n  sub\n  swap1\n  log3\n    /* \"@openzeppelin/contracts/access/Ownable.sol\":2333:2457  {... */\n  pop\n    /* \"@openzeppelin/contracts/access/Ownable.sol\":2270:2457  function _transferOwnership(address newOwner) internal virtual {... */\n  pop\n  jump\t// out\n    /* \"contracts/scPartners.sol\":170:2173  contract ScotchPartners is Ownable  {\r... */\ntag_10:\n  dataSize(sub_0)\n  dup1\n  dataOffset(sub_0)\n  0x00\n  codecopy\n  0x00\n  return\nstop\n\nsub_0: assembly {\n        /* \"contracts/scPartners.sol\":170:2173  contract ScotchPartners is Ownable  {\r... */\n      mstore(0x40, 0x80)\n      callvalue\n      dup1\n      iszero\n      tag_1\n      jumpi\n      0x00\n      dup1\n      revert\n    tag_1:\n      pop\n      jumpi(tag_2, lt(calldatasize, 0x04))\n      shr(0xe0, calldataload(0x00))\n      dup1\n      0x8d370ed4\n      gt\n      tag_11\n      jumpi\n      dup1\n      0x8d370ed4\n      eq\n      tag_7\n      jumpi\n      dup1\n      0x8da5cb5b\n      eq\n      tag_8\n      jumpi\n      dup1\n      0xdf78579f\n      eq\n      tag_9\n      jumpi\n      dup1\n      0xf2fde38b\n      eq\n      tag_10\n      jumpi\n      jump(tag_2)\n    tag_11:\n      dup1\n      0x19524173\n      eq\n      tag_3\n      jumpi\n      dup1\n      0x22461845\n      eq\n      tag_4\n      jumpi\n      dup1\n      0x715018a6\n      eq\n      tag_5\n      jumpi\n      dup1\n      0x7fc96619\n      eq\n      tag_6\n      jumpi\n    tag_2:\n      0x00\n      dup1\n      revert\n        /* \"contracts/scPartners.sol\":1788:1928  function changePartnerRate(uint id, uint cashbackRate) public idExists(id) onlyOwner{\r... */\n    tag_3:\n      tag_12\n      0x04\n      dup1\n      calldatasize\n      sub\n      dup2\n      add\n      swap1\n      tag_13\n      swap2\n      swap1\n      tag_14\n      jump\t// in\n    tag_13:\n      tag_15\n      jump\t// in\n    tag_12:\n      stop\n        /* \"contracts/scPartners.sol\":1065:1183  function getPartner(string memory name) public view returns (Partner memory) {\r... */\n    tag_4:\n      tag_16\n      0x04\n      dup1\n      calldatasize\n      sub\n      dup2\n      add\n      swap1\n      tag_17\n      swap2\n      swap1\n      tag_18\n      jump\t// in\n    tag_17:\n      tag_19\n      jump\t// in\n    tag_16:\n      mload(0x40)\n      tag_20\n      swap2\n      swap1\n      tag_21\n      jump\t// in\n    tag_20:\n      mload(0x40)\n      dup1\n      swap2\n      sub\n      swap1\n      return\n        /* \"@openzeppelin/contracts/access/Ownable.sol\":1668:1769  function renounceOwnership() public virtual onlyOwner {... */\n    tag_5:\n      tag_22\n      tag_23\n      jump\t// in\n    tag_22:\n      stop\n        /* \"contracts/scPartners.sol\":945:1059  function getPartner(uint id) public idExists(id) view returns (Partner memory) {\r... */\n    tag_6:\n      tag_24\n      0x04\n      dup1\n      calldatasize\n      sub\n      dup2\n      add\n      swap1\n      tag_25\n      swap2\n      swap1\n      tag_26\n      jump\t// in\n    tag_25:\n      tag_27\n      jump\t// in\n    tag_24:\n      mload(0x40)\n      tag_28\n      swap2\n      swap1\n      tag_21\n      jump\t// in\n    tag_28:\n      mload(0x40)\n      dup1\n      swap2\n      sub\n      swap1\n      return\n        /* \"contracts/scPartners.sol\":1934:2168  function changePartnerRecipient(uint id, address payable recipient) public idExists(id) onlyOwner{\r... */\n    tag_7:\n      tag_29\n      0x04\n      dup1\n      calldatasize\n      sub\n      dup2\n      add\n      swap1\n      tag_30\n      swap2\n      swap1\n      tag_31\n      jump\t// in\n    tag_30:\n      tag_32\n      jump\t// in\n    tag_29:\n      stop\n        /* \"@openzeppelin/contracts/access/Ownable.sol\":1036:1121  function owner() public view virtual returns (address) {... */\n    tag_8:\n      tag_33\n      tag_34\n      jump\t// in\n    tag_33:\n      mload(0x40)\n      tag_35\n      swap2\n      swap1\n      tag_36\n      jump\t// in\n    tag_35:\n      mload(0x40)\n      dup1\n      swap2\n      sub\n      swap1\n      return\n        /* \"contracts/scPartners.sol\":1339:1782  function addPartner(string memory name, address payable recipient, uint cashbackRate) public onlyOwner returns (uint) { \r... */\n    tag_9:\n      tag_37\n      0x04\n      dup1\n      calldatasize\n      sub\n      dup2\n      add\n      swap1\n      tag_38\n      swap2\n      swap1\n      tag_39\n      jump\t// in\n    tag_38:\n      tag_40\n      jump\t// in\n    tag_37:\n      mload(0x40)\n      tag_41\n      swap2\n      swap1\n      tag_42\n      jump\t// in\n    tag_41:\n      mload(0x40)\n      dup1\n      swap2\n      sub\n      swap1\n      return\n        /* \"@openzeppelin/contracts/access/Ownable.sol\":1918:2116  function transferOwnership(address newOwner) public virtual onlyOwner {... */\n    tag_10:\n      tag_43\n      0x04\n      dup1\n      calldatasize\n      sub\n      dup2\n      add\n      swap1\n      tag_44\n      swap2\n      swap1\n      tag_45\n      jump\t// in\n    tag_44:\n      tag_46\n      jump\t// in\n    tag_43:\n      stop\n        /* \"contracts/scPartners.sol\":1788:1928  function changePartnerRate(uint id, uint cashbackRate) public idExists(id) onlyOwner{\r... */\n    tag_15:\n        /* \"contracts/scPartners.sol\":1859:1861  id */\n      dup2\n        /* \"contracts/scPartners.sol\":732:733  0 */\n      0x00\n        /* \"contracts/scPartners.sol\":727:729  id */\n      dup2\n        /* \"contracts/scPartners.sol\":727:733  id > 0 */\n      gt\n        /* \"contracts/scPartners.sol\":727:757  id > 0 && id <= _ids.current() */\n      dup1\n      iszero\n      tag_48\n      jumpi\n      pop\n        /* \"contracts/scPartners.sol\":743:757  _ids.current() */\n      tag_49\n        /* \"contracts/scPartners.sol\":743:747  _ids */\n      0x01\n        /* \"contracts/scPartners.sol\":743:755  _ids.current */\n      tag_50\n        /* \"contracts/scPartners.sol\":743:757  _ids.current() */\n      jump\t// in\n    tag_49:\n        /* \"contracts/scPartners.sol\":737:739  id */\n      dup2\n        /* \"contracts/scPartners.sol\":737:757  id <= _ids.current() */\n      gt\n      iszero\n        /* \"contracts/scPartners.sol\":727:757  id > 0 && id <= _ids.current() */\n    tag_48:\n        /* \"contracts/scPartners.sol\":719:773  require(id > 0 && id <= _ids.current(), \"Invalid ID!\") */\n      tag_51\n      jumpi\n      mload(0x40)\n      0x08c379a000000000000000000000000000000000000000000000000000000000\n      dup2\n      mstore\n      0x04\n      add\n      tag_52\n      swap1\n      tag_53\n      jump\t// in\n    tag_52:\n      mload(0x40)\n      dup1\n      swap2\n      sub\n      swap1\n      revert\n    tag_51:\n        /* \"@openzeppelin/contracts/access/Ownable.sol\":1259:1271  _msgSender() */\n      tag_55\n        /* \"@openzeppelin/contracts/access/Ownable.sol\":1259:1269  _msgSender */\n      tag_56\n        /* \"@openzeppelin/contracts/access/Ownable.sol\":1259:1271  _msgSender() */\n      jump\t// in\n    tag_55:\n        /* \"@openzeppelin/contracts/access/Ownable.sol\":1248:1271  owner() == _msgSender() */\n      0xffffffffffffffffffffffffffffffffffffffff\n      and\n        /* \"@openzeppelin/contracts/access/Ownable.sol\":1248:1255  owner() */\n      tag_57\n        /* \"@openzeppelin/contracts/access/Ownable.sol\":1248:1253  owner */\n      tag_34\n        /* \"@openzeppelin/contracts/access/Ownable.sol\":1248:1255  owner() */\n      jump\t// in\n    tag_57:\n        /* \"@openzeppelin/contracts/access/Ownable.sol\":1248:1271  owner() == _msgSender() */\n      0xffffffffffffffffffffffffffffffffffffffff\n      and\n      eq\n        /* \"@openzeppelin/contracts/access/Ownable.sol\":1240:1308  require(owner() == _msgSender(), \"Ownable: caller is not the owner\") */\n      tag_58\n      jumpi\n      mload(0x40)\n      0x08c379a000000000000000000000000000000000000000000000000000000000\n      dup2\n      mstore\n      0x04\n      add\n      tag_59\n      swap1\n      tag_60\n      jump\t// in\n    tag_59:\n      mload(0x40)\n      dup1\n      swap2\n      sub\n      swap1\n      revert\n    tag_58:\n        /* \"contracts/scPartners.sol\":1910:1922  cashbackRate */\n      dup2\n        /* \"contracts/scPartners.sol\":1881:1890  _partners */\n      0x02\n        /* \"contracts/scPartners.sol\":1881:1894  _partners[id] */\n      0x00\n        /* \"contracts/scPartners.sol\":1891:1893  id */\n      dup6\n        /* \"contracts/scPartners.sol\":1881:1894  _partners[id] */\n      dup2\n      mstore\n      0x20\n      add\n      swap1\n      dup2\n      mstore\n      0x20\n      add\n      0x00\n      keccak256\n        /* \"contracts/scPartners.sol\":1881:1907  _partners[id].cashbackRate */\n      0x03\n      add\n        /* \"contracts/scPartners.sol\":1881:1922  _partners[id].cashbackRate = cashbackRate */\n      dup2\n      swap1\n      sstore\n      pop\n        /* \"contracts/scPartners.sol\":1788:1928  function changePartnerRate(uint id, uint cashbackRate) public idExists(id) onlyOwner{\r... */\n      pop\n      pop\n      pop\n      jump\t// out\n        /* \"contracts/scPartners.sol\":1065:1183  function getPartner(string memory name) public view returns (Partner memory) {\r... */\n    tag_19:\n        /* \"contracts/scPartners.sol\":1126:1140  Partner memory */\n      tag_62\n      tag_63\n      jump\t// in\n    tag_62:\n        /* \"contracts/scPartners.sol\":1158:1171  _partnerNames */\n      0x03\n        /* \"contracts/scPartners.sol\":1172:1176  name */\n      dup3\n        /* \"contracts/scPartners.sol\":1158:1177  _partnerNames[name] */\n      mload(0x40)\n      tag_65\n      swap2\n      swap1\n      tag_66\n      jump\t// in\n    tag_65:\n      swap1\n      dup2\n      mstore\n      0x20\n      add\n      mload(0x40)\n      dup1\n      swap2\n      sub\n      swap1\n      keccak256\n        /* \"contracts/scPartners.sol\":1151:1177  return _partnerNames[name] */\n      mload(0x40)\n      dup1\n      0x80\n      add\n      0x40\n      mstore\n      swap1\n      dup2\n      0x00\n      dup3\n      add\n      sload\n      dup2\n      mstore\n      0x20\n      add\n      0x01\n      dup3\n      add\n      dup1\n      sload\n      tag_67\n      swap1\n      tag_68\n      jump\t// in\n    tag_67:\n      dup1\n      0x1f\n      add\n      0x20\n      dup1\n      swap2\n      div\n      mul\n      0x20\n      add\n      mload(0x40)\n      swap1\n      dup2\n      add\n      0x40\n      mstore\n      dup1\n      swap3\n      swap2\n      swap1\n      dup2\n      dup2\n      mstore\n      0x20\n      add\n      dup3\n      dup1\n      sload\n      tag_69\n      swap1\n      tag_68\n      jump\t// in\n    tag_69:\n      dup1\n      iszero\n      tag_70\n      jumpi\n      dup1\n      0x1f\n      lt\n      tag_71\n      jumpi\n      0x0100\n      dup1\n      dup4\n      sload\n      div\n      mul\n      dup4\n      mstore\n      swap2\n      0x20\n      add\n      swap2\n      jump(tag_70)\n    tag_71:\n      dup3\n      add\n      swap2\n      swap1\n      0x00\n      mstore\n      keccak256(0x00, 0x20)\n      swap1\n    tag_72:\n      dup2\n      sload\n      dup2\n      mstore\n      swap1\n      0x01\n      add\n      swap1\n      0x20\n      add\n      dup1\n      dup4\n      gt\n      tag_72\n      jumpi\n      dup3\n      swap1\n      sub\n      0x1f\n      and\n      dup3\n      add\n      swap2\n    tag_70:\n      pop\n      pop\n      pop\n      pop\n      pop\n      dup2\n      mstore\n      0x20\n      add\n      0x02\n      dup3\n      add\n      0x00\n      swap1\n      sload\n      swap1\n      0x0100\n      exp\n      swap1\n      div\n      0xffffffffffffffffffffffffffffffffffffffff\n      and\n      0xffffffffffffffffffffffffffffffffffffffff\n      and\n      0xffffffffffffffffffffffffffffffffffffffff\n      and\n      dup2\n      mstore\n      0x20\n      add\n      0x03\n      dup3\n      add\n      sload\n      dup2\n      mstore\n      pop\n      pop\n      swap1\n      pop\n        /* \"contracts/scPartners.sol\":1065:1183  function getPartner(string memory name) public view returns (Partner memory) {\r... */\n      swap2\n      swap1\n      pop\n      jump\t// out\n        /* \"@openzeppelin/contracts/access/Ownable.sol\":1668:1769  function renounceOwnership() public virtual onlyOwner {... */\n    tag_23:\n        /* \"@openzeppelin/contracts/access/Ownable.sol\":1259:1271  _msgSender() */\n      tag_74\n        /* \"@openzeppelin/contracts/access/Ownable.sol\":1259:1269  _msgSender */\n      tag_56\n        /* \"@openzeppelin/contracts/access/Ownable.sol\":1259:1271  _msgSender() */\n      jump\t// in\n    tag_74:\n        /* \"@openzeppelin/contracts/access/Ownable.sol\":1248:1271  owner() == _msgSender() */\n      0xffffffffffffffffffffffffffffffffffffffff\n      and\n        /* \"@openzeppelin/contracts/access/Ownable.sol\":1248:1255  owner() */\n      tag_75\n        /* \"@openzeppelin/contracts/access/Ownable.sol\":1248:1253  owner */\n      tag_34\n        /* \"@openzeppelin/contracts/access/Ownable.sol\":1248:1255  owner() */\n      jump\t// in\n    tag_75:\n        /* \"@openzeppelin/contracts/access/Ownable.sol\":1248:1271  owner() == _msgSender() */\n      0xffffffffffffffffffffffffffffffffffffffff\n      and\n      eq\n        /* \"@openzeppelin/contracts/access/Ownable.sol\":1240:1308  require(owner() == _msgSender(), \"Ownable: caller is not the owner\") */\n      tag_76\n      jumpi\n      mload(0x40)\n      0x08c379a000000000000000000000000000000000000000000000000000000000\n      dup2\n      mstore\n      0x04\n      add\n      tag_77\n      swap1\n      tag_60\n      jump\t// in\n    tag_77:\n      mload(0x40)\n      dup1\n      swap2\n      sub\n      swap1\n      revert\n    tag_76:\n        /* \"@openzeppelin/contracts/access/Ownable.sol\":1732:1762  _transferOwnership(address(0)) */\n      tag_79\n        /* \"@openzeppelin/contracts/access/Ownable.sol\":1759:1760  0 */\n      0x00\n        /* \"@openzeppelin/contracts/access/Ownable.sol\":1732:1750  _transferOwnership */\n      tag_80\n        /* \"@openzeppelin/contracts/access/Ownable.sol\":1732:1762  _transferOwnership(address(0)) */\n      jump\t// in\n    tag_79:\n        /* \"@openzeppelin/contracts/access/Ownable.sol\":1668:1769  function renounceOwnership() public virtual onlyOwner {... */\n      jump\t// out\n        /* \"contracts/scPartners.sol\":945:1059  function getPartner(uint id) public idExists(id) view returns (Partner memory) {\r... */\n    tag_27:\n        /* \"contracts/scPartners.sol\":1008:1022  Partner memory */\n      tag_81\n      tag_63\n      jump\t// in\n    tag_81:\n        /* \"contracts/scPartners.sol\":990:992  id */\n      dup2\n        /* \"contracts/scPartners.sol\":732:733  0 */\n      0x00\n        /* \"contracts/scPartners.sol\":727:729  id */\n      dup2\n        /* \"contracts/scPartners.sol\":727:733  id > 0 */\n      gt\n        /* \"contracts/scPartners.sol\":727:757  id > 0 && id <= _ids.current() */\n      dup1\n      iszero\n      tag_83\n      jumpi\n      pop\n        /* \"contracts/scPartners.sol\":743:757  _ids.current() */\n      tag_84\n        /* \"contracts/scPartners.sol\":743:747  _ids */\n      0x01\n        /* \"contracts/scPartners.sol\":743:755  _ids.current */\n      tag_50\n        /* \"contracts/scPartners.sol\":743:757  _ids.current() */\n      jump\t// in\n    tag_84:\n        /* \"contracts/scPartners.sol\":737:739  id */\n      dup2\n        /* \"contracts/scPartners.sol\":737:757  id <= _ids.current() */\n      gt\n      iszero\n        /* \"contracts/scPartners.sol\":727:757  id > 0 && id <= _ids.current() */\n    tag_83:\n        /* \"contracts/scPartners.sol\":719:773  require(id > 0 && id <= _ids.current(), \"Invalid ID!\") */\n      tag_85\n      jumpi\n      mload(0x40)\n      0x08c379a000000000000000000000000000000000000000000000000000000000\n      dup2\n      mstore\n      0x04\n      add\n      tag_86\n      swap1\n      tag_53\n      jump\t// in\n    tag_86:\n      mload(0x40)\n      dup1\n      swap2\n      sub\n      swap1\n      revert\n    tag_85:\n        /* \"contracts/scPartners.sol\":1040:1049  _partners */\n      0x02\n        /* \"contracts/scPartners.sol\":1040:1053  _partners[id] */\n      0x00\n        /* \"contracts/scPartners.sol\":1050:1052  id */\n      dup5\n        /* \"contracts/scPartners.sol\":1040:1053  _partners[id] */\n      dup2\n      mstore\n      0x20\n      add\n      swap1\n      dup2\n      mstore\n      0x20\n      add\n      0x00\n      keccak256\n        /* \"contracts/scPartners.sol\":1033:1053  return _partners[id] */\n      mload(0x40)\n      dup1\n      0x80\n      add\n      0x40\n      mstore\n      swap1\n      dup2\n      0x00\n      dup3\n      add\n      sload\n      dup2\n      mstore\n      0x20\n      add\n      0x01\n      dup3\n      add\n      dup1\n      sload\n      tag_88\n      swap1\n      tag_68\n      jump\t// in\n    tag_88:\n      dup1\n      0x1f\n      add\n      0x20\n      dup1\n      swap2\n      div\n      mul\n      0x20\n      add\n      mload(0x40)\n      swap1\n      dup2\n      add\n      0x40\n      mstore\n      dup1\n      swap3\n      swap2\n      swap1\n      dup2\n      dup2\n      mstore\n      0x20\n      add\n      dup3\n      dup1\n      sload\n      tag_89\n      swap1\n      tag_68\n      jump\t// in\n    tag_89:\n      dup1\n      iszero\n      tag_90\n      jumpi\n      dup1\n      0x1f\n      lt\n      tag_91\n      jumpi\n      0x0100\n      dup1\n      dup4\n      sload\n      div\n      mul\n      dup4\n      mstore\n      swap2\n      0x20\n      add\n      swap2\n      jump(tag_90)\n    tag_91:\n      dup3\n      add\n      swap2\n      swap1\n      0x00\n      mstore\n      keccak256(0x00, 0x20)\n      swap1\n    tag_92:\n      dup2\n      sload\n      dup2\n      mstore\n      swap1\n      0x01\n      add\n      swap1\n      0x20\n      add\n      dup1\n      dup4\n      gt\n      tag_92\n      jumpi\n      dup3\n      swap1\n      sub\n      0x1f\n      and\n      dup3\n      add\n      swap2\n    tag_90:\n      pop\n      pop\n      pop\n      pop\n      pop\n      dup2\n      mstore\n      0x20\n      add\n      0x02\n      dup3\n      add\n      0x00\n      swap1\n      sload\n      swap1\n      0x0100\n      exp\n      swap1\n      div\n      0xffffffffffffffffffffffffffffffffffffffff\n      and\n      0xffffffffffffffffffffffffffffffffffffffff\n      and\n      0xffffffffffffffffffffffffffffffffffffffff\n      and\n      dup2\n      mstore\n      0x20\n      add\n      0x03\n      dup3\n      add\n      sload\n      dup2\n      mstore\n      pop\n      pop\n      swap2\n      pop\n        /* \"contracts/scPartners.sol\":945:1059  function getPartner(uint id) public idExists(id) view returns (Partner memory) {\r... */\n      pop\n      swap2\n      swap1\n      pop\n      jump\t// out\n        /* \"contracts/scPartners.sol\":1934:2168  function changePartnerRecipient(uint id, address payable recipient) public idExists(id) onlyOwner{\r... */\n    tag_32:\n        /* \"contracts/scPartners.sol\":2018:2020  id */\n      dup2\n        /* \"contracts/scPartners.sol\":732:733  0 */\n      0x00\n        /* \"contracts/scPartners.sol\":727:729  id */\n      dup2\n        /* \"contracts/scPartners.sol\":727:733  id > 0 */\n      gt\n        /* \"contracts/scPartners.sol\":727:757  id > 0 && id <= _ids.current() */\n      dup1\n      iszero\n      tag_94\n      jumpi\n      pop\n        /* \"contracts/scPartners.sol\":743:757  _ids.current() */\n      tag_95\n        /* \"contracts/scPartners.sol\":743:747  _ids */\n      0x01\n        /* \"contracts/scPartners.sol\":743:755  _ids.current */\n      tag_50\n        /* \"contracts/scPartners.sol\":743:757  _ids.current() */\n      jump\t// in\n    tag_95:\n        /* \"contracts/scPartners.sol\":737:739  id */\n      dup2\n        /* \"contracts/scPartners.sol\":737:757  id <= _ids.current() */\n      gt\n      iszero\n        /* \"contracts/scPartners.sol\":727:757  id > 0 && id <= _ids.current() */\n    tag_94:\n        /* \"contracts/scPartners.sol\":719:773  require(id > 0 && id <= _ids.current(), \"Invalid ID!\") */\n      tag_96\n      jumpi\n      mload(0x40)\n      0x08c379a000000000000000000000000000000000000000000000000000000000\n      dup2\n      mstore\n      0x04\n      add\n      tag_97\n      swap1\n      tag_53\n      jump\t// in\n    tag_97:\n      mload(0x40)\n      dup1\n      swap2\n      sub\n      swap1\n      revert\n    tag_96:\n        /* \"@openzeppelin/contracts/access/Ownable.sol\":1259:1271  _msgSender() */\n      tag_99\n        /* \"@openzeppelin/contracts/access/Ownable.sol\":1259:1269  _msgSender */\n      tag_56\n        /* \"@openzeppelin/contracts/access/Ownable.sol\":1259:1271  _msgSender() */\n      jump\t// in\n    tag_99:\n        /* \"@openzeppelin/contracts/access/Ownable.sol\":1248:1271  owner() == _msgSender() */\n      0xffffffffffffffffffffffffffffffffffffffff\n      and\n        /* \"@openzeppelin/contracts/access/Ownable.sol\":1248:1255  owner() */\n      tag_100\n        /* \"@openzeppelin/contracts/access/Ownable.sol\":1248:1253  owner */\n      tag_34\n        /* \"@openzeppelin/contracts/access/Ownable.sol\":1248:1255  owner() */\n      jump\t// in\n    tag_100:\n        /* \"@openzeppelin/contracts/access/Ownable.sol\":1248:1271  owner() == _msgSender() */\n      0xffffffffffffffffffffffffffffffffffffffff\n      and\n      eq\n        /* \"@openzeppelin/contracts/access/Ownable.sol\":1240:1308  require(owner() == _msgSender(), \"Ownable: caller is not the owner\") */\n      tag_101\n      jumpi\n      mload(0x40)\n      0x08c379a000000000000000000000000000000000000000000000000000000000\n      dup2\n      mstore\n      0x04\n      add\n      tag_102\n      swap1\n      tag_60\n      jump\t// in\n    tag_102:\n      mload(0x40)\n      dup1\n      swap2\n      sub\n      swap1\n      revert\n    tag_101:\n        /* \"contracts/scPartners.sol\":2069:2070  0 */\n      0x00\n        /* \"contracts/scPartners.sol\":2048:2071  recipient != address(0) */\n      0xffffffffffffffffffffffffffffffffffffffff\n      and\n        /* \"contracts/scPartners.sol\":2048:2057  recipient */\n      dup3\n        /* \"contracts/scPartners.sol\":2048:2071  recipient != address(0) */\n      0xffffffffffffffffffffffffffffffffffffffff\n      and\n      eq\n      iszero\n        /* \"contracts/scPartners.sol\":2040:2118  require(recipient != address(0), \"Partner's recipient address can't be zero!\") */\n      tag_104\n      jumpi\n      mload(0x40)\n      0x08c379a000000000000000000000000000000000000000000000000000000000\n      dup2\n      mstore\n      0x04\n      add\n      tag_105\n      swap1\n      tag_106\n      jump\t// in\n    tag_105:\n      mload(0x40)\n      dup1\n      swap2\n      sub\n      swap1\n      revert\n    tag_104:\n        /* \"contracts/scPartners.sol\":2153:2162  recipient */\n      dup2\n        /* \"contracts/scPartners.sol\":2127:2136  _partners */\n      0x02\n        /* \"contracts/scPartners.sol\":2127:2140  _partners[id] */\n      0x00\n        /* \"contracts/scPartners.sol\":2137:2139  id */\n      dup6\n        /* \"contracts/scPartners.sol\":2127:2140  _partners[id] */\n      dup2\n      mstore\n      0x20\n      add\n      swap1\n      dup2\n      mstore\n      0x20\n      add\n      0x00\n      keccak256\n        /* \"contracts/scPartners.sol\":2127:2150  _partners[id].recipient */\n      0x02\n      add\n      0x00\n        /* \"contracts/scPartners.sol\":2127:2162  _partners[id].recipient = recipient */\n      0x0100\n      exp\n      dup2\n      sload\n      dup2\n      0xffffffffffffffffffffffffffffffffffffffff\n      mul\n      not\n      and\n      swap1\n      dup4\n      0xffffffffffffffffffffffffffffffffffffffff\n      and\n      mul\n      or\n      swap1\n      sstore\n      pop\n        /* \"contracts/scPartners.sol\":1934:2168  function changePartnerRecipient(uint id, address payable recipient) public idExists(id) onlyOwner{\r... */\n      pop\n      pop\n      pop\n      jump\t// out\n        /* \"@openzeppelin/contracts/access/Ownable.sol\":1036:1121  function owner() public view virtual returns (address) {... */\n    tag_34:\n        /* \"@openzeppelin/contracts/access/Ownable.sol\":1082:1089  address */\n      0x00\n        /* \"@openzeppelin/contracts/access/Ownable.sol\":1108:1114  _owner */\n      dup1\n      0x00\n      swap1\n      sload\n      swap1\n      0x0100\n      exp\n      swap1\n      div\n      0xffffffffffffffffffffffffffffffffffffffff\n      and\n        /* \"@openzeppelin/contracts/access/Ownable.sol\":1101:1114  return _owner */\n      swap1\n      pop\n        /* \"@openzeppelin/contracts/access/Ownable.sol\":1036:1121  function owner() public view virtual returns (address) {... */\n      swap1\n      jump\t// out\n        /* \"contracts/scPartners.sol\":1339:1782  function addPartner(string memory name, address payable recipient, uint cashbackRate) public onlyOwner returns (uint) { \r... */\n    tag_40:\n        /* \"contracts/scPartners.sol\":1451:1455  uint */\n      0x00\n        /* \"@openzeppelin/contracts/access/Ownable.sol\":1259:1271  _msgSender() */\n      tag_109\n        /* \"@openzeppelin/contracts/access/Ownable.sol\":1259:1269  _msgSender */\n      tag_56\n        /* \"@openzeppelin/contracts/access/Ownable.sol\":1259:1271  _msgSender() */\n      jump\t// in\n    tag_109:\n        /* \"@openzeppelin/contracts/access/Ownable.sol\":1248:1271  owner() == _msgSender() */\n      0xffffffffffffffffffffffffffffffffffffffff\n      and\n        /* \"@openzeppelin/contracts/access/Ownable.sol\":1248:1255  owner() */\n      tag_110\n        /* \"@openzeppelin/contracts/access/Ownable.sol\":1248:1253  owner */\n      tag_34\n        /* \"@openzeppelin/contracts/access/Ownable.sol\":1248:1255  owner() */\n      jump\t// in\n    tag_110:\n        /* \"@openzeppelin/contracts/access/Ownable.sol\":1248:1271  owner() == _msgSender() */\n      0xffffffffffffffffffffffffffffffffffffffff\n      and\n      eq\n        /* \"@openzeppelin/contracts/access/Ownable.sol\":1240:1308  require(owner() == _msgSender(), \"Ownable: caller is not the owner\") */\n      tag_111\n      jumpi\n      mload(0x40)\n      0x08c379a000000000000000000000000000000000000000000000000000000000\n      dup2\n      mstore\n      0x04\n      add\n      tag_112\n      swap1\n      tag_60\n      jump\t// in\n    tag_112:\n      mload(0x40)\n      dup1\n      swap2\n      sub\n      swap1\n      revert\n    tag_111:\n        /* \"contracts/scPartners.sol\":1465:1481  _ids.increment() */\n      tag_114\n        /* \"contracts/scPartners.sol\":1465:1469  _ids */\n      0x01\n        /* \"contracts/scPartners.sol\":1465:1479  _ids.increment */\n      tag_115\n        /* \"contracts/scPartners.sol\":1465:1481  _ids.increment() */\n      jump\t// in\n    tag_114:\n        /* \"contracts/scPartners.sol\":1513:1520  uint id */\n      0x00\n        /* \"contracts/scPartners.sol\":1523:1537  _ids.current() */\n      tag_116\n        /* \"contracts/scPartners.sol\":1523:1527  _ids */\n      0x01\n        /* \"contracts/scPartners.sol\":1523:1535  _ids.current */\n      tag_50\n        /* \"contracts/scPartners.sol\":1523:1537  _ids.current() */\n      jump\t// in\n    tag_116:\n        /* \"contracts/scPartners.sol\":1513:1537  uint id = _ids.current() */\n      swap1\n      pop\n        /* \"contracts/scPartners.sol\":1573:1595  Partner memory partner */\n      0x00\n        /* \"contracts/scPartners.sol\":1598:1684  Partner(\r... */\n      mload(0x40)\n      dup1\n      0x80\n      add\n      0x40\n      mstore\n      dup1\n        /* \"contracts/scPartners.sol\":1616:1618  id */\n      dup4\n        /* \"contracts/scPartners.sol\":1598:1684  Partner(\r... */\n      dup2\n      mstore\n      0x20\n      add\n        /* \"contracts/scPartners.sol\":1629:1633  name */\n      dup8\n        /* \"contracts/scPartners.sol\":1598:1684  Partner(\r... */\n      dup2\n      mstore\n      0x20\n      add\n        /* \"contracts/scPartners.sol\":1645:1654  recipient */\n      dup7\n        /* \"contracts/scPartners.sol\":1598:1684  Partner(\r... */\n      0xffffffffffffffffffffffffffffffffffffffff\n      and\n      dup2\n      mstore\n      0x20\n      add\n        /* \"contracts/scPartners.sol\":1665:1677  cashbackRate */\n      dup6\n        /* \"contracts/scPartners.sol\":1598:1684  Partner(\r... */\n      dup2\n      mstore\n      pop\n        /* \"contracts/scPartners.sol\":1573:1684  Partner memory partner = Partner(\r... */\n      swap1\n      pop\n        /* \"contracts/scPartners.sol\":1709:1716  partner */\n      dup1\n        /* \"contracts/scPartners.sol\":1693:1702  _partners */\n      0x02\n        /* \"contracts/scPartners.sol\":1693:1706  _partners[id] */\n      0x00\n        /* \"contracts/scPartners.sol\":1703:1705  id */\n      dup5\n        /* \"contracts/scPartners.sol\":1693:1706  _partners[id] */\n      dup2\n      mstore\n      0x20\n      add\n      swap1\n      dup2\n      mstore\n      0x20\n      add\n      0x00\n      keccak256\n        /* \"contracts/scPartners.sol\":1693:1716  _partners[id] = partner */\n      0x00\n      dup3\n      add\n      mload\n      dup2\n      0x00\n      add\n      sstore\n      0x20\n      dup3\n      add\n      mload\n      dup2\n      0x01\n      add\n      swap1\n      dup1\n      mload\n      swap1\n      0x20\n      add\n      swap1\n      tag_117\n      swap3\n      swap2\n      swap1\n      tag_118\n      jump\t// in\n    tag_117:\n      pop\n      0x40\n      dup3\n      add\n      mload\n      dup2\n      0x02\n      add\n      exp(0x0100, 0x00)\n      dup2\n      sload\n      dup2\n      0xffffffffffffffffffffffffffffffffffffffff\n      mul\n      not\n      and\n      swap1\n      dup4\n      0xffffffffffffffffffffffffffffffffffffffff\n      and\n      mul\n      or\n      swap1\n      sstore\n      pop\n      0x60\n      dup3\n      add\n      mload\n      dup2\n      0x03\n      add\n      sstore\n      swap1\n      pop\n      pop\n        /* \"contracts/scPartners.sol\":1743:1750  partner */\n      dup1\n        /* \"contracts/scPartners.sol\":1723:1736  _partnerNames */\n      0x03\n        /* \"contracts/scPartners.sol\":1737:1741  name */\n      dup8\n        /* \"contracts/scPartners.sol\":1723:1742  _partnerNames[name] */\n      mload(0x40)\n      tag_119\n      swap2\n      swap1\n      tag_66\n      jump\t// in\n    tag_119:\n      swap1\n      dup2\n      mstore\n      0x20\n      add\n      mload(0x40)\n      dup1\n      swap2\n      sub\n      swap1\n      keccak256\n        /* \"contracts/scPartners.sol\":1723:1750  _partnerNames[name]=partner */\n      0x00\n      dup3\n      add\n      mload\n      dup2\n      0x00\n      add\n      sstore\n      0x20\n      dup3\n      add\n      mload\n      dup2\n      0x01\n      add\n      swap1\n      dup1\n      mload\n      swap1\n      0x20\n      add\n      swap1\n      tag_120\n      swap3\n      swap2\n      swap1\n      tag_118\n      jump\t// in\n    tag_120:\n      pop\n      0x40\n      dup3\n      add\n      mload\n      dup2\n      0x02\n      add\n      exp(0x0100, 0x00)\n      dup2\n      sload\n      dup2\n      0xffffffffffffffffffffffffffffffffffffffff\n      mul\n      not\n      and\n      swap1\n      dup4\n      0xffffffffffffffffffffffffffffffffffffffff\n      and\n      mul\n      or\n      swap1\n      sstore\n      pop\n      0x60\n      dup3\n      add\n      mload\n      dup2\n      0x03\n      add\n      sstore\n      swap1\n      pop\n      pop\n        /* \"contracts/scPartners.sol\":1774:1776  id */\n      dup2\n        /* \"contracts/scPartners.sol\":1767:1776  return id */\n      swap3\n      pop\n      pop\n      pop\n        /* \"contracts/scPartners.sol\":1339:1782  function addPartner(string memory name, address payable recipient, uint cashbackRate) public onlyOwner returns (uint) { \r... */\n      swap4\n      swap3\n      pop\n      pop\n      pop\n      jump\t// out\n        /* \"@openzeppelin/contracts/access/Ownable.sol\":1918:2116  function transferOwnership(address newOwner) public virtual onlyOwner {... */\n    tag_46:\n        /* \"@openzeppelin/contracts/access/Ownable.sol\":1259:1271  _msgSender() */\n      tag_122\n        /* \"@openzeppelin/contracts/access/Ownable.sol\":1259:1269  _msgSender */\n      tag_56\n        /* \"@openzeppelin/contracts/access/Ownable.sol\":1259:1271  _msgSender() */\n      jump\t// in\n    tag_122:\n        /* \"@openzeppelin/contracts/access/Ownable.sol\":1248:1271  owner() == _msgSender() */\n      0xffffffffffffffffffffffffffffffffffffffff\n      and\n        /* \"@openzeppelin/contracts/access/Ownable.sol\":1248:1255  owner() */\n      tag_123\n        /* \"@openzeppelin/contracts/access/Ownable.sol\":1248:1253  owner */\n      tag_34\n        /* \"@openzeppelin/contracts/access/Ownable.sol\":1248:1255  owner() */\n      jump\t// in\n    tag_123:\n        /* \"@openzeppelin/contracts/access/Ownable.sol\":1248:1271  owner() == _msgSender() */\n      0xffffffffffffffffffffffffffffffffffffffff\n      and\n      eq\n        /* \"@openzeppelin/contracts/access/Ownable.sol\":1240:1308  require(owner() == _msgSender(), \"Ownable: caller is not the owner\") */\n      tag_124\n      jumpi\n      mload(0x40)\n      0x08c379a000000000000000000000000000000000000000000000000000000000\n      dup2\n      mstore\n      0x04\n      add\n      tag_125\n      swap1\n      tag_60\n      jump\t// in\n    tag_125:\n      mload(0x40)\n      dup1\n      swap2\n      sub\n      swap1\n      revert\n    tag_124:\n        /* \"@openzeppelin/contracts/access/Ownable.sol\":2026:2027  0 */\n      0x00\n        /* \"@openzeppelin/contracts/access/Ownable.sol\":2006:2028  newOwner != address(0) */\n      0xffffffffffffffffffffffffffffffffffffffff\n      and\n        /* \"@openzeppelin/contracts/access/Ownable.sol\":2006:2014  newOwner */\n      dup2\n        /* \"@openzeppelin/contracts/access/Ownable.sol\":2006:2028  newOwner != address(0) */\n      0xffffffffffffffffffffffffffffffffffffffff\n      and\n      eq\n      iszero\n        /* \"@openzeppelin/contracts/access/Ownable.sol\":1998:2071  require(newOwner != address(0), \"Ownable: new owner is the zero address\") */\n      tag_127\n      jumpi\n      mload(0x40)\n      0x08c379a000000000000000000000000000000000000000000000000000000000\n      dup2\n      mstore\n      0x04\n      add\n      tag_128\n      swap1\n      tag_129\n      jump\t// in\n    tag_128:\n      mload(0x40)\n      dup1\n      swap2\n      sub\n      swap1\n      revert\n    tag_127:\n        /* \"@openzeppelin/contracts/access/Ownable.sol\":2081:2109  _transferOwnership(newOwner) */\n      tag_130\n        /* \"@openzeppelin/contracts/access/Ownable.sol\":2100:2108  newOwner */\n      dup2\n        /* \"@openzeppelin/contracts/access/Ownable.sol\":2081:2099  _transferOwnership */\n      tag_80\n        /* \"@openzeppelin/contracts/access/Ownable.sol\":2081:2109  _transferOwnership(newOwner) */\n      jump\t// in\n    tag_130:\n        /* \"@openzeppelin/contracts/access/Ownable.sol\":1918:2116  function transferOwnership(address newOwner) public virtual onlyOwner {... */\n      pop\n      jump\t// out\n        /* \"@openzeppelin/contracts/utils/Counters.sol\":827:939  function current(Counter storage counter) internal view returns (uint256) {... */\n    tag_50:\n        /* \"@openzeppelin/contracts/utils/Counters.sol\":892:899  uint256 */\n      0x00\n        /* \"@openzeppelin/contracts/utils/Counters.sol\":918:925  counter */\n      dup2\n        /* \"@openzeppelin/contracts/utils/Counters.sol\":918:932  counter._value */\n      0x00\n      add\n      sload\n        /* \"@openzeppelin/contracts/utils/Counters.sol\":911:932  return counter._value */\n      swap1\n      pop\n        /* \"@openzeppelin/contracts/utils/Counters.sol\":827:939  function current(Counter storage counter) internal view returns (uint256) {... */\n      swap2\n      swap1\n      pop\n      jump\t// out\n        /* \"@openzeppelin/contracts/utils/Context.sol\":640:736  function _msgSender() internal view virtual returns (address) {... */\n    tag_56:\n        /* \"@openzeppelin/contracts/utils/Context.sol\":693:700  address */\n      0x00\n        /* \"@openzeppelin/contracts/utils/Context.sol\":719:729  msg.sender */\n      caller\n        /* \"@openzeppelin/contracts/utils/Context.sol\":712:729  return msg.sender */\n      swap1\n      pop\n        /* \"@openzeppelin/contracts/utils/Context.sol\":640:736  function _msgSender() internal view virtual returns (address) {... */\n      swap1\n      jump\t// out\n        /* \"@openzeppelin/contracts/access/Ownable.sol\":2270:2457  function _transferOwnership(address newOwner) internal virtual {... */\n    tag_80:\n        /* \"@openzeppelin/contracts/access/Ownable.sol\":2343:2359  address oldOwner */\n      0x00\n        /* \"@openzeppelin/contracts/access/Ownable.sol\":2362:2368  _owner */\n      dup1\n      0x00\n      swap1\n      sload\n      swap1\n      0x0100\n      exp\n      swap1\n      div\n      0xffffffffffffffffffffffffffffffffffffffff\n      and\n        /* \"@openzeppelin/contracts/access/Ownable.sol\":2343:2368  address oldOwner = _owner */\n      swap1\n      pop\n        /* \"@openzeppelin/contracts/access/Ownable.sol\":2387:2395  newOwner */\n      dup2\n        /* \"@openzeppelin/contracts/access/Ownable.sol\":2378:2384  _owner */\n      0x00\n      dup1\n        /* \"@openzeppelin/contracts/access/Ownable.sol\":2378:2395  _owner = newOwner */\n      0x0100\n      exp\n      dup2\n      sload\n      dup2\n      0xffffffffffffffffffffffffffffffffffffffff\n      mul\n      not\n      and\n      swap1\n      dup4\n      0xffffffffffffffffffffffffffffffffffffffff\n      and\n      mul\n      or\n      swap1\n      sstore\n      pop\n        /* \"@openzeppelin/contracts/access/Ownable.sol\":2441:2449  newOwner */\n      dup2\n        /* \"@openzeppelin/contracts/access/Ownable.sol\":2410:2450  OwnershipTransferred(oldOwner, newOwner) */\n      0xffffffffffffffffffffffffffffffffffffffff\n      and\n        /* \"@openzeppelin/contracts/access/Ownable.sol\":2431:2439  oldOwner */\n      dup2\n        /* \"@openzeppelin/contracts/access/Ownable.sol\":2410:2450  OwnershipTransferred(oldOwner, newOwner) */\n      0xffffffffffffffffffffffffffffffffffffffff\n      and\n      0x8be0079c531659141344cd1fd0a4f28419497f9722a3daafe3b4186f6b6457e0\n      mload(0x40)\n      mload(0x40)\n      dup1\n      swap2\n      sub\n      swap1\n      log3\n        /* \"@openzeppelin/contracts/access/Ownable.sol\":2333:2457  {... */\n      pop\n        /* \"@openzeppelin/contracts/access/Ownable.sol\":2270:2457  function _transferOwnership(address newOwner) internal virtual {... */\n      pop\n      jump\t// out\n        /* \"@openzeppelin/contracts/utils/Counters.sol\":945:1068  function increment(Counter storage counter) internal {... */\n    tag_115:\n        /* \"@openzeppelin/contracts/utils/Counters.sol\":1050:1051  1 */\n      0x01\n        /* \"@openzeppelin/contracts/utils/Counters.sol\":1032:1039  counter */\n      dup2\n        /* \"@openzeppelin/contracts/utils/Counters.sol\":1032:1046  counter._value */\n      0x00\n      add\n      0x00\n        /* \"@openzeppelin/contracts/utils/Counters.sol\":1032:1051  counter._value += 1 */\n      dup3\n      dup3\n      sload\n      add\n      swap3\n      pop\n      pop\n      dup2\n      swap1\n      sstore\n      pop\n        /* \"@openzeppelin/contracts/utils/Counters.sol\":945:1068  function increment(Counter storage counter) internal {... */\n      pop\n      jump\t// out\n    tag_63:\n      mload(0x40)\n      dup1\n      0x80\n      add\n      0x40\n      mstore\n      dup1\n      0x00\n      dup2\n      mstore\n      0x20\n      add\n      0x60\n      dup2\n      mstore\n      0x20\n      add\n      and(0xffffffffffffffffffffffffffffffffffffffff, 0x00)\n      dup2\n      mstore\n      0x20\n      add\n      0x00\n      dup2\n      mstore\n      pop\n      swap1\n      jump\t// out\n    tag_118:\n      dup3\n      dup1\n      sload\n      tag_135\n      swap1\n      tag_68\n      jump\t// in\n    tag_135:\n      swap1\n      0x00\n      mstore\n      keccak256(0x00, 0x20)\n      swap1\n      0x1f\n      add\n      0x20\n      swap1\n      div\n      dup2\n      add\n      swap3\n      dup3\n      tag_137\n      jumpi\n      0x00\n      dup6\n      sstore\n      jump(tag_136)\n    tag_137:\n      dup3\n      0x1f\n      lt\n      tag_138\n      jumpi\n      dup1\n      mload\n      not(0xff)\n      and\n      dup4\n      dup1\n      add\n      or\n      dup6\n      sstore\n      jump(tag_136)\n    tag_138:\n      dup3\n      dup1\n      add\n      0x01\n      add\n      dup6\n      sstore\n      dup3\n      iszero\n      tag_136\n      jumpi\n      swap2\n      dup3\n      add\n    tag_139:\n      dup3\n      dup2\n      gt\n      iszero\n      tag_140\n      jumpi\n      dup3\n      mload\n      dup3\n      sstore\n      swap2\n      0x20\n      add\n      swap2\n      swap1\n      0x01\n      add\n      swap1\n      jump(tag_139)\n    tag_140:\n    tag_136:\n      pop\n      swap1\n      pop\n      tag_141\n      swap2\n      swap1\n      tag_142\n      jump\t// in\n    tag_141:\n      pop\n      swap1\n      jump\t// out\n    tag_142:\n    tag_143:\n      dup1\n      dup3\n      gt\n      iszero\n      tag_144\n      jumpi\n      0x00\n      dup2\n      0x00\n      swap1\n      sstore\n      pop\n      0x01\n      add\n      jump(tag_143)\n    tag_144:\n      pop\n      swap1\n      jump\t// out\n        /* \"#utility.yul\":7:419   */\n    tag_146:\n        /* \"#utility.yul\":85:90   */\n      0x00\n        /* \"#utility.yul\":110:176   */\n      tag_148\n        /* \"#utility.yul\":126:175   */\n      tag_149\n        /* \"#utility.yul\":168:174   */\n      dup5\n        /* \"#utility.yul\":126:175   */\n      tag_150\n      jump\t// in\n    tag_149:\n        /* \"#utility.yul\":110:176   */\n      tag_151\n      jump\t// in\n    tag_148:\n        /* \"#utility.yul\":101:176   */\n      swap1\n      pop\n        /* \"#utility.yul\":199:205   */\n      dup3\n        /* \"#utility.yul\":192:197   */\n      dup2\n        /* \"#utility.yul\":185:206   */\n      mstore\n        /* \"#utility.yul\":237:241   */\n      0x20\n        /* \"#utility.yul\":230:235   */\n      dup2\n        /* \"#utility.yul\":226:242   */\n      add\n        /* \"#utility.yul\":275:278   */\n      dup5\n        /* \"#utility.yul\":266:272   */\n      dup5\n        /* \"#utility.yul\":261:264   */\n      dup5\n        /* \"#utility.yul\":257:273   */\n      add\n        /* \"#utility.yul\":254:279   */\n      gt\n        /* \"#utility.yul\":251:363   */\n      iszero\n      tag_152\n      jumpi\n        /* \"#utility.yul\":282:361   */\n      tag_153\n      tag_154\n      jump\t// in\n    tag_153:\n        /* \"#utility.yul\":251:363   */\n    tag_152:\n        /* \"#utility.yul\":372:413   */\n      tag_155\n        /* \"#utility.yul\":406:412   */\n      dup5\n        /* \"#utility.yul\":401:404   */\n      dup3\n        /* \"#utility.yul\":396:399   */\n      dup6\n        /* \"#utility.yul\":372:413   */\n      tag_156\n      jump\t// in\n    tag_155:\n        /* \"#utility.yul\":91:419   */\n      pop\n        /* \"#utility.yul\":7:419   */\n      swap4\n      swap3\n      pop\n      pop\n      pop\n      jump\t// out\n        /* \"#utility.yul\":425:564   */\n    tag_157:\n        /* \"#utility.yul\":471:476   */\n      0x00\n        /* \"#utility.yul\":509:515   */\n      dup2\n        /* \"#utility.yul\":496:516   */\n      calldataload\n        /* \"#utility.yul\":487:516   */\n      swap1\n      pop\n        /* \"#utility.yul\":525:558   */\n      tag_159\n        /* \"#utility.yul\":552:557   */\n      dup2\n        /* \"#utility.yul\":525:558   */\n      tag_160\n      jump\t// in\n    tag_159:\n        /* \"#utility.yul\":425:564   */\n      swap3\n      swap2\n      pop\n      pop\n      jump\t// out\n        /* \"#utility.yul\":570:725   */\n    tag_161:\n        /* \"#utility.yul\":624:629   */\n      0x00\n        /* \"#utility.yul\":662:668   */\n      dup2\n        /* \"#utility.yul\":649:669   */\n      calldataload\n        /* \"#utility.yul\":640:669   */\n      swap1\n      pop\n        /* \"#utility.yul\":678:719   */\n      tag_163\n        /* \"#utility.yul\":713:718   */\n      dup2\n        /* \"#utility.yul\":678:719   */\n      tag_164\n      jump\t// in\n    tag_163:\n        /* \"#utility.yul\":570:725   */\n      swap3\n      swap2\n      pop\n      pop\n      jump\t// out\n        /* \"#utility.yul\":745:1085   */\n    tag_165:\n        /* \"#utility.yul\":801:806   */\n      0x00\n        /* \"#utility.yul\":850:853   */\n      dup3\n        /* \"#utility.yul\":843:847   */\n      0x1f\n        /* \"#utility.yul\":835:841   */\n      dup4\n        /* \"#utility.yul\":831:848   */\n      add\n        /* \"#utility.yul\":827:854   */\n      slt\n        /* \"#utility.yul\":817:939   */\n      tag_167\n      jumpi\n        /* \"#utility.yul\":858:937   */\n      tag_168\n      tag_169\n      jump\t// in\n    tag_168:\n        /* \"#utility.yul\":817:939   */\n    tag_167:\n        /* \"#utility.yul\":975:981   */\n      dup2\n        /* \"#utility.yul\":962:982   */\n      calldataload\n        /* \"#utility.yul\":1000:1079   */\n      tag_170\n        /* \"#utility.yul\":1075:1078   */\n      dup5\n        /* \"#utility.yul\":1067:1073   */\n      dup3\n        /* \"#utility.yul\":1060:1064   */\n      0x20\n        /* \"#utility.yul\":1052:1058   */\n      dup7\n        /* \"#utility.yul\":1048:1065   */\n      add\n        /* \"#utility.yul\":1000:1079   */\n      tag_146\n      jump\t// in\n    tag_170:\n        /* \"#utility.yul\":991:1079   */\n      swap2\n      pop\n        /* \"#utility.yul\":807:1085   */\n      pop\n        /* \"#utility.yul\":745:1085   */\n      swap3\n      swap2\n      pop\n      pop\n      jump\t// out\n        /* \"#utility.yul\":1091:1230   */\n    tag_171:\n        /* \"#utility.yul\":1137:1142   */\n      0x00\n        /* \"#utility.yul\":1175:1181   */\n      dup2\n        /* \"#utility.yul\":1162:1182   */\n      calldataload\n        /* \"#utility.yul\":1153:1182   */\n      swap1\n      pop\n        /* \"#utility.yul\":1191:1224   */\n      tag_173\n        /* \"#utility.yul\":1218:1223   */\n      dup2\n        /* \"#utility.yul\":1191:1224   */\n      tag_174\n      jump\t// in\n    tag_173:\n        /* \"#utility.yul\":1091:1230   */\n      swap3\n      swap2\n      pop\n      pop\n      jump\t// out\n        /* \"#utility.yul\":1236:1565   */\n    tag_45:\n        /* \"#utility.yul\":1295:1301   */\n      0x00\n        /* \"#utility.yul\":1344:1346   */\n      0x20\n        /* \"#utility.yul\":1332:1341   */\n      dup3\n        /* \"#utility.yul\":1323:1330   */\n      dup5\n        /* \"#utility.yul\":1319:1342   */\n      sub\n        /* \"#utility.yul\":1315:1347   */\n      slt\n        /* \"#utility.yul\":1312:1431   */\n      iszero\n      tag_176\n      jumpi\n        /* \"#utility.yul\":1350:1429   */\n      tag_177\n      tag_178\n      jump\t// in\n    tag_177:\n        /* \"#utility.yul\":1312:1431   */\n    tag_176:\n        /* \"#utility.yul\":1470:1471   */\n      0x00\n        /* \"#utility.yul\":1495:1548   */\n      tag_179\n        /* \"#utility.yul\":1540:1547   */\n      dup5\n        /* \"#utility.yul\":1531:1537   */\n      dup3\n        /* \"#utility.yul\":1520:1529   */\n      dup6\n        /* \"#utility.yul\":1516:1538   */\n      add\n        /* \"#utility.yul\":1495:1548   */\n      tag_157\n      jump\t// in\n    tag_179:\n        /* \"#utility.yul\":1485:1548   */\n      swap2\n      pop\n        /* \"#utility.yul\":1441:1558   */\n      pop\n        /* \"#utility.yul\":1236:1565   */\n      swap3\n      swap2\n      pop\n      pop\n      jump\t// out\n        /* \"#utility.yul\":1571:2080   */\n    tag_18:\n        /* \"#utility.yul\":1640:1646   */\n      0x00\n        /* \"#utility.yul\":1689:1691   */\n      0x20\n        /* \"#utility.yul\":1677:1686   */\n      dup3\n        /* \"#utility.yul\":1668:1675   */\n      dup5\n        /* \"#utility.yul\":1664:1687   */\n      sub\n        /* \"#utility.yul\":1660:1692   */\n      slt\n        /* \"#utility.yul\":1657:1776   */\n      iszero\n      tag_181\n      jumpi\n        /* \"#utility.yul\":1695:1774   */\n      tag_182\n      tag_178\n      jump\t// in\n    tag_182:\n        /* \"#utility.yul\":1657:1776   */\n    tag_181:\n        /* \"#utility.yul\":1843:1844   */\n      0x00\n        /* \"#utility.yul\":1832:1841   */\n      dup3\n        /* \"#utility.yul\":1828:1845   */\n      add\n        /* \"#utility.yul\":1815:1846   */\n      calldataload\n        /* \"#utility.yul\":1873:1891   */\n      0xffffffffffffffff\n        /* \"#utility.yul\":1865:1871   */\n      dup2\n        /* \"#utility.yul\":1862:1892   */\n      gt\n        /* \"#utility.yul\":1859:1976   */\n      iszero\n      tag_183\n      jumpi\n        /* \"#utility.yul\":1895:1974   */\n      tag_184\n      tag_185\n      jump\t// in\n    tag_184:\n        /* \"#utility.yul\":1859:1976   */\n    tag_183:\n        /* \"#utility.yul\":2000:2063   */\n      tag_186\n        /* \"#utility.yul\":2055:2062   */\n      dup5\n        /* \"#utility.yul\":2046:2052   */\n      dup3\n        /* \"#utility.yul\":2035:2044   */\n      dup6\n        /* \"#utility.yul\":2031:2053   */\n      add\n        /* \"#utility.yul\":2000:2063   */\n      tag_165\n      jump\t// in\n    tag_186:\n        /* \"#utility.yul\":1990:2063   */\n      swap2\n      pop\n        /* \"#utility.yul\":1786:2073   */\n      pop\n        /* \"#utility.yul\":1571:2080   */\n      swap3\n      swap2\n      pop\n      pop\n      jump\t// out\n        /* \"#utility.yul\":2086:2901   */\n    tag_39:\n        /* \"#utility.yul\":2181:2187   */\n      0x00\n        /* \"#utility.yul\":2189:2195   */\n      dup1\n        /* \"#utility.yul\":2197:2203   */\n      0x00\n        /* \"#utility.yul\":2246:2248   */\n      0x60\n        /* \"#utility.yul\":2234:2243   */\n      dup5\n        /* \"#utility.yul\":2225:2232   */\n      dup7\n        /* \"#utility.yul\":2221:2244   */\n      sub\n        /* \"#utility.yul\":2217:2249   */\n      slt\n        /* \"#utility.yul\":2214:2333   */\n      iszero\n      tag_188\n      jumpi\n        /* \"#utility.yul\":2252:2331   */\n      tag_189\n      tag_178\n      jump\t// in\n    tag_189:\n        /* \"#utility.yul\":2214:2333   */\n    tag_188:\n        /* \"#utility.yul\":2400:2401   */\n      0x00\n        /* \"#utility.yul\":2389:2398   */\n      dup5\n        /* \"#utility.yul\":2385:2402   */\n      add\n        /* \"#utility.yul\":2372:2403   */\n      calldataload\n        /* \"#utility.yul\":2430:2448   */\n      0xffffffffffffffff\n        /* \"#utility.yul\":2422:2428   */\n      dup2\n        /* \"#utility.yul\":2419:2449   */\n      gt\n        /* \"#utility.yul\":2416:2533   */\n      iszero\n      tag_190\n      jumpi\n        /* \"#utility.yul\":2452:2531   */\n      tag_191\n      tag_185\n      jump\t// in\n    tag_191:\n        /* \"#utility.yul\":2416:2533   */\n    tag_190:\n        /* \"#utility.yul\":2557:2620   */\n      tag_192\n        /* \"#utility.yul\":2612:2619   */\n      dup7\n        /* \"#utility.yul\":2603:2609   */\n      dup3\n        /* \"#utility.yul\":2592:2601   */\n      dup8\n        /* \"#utility.yul\":2588:2610   */\n      add\n        /* \"#utility.yul\":2557:2620   */\n      tag_165\n      jump\t// in\n    tag_192:\n        /* \"#utility.yul\":2547:2620   */\n      swap4\n      pop\n        /* \"#utility.yul\":2343:2630   */\n      pop\n        /* \"#utility.yul\":2669:2671   */\n      0x20\n        /* \"#utility.yul\":2695:2756   */\n      tag_193\n        /* \"#utility.yul\":2748:2755   */\n      dup7\n        /* \"#utility.yul\":2739:2745   */\n      dup3\n        /* \"#utility.yul\":2728:2737   */\n      dup8\n        /* \"#utility.yul\":2724:2746   */\n      add\n        /* \"#utility.yul\":2695:2756   */\n      tag_161\n      jump\t// in\n    tag_193:\n        /* \"#utility.yul\":2685:2756   */\n      swap3\n      pop\n        /* \"#utility.yul\":2640:2766   */\n      pop\n        /* \"#utility.yul\":2805:2807   */\n      0x40\n        /* \"#utility.yul\":2831:2884   */\n      tag_194\n        /* \"#utility.yul\":2876:2883   */\n      dup7\n        /* \"#utility.yul\":2867:2873   */\n      dup3\n        /* \"#utility.yul\":2856:2865   */\n      dup8\n        /* \"#utility.yul\":2852:2874   */\n      add\n        /* \"#utility.yul\":2831:2884   */\n      tag_171\n      jump\t// in\n    tag_194:\n        /* \"#utility.yul\":2821:2884   */\n      swap2\n      pop\n        /* \"#utility.yul\":2776:2894   */\n      pop\n        /* \"#utility.yul\":2086:2901   */\n      swap3\n      pop\n      swap3\n      pop\n      swap3\n      jump\t// out\n        /* \"#utility.yul\":2907:3236   */\n    tag_26:\n        /* \"#utility.yul\":2966:2972   */\n      0x00\n        /* \"#utility.yul\":3015:3017   */\n      0x20\n        /* \"#utility.yul\":3003:3012   */\n      dup3\n        /* \"#utility.yul\":2994:3001   */\n      dup5\n        /* \"#utility.yul\":2990:3013   */\n      sub\n        /* \"#utility.yul\":2986:3018   */\n      slt\n        /* \"#utility.yul\":2983:3102   */\n      iszero\n      tag_196\n      jumpi\n        /* \"#utility.yul\":3021:3100   */\n      tag_197\n      tag_178\n      jump\t// in\n    tag_197:\n        /* \"#utility.yul\":2983:3102   */\n    tag_196:\n        /* \"#utility.yul\":3141:3142   */\n      0x00\n        /* \"#utility.yul\":3166:3219   */\n      tag_198\n        /* \"#utility.yul\":3211:3218   */\n      dup5\n        /* \"#utility.yul\":3202:3208   */\n      dup3\n        /* \"#utility.yul\":3191:3200   */\n      dup6\n        /* \"#utility.yul\":3187:3209   */\n      add\n        /* \"#utility.yul\":3166:3219   */\n      tag_171\n      jump\t// in\n    tag_198:\n        /* \"#utility.yul\":3156:3219   */\n      swap2\n      pop\n        /* \"#utility.yul\":3112:3229   */\n      pop\n        /* \"#utility.yul\":2907:3236   */\n      swap3\n      swap2\n      pop\n      pop\n      jump\t// out\n        /* \"#utility.yul\":3242:3732   */\n    tag_31:\n        /* \"#utility.yul\":3318:3324   */\n      0x00\n        /* \"#utility.yul\":3326:3332   */\n      dup1\n        /* \"#utility.yul\":3375:3377   */\n      0x40\n        /* \"#utility.yul\":3363:3372   */\n      dup4\n        /* \"#utility.yul\":3354:3361   */\n      dup6\n        /* \"#utility.yul\":3350:3373   */\n      sub\n        /* \"#utility.yul\":3346:3378   */\n      slt\n        /* \"#utility.yul\":3343:3462   */\n      iszero\n      tag_200\n      jumpi\n        /* \"#utility.yul\":3381:3460   */\n      tag_201\n      tag_178\n      jump\t// in\n    tag_201:\n        /* \"#utility.yul\":3343:3462   */\n    tag_200:\n        /* \"#utility.yul\":3501:3502   */\n      0x00\n        /* \"#utility.yul\":3526:3579   */\n      tag_202\n        /* \"#utility.yul\":3571:3578   */\n      dup6\n        /* \"#utility.yul\":3562:3568   */\n      dup3\n        /* \"#utility.yul\":3551:3560   */\n      dup7\n        /* \"#utility.yul\":3547:3569   */\n      add\n        /* \"#utility.yul\":3526:3579   */\n      tag_171\n      jump\t// in\n    tag_202:\n        /* \"#utility.yul\":3516:3579   */\n      swap3\n      pop\n        /* \"#utility.yul\":3472:3589   */\n      pop\n        /* \"#utility.yul\":3628:3630   */\n      0x20\n        /* \"#utility.yul\":3654:3715   */\n      tag_203\n        /* \"#utility.yul\":3707:3714   */\n      dup6\n        /* \"#utility.yul\":3698:3704   */\n      dup3\n        /* \"#utility.yul\":3687:3696   */\n      dup7\n        /* \"#utility.yul\":3683:3705   */\n      add\n        /* \"#utility.yul\":3654:3715   */\n      tag_161\n      jump\t// in\n    tag_203:\n        /* \"#utility.yul\":3644:3715   */\n      swap2\n      pop\n        /* \"#utility.yul\":3599:3725   */\n      pop\n        /* \"#utility.yul\":3242:3732   */\n      swap3\n      pop\n      swap3\n      swap1\n      pop\n      jump\t// out\n        /* \"#utility.yul\":3738:4212   */\n    tag_14:\n        /* \"#utility.yul\":3806:3812   */\n      0x00\n        /* \"#utility.yul\":3814:3820   */\n      dup1\n        /* \"#utility.yul\":3863:3865   */\n      0x40\n        /* \"#utility.yul\":3851:3860   */\n      dup4\n        /* \"#utility.yul\":3842:3849   */\n      dup6\n        /* \"#utility.yul\":3838:3861   */\n      sub\n        /* \"#utility.yul\":3834:3866   */\n      slt\n        /* \"#utility.yul\":3831:3950   */\n      iszero\n      tag_205\n      jumpi\n        /* \"#utility.yul\":3869:3948   */\n      tag_206\n      tag_178\n      jump\t// in\n    tag_206:\n        /* \"#utility.yul\":3831:3950   */\n    tag_205:\n        /* \"#utility.yul\":3989:3990   */\n      0x00\n        /* \"#utility.yul\":4014:4067   */\n      tag_207\n        /* \"#utility.yul\":4059:4066   */\n      dup6\n        /* \"#utility.yul\":4050:4056   */\n      dup3\n        /* \"#utility.yul\":4039:4048   */\n      dup7\n        /* \"#utility.yul\":4035:4057   */\n      add\n        /* \"#utility.yul\":4014:4067   */\n      tag_171\n      jump\t// in\n    tag_207:\n        /* \"#utility.yul\":4004:4067   */\n      swap3\n      pop\n        /* \"#utility.yul\":3960:4077   */\n      pop\n        /* \"#utility.yul\":4116:4118   */\n      0x20\n        /* \"#utility.yul\":4142:4195   */\n      tag_208\n        /* \"#utility.yul\":4187:4194   */\n      dup6\n        /* \"#utility.yul\":4178:4184   */\n      dup3\n        /* \"#utility.yul\":4167:4176   */\n      dup7\n        /* \"#utility.yul\":4163:4185   */\n      add\n        /* \"#utility.yul\":4142:4195   */\n      tag_171\n      jump\t// in\n    tag_208:\n        /* \"#utility.yul\":4132:4195   */\n      swap2\n      pop\n        /* \"#utility.yul\":4087:4205   */\n      pop\n        /* \"#utility.yul\":3738:4212   */\n      swap3\n      pop\n      swap3\n      swap1\n      pop\n      jump\t// out\n        /* \"#utility.yul\":4218:4350   */\n    tag_209:\n        /* \"#utility.yul\":4311:4343   */\n      tag_211\n        /* \"#utility.yul\":4337:4342   */\n      dup2\n        /* \"#utility.yul\":4311:4343   */\n      tag_212\n      jump\t// in\n    tag_211:\n        /* \"#utility.yul\":4306:4309   */\n      dup3\n        /* \"#utility.yul\":4299:4344   */\n      mstore\n        /* \"#utility.yul\":4218:4350   */\n      pop\n      pop\n      jump\t// out\n        /* \"#utility.yul\":4356:4474   */\n    tag_213:\n        /* \"#utility.yul\":4443:4467   */\n      tag_215\n        /* \"#utility.yul\":4461:4466   */\n      dup2\n        /* \"#utility.yul\":4443:4467   */\n      tag_216\n      jump\t// in\n    tag_215:\n        /* \"#utility.yul\":4438:4441   */\n      dup3\n        /* \"#utility.yul\":4431:4468   */\n      mstore\n        /* \"#utility.yul\":4356:4474   */\n      pop\n      pop\n      jump\t// out\n        /* \"#utility.yul\":4480:4824   */\n    tag_217:\n        /* \"#utility.yul\":4558:4561   */\n      0x00\n        /* \"#utility.yul\":4586:4625   */\n      tag_219\n        /* \"#utility.yul\":4619:4624   */\n      dup3\n        /* \"#utility.yul\":4586:4625   */\n      tag_220\n      jump\t// in\n    tag_219:\n        /* \"#utility.yul\":4641:4702   */\n      tag_221\n        /* \"#utility.yul\":4695:4701   */\n      dup2\n        /* \"#utility.yul\":4690:4693   */\n      dup6\n        /* \"#utility.yul\":4641:4702   */\n      tag_222\n      jump\t// in\n    tag_221:\n        /* \"#utility.yul\":4634:4702   */\n      swap4\n      pop\n        /* \"#utility.yul\":4711:4763   */\n      tag_223\n        /* \"#utility.yul\":4756:4762   */\n      dup2\n        /* \"#utility.yul\":4751:4754   */\n      dup6\n        /* \"#utility.yul\":4744:4748   */\n      0x20\n        /* \"#utility.yul\":4737:4742   */\n      dup7\n        /* \"#utility.yul\":4733:4749   */\n      add\n        /* \"#utility.yul\":4711:4763   */\n      tag_224\n      jump\t// in\n    tag_223:\n        /* \"#utility.yul\":4788:4817   */\n      tag_225\n        /* \"#utility.yul\":4810:4816   */\n      dup2\n        /* \"#utility.yul\":4788:4817   */\n      tag_226\n      jump\t// in\n    tag_225:\n        /* \"#utility.yul\":4783:4786   */\n      dup5\n        /* \"#utility.yul\":4779:4818   */\n      add\n        /* \"#utility.yul\":4772:4818   */\n      swap2\n      pop\n        /* \"#utility.yul\":4562:4824   */\n      pop\n        /* \"#utility.yul\":4480:4824   */\n      swap3\n      swap2\n      pop\n      pop\n      jump\t// out\n        /* \"#utility.yul\":4830:5207   */\n    tag_227:\n        /* \"#utility.yul\":4936:4939   */\n      0x00\n        /* \"#utility.yul\":4964:5003   */\n      tag_229\n        /* \"#utility.yul\":4997:5002   */\n      dup3\n        /* \"#utility.yul\":4964:5003   */\n      tag_220\n      jump\t// in\n    tag_229:\n        /* \"#utility.yul\":5019:5108   */\n      tag_230\n        /* \"#utility.yul\":5101:5107   */\n      dup2\n        /* \"#utility.yul\":5096:5099   */\n      dup6\n        /* \"#utility.yul\":5019:5108   */\n      tag_231\n      jump\t// in\n    tag_230:\n        /* \"#utility.yul\":5012:5108   */\n      swap4\n      pop\n        /* \"#utility.yul\":5117:5169   */\n      tag_232\n        /* \"#utility.yul\":5162:5168   */\n      dup2\n        /* \"#utility.yul\":5157:5160   */\n      dup6\n        /* \"#utility.yul\":5150:5154   */\n      0x20\n        /* \"#utility.yul\":5143:5148   */\n      dup7\n        /* \"#utility.yul\":5139:5155   */\n      add\n        /* \"#utility.yul\":5117:5169   */\n      tag_224\n      jump\t// in\n    tag_232:\n        /* \"#utility.yul\":5194:5200   */\n      dup1\n        /* \"#utility.yul\":5189:5192   */\n      dup5\n        /* \"#utility.yul\":5185:5201   */\n      add\n        /* \"#utility.yul\":5178:5201   */\n      swap2\n      pop\n        /* \"#utility.yul\":4940:5207   */\n      pop\n        /* \"#utility.yul\":4830:5207   */\n      swap3\n      swap2\n      pop\n      pop\n      jump\t// out\n        /* \"#utility.yul\":5213:5579   */\n    tag_233:\n        /* \"#utility.yul\":5355:5358   */\n      0x00\n        /* \"#utility.yul\":5376:5443   */\n      tag_235\n        /* \"#utility.yul\":5440:5442   */\n      0x26\n        /* \"#utility.yul\":5435:5438   */\n      dup4\n        /* \"#utility.yul\":5376:5443   */\n      tag_236\n      jump\t// in\n    tag_235:\n        /* \"#utility.yul\":5369:5443   */\n      swap2\n      pop\n        /* \"#utility.yul\":5452:5545   */\n      tag_237\n        /* \"#utility.yul\":5541:5544   */\n      dup3\n        /* \"#utility.yul\":5452:5545   */\n      tag_238\n      jump\t// in\n    tag_237:\n        /* \"#utility.yul\":5570:5572   */\n      0x40\n        /* \"#utility.yul\":5565:5568   */\n      dup3\n        /* \"#utility.yul\":5561:5573   */\n      add\n        /* \"#utility.yul\":5554:5573   */\n      swap1\n      pop\n        /* \"#utility.yul\":5213:5579   */\n      swap2\n      swap1\n      pop\n      jump\t// out\n        /* \"#utility.yul\":5585:5951   */\n    tag_239:\n        /* \"#utility.yul\":5727:5730   */\n      0x00\n        /* \"#utility.yul\":5748:5815   */\n      tag_241\n        /* \"#utility.yul\":5812:5814   */\n      0x0b\n        /* \"#utility.yul\":5807:5810   */\n      dup4\n        /* \"#utility.yul\":5748:5815   */\n      tag_236\n      jump\t// in\n    tag_241:\n        /* \"#utility.yul\":5741:5815   */\n      swap2\n      pop\n        /* \"#utility.yul\":5824:5917   */\n      tag_242\n        /* \"#utility.yul\":5913:5916   */\n      dup3\n        /* \"#utility.yul\":5824:5917   */\n      tag_243\n      jump\t// in\n    tag_242:\n        /* \"#utility.yul\":5942:5944   */\n      0x20\n        /* \"#utility.yul\":5937:5940   */\n      dup3\n        /* \"#utility.yul\":5933:5945   */\n      add\n        /* \"#utility.yul\":5926:5945   */\n      swap1\n      pop\n        /* \"#utility.yul\":5585:5951   */\n      swap2\n      swap1\n      pop\n      jump\t// out\n        /* \"#utility.yul\":5957:6323   */\n    tag_244:\n        /* \"#utility.yul\":6099:6102   */\n      0x00\n        /* \"#utility.yul\":6120:6187   */\n      tag_246\n        /* \"#utility.yul\":6184:6186   */\n      0x20\n        /* \"#utility.yul\":6179:6182   */\n      dup4\n        /* \"#utility.yul\":6120:6187   */\n      tag_236\n      jump\t// in\n    tag_246:\n        /* \"#utility.yul\":6113:6187   */\n      swap2\n      pop\n        /* \"#utility.yul\":6196:6289   */\n      tag_247\n        /* \"#utility.yul\":6285:6288   */\n      dup3\n        /* \"#utility.yul\":6196:6289   */\n      tag_248\n      jump\t// in\n    tag_247:\n        /* \"#utility.yul\":6314:6316   */\n      0x20\n        /* \"#utility.yul\":6309:6312   */\n      dup3\n        /* \"#utility.yul\":6305:6317   */\n      add\n        /* \"#utility.yul\":6298:6317   */\n      swap1\n      pop\n        /* \"#utility.yul\":5957:6323   */\n      swap2\n      swap1\n      pop\n      jump\t// out\n        /* \"#utility.yul\":6329:6695   */\n    tag_249:\n        /* \"#utility.yul\":6471:6474   */\n      0x00\n        /* \"#utility.yul\":6492:6559   */\n      tag_251\n        /* \"#utility.yul\":6556:6558   */\n      0x2a\n        /* \"#utility.yul\":6551:6554   */\n      dup4\n        /* \"#utility.yul\":6492:6559   */\n      tag_236\n      jump\t// in\n    tag_251:\n        /* \"#utility.yul\":6485:6559   */\n      swap2\n      pop\n        /* \"#utility.yul\":6568:6661   */\n      tag_252\n        /* \"#utility.yul\":6657:6660   */\n      dup3\n        /* \"#utility.yul\":6568:6661   */\n      tag_253\n      jump\t// in\n    tag_252:\n        /* \"#utility.yul\":6686:6688   */\n      0x40\n        /* \"#utility.yul\":6681:6684   */\n      dup3\n        /* \"#utility.yul\":6677:6689   */\n      add\n        /* \"#utility.yul\":6670:6689   */\n      swap1\n      pop\n        /* \"#utility.yul\":6329:6695   */\n      swap2\n      swap1\n      pop\n      jump\t// out\n        /* \"#utility.yul\":6771:7750   */\n    tag_254:\n        /* \"#utility.yul\":6888:6891   */\n      0x00\n        /* \"#utility.yul\":6924:6928   */\n      0x80\n        /* \"#utility.yul\":6919:6922   */\n      dup4\n        /* \"#utility.yul\":6915:6929   */\n      add\n        /* \"#utility.yul\":7009:7013   */\n      0x00\n        /* \"#utility.yul\":7002:7007   */\n      dup4\n        /* \"#utility.yul\":6998:7014   */\n      add\n        /* \"#utility.yul\":6992:7015   */\n      mload\n        /* \"#utility.yul\":7028:7091   */\n      tag_256\n        /* \"#utility.yul\":7085:7089   */\n      0x00\n        /* \"#utility.yul\":7080:7083   */\n      dup7\n        /* \"#utility.yul\":7076:7090   */\n      add\n        /* \"#utility.yul\":7062:7074   */\n      dup3\n        /* \"#utility.yul\":7028:7091   */\n      tag_257\n      jump\t// in\n    tag_256:\n        /* \"#utility.yul\":6939:7101   */\n      pop\n        /* \"#utility.yul\":7183:7187   */\n      0x20\n        /* \"#utility.yul\":7176:7181   */\n      dup4\n        /* \"#utility.yul\":7172:7188   */\n      add\n        /* \"#utility.yul\":7166:7189   */\n      mload\n        /* \"#utility.yul\":7236:7239   */\n      dup5\n        /* \"#utility.yul\":7230:7234   */\n      dup3\n        /* \"#utility.yul\":7226:7240   */\n      sub\n        /* \"#utility.yul\":7219:7223   */\n      0x20\n        /* \"#utility.yul\":7214:7217   */\n      dup7\n        /* \"#utility.yul\":7210:7224   */\n      add\n        /* \"#utility.yul\":7203:7241   */\n      mstore\n        /* \"#utility.yul\":7262:7335   */\n      tag_258\n        /* \"#utility.yul\":7330:7334   */\n      dup3\n        /* \"#utility.yul\":7316:7328   */\n      dup3\n        /* \"#utility.yul\":7262:7335   */\n      tag_217\n      jump\t// in\n    tag_258:\n        /* \"#utility.yul\":7254:7335   */\n      swap2\n      pop\n        /* \"#utility.yul\":7111:7346   */\n      pop\n        /* \"#utility.yul\":7433:7437   */\n      0x40\n        /* \"#utility.yul\":7426:7431   */\n      dup4\n        /* \"#utility.yul\":7422:7438   */\n      add\n        /* \"#utility.yul\":7416:7439   */\n      mload\n        /* \"#utility.yul\":7452:7531   */\n      tag_259\n        /* \"#utility.yul\":7525:7529   */\n      0x40\n        /* \"#utility.yul\":7520:7523   */\n      dup7\n        /* \"#utility.yul\":7516:7530   */\n      add\n        /* \"#utility.yul\":7502:7514   */\n      dup3\n        /* \"#utility.yul\":7452:7531   */\n      tag_209\n      jump\t// in\n    tag_259:\n        /* \"#utility.yul\":7356:7541   */\n      pop\n        /* \"#utility.yul\":7631:7635   */\n      0x60\n        /* \"#utility.yul\":7624:7629   */\n      dup4\n        /* \"#utility.yul\":7620:7636   */\n      add\n        /* \"#utility.yul\":7614:7637   */\n      mload\n        /* \"#utility.yul\":7650:7713   */\n      tag_260\n        /* \"#utility.yul\":7707:7711   */\n      0x60\n        /* \"#utility.yul\":7702:7705   */\n      dup7\n        /* \"#utility.yul\":7698:7712   */\n      add\n        /* \"#utility.yul\":7684:7696   */\n      dup3\n        /* \"#utility.yul\":7650:7713   */\n      tag_257\n      jump\t// in\n    tag_260:\n        /* \"#utility.yul\":7551:7723   */\n      pop\n        /* \"#utility.yul\":7740:7744   */\n      dup1\n        /* \"#utility.yul\":7733:7744   */\n      swap2\n      pop\n        /* \"#utility.yul\":6893:7750   */\n      pop\n        /* \"#utility.yul\":6771:7750   */\n      swap3\n      swap2\n      pop\n      pop\n      jump\t// out\n        /* \"#utility.yul\":7756:7864   */\n    tag_257:\n        /* \"#utility.yul\":7833:7857   */\n      tag_262\n        /* \"#utility.yul\":7851:7856   */\n      dup2\n        /* \"#utility.yul\":7833:7857   */\n      tag_263\n      jump\t// in\n    tag_262:\n        /* \"#utility.yul\":7828:7831   */\n      dup3\n        /* \"#utility.yul\":7821:7858   */\n      mstore\n        /* \"#utility.yul\":7756:7864   */\n      pop\n      pop\n      jump\t// out\n        /* \"#utility.yul\":7870:7988   */\n    tag_264:\n        /* \"#utility.yul\":7957:7981   */\n      tag_266\n        /* \"#utility.yul\":7975:7980   */\n      dup2\n        /* \"#utility.yul\":7957:7981   */\n      tag_263\n      jump\t// in\n    tag_266:\n        /* \"#utility.yul\":7952:7955   */\n      dup3\n        /* \"#utility.yul\":7945:7982   */\n      mstore\n        /* \"#utility.yul\":7870:7988   */\n      pop\n      pop\n      jump\t// out\n        /* \"#utility.yul\":7994:8269   */\n    tag_66:\n        /* \"#utility.yul\":8126:8129   */\n      0x00\n        /* \"#utility.yul\":8148:8243   */\n      tag_268\n        /* \"#utility.yul\":8239:8242   */\n      dup3\n        /* \"#utility.yul\":8230:8236   */\n      dup5\n        /* \"#utility.yul\":8148:8243   */\n      tag_227\n      jump\t// in\n    tag_268:\n        /* \"#utility.yul\":8141:8243   */\n      swap2\n      pop\n        /* \"#utility.yul\":8260:8263   */\n      dup2\n        /* \"#utility.yul\":8253:8263   */\n      swap1\n      pop\n        /* \"#utility.yul\":7994:8269   */\n      swap3\n      swap2\n      pop\n      pop\n      jump\t// out\n        /* \"#utility.yul\":8275:8497   */\n    tag_36:\n        /* \"#utility.yul\":8368:8372   */\n      0x00\n        /* \"#utility.yul\":8406:8408   */\n      0x20\n        /* \"#utility.yul\":8395:8404   */\n      dup3\n        /* \"#utility.yul\":8391:8409   */\n      add\n        /* \"#utility.yul\":8383:8409   */\n      swap1\n      pop\n        /* \"#utility.yul\":8419:8490   */\n      tag_270\n        /* \"#utility.yul\":8487:8488   */\n      0x00\n        /* \"#utility.yul\":8476:8485   */\n      dup4\n        /* \"#utility.yul\":8472:8489   */\n      add\n        /* \"#utility.yul\":8463:8469   */\n      dup5\n        /* \"#utility.yul\":8419:8490   */\n      tag_213\n      jump\t// in\n    tag_270:\n        /* \"#utility.yul\":8275:8497   */\n      swap3\n      swap2\n      pop\n      pop\n      jump\t// out\n        /* \"#utility.yul\":8503:8922   */\n    tag_129:\n        /* \"#utility.yul\":8669:8673   */\n      0x00\n        /* \"#utility.yul\":8707:8709   */\n      0x20\n        /* \"#utility.yul\":8696:8705   */\n      dup3\n        /* \"#utility.yul\":8692:8710   */\n      add\n        /* \"#utility.yul\":8684:8710   */\n      swap1\n      pop\n        /* \"#utility.yul\":8756:8765   */\n      dup2\n        /* \"#utility.yul\":8750:8754   */\n      dup2\n        /* \"#utility.yul\":8746:8766   */\n      sub\n        /* \"#utility.yul\":8742:8743   */\n      0x00\n        /* \"#utility.yul\":8731:8740   */\n      dup4\n        /* \"#utility.yul\":8727:8744   */\n      add\n        /* \"#utility.yul\":8720:8767   */\n      mstore\n        /* \"#utility.yul\":8784:8915   */\n      tag_272\n        /* \"#utility.yul\":8910:8914   */\n      dup2\n        /* \"#utility.yul\":8784:8915   */\n      tag_233\n      jump\t// in\n    tag_272:\n        /* \"#utility.yul\":8776:8915   */\n      swap1\n      pop\n        /* \"#utility.yul\":8503:8922   */\n      swap2\n      swap1\n      pop\n      jump\t// out\n        /* \"#utility.yul\":8928:9347   */\n    tag_53:\n        /* \"#utility.yul\":9094:9098   */\n      0x00\n        /* \"#utility.yul\":9132:9134   */\n      0x20\n        /* \"#utility.yul\":9121:9130   */\n      dup3\n        /* \"#utility.yul\":9117:9135   */\n      add\n        /* \"#utility.yul\":9109:9135   */\n      swap1\n      pop\n        /* \"#utility.yul\":9181:9190   */\n      dup2\n        /* \"#utility.yul\":9175:9179   */\n      dup2\n        /* \"#utility.yul\":9171:9191   */\n      sub\n        /* \"#utility.yul\":9167:9168   */\n      0x00\n        /* \"#utility.yul\":9156:9165   */\n      dup4\n        /* \"#utility.yul\":9152:9169   */\n      add\n        /* \"#utility.yul\":9145:9192   */\n      mstore\n        /* \"#utility.yul\":9209:9340   */\n      tag_274\n        /* \"#utility.yul\":9335:9339   */\n      dup2\n        /* \"#utility.yul\":9209:9340   */\n      tag_239\n      jump\t// in\n    tag_274:\n        /* \"#utility.yul\":9201:9340   */\n      swap1\n      pop\n        /* \"#utility.yul\":8928:9347   */\n      swap2\n      swap1\n      pop\n      jump\t// out\n        /* \"#utility.yul\":9353:9772   */\n    tag_60:\n        /* \"#utility.yul\":9519:9523   */\n      0x00\n        /* \"#utility.yul\":9557:9559   */\n      0x20\n        /* \"#utility.yul\":9546:9555   */\n      dup3\n        /* \"#utility.yul\":9542:9560   */\n      add\n        /* \"#utility.yul\":9534:9560   */\n      swap1\n      pop\n        /* \"#utility.yul\":9606:9615   */\n      dup2\n        /* \"#utility.yul\":9600:9604   */\n      dup2\n        /* \"#utility.yul\":9596:9616   */\n      sub\n        /* \"#utility.yul\":9592:9593   */\n      0x00\n        /* \"#utility.yul\":9581:9590   */\n      dup4\n        /* \"#utility.yul\":9577:9594   */\n      add\n        /* \"#utility.yul\":9570:9617   */\n      mstore\n        /* \"#utility.yul\":9634:9765   */\n      tag_276\n        /* \"#utility.yul\":9760:9764   */\n      dup2\n        /* \"#utility.yul\":9634:9765   */\n      tag_244\n      jump\t// in\n    tag_276:\n        /* \"#utility.yul\":9626:9765   */\n      swap1\n      pop\n        /* \"#utility.yul\":9353:9772   */\n      swap2\n      swap1\n      pop\n      jump\t// out\n        /* \"#utility.yul\":9778:10197   */\n    tag_106:\n        /* \"#utility.yul\":9944:9948   */\n      0x00\n        /* \"#utility.yul\":9982:9984   */\n      0x20\n        /* \"#utility.yul\":9971:9980   */\n      dup3\n        /* \"#utility.yul\":9967:9985   */\n      add\n        /* \"#utility.yul\":9959:9985   */\n      swap1\n      pop\n        /* \"#utility.yul\":10031:10040   */\n      dup2\n        /* \"#utility.yul\":10025:10029   */\n      dup2\n        /* \"#utility.yul\":10021:10041   */\n      sub\n        /* \"#utility.yul\":10017:10018   */\n      0x00\n        /* \"#utility.yul\":10006:10015   */\n      dup4\n        /* \"#utility.yul\":10002:10019   */\n      add\n        /* \"#utility.yul\":9995:10042   */\n      mstore\n        /* \"#utility.yul\":10059:10190   */\n      tag_278\n        /* \"#utility.yul\":10185:10189   */\n      dup2\n        /* \"#utility.yul\":10059:10190   */\n      tag_249\n      jump\t// in\n    tag_278:\n        /* \"#utility.yul\":10051:10190   */\n      swap1\n      pop\n        /* \"#utility.yul\":9778:10197   */\n      swap2\n      swap1\n      pop\n      jump\t// out\n        /* \"#utility.yul\":10203:10572   */\n    tag_21:\n        /* \"#utility.yul\":10344:10348   */\n      0x00\n        /* \"#utility.yul\":10382:10384   */\n      0x20\n        /* \"#utility.yul\":10371:10380   */\n      dup3\n        /* \"#utility.yul\":10367:10385   */\n      add\n        /* \"#utility.yul\":10359:10385   */\n      swap1\n      pop\n        /* \"#utility.yul\":10431:10440   */\n      dup2\n        /* \"#utility.yul\":10425:10429   */\n      dup2\n        /* \"#utility.yul\":10421:10441   */\n      sub\n        /* \"#utility.yul\":10417:10418   */\n      0x00\n        /* \"#utility.yul\":10406:10415   */\n      dup4\n        /* \"#utility.yul\":10402:10419   */\n      add\n        /* \"#utility.yul\":10395:10442   */\n      mstore\n        /* \"#utility.yul\":10459:10565   */\n      tag_280\n        /* \"#utility.yul\":10560:10564   */\n      dup2\n        /* \"#utility.yul\":10551:10557   */\n      dup5\n        /* \"#utility.yul\":10459:10565   */\n      tag_254\n      jump\t// in\n    tag_280:\n        /* \"#utility.yul\":10451:10565   */\n      swap1\n      pop\n        /* \"#utility.yul\":10203:10572   */\n      swap3\n      swap2\n      pop\n      pop\n      jump\t// out\n        /* \"#utility.yul\":10578:10800   */\n    tag_42:\n        /* \"#utility.yul\":10671:10675   */\n      0x00\n        /* \"#utility.yul\":10709:10711   */\n      0x20\n        /* \"#utility.yul\":10698:10707   */\n      dup3\n        /* \"#utility.yul\":10694:10712   */\n      add\n        /* \"#utility.yul\":10686:10712   */\n      swap1\n      pop\n        /* \"#utility.yul\":10722:10793   */\n      tag_282\n        /* \"#utility.yul\":10790:10791   */\n      0x00\n        /* \"#utility.yul\":10779:10788   */\n      dup4\n        /* \"#utility.yul\":10775:10792   */\n      add\n        /* \"#utility.yul\":10766:10772   */\n      dup5\n        /* \"#utility.yul\":10722:10793   */\n      tag_264\n      jump\t// in\n    tag_282:\n        /* \"#utility.yul\":10578:10800   */\n      swap3\n      swap2\n      pop\n      pop\n      jump\t// out\n        /* \"#utility.yul\":10806:10935   */\n    tag_151:\n        /* \"#utility.yul\":10840:10846   */\n      0x00\n        /* \"#utility.yul\":10867:10887   */\n      tag_284\n      tag_285\n      jump\t// in\n    tag_284:\n        /* \"#utility.yul\":10857:10887   */\n      swap1\n      pop\n        /* \"#utility.yul\":10896:10929   */\n      tag_286\n        /* \"#utility.yul\":10924:10928   */\n      dup3\n        /* \"#utility.yul\":10916:10922   */\n      dup3\n        /* \"#utility.yul\":10896:10929   */\n      tag_287\n      jump\t// in\n    tag_286:\n        /* \"#utility.yul\":10806:10935   */\n      swap2\n      swap1\n      pop\n      jump\t// out\n        /* \"#utility.yul\":10941:11016   */\n    tag_285:\n        /* \"#utility.yul\":10974:10980   */\n      0x00\n        /* \"#utility.yul\":11007:11009   */\n      0x40\n        /* \"#utility.yul\":11001:11010   */\n      mload\n        /* \"#utility.yul\":10991:11010   */\n      swap1\n      pop\n        /* \"#utility.yul\":10941:11016   */\n      swap1\n      jump\t// out\n        /* \"#utility.yul\":11022:11330   */\n    tag_150:\n        /* \"#utility.yul\":11084:11088   */\n      0x00\n        /* \"#utility.yul\":11174:11192   */\n      0xffffffffffffffff\n        /* \"#utility.yul\":11166:11172   */\n      dup3\n        /* \"#utility.yul\":11163:11193   */\n      gt\n        /* \"#utility.yul\":11160:11216   */\n      iszero\n      tag_290\n      jumpi\n        /* \"#utility.yul\":11196:11214   */\n      tag_291\n      tag_292\n      jump\t// in\n    tag_291:\n        /* \"#utility.yul\":11160:11216   */\n    tag_290:\n        /* \"#utility.yul\":11234:11263   */\n      tag_293\n        /* \"#utility.yul\":11256:11262   */\n      dup3\n        /* \"#utility.yul\":11234:11263   */\n      tag_226\n      jump\t// in\n    tag_293:\n        /* \"#utility.yul\":11226:11263   */\n      swap1\n      pop\n        /* \"#utility.yul\":11318:11322   */\n      0x20\n        /* \"#utility.yul\":11312:11316   */\n      dup2\n        /* \"#utility.yul\":11308:11323   */\n      add\n        /* \"#utility.yul\":11300:11323   */\n      swap1\n      pop\n        /* \"#utility.yul\":11022:11330   */\n      swap2\n      swap1\n      pop\n      jump\t// out\n        /* \"#utility.yul\":11336:11435   */\n    tag_220:\n        /* \"#utility.yul\":11388:11394   */\n      0x00\n        /* \"#utility.yul\":11422:11427   */\n      dup2\n        /* \"#utility.yul\":11416:11428   */\n      mload\n        /* \"#utility.yul\":11406:11428   */\n      swap1\n      pop\n        /* \"#utility.yul\":11336:11435   */\n      swap2\n      swap1\n      pop\n      jump\t// out\n        /* \"#utility.yul\":11441:11600   */\n    tag_222:\n        /* \"#utility.yul\":11515:11526   */\n      0x00\n        /* \"#utility.yul\":11549:11555   */\n      dup3\n        /* \"#utility.yul\":11544:11547   */\n      dup3\n        /* \"#utility.yul\":11537:11556   */\n      mstore\n        /* \"#utility.yul\":11589:11593   */\n      0x20\n        /* \"#utility.yul\":11584:11587   */\n      dup3\n        /* \"#utility.yul\":11580:11594   */\n      add\n        /* \"#utility.yul\":11565:11594   */\n      swap1\n      pop\n        /* \"#utility.yul\":11441:11600   */\n      swap3\n      swap2\n      pop\n      pop\n      jump\t// out\n        /* \"#utility.yul\":11606:11775   */\n    tag_236:\n        /* \"#utility.yul\":11690:11701   */\n      0x00\n        /* \"#utility.yul\":11724:11730   */\n      dup3\n        /* \"#utility.yul\":11719:11722   */\n      dup3\n        /* \"#utility.yul\":11712:11731   */\n      mstore\n        /* \"#utility.yul\":11764:11768   */\n      0x20\n        /* \"#utility.yul\":11759:11762   */\n      dup3\n        /* \"#utility.yul\":11755:11769   */\n      add\n        /* \"#utility.yul\":11740:11769   */\n      swap1\n      pop\n        /* \"#utility.yul\":11606:11775   */\n      swap3\n      swap2\n      pop\n      pop\n      jump\t// out\n        /* \"#utility.yul\":11781:11929   */\n    tag_231:\n        /* \"#utility.yul\":11883:11894   */\n      0x00\n        /* \"#utility.yul\":11920:11923   */\n      dup2\n        /* \"#utility.yul\":11905:11923   */\n      swap1\n      pop\n        /* \"#utility.yul\":11781:11929   */\n      swap3\n      swap2\n      pop\n      pop\n      jump\t// out\n        /* \"#utility.yul\":11935:12031   */\n    tag_216:\n        /* \"#utility.yul\":11972:11979   */\n      0x00\n        /* \"#utility.yul\":12001:12025   */\n      tag_299\n        /* \"#utility.yul\":12019:12024   */\n      dup3\n        /* \"#utility.yul\":12001:12025   */\n      tag_300\n      jump\t// in\n    tag_299:\n        /* \"#utility.yul\":11990:12025   */\n      swap1\n      pop\n        /* \"#utility.yul\":11935:12031   */\n      swap2\n      swap1\n      pop\n      jump\t// out\n        /* \"#utility.yul\":12037:12141   */\n    tag_212:\n        /* \"#utility.yul\":12082:12089   */\n      0x00\n        /* \"#utility.yul\":12111:12135   */\n      tag_302\n        /* \"#utility.yul\":12129:12134   */\n      dup3\n        /* \"#utility.yul\":12111:12135   */\n      tag_300\n      jump\t// in\n    tag_302:\n        /* \"#utility.yul\":12100:12135   */\n      swap1\n      pop\n        /* \"#utility.yul\":12037:12141   */\n      swap2\n      swap1\n      pop\n      jump\t// out\n        /* \"#utility.yul\":12147:12273   */\n    tag_300:\n        /* \"#utility.yul\":12184:12191   */\n      0x00\n        /* \"#utility.yul\":12224:12266   */\n      0xffffffffffffffffffffffffffffffffffffffff\n        /* \"#utility.yul\":12217:12222   */\n      dup3\n        /* \"#utility.yul\":12213:12267   */\n      and\n        /* \"#utility.yul\":12202:12267   */\n      swap1\n      pop\n        /* \"#utility.yul\":12147:12273   */\n      swap2\n      swap1\n      pop\n      jump\t// out\n        /* \"#utility.yul\":12279:12356   */\n    tag_263:\n        /* \"#utility.yul\":12316:12323   */\n      0x00\n        /* \"#utility.yul\":12345:12350   */\n      dup2\n        /* \"#utility.yul\":12334:12350   */\n      swap1\n      pop\n        /* \"#utility.yul\":12279:12356   */\n      swap2\n      swap1\n      pop\n      jump\t// out\n        /* \"#utility.yul\":12362:12516   */\n    tag_156:\n        /* \"#utility.yul\":12446:12452   */\n      dup3\n        /* \"#utility.yul\":12441:12444   */\n      dup2\n        /* \"#utility.yul\":12436:12439   */\n      dup4\n        /* \"#utility.yul\":12423:12453   */\n      calldatacopy\n        /* \"#utility.yul\":12508:12509   */\n      0x00\n        /* \"#utility.yul\":12499:12505   */\n      dup4\n        /* \"#utility.yul\":12494:12497   */\n      dup4\n        /* \"#utility.yul\":12490:12506   */\n      add\n        /* \"#utility.yul\":12483:12510   */\n      mstore\n        /* \"#utility.yul\":12362:12516   */\n      pop\n      pop\n      pop\n      jump\t// out\n        /* \"#utility.yul\":12522:12829   */\n    tag_224:\n        /* \"#utility.yul\":12590:12591   */\n      0x00\n        /* \"#utility.yul\":12600:12713   */\n    tag_307:\n        /* \"#utility.yul\":12614:12620   */\n      dup4\n        /* \"#utility.yul\":12611:12612   */\n      dup2\n        /* \"#utility.yul\":12608:12621   */\n      lt\n        /* \"#utility.yul\":12600:12713   */\n      iszero\n      tag_309\n      jumpi\n        /* \"#utility.yul\":12699:12700   */\n      dup1\n        /* \"#utility.yul\":12694:12697   */\n      dup3\n        /* \"#utility.yul\":12690:12701   */\n      add\n        /* \"#utility.yul\":12684:12702   */\n      mload\n        /* \"#utility.yul\":12680:12681   */\n      dup2\n        /* \"#utility.yul\":12675:12678   */\n      dup5\n        /* \"#utility.yul\":12671:12682   */\n      add\n        /* \"#utility.yul\":12664:12703   */\n      mstore\n        /* \"#utility.yul\":12636:12638   */\n      0x20\n        /* \"#utility.yul\":12633:12634   */\n      dup2\n        /* \"#utility.yul\":12629:12639   */\n      add\n        /* \"#utility.yul\":12624:12639   */\n      swap1\n      pop\n        /* \"#utility.yul\":12600:12713   */\n      jump(tag_307)\n    tag_309:\n        /* \"#utility.yul\":12731:12737   */\n      dup4\n        /* \"#utility.yul\":12728:12729   */\n      dup2\n        /* \"#utility.yul\":12725:12738   */\n      gt\n        /* \"#utility.yul\":12722:12823   */\n      iszero\n      tag_310\n      jumpi\n        /* \"#utility.yul\":12811:12812   */\n      0x00\n        /* \"#utility.yul\":12802:12808   */\n      dup5\n        /* \"#utility.yul\":12797:12800   */\n      dup5\n        /* \"#utility.yul\":12793:12809   */\n      add\n        /* \"#utility.yul\":12786:12813   */\n      mstore\n        /* \"#utility.yul\":12722:12823   */\n    tag_310:\n        /* \"#utility.yul\":12571:12829   */\n      pop\n        /* \"#utility.yul\":12522:12829   */\n      pop\n      pop\n      pop\n      jump\t// out\n        /* \"#utility.yul\":12835:13155   */\n    tag_68:\n        /* \"#utility.yul\":12879:12885   */\n      0x00\n        /* \"#utility.yul\":12916:12917   */\n      0x02\n        /* \"#utility.yul\":12910:12914   */\n      dup3\n        /* \"#utility.yul\":12906:12918   */\n      div\n        /* \"#utility.yul\":12896:12918   */\n      swap1\n      pop\n        /* \"#utility.yul\":12963:12964   */\n      0x01\n        /* \"#utility.yul\":12957:12961   */\n      dup3\n        /* \"#utility.yul\":12953:12965   */\n      and\n        /* \"#utility.yul\":12984:13002   */\n      dup1\n        /* \"#utility.yul\":12974:13055   */\n      tag_312\n      jumpi\n        /* \"#utility.yul\":13040:13044   */\n      0x7f\n        /* \"#utility.yul\":13032:13038   */\n      dup3\n        /* \"#utility.yul\":13028:13045   */\n      and\n        /* \"#utility.yul\":13018:13045   */\n      swap2\n      pop\n        /* \"#utility.yul\":12974:13055   */\n    tag_312:\n        /* \"#utility.yul\":13102:13104   */\n      0x20\n        /* \"#utility.yul\":13094:13100   */\n      dup3\n        /* \"#utility.yul\":13091:13105   */\n      lt\n        /* \"#utility.yul\":13071:13089   */\n      dup2\n        /* \"#utility.yul\":13068:13106   */\n      eq\n        /* \"#utility.yul\":13065:13149   */\n      iszero\n      tag_313\n      jumpi\n        /* \"#utility.yul\":13121:13139   */\n      tag_314\n      tag_315\n      jump\t// in\n    tag_314:\n        /* \"#utility.yul\":13065:13149   */\n    tag_313:\n        /* \"#utility.yul\":12886:13155   */\n      pop\n        /* \"#utility.yul\":12835:13155   */\n      swap2\n      swap1\n      pop\n      jump\t// out\n        /* \"#utility.yul\":13161:13442   */\n    tag_287:\n        /* \"#utility.yul\":13244:13271   */\n      tag_317\n        /* \"#utility.yul\":13266:13270   */\n      dup3\n        /* \"#utility.yul\":13244:13271   */\n      tag_226\n      jump\t// in\n    tag_317:\n        /* \"#utility.yul\":13236:13242   */\n      dup2\n        /* \"#utility.yul\":13232:13272   */\n      add\n        /* \"#utility.yul\":13374:13380   */\n      dup2\n        /* \"#utility.yul\":13362:13372   */\n      dup2\n        /* \"#utility.yul\":13359:13381   */\n      lt\n        /* \"#utility.yul\":13338:13356   */\n      0xffffffffffffffff\n        /* \"#utility.yul\":13326:13336   */\n      dup3\n        /* \"#utility.yul\":13323:13357   */\n      gt\n        /* \"#utility.yul\":13320:13382   */\n      or\n        /* \"#utility.yul\":13317:13405   */\n      iszero\n      tag_318\n      jumpi\n        /* \"#utility.yul\":13385:13403   */\n      tag_319\n      tag_292\n      jump\t// in\n    tag_319:\n        /* \"#utility.yul\":13317:13405   */\n    tag_318:\n        /* \"#utility.yul\":13425:13435   */\n      dup1\n        /* \"#utility.yul\":13421:13423   */\n      0x40\n        /* \"#utility.yul\":13414:13436   */\n      mstore\n        /* \"#utility.yul\":13204:13442   */\n      pop\n        /* \"#utility.yul\":13161:13442   */\n      pop\n      pop\n      jump\t// out\n        /* \"#utility.yul\":13448:13628   */\n    tag_315:\n        /* \"#utility.yul\":13496:13573   */\n      0x4e487b7100000000000000000000000000000000000000000000000000000000\n        /* \"#utility.yul\":13493:13494   */\n      0x00\n        /* \"#utility.yul\":13486:13574   */\n      mstore\n        /* \"#utility.yul\":13593:13597   */\n      0x22\n        /* \"#utility.yul\":13590:13591   */\n      0x04\n        /* \"#utility.yul\":13583:13598   */\n      mstore\n        /* \"#utility.yul\":13617:13621   */\n      0x24\n        /* \"#utility.yul\":13614:13615   */\n      0x00\n        /* \"#utility.yul\":13607:13622   */\n      revert\n        /* \"#utility.yul\":13634:13814   */\n    tag_292:\n        /* \"#utility.yul\":13682:13759   */\n      0x4e487b7100000000000000000000000000000000000000000000000000000000\n        /* \"#utility.yul\":13679:13680   */\n      0x00\n        /* \"#utility.yul\":13672:13760   */\n      mstore\n        /* \"#utility.yul\":13779:13783   */\n      0x41\n        /* \"#utility.yul\":13776:13777   */\n      0x04\n        /* \"#utility.yul\":13769:13784   */\n      mstore\n        /* \"#utility.yul\":13803:13807   */\n      0x24\n        /* \"#utility.yul\":13800:13801   */\n      0x00\n        /* \"#utility.yul\":13793:13808   */\n      revert\n        /* \"#utility.yul\":13820:13937   */\n    tag_169:\n        /* \"#utility.yul\":13929:13930   */\n      0x00\n        /* \"#utility.yul\":13926:13927   */\n      dup1\n        /* \"#utility.yul\":13919:13931   */\n      revert\n        /* \"#utility.yul\":13943:14060   */\n    tag_154:\n        /* \"#utility.yul\":14052:14053   */\n      0x00\n        /* \"#utility.yul\":14049:14050   */\n      dup1\n        /* \"#utility.yul\":14042:14054   */\n      revert\n        /* \"#utility.yul\":14066:14183   */\n    tag_185:\n        /* \"#utility.yul\":14175:14176   */\n      0x00\n        /* \"#utility.yul\":14172:14173   */\n      dup1\n        /* \"#utility.yul\":14165:14177   */\n      revert\n        /* \"#utility.yul\":14189:14306   */\n    tag_178:\n        /* \"#utility.yul\":14298:14299   */\n      0x00\n        /* \"#utility.yul\":14295:14296   */\n      dup1\n        /* \"#utility.yul\":14288:14300   */\n      revert\n        /* \"#utility.yul\":14312:14414   */\n    tag_226:\n        /* \"#utility.yul\":14353:14359   */\n      0x00\n        /* \"#utility.yul\":14404:14406   */\n      0x1f\n        /* \"#utility.yul\":14400:14407   */\n      not\n        /* \"#utility.yul\":14395:14397   */\n      0x1f\n        /* \"#utility.yul\":14388:14393   */\n      dup4\n        /* \"#utility.yul\":14384:14398   */\n      add\n        /* \"#utility.yul\":14380:14408   */\n      and\n        /* \"#utility.yul\":14370:14408   */\n      swap1\n      pop\n        /* \"#utility.yul\":14312:14414   */\n      swap2\n      swap1\n      pop\n      jump\t// out\n        /* \"#utility.yul\":14420:14645   */\n    tag_238:\n        /* \"#utility.yul\":14560:14594   */\n      0x4f776e61626c653a206e6577206f776e657220697320746865207a65726f2061\n        /* \"#utility.yul\":14556:14557   */\n      0x00\n        /* \"#utility.yul\":14548:14554   */\n      dup3\n        /* \"#utility.yul\":14544:14558   */\n      add\n        /* \"#utility.yul\":14537:14595   */\n      mstore\n        /* \"#utility.yul\":14629:14637   */\n      0x6464726573730000000000000000000000000000000000000000000000000000\n        /* \"#utility.yul\":14624:14626   */\n      0x20\n        /* \"#utility.yul\":14616:14622   */\n      dup3\n        /* \"#utility.yul\":14612:14627   */\n      add\n        /* \"#utility.yul\":14605:14638   */\n      mstore\n        /* \"#utility.yul\":14420:14645   */\n      pop\n      jump\t// out\n        /* \"#utility.yul\":14651:14812   */\n    tag_243:\n        /* \"#utility.yul\":14791:14804   */\n      0x496e76616c696420494421000000000000000000000000000000000000000000\n        /* \"#utility.yul\":14787:14788   */\n      0x00\n        /* \"#utility.yul\":14779:14785   */\n      dup3\n        /* \"#utility.yul\":14775:14789   */\n      add\n        /* \"#utility.yul\":14768:14805   */\n      mstore\n        /* \"#utility.yul\":14651:14812   */\n      pop\n      jump\t// out\n        /* \"#utility.yul\":14818:15000   */\n    tag_248:\n        /* \"#utility.yul\":14958:14992   */\n      0x4f776e61626c653a2063616c6c6572206973206e6f7420746865206f776e6572\n        /* \"#utility.yul\":14954:14955   */\n      0x00\n        /* \"#utility.yul\":14946:14952   */\n      dup3\n        /* \"#utility.yul\":14942:14956   */\n      add\n        /* \"#utility.yul\":14935:14993   */\n      mstore\n        /* \"#utility.yul\":14818:15000   */\n      pop\n      jump\t// out\n        /* \"#utility.yul\":15006:15235   */\n    tag_253:\n        /* \"#utility.yul\":15146:15180   */\n      0x506172746e6572277320726563697069656e7420616464726573732063616e27\n        /* \"#utility.yul\":15142:15143   */\n      0x00\n        /* \"#utility.yul\":15134:15140   */\n      dup3\n        /* \"#utility.yul\":15130:15144   */\n      add\n        /* \"#utility.yul\":15123:15181   */\n      mstore\n        /* \"#utility.yul\":15215:15227   */\n      0x74206265207a65726f2100000000000000000000000000000000000000000000\n        /* \"#utility.yul\":15210:15212   */\n      0x20\n        /* \"#utility.yul\":15202:15208   */\n      dup3\n        /* \"#utility.yul\":15198:15213   */\n      add\n        /* \"#utility.yul\":15191:15228   */\n      mstore\n        /* \"#utility.yul\":15006:15235   */\n      pop\n      jump\t// out\n        /* \"#utility.yul\":15241:15363   */\n    tag_160:\n        /* \"#utility.yul\":15314:15338   */\n      tag_332\n        /* \"#utility.yul\":15332:15337   */\n      dup2\n        /* \"#utility.yul\":15314:15338   */\n      tag_216\n      jump\t// in\n    tag_332:\n        /* \"#utility.yul\":15307:15312   */\n      dup2\n        /* \"#utility.yul\":15304:15339   */\n      eq\n        /* \"#utility.yul\":15294:15357   */\n      tag_333\n      jumpi\n        /* \"#utility.yul\":15353:15354   */\n      0x00\n        /* \"#utility.yul\":15350:15351   */\n      dup1\n        /* \"#utility.yul\":15343:15355   */\n      revert\n        /* \"#utility.yul\":15294:15357   */\n    tag_333:\n        /* \"#utility.yul\":15241:15363   */\n      pop\n      jump\t// out\n        /* \"#utility.yul\":15369:15507   */\n    tag_164:\n        /* \"#utility.yul\":15450:15482   */\n      tag_335\n        /* \"#utility.yul\":15476:15481   */\n      dup2\n        /* \"#utility.yul\":15450:15482   */\n      tag_212\n      jump\t// in\n    tag_335:\n        /* \"#utility.yul\":15443:15448   */\n      dup2\n        /* \"#utility.yul\":15440:15483   */\n      eq\n        /* \"#utility.yul\":15430:15501   */\n      tag_336\n      jumpi\n        /* \"#utility.yul\":15497:15498   */\n      0x00\n        /* \"#utility.yul\":15494:15495   */\n      dup1\n        /* \"#utility.yul\":15487:15499   */\n      revert\n        /* \"#utility.yul\":15430:15501   */\n    tag_336:\n        /* \"#utility.yul\":15369:15507   */\n      pop\n      jump\t// out\n        /* \"#utility.yul\":15513:15635   */\n    tag_174:\n        /* \"#utility.yul\":15586:15610   */\n      tag_338\n        /* \"#utility.yul\":15604:15609   */\n      dup2\n        /* \"#utility.yul\":15586:15610   */\n      tag_263\n      jump\t// in\n    tag_338:\n        /* \"#utility.yul\":15579:15584   */\n      dup2\n        /* \"#utility.yul\":15576:15611   */\n      eq\n        /* \"#utility.yul\":15566:15629   */\n      tag_339\n      jumpi\n        /* \"#utility.yul\":15625:15626   */\n      0x00\n        /* \"#utility.yul\":15622:15623   */\n      dup1\n        /* \"#utility.yul\":15615:15627   */\n      revert\n        /* \"#utility.yul\":15566:15629   */\n    tag_339:\n        /* \"#utility.yul\":15513:15635   */\n      pop\n      jump\t// out\n\n    auxdata: 0xa2646970667358221220d026b372558b0360465e7f97db93c0f9048fcb3091eb194042be9a83fe1ebcac64736f6c63430008070033\n}\n",
				"bytecode": {
					"linkReferences": {},
					"object": "608060405234801561001057600080fd5b5061002d61002261003260201b60201c565b61003a60201b60201c565b6100fe565b600033905090565b60008060009054906101000a900473ffffffffffffffffffffffffffffffffffffffff169050816000806101000a81548173ffffffffffffffffffffffffffffffffffffffff021916908373ffffffffffffffffffffffffffffffffffffffff1602179055508173ffffffffffffffffffffffffffffffffffffffff168173ffffffffffffffffffffffffffffffffffffffff167f8be0079c531659141344cd1fd0a4f28419497f9722a3daafe3b4186f6b6457e060405160405180910390a35050565b6114988061010d6000396000f3fe608060405234801561001057600080fd5b50600436106100885760003560e01c80638d370ed41161005b5780638d370ed4146101135780638da5cb5b1461012f578063df78579f1461014d578063f2fde38b1461017d57610088565b8063195241731461008d57806322461845146100a9578063715018a6146100d95780637fc96619146100e3575b600080fd5b6100a760048036038101906100a29190610e65565b610199565b005b6100c360048036038101906100be9190610d40565b61028e565b6040516100d091906110ec565b60405180910390f35b6100e16103c2565b005b6100fd60048036038101906100f89190610df8565b61044a565b60405161010a91906110ec565b60405180910390f35b61012d60048036038101906101289190610e25565b6105cd565b005b61013761076c565b6040516101449190611051565b60405180910390f35b61016760048036038101906101629190610d89565b610795565b604051610174919061110e565b60405180910390f35b61019760048036038101906101929190610d13565b61099b565b005b816000811180156101b357506101af6001610a93565b8111155b6101f2576040517f08c379a00000000000000000000000000000000000000000000000000000000081526004016101e99061108c565b60405180910390fd5b6101fa610aa1565b73ffffffffffffffffffffffffffffffffffffffff1661021861076c565b73ffffffffffffffffffffffffffffffffffffffff161461026e576040517f08c379a0000000000000000000000000000000000000000000000000000000008152600401610265906110ac565b60405180910390fd5b816002600085815260200190815260200160002060030181905550505050565b610296610b83565b6003826040516102a6919061103a565b9081526020016040518091039020604051806080016040529081600082015481526020016001820180546102d990611247565b80601f016020809104026020016040519081016040528092919081815260200182805461030590611247565b80156103525780601f1061032757610100808354040283529160200191610352565b820191906000526020600020905b81548152906001019060200180831161033557829003601f168201915b505050505081526020016002820160009054906101000a900473ffffffffffffffffffffffffffffffffffffffff1673ffffffffffffffffffffffffffffffffffffffff1673ffffffffffffffffffffffffffffffffffffffff1681526020016003820154815250509050919050565b6103ca610aa1565b73ffffffffffffffffffffffffffffffffffffffff166103e861076c565b73ffffffffffffffffffffffffffffffffffffffff161461043e576040517f08c379a0000000000000000000000000000000000000000000000000000000008152600401610435906110ac565b60405180910390fd5b6104486000610aa9565b565b610452610b83565b8160008111801561046c57506104686001610a93565b8111155b6104ab576040517f08c379a00000000000000000000000000000000000000000000000000000000081526004016104a29061108c565b60405180910390fd5b60026000848152602001908152602001600020604051806080016040529081600082015481526020016001820180546104e390611247565b80601f016020809104026020016040519081016040528092919081815260200182805461050f90611247565b801561055c5780601f106105315761010080835404028352916020019161055c565b820191906000526020600020905b81548152906001019060200180831161053f57829003601f168201915b505050505081526020016002820160009054906101000a900473ffffffffffffffffffffffffffffffffffffffff1673ffffffffffffffffffffffffffffffffffffffff1673ffffffffffffffffffffffffffffffffffffffff168152602001600382015481525050915050919050565b816000811180156105e757506105e36001610a93565b8111155b610626576040517f08c379a000000000000000000000000000000000000000000000000000000000815260040161061d9061108c565b60405180910390fd5b61062e610aa1565b73ffffffffffffffffffffffffffffffffffffffff1661064c61076c565b73ffffffffffffffffffffffffffffffffffffffff16146106a2576040517f08c379a0000000000000000000000000000000000000000000000000000000008152600401610699906110ac565b60405180910390fd5b600073ffffffffffffffffffffffffffffffffffffffff168273ffffffffffffffffffffffffffffffffffffffff161415610712576040517f08c379a0000000000000000000000000000000000000000000000000000000008152600401610709906110cc565b60405180910390fd5b816002600085815260200190815260200160002060020160006101000a81548173ffffffffffffffffffffffffffffffffffffffff021916908373ffffffffffffffffffffffffffffffffffffffff160217905550505050565b60008060009054906101000a900473ffffffffffffffffffffffffffffffffffffffff16905090565b600061079f610aa1565b73ffffffffffffffffffffffffffffffffffffffff166107bd61076c565b73ffffffffffffffffffffffffffffffffffffffff1614610813576040517f08c379a000000000000000000000000000000000000000000000000000000000815260040161080a906110ac565b60405180910390fd5b61081d6001610b6d565b60006108296001610a93565b9050600060405180608001604052808381526020018781526020018673ffffffffffffffffffffffffffffffffffffffff16815260200185815250905080600260008481526020019081526020016000206000820151816000015560208201518160010190805190602001906108a0929190610bc1565b5060408201518160020160006101000a81548173ffffffffffffffffffffffffffffffffffffffff021916908373ffffffffffffffffffffffffffffffffffffffff1602179055506060820151816003015590505080600387604051610906919061103a565b908152602001604051809103902060008201518160000155602082015181600101908051906020019061093a929190610bc1565b5060408201518160020160006101000a81548173ffffffffffffffffffffffffffffffffffffffff021916908373ffffffffffffffffffffffffffffffffffffffff1602179055506060820151816003015590505081925050509392505050565b6109a3610aa1565b73ffffffffffffffffffffffffffffffffffffffff166109c161076c565b73ffffffffffffffffffffffffffffffffffffffff1614610a17576040517f08c379a0000000000000000000000000000000000000000000000000000000008152600401610a0e906110ac565b60405180910390fd5b600073ffffffffffffffffffffffffffffffffffffffff168173ffffffffffffffffffffffffffffffffffffffff161415610a87576040517f08c379a0000000000000000000000000000000000000000000000000000000008152600401610a7e9061106c565b60405180910390fd5b610a9081610aa9565b50565b600081600001549050919050565b600033905090565b60008060009054906101000a900473ffffffffffffffffffffffffffffffffffffffff169050816000806101000a81548173ffffffffffffffffffffffffffffffffffffffff021916908373ffffffffffffffffffffffffffffffffffffffff1602179055508173ffffffffffffffffffffffffffffffffffffffff168173ffffffffffffffffffffffffffffffffffffffff167f8be0079c531659141344cd1fd0a4f28419497f9722a3daafe3b4186f6b6457e060405160405180910390a35050565b6001816000016000828254019250508190555050565b60405180608001604052806000815260200160608152602001600073ffffffffffffffffffffffffffffffffffffffff168152602001600081525090565b828054610bcd90611247565b90600052602060002090601f016020900481019282610bef5760008555610c36565b82601f10610c0857805160ff1916838001178555610c36565b82800160010185558215610c36579182015b82811115610c35578251825591602001919060010190610c1a565b5b509050610c439190610c47565b5090565b5b80821115610c60576000816000905550600101610c48565b5090565b6000610c77610c728461114e565b611129565b905082815260208101848484011115610c9357610c9261130d565b5b610c9e848285611205565b509392505050565b600081359050610cb58161141d565b92915050565b600081359050610cca81611434565b92915050565b600082601f830112610ce557610ce4611308565b5b8135610cf5848260208601610c64565b91505092915050565b600081359050610d0d8161144b565b92915050565b600060208284031215610d2957610d28611317565b5b6000610d3784828501610ca6565b91505092915050565b600060208284031215610d5657610d55611317565b5b600082013567ffffffffffffffff811115610d7457610d73611312565b5b610d8084828501610cd0565b91505092915050565b600080600060608486031215610da257610da1611317565b5b600084013567ffffffffffffffff811115610dc057610dbf611312565b5b610dcc86828701610cd0565b9350506020610ddd86828701610cbb565b9250506040610dee86828701610cfe565b9150509250925092565b600060208284031215610e0e57610e0d611317565b5b6000610e1c84828501610cfe565b91505092915050565b60008060408385031215610e3c57610e3b611317565b5b6000610e4a85828601610cfe565b9250506020610e5b85828601610cbb565b9150509250929050565b60008060408385031215610e7c57610e7b611317565b5b6000610e8a85828601610cfe565b9250506020610e9b85828601610cfe565b9150509250929050565b610eae816111c9565b82525050565b610ebd816111b7565b82525050565b6000610ece8261117f565b610ed8818561118a565b9350610ee8818560208601611214565b610ef18161131c565b840191505092915050565b6000610f078261117f565b610f1181856111ac565b9350610f21818560208601611214565b80840191505092915050565b6000610f3a60268361119b565b9150610f458261132d565b604082019050919050565b6000610f5d600b8361119b565b9150610f688261137c565b602082019050919050565b6000610f8060208361119b565b9150610f8b826113a5565b602082019050919050565b6000610fa3602a8361119b565b9150610fae826113ce565b604082019050919050565b6000608083016000830151610fd1600086018261101c565b5060208301518482036020860152610fe98282610ec3565b9150506040830151610ffe6040860182610ea5565b506060830151611011606086018261101c565b508091505092915050565b611025816111fb565b82525050565b611034816111fb565b82525050565b60006110468284610efc565b915081905092915050565b60006020820190506110666000830184610eb4565b92915050565b6000602082019050818103600083015261108581610f2d565b9050919050565b600060208201905081810360008301526110a581610f50565b9050919050565b600060208201905081810360008301526110c581610f73565b9050919050565b600060208201905081810360008301526110e581610f96565b9050919050565b600060208201905081810360008301526111068184610fb9565b905092915050565b6000602082019050611123600083018461102b565b92915050565b6000611133611144565b905061113f8282611279565b919050565b6000604051905090565b600067ffffffffffffffff821115611169576111686112d9565b5b6111728261131c565b9050602081019050919050565b600081519050919050565b600082825260208201905092915050565b600082825260208201905092915050565b600081905092915050565b60006111c2826111db565b9050919050565b60006111d4826111db565b9050919050565b600073ffffffffffffffffffffffffffffffffffffffff82169050919050565b6000819050919050565b82818337600083830152505050565b60005b83811015611232578082015181840152602081019050611217565b83811115611241576000848401525b50505050565b6000600282049050600182168061125f57607f821691505b60208210811415611273576112726112aa565b5b50919050565b6112828261131c565b810181811067ffffffffffffffff821117156112a1576112a06112d9565b5b80604052505050565b7f4e487b7100000000000000000000000000000000000000000000000000000000600052602260045260246000fd5b7f4e487b7100000000000000000000000000000000000000000000000000000000600052604160045260246000fd5b600080fd5b600080fd5b600080fd5b600080fd5b6000601f19601f8301169050919050565b7f4f776e61626c653a206e6577206f776e657220697320746865207a65726f206160008201527f6464726573730000000000000000000000000000000000000000000000000000602082015250565b7f496e76616c696420494421000000000000000000000000000000000000000000600082015250565b7f4f776e61626c653a2063616c6c6572206973206e6f7420746865206f776e6572600082015250565b7f506172746e6572277320726563697069656e7420616464726573732063616e2760008201527f74206265207a65726f2100000000000000000000000000000000000000000000602082015250565b611426816111b7565b811461143157600080fd5b50565b61143d816111c9565b811461144857600080fd5b50565b611454816111fb565b811461145f57600080fd5b5056fea2646970667358221220d026b372558b0360465e7f97db93c0f9048fcb3091eb194042be9a83fe1ebcac64736f6c63430008070033",
					"opcodes": "PUSH1 0x80 PUSH1 0x40 MSTORE CALLVALUE DUP1 ISZERO PUSH2 0x10 JUMPI PUSH1 0x0 DUP1 REVERT JUMPDEST POP PUSH2 0x2D PUSH2 0x22 PUSH2 0x32 PUSH1 0x20 SHL PUSH1 0x20 SHR JUMP JUMPDEST PUSH2 0x3A PUSH1 0x20 SHL PUSH1 0x20 SHR JUMP JUMPDEST PUSH2 0xFE JUMP JUMPDEST PUSH1 0x0 CALLER SWAP1 POP SWAP1 JUMP JUMPDEST PUSH1 0x0 DUP1 PUSH1 0x0 SWAP1 SLOAD SWAP1 PUSH2 0x100 EXP SWAP1 DIV PUSH20 0xFFFFFFFFFFFFFFFFFFFFFFFFFFFFFFFFFFFFFFFF AND SWAP1 POP DUP2 PUSH1 0x0 DUP1 PUSH2 0x100 EXP DUP2 SLOAD DUP2 PUSH20 0xFFFFFFFFFFFFFFFFFFFFFFFFFFFFFFFFFFFFFFFF MUL NOT AND SWAP1 DUP4 PUSH20 0xFFFFFFFFFFFFFFFFFFFFFFFFFFFFFFFFFFFFFFFF AND MUL OR SWAP1 SSTORE POP DUP2 PUSH20 0xFFFFFFFFFFFFFFFFFFFFFFFFFFFFFFFFFFFFFFFF AND DUP2 PUSH20 0xFFFFFFFFFFFFFFFFFFFFFFFFFFFFFFFFFFFFFFFF AND PUSH32 0x8BE0079C531659141344CD1FD0A4F28419497F9722A3DAAFE3B4186F6B6457E0 PUSH1 0x40 MLOAD PUSH1 0x40 MLOAD DUP1 SWAP2 SUB SWAP1 LOG3 POP POP JUMP JUMPDEST PUSH2 0x1498 DUP1 PUSH2 0x10D PUSH1 0x0 CODECOPY PUSH1 0x0 RETURN INVALID PUSH1 0x80 PUSH1 0x40 MSTORE CALLVALUE DUP1 ISZERO PUSH2 0x10 JUMPI PUSH1 0x0 DUP1 REVERT JUMPDEST POP PUSH1 0x4 CALLDATASIZE LT PUSH2 0x88 JUMPI PUSH1 0x0 CALLDATALOAD PUSH1 0xE0 SHR DUP1 PUSH4 0x8D370ED4 GT PUSH2 0x5B JUMPI DUP1 PUSH4 0x8D370ED4 EQ PUSH2 0x113 JUMPI DUP1 PUSH4 0x8DA5CB5B EQ PUSH2 0x12F JUMPI DUP1 PUSH4 0xDF78579F EQ PUSH2 0x14D JUMPI DUP1 PUSH4 0xF2FDE38B EQ PUSH2 0x17D JUMPI PUSH2 0x88 JUMP JUMPDEST DUP1 PUSH4 0x19524173 EQ PUSH2 0x8D JUMPI DUP1 PUSH4 0x22461845 EQ PUSH2 0xA9 JUMPI DUP1 PUSH4 0x715018A6 EQ PUSH2 0xD9 JUMPI DUP1 PUSH4 0x7FC96619 EQ PUSH2 0xE3 JUMPI JUMPDEST PUSH1 0x0 DUP1 REVERT JUMPDEST PUSH2 0xA7 PUSH1 0x4 DUP1 CALLDATASIZE SUB DUP2 ADD SWAP1 PUSH2 0xA2 SWAP2 SWAP1 PUSH2 0xE65 JUMP JUMPDEST PUSH2 0x199 JUMP JUMPDEST STOP JUMPDEST PUSH2 0xC3 PUSH1 0x4 DUP1 CALLDATASIZE SUB DUP2 ADD SWAP1 PUSH2 0xBE SWAP2 SWAP1 PUSH2 0xD40 JUMP JUMPDEST PUSH2 0x28E JUMP JUMPDEST PUSH1 0x40 MLOAD PUSH2 0xD0 SWAP2 SWAP1 PUSH2 0x10EC JUMP JUMPDEST PUSH1 0x40 MLOAD DUP1 SWAP2 SUB SWAP1 RETURN JUMPDEST PUSH2 0xE1 PUSH2 0x3C2 JUMP JUMPDEST STOP JUMPDEST PUSH2 0xFD PUSH1 0x4 DUP1 CALLDATASIZE SUB DUP2 ADD SWAP1 PUSH2 0xF8 SWAP2 SWAP1 PUSH2 0xDF8 JUMP JUMPDEST PUSH2 0x44A JUMP JUMPDEST PUSH1 0x40 MLOAD PUSH2 0x10A SWAP2 SWAP1 PUSH2 0x10EC JUMP JUMPDEST PUSH1 0x40 MLOAD DUP1 SWAP2 SUB SWAP1 RETURN JUMPDEST PUSH2 0x12D PUSH1 0x4 DUP1 CALLDATASIZE SUB DUP2 ADD SWAP1 PUSH2 0x128 SWAP2 SWAP1 PUSH2 0xE25 JUMP JUMPDEST PUSH2 0x5CD JUMP JUMPDEST STOP JUMPDEST PUSH2 0x137 PUSH2 0x76C JUMP JUMPDEST PUSH1 0x40 MLOAD PUSH2 0x144 SWAP2 SWAP1 PUSH2 0x1051 JUMP JUMPDEST PUSH1 0x40 MLOAD DUP1 SWAP2 SUB SWAP1 RETURN JUMPDEST PUSH2 0x167 PUSH1 0x4 DUP1 CALLDATASIZE SUB DUP2 ADD SWAP1 PUSH2 0x162 SWAP2 SWAP1 PUSH2 0xD89 JUMP JUMPDEST PUSH2 0x795 JUMP JUMPDEST PUSH1 0x40 MLOAD PUSH2 0x174 SWAP2 SWAP1 PUSH2 0x110E JUMP JUMPDEST PUSH1 0x40 MLOAD DUP1 SWAP2 SUB SWAP1 RETURN JUMPDEST PUSH2 0x197 PUSH1 0x4 DUP1 CALLDATASIZE SUB DUP2 ADD SWAP1 PUSH2 0x192 SWAP2 SWAP1 PUSH2 0xD13 JUMP JUMPDEST PUSH2 0x99B JUMP JUMPDEST STOP JUMPDEST DUP2 PUSH1 0x0 DUP2 GT DUP1 ISZERO PUSH2 0x1B3 JUMPI POP PUSH2 0x1AF PUSH1 0x1 PUSH2 0xA93 JUMP JUMPDEST DUP2 GT ISZERO JUMPDEST PUSH2 0x1F2 JUMPI PUSH1 0x40 MLOAD PUSH32 0x8C379A000000000000000000000000000000000000000000000000000000000 DUP2 MSTORE PUSH1 0x4 ADD PUSH2 0x1E9 SWAP1 PUSH2 0x108C JUMP JUMPDEST PUSH1 0x40 MLOAD DUP1 SWAP2 SUB SWAP1 REVERT JUMPDEST PUSH2 0x1FA PUSH2 0xAA1 JUMP JUMPDEST PUSH20 0xFFFFFFFFFFFFFFFFFFFFFFFFFFFFFFFFFFFFFFFF AND PUSH2 0x218 PUSH2 0x76C JUMP JUMPDEST PUSH20 0xFFFFFFFFFFFFFFFFFFFFFFFFFFFFFFFFFFFFFFFF AND EQ PUSH2 0x26E JUMPI PUSH1 0x40 MLOAD PUSH32 0x8C379A000000000000000000000000000000000000000000000000000000000 DUP2 MSTORE PUSH1 0x4 ADD PUSH2 0x265 SWAP1 PUSH2 0x10AC JUMP JUMPDEST PUSH1 0x40 MLOAD DUP1 SWAP2 SUB SWAP1 REVERT JUMPDEST DUP2 PUSH1 0x2 PUSH1 0x0 DUP6 DUP2 MSTORE PUSH1 0x20 ADD SWAP1 DUP2 MSTORE PUSH1 0x20 ADD PUSH1 0x0 KECCAK256 PUSH1 0x3 ADD DUP2 SWAP1 SSTORE POP POP POP POP JUMP JUMPDEST PUSH2 0x296 PUSH2 0xB83 JUMP JUMPDEST PUSH1 0x3 DUP3 PUSH1 0x40 MLOAD PUSH2 0x2A6 SWAP2 SWAP1 PUSH2 0x103A JUMP JUMPDEST SWAP1 DUP2 MSTORE PUSH1 0x20 ADD PUSH1 0x40 MLOAD DUP1 SWAP2 SUB SWAP1 KECCAK256 PUSH1 0x40 MLOAD DUP1 PUSH1 0x80 ADD PUSH1 0x40 MSTORE SWAP1 DUP2 PUSH1 0x0 DUP3 ADD SLOAD DUP2 MSTORE PUSH1 0x20 ADD PUSH1 0x1 DUP3 ADD DUP1 SLOAD PUSH2 0x2D9 SWAP1 PUSH2 0x1247 JUMP JUMPDEST DUP1 PUSH1 0x1F ADD PUSH1 0x20 DUP1 SWAP2 DIV MUL PUSH1 0x20 ADD PUSH1 0x40 MLOAD SWAP1 DUP2 ADD PUSH1 0x40 MSTORE DUP1 SWAP3 SWAP2 SWAP1 DUP2 DUP2 MSTORE PUSH1 0x20 ADD DUP3 DUP1 SLOAD PUSH2 0x305 SWAP1 PUSH2 0x1247 JUMP JUMPDEST DUP1 ISZERO PUSH2 0x352 JUMPI DUP1 PUSH1 0x1F LT PUSH2 0x327 JUMPI PUSH2 0x100 DUP1 DUP4 SLOAD DIV MUL DUP4 MSTORE SWAP2 PUSH1 0x20 ADD SWAP2 PUSH2 0x352 JUMP JUMPDEST DUP3 ADD SWAP2 SWAP1 PUSH1 0x0 MSTORE PUSH1 0x20 PUSH1 0x0 KECCAK256 SWAP1 JUMPDEST DUP2 SLOAD DUP2 MSTORE SWAP1 PUSH1 0x1 ADD SWAP1 PUSH1 0x20 ADD DUP1 DUP4 GT PUSH2 0x335 JUMPI DUP3 SWAP1 SUB PUSH1 0x1F AND DUP3 ADD SWAP2 JUMPDEST POP POP POP POP POP DUP2 MSTORE PUSH1 0x20 ADD PUSH1 0x2 DUP3 ADD PUSH1 0x0 SWAP1 SLOAD SWAP1 PUSH2 0x100 EXP SWAP1 DIV PUSH20 0xFFFFFFFFFFFFFFFFFFFFFFFFFFFFFFFFFFFFFFFF AND PUSH20 0xFFFFFFFFFFFFFFFFFFFFFFFFFFFFFFFFFFFFFFFF AND PUSH20 0xFFFFFFFFFFFFFFFFFFFFFFFFFFFFFFFFFFFFFFFF AND DUP2 MSTORE PUSH1 0x20 ADD PUSH1 0x3 DUP3 ADD SLOAD DUP2 MSTORE POP POP SWAP1 POP SWAP2 SWAP1 POP JUMP JUMPDEST PUSH2 0x3CA PUSH2 0xAA1 JUMP JUMPDEST PUSH20 0xFFFFFFFFFFFFFFFFFFFFFFFFFFFFFFFFFFFFFFFF AND PUSH2 0x3E8 PUSH2 0x76C JUMP JUMPDEST PUSH20 0xFFFFFFFFFFFFFFFFFFFFFFFFFFFFFFFFFFFFFFFF AND EQ PUSH2 0x43E JUMPI PUSH1 0x40 MLOAD PUSH32 0x8C379A000000000000000000000000000000000000000000000000000000000 DUP2 MSTORE PUSH1 0x4 ADD PUSH2 0x435 SWAP1 PUSH2 0x10AC JUMP JUMPDEST PUSH1 0x40 MLOAD DUP1 SWAP2 SUB SWAP1 REVERT JUMPDEST PUSH2 0x448 PUSH1 0x0 PUSH2 0xAA9 JUMP JUMPDEST JUMP JUMPDEST PUSH2 0x452 PUSH2 0xB83 JUMP JUMPDEST DUP2 PUSH1 0x0 DUP2 GT DUP1 ISZERO PUSH2 0x46C JUMPI POP PUSH2 0x468 PUSH1 0x1 PUSH2 0xA93 JUMP JUMPDEST DUP2 GT ISZERO JUMPDEST PUSH2 0x4AB JUMPI PUSH1 0x40 MLOAD PUSH32 0x8C379A000000000000000000000000000000000000000000000000000000000 DUP2 MSTORE PUSH1 0x4 ADD PUSH2 0x4A2 SWAP1 PUSH2 0x108C JUMP JUMPDEST PUSH1 0x40 MLOAD DUP1 SWAP2 SUB SWAP1 REVERT JUMPDEST PUSH1 0x2 PUSH1 0x0 DUP5 DUP2 MSTORE PUSH1 0x20 ADD SWAP1 DUP2 MSTORE PUSH1 0x20 ADD PUSH1 0x0 KECCAK256 PUSH1 0x40 MLOAD DUP1 PUSH1 0x80 ADD PUSH1 0x40 MSTORE SWAP1 DUP2 PUSH1 0x0 DUP3 ADD SLOAD DUP2 MSTORE PUSH1 0x20 ADD PUSH1 0x1 DUP3 ADD DUP1 SLOAD PUSH2 0x4E3 SWAP1 PUSH2 0x1247 JUMP JUMPDEST DUP1 PUSH1 0x1F ADD PUSH1 0x20 DUP1 SWAP2 DIV MUL PUSH1 0x20 ADD PUSH1 0x40 MLOAD SWAP1 DUP2 ADD PUSH1 0x40 MSTORE DUP1 SWAP3 SWAP2 SWAP1 DUP2 DUP2 MSTORE PUSH1 0x20 ADD DUP3 DUP1 SLOAD PUSH2 0x50F SWAP1 PUSH2 0x1247 JUMP JUMPDEST DUP1 ISZERO PUSH2 0x55C JUMPI DUP1 PUSH1 0x1F LT PUSH2 0x531 JUMPI PUSH2 0x100 DUP1 DUP4 SLOAD DIV MUL DUP4 MSTORE SWAP2 PUSH1 0x20 ADD SWAP2 PUSH2 0x55C JUMP JUMPDEST DUP3 ADD SWAP2 SWAP1 PUSH1 0x0 MSTORE PUSH1 0x20 PUSH1 0x0 KECCAK256 SWAP1 JUMPDEST DUP2 SLOAD DUP2 MSTORE SWAP1 PUSH1 0x1 ADD SWAP1 PUSH1 0x20 ADD DUP1 DUP4 GT PUSH2 0x53F JUMPI DUP3 SWAP1 SUB PUSH1 0x1F AND DUP3 ADD SWAP2 JUMPDEST POP POP POP POP POP DUP2 MSTORE PUSH1 0x20 ADD PUSH1 0x2 DUP3 ADD PUSH1 0x0 SWAP1 SLOAD SWAP1 PUSH2 0x100 EXP SWAP1 DIV PUSH20 0xFFFFFFFFFFFFFFFFFFFFFFFFFFFFFFFFFFFFFFFF AND PUSH20 0xFFFFFFFFFFFFFFFFFFFFFFFFFFFFFFFFFFFFFFFF AND PUSH20 0xFFFFFFFFFFFFFFFFFFFFFFFFFFFFFFFFFFFFFFFF AND DUP2 MSTORE PUSH1 0x20 ADD PUSH1 0x3 DUP3 ADD SLOAD DUP2 MSTORE POP POP SWAP2 POP POP SWAP2 SWAP1 POP JUMP JUMPDEST DUP2 PUSH1 0x0 DUP2 GT DUP1 ISZERO PUSH2 0x5E7 JUMPI POP PUSH2 0x5E3 PUSH1 0x1 PUSH2 0xA93 JUMP JUMPDEST DUP2 GT ISZERO JUMPDEST PUSH2 0x626 JUMPI PUSH1 0x40 MLOAD PUSH32 0x8C379A000000000000000000000000000000000000000000000000000000000 DUP2 MSTORE PUSH1 0x4 ADD PUSH2 0x61D SWAP1 PUSH2 0x108C JUMP JUMPDEST PUSH1 0x40 MLOAD DUP1 SWAP2 SUB SWAP1 REVERT JUMPDEST PUSH2 0x62E PUSH2 0xAA1 JUMP JUMPDEST PUSH20 0xFFFFFFFFFFFFFFFFFFFFFFFFFFFFFFFFFFFFFFFF AND PUSH2 0x64C PUSH2 0x76C JUMP JUMPDEST PUSH20 0xFFFFFFFFFFFFFFFFFFFFFFFFFFFFFFFFFFFFFFFF AND EQ PUSH2 0x6A2 JUMPI PUSH1 0x40 MLOAD PUSH32 0x8C379A000000000000000000000000000000000000000000000000000000000 DUP2 MSTORE PUSH1 0x4 ADD PUSH2 0x699 SWAP1 PUSH2 0x10AC JUMP JUMPDEST PUSH1 0x40 MLOAD DUP1 SWAP2 SUB SWAP1 REVERT JUMPDEST PUSH1 0x0 PUSH20 0xFFFFFFFFFFFFFFFFFFFFFFFFFFFFFFFFFFFFFFFF AND DUP3 PUSH20 0xFFFFFFFFFFFFFFFFFFFFFFFFFFFFFFFFFFFFFFFF AND EQ ISZERO PUSH2 0x712 JUMPI PUSH1 0x40 MLOAD PUSH32 0x8C379A000000000000000000000000000000000000000000000000000000000 DUP2 MSTORE PUSH1 0x4 ADD PUSH2 0x709 SWAP1 PUSH2 0x10CC JUMP JUMPDEST PUSH1 0x40 MLOAD DUP1 SWAP2 SUB SWAP1 REVERT JUMPDEST DUP2 PUSH1 0x2 PUSH1 0x0 DUP6 DUP2 MSTORE PUSH1 0x20 ADD SWAP1 DUP2 MSTORE PUSH1 0x20 ADD PUSH1 0x0 KECCAK256 PUSH1 0x2 ADD PUSH1 0x0 PUSH2 0x100 EXP DUP2 SLOAD DUP2 PUSH20 0xFFFFFFFFFFFFFFFFFFFFFFFFFFFFFFFFFFFFFFFF MUL NOT AND SWAP1 DUP4 PUSH20 0xFFFFFFFFFFFFFFFFFFFFFFFFFFFFFFFFFFFFFFFF AND MUL OR SWAP1 SSTORE POP POP POP POP JUMP JUMPDEST PUSH1 0x0 DUP1 PUSH1 0x0 SWAP1 SLOAD SWAP1 PUSH2 0x100 EXP SWAP1 DIV PUSH20 0xFFFFFFFFFFFFFFFFFFFFFFFFFFFFFFFFFFFFFFFF AND SWAP1 POP SWAP1 JUMP JUMPDEST PUSH1 0x0 PUSH2 0x79F PUSH2 0xAA1 JUMP JUMPDEST PUSH20 0xFFFFFFFFFFFFFFFFFFFFFFFFFFFFFFFFFFFFFFFF AND PUSH2 0x7BD PUSH2 0x76C JUMP JUMPDEST PUSH20 0xFFFFFFFFFFFFFFFFFFFFFFFFFFFFFFFFFFFFFFFF AND EQ PUSH2 0x813 JUMPI PUSH1 0x40 MLOAD PUSH32 0x8C379A000000000000000000000000000000000000000000000000000000000 DUP2 MSTORE PUSH1 0x4 ADD PUSH2 0x80A SWAP1 PUSH2 0x10AC JUMP JUMPDEST PUSH1 0x40 MLOAD DUP1 SWAP2 SUB SWAP1 REVERT JUMPDEST PUSH2 0x81D PUSH1 0x1 PUSH2 0xB6D JUMP JUMPDEST PUSH1 0x0 PUSH2 0x829 PUSH1 0x1 PUSH2 0xA93 JUMP JUMPDEST SWAP1 POP PUSH1 0x0 PUSH1 0x40 MLOAD DUP1 PUSH1 0x80 ADD PUSH1 0x40 MSTORE DUP1 DUP4 DUP2 MSTORE PUSH1 0x20 ADD DUP8 DUP2 MSTORE PUSH1 0x20 ADD DUP7 PUSH20 0xFFFFFFFFFFFFFFFFFFFFFFFFFFFFFFFFFFFFFFFF AND DUP2 MSTORE PUSH1 0x20 ADD DUP6 DUP2 MSTORE POP SWAP1 POP DUP1 PUSH1 0x2 PUSH1 0x0 DUP5 DUP2 MSTORE PUSH1 0x20 ADD SWAP1 DUP2 MSTORE PUSH1 0x20 ADD PUSH1 0x0 KECCAK256 PUSH1 0x0 DUP3 ADD MLOAD DUP2 PUSH1 0x0 ADD SSTORE PUSH1 0x20 DUP3 ADD MLOAD DUP2 PUSH1 0x1 ADD SWAP1 DUP1 MLOAD SWAP1 PUSH1 0x20 ADD SWAP1 PUSH2 0x8A0 SWAP3 SWAP2 SWAP1 PUSH2 0xBC1 JUMP JUMPDEST POP PUSH1 0x40 DUP3 ADD MLOAD DUP2 PUSH1 0x2 ADD PUSH1 0x0 PUSH2 0x100 EXP DUP2 SLOAD DUP2 PUSH20 0xFFFFFFFFFFFFFFFFFFFFFFFFFFFFFFFFFFFFFFFF MUL NOT AND SWAP1 DUP4 PUSH20 0xFFFFFFFFFFFFFFFFFFFFFFFFFFFFFFFFFFFFFFFF AND MUL OR SWAP1 SSTORE POP PUSH1 0x60 DUP3 ADD MLOAD DUP2 PUSH1 0x3 ADD SSTORE SWAP1 POP POP DUP1 PUSH1 0x3 DUP8 PUSH1 0x40 MLOAD PUSH2 0x906 SWAP2 SWAP1 PUSH2 0x103A JUMP JUMPDEST SWAP1 DUP2 MSTORE PUSH1 0x20 ADD PUSH1 0x40 MLOAD DUP1 SWAP2 SUB SWAP1 KECCAK256 PUSH1 0x0 DUP3 ADD MLOAD DUP2 PUSH1 0x0 ADD SSTORE PUSH1 0x20 DUP3 ADD MLOAD DUP2 PUSH1 0x1 ADD SWAP1 DUP1 MLOAD SWAP1 PUSH1 0x20 ADD SWAP1 PUSH2 0x93A SWAP3 SWAP2 SWAP1 PUSH2 0xBC1 JUMP JUMPDEST POP PUSH1 0x40 DUP3 ADD MLOAD DUP2 PUSH1 0x2 ADD PUSH1 0x0 PUSH2 0x100 EXP DUP2 SLOAD DUP2 PUSH20 0xFFFFFFFFFFFFFFFFFFFFFFFFFFFFFFFFFFFFFFFF MUL NOT AND SWAP1 DUP4 PUSH20 0xFFFFFFFFFFFFFFFFFFFFFFFFFFFFFFFFFFFFFFFF AND MUL OR SWAP1 SSTORE POP PUSH1 0x60 DUP3 ADD MLOAD DUP2 PUSH1 0x3 ADD SSTORE SWAP1 POP POP DUP2 SWAP3 POP POP POP SWAP4 SWAP3 POP POP POP JUMP JUMPDEST PUSH2 0x9A3 PUSH2 0xAA1 JUMP JUMPDEST PUSH20 0xFFFFFFFFFFFFFFFFFFFFFFFFFFFFFFFFFFFFFFFF AND PUSH2 0x9C1 PUSH2 0x76C JUMP JUMPDEST PUSH20 0xFFFFFFFFFFFFFFFFFFFFFFFFFFFFFFFFFFFFFFFF AND EQ PUSH2 0xA17 JUMPI PUSH1 0x40 MLOAD PUSH32 0x8C379A000000000000000000000000000000000000000000000000000000000 DUP2 MSTORE PUSH1 0x4 ADD PUSH2 0xA0E SWAP1 PUSH2 0x10AC JUMP JUMPDEST PUSH1 0x40 MLOAD DUP1 SWAP2 SUB SWAP1 REVERT JUMPDEST PUSH1 0x0 PUSH20 0xFFFFFFFFFFFFFFFFFFFFFFFFFFFFFFFFFFFFFFFF AND DUP2 PUSH20 0xFFFFFFFFFFFFFFFFFFFFFFFFFFFFFFFFFFFFFFFF AND EQ ISZERO PUSH2 0xA87 JUMPI PUSH1 0x40 MLOAD PUSH32 0x8C379A000000000000000000000000000000000000000000000000000000000 DUP2 MSTORE PUSH1 0x4 ADD PUSH2 0xA7E SWAP1 PUSH2 0x106C JUMP JUMPDEST PUSH1 0x40 MLOAD DUP1 SWAP2 SUB SWAP1 REVERT JUMPDEST PUSH2 0xA90 DUP2 PUSH2 0xAA9 JUMP JUMPDEST POP JUMP JUMPDEST PUSH1 0x0 DUP2 PUSH1 0x0 ADD SLOAD SWAP1 POP SWAP2 SWAP1 POP JUMP JUMPDEST PUSH1 0x0 CALLER SWAP1 POP SWAP1 JUMP JUMPDEST PUSH1 0x0 DUP1 PUSH1 0x0 SWAP1 SLOAD SWAP1 PUSH2 0x100 EXP SWAP1 DIV PUSH20 0xFFFFFFFFFFFFFFFFFFFFFFFFFFFFFFFFFFFFFFFF AND SWAP1 POP DUP2 PUSH1 0x0 DUP1 PUSH2 0x100 EXP DUP2 SLOAD DUP2 PUSH20 0xFFFFFFFFFFFFFFFFFFFFFFFFFFFFFFFFFFFFFFFF MUL NOT AND SWAP1 DUP4 PUSH20 0xFFFFFFFFFFFFFFFFFFFFFFFFFFFFFFFFFFFFFFFF AND MUL OR SWAP1 SSTORE POP DUP2 PUSH20 0xFFFFFFFFFFFFFFFFFFFFFFFFFFFFFFFFFFFFFFFF AND DUP2 PUSH20 0xFFFFFFFFFFFFFFFFFFFFFFFFFFFFFFFFFFFFFFFF AND PUSH32 0x8BE0079C531659141344CD1FD0A4F28419497F9722A3DAAFE3B4186F6B6457E0 PUSH1 0x40 MLOAD PUSH1 0x40 MLOAD DUP1 SWAP2 SUB SWAP1 LOG3 POP POP JUMP JUMPDEST PUSH1 0x1 DUP2 PUSH1 0x0 ADD PUSH1 0x0 DUP3 DUP3 SLOAD ADD SWAP3 POP POP DUP2 SWAP1 SSTORE POP POP JUMP JUMPDEST PUSH1 0x40 MLOAD DUP1 PUSH1 0x80 ADD PUSH1 0x40 MSTORE DUP1 PUSH1 0x0 DUP2 MSTORE PUSH1 0x20 ADD PUSH1 0x60 DUP2 MSTORE PUSH1 0x20 ADD PUSH1 0x0 PUSH20 0xFFFFFFFFFFFFFFFFFFFFFFFFFFFFFFFFFFFFFFFF AND DUP2 MSTORE PUSH1 0x20 ADD PUSH1 0x0 DUP2 MSTORE POP SWAP1 JUMP JUMPDEST DUP3 DUP1 SLOAD PUSH2 0xBCD SWAP1 PUSH2 0x1247 JUMP JUMPDEST SWAP1 PUSH1 0x0 MSTORE PUSH1 0x20 PUSH1 0x0 KECCAK256 SWAP1 PUSH1 0x1F ADD PUSH1 0x20 SWAP1 DIV DUP2 ADD SWAP3 DUP3 PUSH2 0xBEF JUMPI PUSH1 0x0 DUP6 SSTORE PUSH2 0xC36 JUMP JUMPDEST DUP3 PUSH1 0x1F LT PUSH2 0xC08 JUMPI DUP1 MLOAD PUSH1 0xFF NOT AND DUP4 DUP1 ADD OR DUP6 SSTORE PUSH2 0xC36 JUMP JUMPDEST DUP3 DUP1 ADD PUSH1 0x1 ADD DUP6 SSTORE DUP3 ISZERO PUSH2 0xC36 JUMPI SWAP2 DUP3 ADD JUMPDEST DUP3 DUP2 GT ISZERO PUSH2 0xC35 JUMPI DUP3 MLOAD DUP3 SSTORE SWAP2 PUSH1 0x20 ADD SWAP2 SWAP1 PUSH1 0x1 ADD SWAP1 PUSH2 0xC1A JUMP JUMPDEST JUMPDEST POP SWAP1 POP PUSH2 0xC43 SWAP2 SWAP1 PUSH2 0xC47 JUMP JUMPDEST POP SWAP1 JUMP JUMPDEST JUMPDEST DUP1 DUP3 GT ISZERO PUSH2 0xC60 JUMPI PUSH1 0x0 DUP2 PUSH1 0x0 SWAP1 SSTORE POP PUSH1 0x1 ADD PUSH2 0xC48 JUMP JUMPDEST POP SWAP1 JUMP JUMPDEST PUSH1 0x0 PUSH2 0xC77 PUSH2 0xC72 DUP5 PUSH2 0x114E JUMP JUMPDEST PUSH2 0x1129 JUMP JUMPDEST SWAP1 POP DUP3 DUP2 MSTORE PUSH1 0x20 DUP2 ADD DUP5 DUP5 DUP5 ADD GT ISZERO PUSH2 0xC93 JUMPI PUSH2 0xC92 PUSH2 0x130D JUMP JUMPDEST JUMPDEST PUSH2 0xC9E DUP5 DUP3 DUP6 PUSH2 0x1205 JUMP JUMPDEST POP SWAP4 SWAP3 POP POP POP JUMP JUMPDEST PUSH1 0x0 DUP2 CALLDATALOAD SWAP1 POP PUSH2 0xCB5 DUP2 PUSH2 0x141D JUMP JUMPDEST SWAP3 SWAP2 POP POP JUMP JUMPDEST PUSH1 0x0 DUP2 CALLDATALOAD SWAP1 POP PUSH2 0xCCA DUP2 PUSH2 0x1434 JUMP JUMPDEST SWAP3 SWAP2 POP POP JUMP JUMPDEST PUSH1 0x0 DUP3 PUSH1 0x1F DUP4 ADD SLT PUSH2 0xCE5 JUMPI PUSH2 0xCE4 PUSH2 0x1308 JUMP JUMPDEST JUMPDEST DUP2 CALLDATALOAD PUSH2 0xCF5 DUP5 DUP3 PUSH1 0x20 DUP7 ADD PUSH2 0xC64 JUMP JUMPDEST SWAP2 POP POP SWAP3 SWAP2 POP POP JUMP JUMPDEST PUSH1 0x0 DUP2 CALLDATALOAD SWAP1 POP PUSH2 0xD0D DUP2 PUSH2 0x144B JUMP JUMPDEST SWAP3 SWAP2 POP POP JUMP JUMPDEST PUSH1 0x0 PUSH1 0x20 DUP3 DUP5 SUB SLT ISZERO PUSH2 0xD29 JUMPI PUSH2 0xD28 PUSH2 0x1317 JUMP JUMPDEST JUMPDEST PUSH1 0x0 PUSH2 0xD37 DUP5 DUP3 DUP6 ADD PUSH2 0xCA6 JUMP JUMPDEST SWAP2 POP POP SWAP3 SWAP2 POP POP JUMP JUMPDEST PUSH1 0x0 PUSH1 0x20 DUP3 DUP5 SUB SLT ISZERO PUSH2 0xD56 JUMPI PUSH2 0xD55 PUSH2 0x1317 JUMP JUMPDEST JUMPDEST PUSH1 0x0 DUP3 ADD CALLDATALOAD PUSH8 0xFFFFFFFFFFFFFFFF DUP2 GT ISZERO PUSH2 0xD74 JUMPI PUSH2 0xD73 PUSH2 0x1312 JUMP JUMPDEST JUMPDEST PUSH2 0xD80 DUP5 DUP3 DUP6 ADD PUSH2 0xCD0 JUMP JUMPDEST SWAP2 POP POP SWAP3 SWAP2 POP POP JUMP JUMPDEST PUSH1 0x0 DUP1 PUSH1 0x0 PUSH1 0x60 DUP5 DUP7 SUB SLT ISZERO PUSH2 0xDA2 JUMPI PUSH2 0xDA1 PUSH2 0x1317 JUMP JUMPDEST JUMPDEST PUSH1 0x0 DUP5 ADD CALLDATALOAD PUSH8 0xFFFFFFFFFFFFFFFF DUP2 GT ISZERO PUSH2 0xDC0 JUMPI PUSH2 0xDBF PUSH2 0x1312 JUMP JUMPDEST JUMPDEST PUSH2 0xDCC DUP7 DUP3 DUP8 ADD PUSH2 0xCD0 JUMP JUMPDEST SWAP4 POP POP PUSH1 0x20 PUSH2 0xDDD DUP7 DUP3 DUP8 ADD PUSH2 0xCBB JUMP JUMPDEST SWAP3 POP POP PUSH1 0x40 PUSH2 0xDEE DUP7 DUP3 DUP8 ADD PUSH2 0xCFE JUMP JUMPDEST SWAP2 POP POP SWAP3 POP SWAP3 POP SWAP3 JUMP JUMPDEST PUSH1 0x0 PUSH1 0x20 DUP3 DUP5 SUB SLT ISZERO PUSH2 0xE0E JUMPI PUSH2 0xE0D PUSH2 0x1317 JUMP JUMPDEST JUMPDEST PUSH1 0x0 PUSH2 0xE1C DUP5 DUP3 DUP6 ADD PUSH2 0xCFE JUMP JUMPDEST SWAP2 POP POP SWAP3 SWAP2 POP POP JUMP JUMPDEST PUSH1 0x0 DUP1 PUSH1 0x40 DUP4 DUP6 SUB SLT ISZERO PUSH2 0xE3C JUMPI PUSH2 0xE3B PUSH2 0x1317 JUMP JUMPDEST JUMPDEST PUSH1 0x0 PUSH2 0xE4A DUP6 DUP3 DUP7 ADD PUSH2 0xCFE JUMP JUMPDEST SWAP3 POP POP PUSH1 0x20 PUSH2 0xE5B DUP6 DUP3 DUP7 ADD PUSH2 0xCBB JUMP JUMPDEST SWAP2 POP POP SWAP3 POP SWAP3 SWAP1 POP JUMP JUMPDEST PUSH1 0x0 DUP1 PUSH1 0x40 DUP4 DUP6 SUB SLT ISZERO PUSH2 0xE7C JUMPI PUSH2 0xE7B PUSH2 0x1317 JUMP JUMPDEST JUMPDEST PUSH1 0x0 PUSH2 0xE8A DUP6 DUP3 DUP7 ADD PUSH2 0xCFE JUMP JUMPDEST SWAP3 POP POP PUSH1 0x20 PUSH2 0xE9B DUP6 DUP3 DUP7 ADD PUSH2 0xCFE JUMP JUMPDEST SWAP2 POP POP SWAP3 POP SWAP3 SWAP1 POP JUMP JUMPDEST PUSH2 0xEAE DUP2 PUSH2 0x11C9 JUMP JUMPDEST DUP3 MSTORE POP POP JUMP JUMPDEST PUSH2 0xEBD DUP2 PUSH2 0x11B7 JUMP JUMPDEST DUP3 MSTORE POP POP JUMP JUMPDEST PUSH1 0x0 PUSH2 0xECE DUP3 PUSH2 0x117F JUMP JUMPDEST PUSH2 0xED8 DUP2 DUP6 PUSH2 0x118A JUMP JUMPDEST SWAP4 POP PUSH2 0xEE8 DUP2 DUP6 PUSH1 0x20 DUP7 ADD PUSH2 0x1214 JUMP JUMPDEST PUSH2 0xEF1 DUP2 PUSH2 0x131C JUMP JUMPDEST DUP5 ADD SWAP2 POP POP SWAP3 SWAP2 POP POP JUMP JUMPDEST PUSH1 0x0 PUSH2 0xF07 DUP3 PUSH2 0x117F JUMP JUMPDEST PUSH2 0xF11 DUP2 DUP6 PUSH2 0x11AC JUMP JUMPDEST SWAP4 POP PUSH2 0xF21 DUP2 DUP6 PUSH1 0x20 DUP7 ADD PUSH2 0x1214 JUMP JUMPDEST DUP1 DUP5 ADD SWAP2 POP POP SWAP3 SWAP2 POP POP JUMP JUMPDEST PUSH1 0x0 PUSH2 0xF3A PUSH1 0x26 DUP4 PUSH2 0x119B JUMP JUMPDEST SWAP2 POP PUSH2 0xF45 DUP3 PUSH2 0x132D JUMP JUMPDEST PUSH1 0x40 DUP3 ADD SWAP1 POP SWAP2 SWAP1 POP JUMP JUMPDEST PUSH1 0x0 PUSH2 0xF5D PUSH1 0xB DUP4 PUSH2 0x119B JUMP JUMPDEST SWAP2 POP PUSH2 0xF68 DUP3 PUSH2 0x137C JUMP JUMPDEST PUSH1 0x20 DUP3 ADD SWAP1 POP SWAP2 SWAP1 POP JUMP JUMPDEST PUSH1 0x0 PUSH2 0xF80 PUSH1 0x20 DUP4 PUSH2 0x119B JUMP JUMPDEST SWAP2 POP PUSH2 0xF8B DUP3 PUSH2 0x13A5 JUMP JUMPDEST PUSH1 0x20 DUP3 ADD SWAP1 POP SWAP2 SWAP1 POP JUMP JUMPDEST PUSH1 0x0 PUSH2 0xFA3 PUSH1 0x2A DUP4 PUSH2 0x119B JUMP JUMPDEST SWAP2 POP PUSH2 0xFAE DUP3 PUSH2 0x13CE JUMP JUMPDEST PUSH1 0x40 DUP3 ADD SWAP1 POP SWAP2 SWAP1 POP JUMP JUMPDEST PUSH1 0x0 PUSH1 0x80 DUP4 ADD PUSH1 0x0 DUP4 ADD MLOAD PUSH2 0xFD1 PUSH1 0x0 DUP7 ADD DUP3 PUSH2 0x101C JUMP JUMPDEST POP PUSH1 0x20 DUP4 ADD MLOAD DUP5 DUP3 SUB PUSH1 0x20 DUP7 ADD MSTORE PUSH2 0xFE9 DUP3 DUP3 PUSH2 0xEC3 JUMP JUMPDEST SWAP2 POP POP PUSH1 0x40 DUP4 ADD MLOAD PUSH2 0xFFE PUSH1 0x40 DUP7 ADD DUP3 PUSH2 0xEA5 JUMP JUMPDEST POP PUSH1 0x60 DUP4 ADD MLOAD PUSH2 0x1011 PUSH1 0x60 DUP7 ADD DUP3 PUSH2 0x101C JUMP JUMPDEST POP DUP1 SWAP2 POP POP SWAP3 SWAP2 POP POP JUMP JUMPDEST PUSH2 0x1025 DUP2 PUSH2 0x11FB JUMP JUMPDEST DUP3 MSTORE POP POP JUMP JUMPDEST PUSH2 0x1034 DUP2 PUSH2 0x11FB JUMP JUMPDEST DUP3 MSTORE POP POP JUMP JUMPDEST PUSH1 0x0 PUSH2 0x1046 DUP3 DUP5 PUSH2 0xEFC JUMP JUMPDEST SWAP2 POP DUP2 SWAP1 POP SWAP3 SWAP2 POP POP JUMP JUMPDEST PUSH1 0x0 PUSH1 0x20 DUP3 ADD SWAP1 POP PUSH2 0x1066 PUSH1 0x0 DUP4 ADD DUP5 PUSH2 0xEB4 JUMP JUMPDEST SWAP3 SWAP2 POP POP JUMP JUMPDEST PUSH1 0x0 PUSH1 0x20 DUP3 ADD SWAP1 POP DUP2 DUP2 SUB PUSH1 0x0 DUP4 ADD MSTORE PUSH2 0x1085 DUP2 PUSH2 0xF2D JUMP JUMPDEST SWAP1 POP SWAP2 SWAP1 POP JUMP JUMPDEST PUSH1 0x0 PUSH1 0x20 DUP3 ADD SWAP1 POP DUP2 DUP2 SUB PUSH1 0x0 DUP4 ADD MSTORE PUSH2 0x10A5 DUP2 PUSH2 0xF50 JUMP JUMPDEST SWAP1 POP SWAP2 SWAP1 POP JUMP JUMPDEST PUSH1 0x0 PUSH1 0x20 DUP3 ADD SWAP1 POP DUP2 DUP2 SUB PUSH1 0x0 DUP4 ADD MSTORE PUSH2 0x10C5 DUP2 PUSH2 0xF73 JUMP JUMPDEST SWAP1 POP SWAP2 SWAP1 POP JUMP JUMPDEST PUSH1 0x0 PUSH1 0x20 DUP3 ADD SWAP1 POP DUP2 DUP2 SUB PUSH1 0x0 DUP4 ADD MSTORE PUSH2 0x10E5 DUP2 PUSH2 0xF96 JUMP JUMPDEST SWAP1 POP SWAP2 SWAP1 POP JUMP JUMPDEST PUSH1 0x0 PUSH1 0x20 DUP3 ADD SWAP1 POP DUP2 DUP2 SUB PUSH1 0x0 DUP4 ADD MSTORE PUSH2 0x1106 DUP2 DUP5 PUSH2 0xFB9 JUMP JUMPDEST SWAP1 POP SWAP3 SWAP2 POP POP JUMP JUMPDEST PUSH1 0x0 PUSH1 0x20 DUP3 ADD SWAP1 POP PUSH2 0x1123 PUSH1 0x0 DUP4 ADD DUP5 PUSH2 0x102B JUMP JUMPDEST SWAP3 SWAP2 POP POP JUMP JUMPDEST PUSH1 0x0 PUSH2 0x1133 PUSH2 0x1144 JUMP JUMPDEST SWAP1 POP PUSH2 0x113F DUP3 DUP3 PUSH2 0x1279 JUMP JUMPDEST SWAP2 SWAP1 POP JUMP JUMPDEST PUSH1 0x0 PUSH1 0x40 MLOAD SWAP1 POP SWAP1 JUMP JUMPDEST PUSH1 0x0 PUSH8 0xFFFFFFFFFFFFFFFF DUP3 GT ISZERO PUSH2 0x1169 JUMPI PUSH2 0x1168 PUSH2 0x12D9 JUMP JUMPDEST JUMPDEST PUSH2 0x1172 DUP3 PUSH2 0x131C JUMP JUMPDEST SWAP1 POP PUSH1 0x20 DUP2 ADD SWAP1 POP SWAP2 SWAP1 POP JUMP JUMPDEST PUSH1 0x0 DUP2 MLOAD SWAP1 POP SWAP2 SWAP1 POP JUMP JUMPDEST PUSH1 0x0 DUP3 DUP3 MSTORE PUSH1 0x20 DUP3 ADD SWAP1 POP SWAP3 SWAP2 POP POP JUMP JUMPDEST PUSH1 0x0 DUP3 DUP3 MSTORE PUSH1 0x20 DUP3 ADD SWAP1 POP SWAP3 SWAP2 POP POP JUMP JUMPDEST PUSH1 0x0 DUP2 SWAP1 POP SWAP3 SWAP2 POP POP JUMP JUMPDEST PUSH1 0x0 PUSH2 0x11C2 DUP3 PUSH2 0x11DB JUMP JUMPDEST SWAP1 POP SWAP2 SWAP1 POP JUMP JUMPDEST PUSH1 0x0 PUSH2 0x11D4 DUP3 PUSH2 0x11DB JUMP JUMPDEST SWAP1 POP SWAP2 SWAP1 POP JUMP JUMPDEST PUSH1 0x0 PUSH20 0xFFFFFFFFFFFFFFFFFFFFFFFFFFFFFFFFFFFFFFFF DUP3 AND SWAP1 POP SWAP2 SWAP1 POP JUMP JUMPDEST PUSH1 0x0 DUP2 SWAP1 POP SWAP2 SWAP1 POP JUMP JUMPDEST DUP3 DUP2 DUP4 CALLDATACOPY PUSH1 0x0 DUP4 DUP4 ADD MSTORE POP POP POP JUMP JUMPDEST PUSH1 0x0 JUMPDEST DUP4 DUP2 LT ISZERO PUSH2 0x1232 JUMPI DUP1 DUP3 ADD MLOAD DUP2 DUP5 ADD MSTORE PUSH1 0x20 DUP2 ADD SWAP1 POP PUSH2 0x1217 JUMP JUMPDEST DUP4 DUP2 GT ISZERO PUSH2 0x1241 JUMPI PUSH1 0x0 DUP5 DUP5 ADD MSTORE JUMPDEST POP POP POP POP JUMP JUMPDEST PUSH1 0x0 PUSH1 0x2 DUP3 DIV SWAP1 POP PUSH1 0x1 DUP3 AND DUP1 PUSH2 0x125F JUMPI PUSH1 0x7F DUP3 AND SWAP2 POP JUMPDEST PUSH1 0x20 DUP3 LT DUP2 EQ ISZERO PUSH2 0x1273 JUMPI PUSH2 0x1272 PUSH2 0x12AA JUMP JUMPDEST JUMPDEST POP SWAP2 SWAP1 POP JUMP JUMPDEST PUSH2 0x1282 DUP3 PUSH2 0x131C JUMP JUMPDEST DUP2 ADD DUP2 DUP2 LT PUSH8 0xFFFFFFFFFFFFFFFF DUP3 GT OR ISZERO PUSH2 0x12A1 JUMPI PUSH2 0x12A0 PUSH2 0x12D9 JUMP JUMPDEST JUMPDEST DUP1 PUSH1 0x40 MSTORE POP POP POP JUMP JUMPDEST PUSH32 0x4E487B7100000000000000000000000000000000000000000000000000000000 PUSH1 0x0 MSTORE PUSH1 0x22 PUSH1 0x4 MSTORE PUSH1 0x24 PUSH1 0x0 REVERT JUMPDEST PUSH32 0x4E487B7100000000000000000000000000000000000000000000000000000000 PUSH1 0x0 MSTORE PUSH1 0x41 PUSH1 0x4 MSTORE PUSH1 0x24 PUSH1 0x0 REVERT JUMPDEST PUSH1 0x0 DUP1 REVERT JUMPDEST PUSH1 0x0 DUP1 REVERT JUMPDEST PUSH1 0x0 DUP1 REVERT JUMPDEST PUSH1 0x0 DUP1 REVERT JUMPDEST PUSH1 0x0 PUSH1 0x1F NOT PUSH1 0x1F DUP4 ADD AND SWAP1 POP SWAP2 SWAP1 POP JUMP JUMPDEST PUSH32 0x4F776E61626C653A206E6577206F776E657220697320746865207A65726F2061 PUSH1 0x0 DUP3 ADD MSTORE PUSH32 0x6464726573730000000000000000000000000000000000000000000000000000 PUSH1 0x20 DUP3 ADD MSTORE POP JUMP JUMPDEST PUSH32 0x496E76616C696420494421000000000000000000000000000000000000000000 PUSH1 0x0 DUP3 ADD MSTORE POP JUMP JUMPDEST PUSH32 0x4F776E61626C653A2063616C6C6572206973206E6F7420746865206F776E6572 PUSH1 0x0 DUP3 ADD MSTORE POP JUMP JUMPDEST PUSH32 0x506172746E6572277320726563697069656E7420616464726573732063616E27 PUSH1 0x0 DUP3 ADD MSTORE PUSH32 0x74206265207A65726F2100000000000000000000000000000000000000000000 PUSH1 0x20 DUP3 ADD MSTORE POP JUMP JUMPDEST PUSH2 0x1426 DUP2 PUSH2 0x11B7 JUMP JUMPDEST DUP2 EQ PUSH2 0x1431 JUMPI PUSH1 0x0 DUP1 REVERT JUMPDEST POP JUMP JUMPDEST PUSH2 0x143D DUP2 PUSH2 0x11C9 JUMP JUMPDEST DUP2 EQ PUSH2 0x1448 JUMPI PUSH1 0x0 DUP1 REVERT JUMPDEST POP JUMP JUMPDEST PUSH2 0x1454 DUP2 PUSH2 0x11FB JUMP JUMPDEST DUP2 EQ PUSH2 0x145F JUMPI PUSH1 0x0 DUP1 REVERT JUMPDEST POP JUMP INVALID LOG2 PUSH5 0x6970667358 0x22 SLT KECCAK256 0xD0 0x26 0xB3 PUSH19 0x558B0360465E7F97DB93C0F9048FCB3091EB19 BLOCKHASH TIMESTAMP 0xBE SWAP11 DUP4 INVALID 0x1E 0xBC 0xAC PUSH5 0x736F6C6343 STOP ADDMOD SMOD STOP CALLER "
				},
				"gasEstimates": {
					"creation": {
						"codeDepositCost": "1054400",
						"executionCost": "infinite",
						"totalCost": "infinite"
					},
					"external": {
						"addPartner(string,address,uint256)": "infinite",
						"changePartnerRate(uint256,uint256)": "infinite",
						"changePartnerRecipient(uint256,address)": "29468",
						"getPartner(string)": "infinite",
						"getPartner(uint256)": "infinite",
						"owner()": "2544",
						"renounceOwnership()": "30419",
						"transferOwnership(address)": "30789"
					}
				},
				"methodIdentifiers": {
					"addPartner(string,address,uint256)": "df78579f",
					"changePartnerRate(uint256,uint256)": "19524173",
					"changePartnerRecipient(uint256,address)": "8d370ed4",
					"getPartner(string)": "22461845",
					"getPartner(uint256)": "7fc96619",
					"owner()": "8da5cb5b",
					"renounceOwnership()": "715018a6",
					"transferOwnership(address)": "f2fde38b"
				}
			},
			"storageLayout": {
				"storage": [
					{
						"astId": 7,
						"contract": "contracts/scPartners.sol:ScotchPartners",
						"label": "_owner",
						"offset": 0,
						"slot": "0",
						"type": "t_address"
					},
					{
						"astId": 222,
						"contract": "contracts/scPartners.sol:ScotchPartners",
						"label": "_ids",
						"offset": 0,
						"slot": "1",
						"type": "t_struct(Counter)132_storage"
					},
					{
						"astId": 227,
						"contract": "contracts/scPartners.sol:ScotchPartners",
						"label": "_partners",
						"offset": 0,
						"slot": "2",
						"type": "t_mapping(t_uint256,t_struct(Partner)215_storage)"
					},
					{
						"astId": 232,
						"contract": "contracts/scPartners.sol:ScotchPartners",
						"label": "_partnerNames",
						"offset": 0,
						"slot": "3",
						"type": "t_mapping(t_string_memory_ptr,t_struct(Partner)215_storage)"
					}
				],
				"types": {
					"t_address": {
						"encoding": "inplace",
						"label": "address",
						"numberOfBytes": "20"
					},
					"t_address_payable": {
						"encoding": "inplace",
						"label": "address payable",
						"numberOfBytes": "20"
					},
					"t_mapping(t_string_memory_ptr,t_struct(Partner)215_storage)": {
						"encoding": "mapping",
						"key": "t_string_memory_ptr",
						"label": "mapping(string => struct ScotchPartners.Partner)",
						"numberOfBytes": "32",
						"value": "t_struct(Partner)215_storage"
					},
					"t_mapping(t_uint256,t_struct(Partner)215_storage)": {
						"encoding": "mapping",
						"key": "t_uint256",
						"label": "mapping(uint256 => struct ScotchPartners.Partner)",
						"numberOfBytes": "32",
						"value": "t_struct(Partner)215_storage"
					},
					"t_string_memory_ptr": {
						"encoding": "bytes",
						"label": "string",
						"numberOfBytes": "32"
					},
					"t_string_storage": {
						"encoding": "bytes",
						"label": "string",
						"numberOfBytes": "32"
					},
					"t_struct(Counter)132_storage": {
						"encoding": "inplace",
						"label": "struct Counters.Counter",
						"members": [
							{
								"astId": 131,
								"contract": "contracts/scPartners.sol:ScotchPartners",
								"label": "_value",
								"offset": 0,
								"slot": "0",
								"type": "t_uint256"
							}
						],
						"numberOfBytes": "32"
					},
					"t_struct(Partner)215_storage": {
						"encoding": "inplace",
						"label": "struct ScotchPartners.Partner",
						"members": [
							{
								"astId": 208,
								"contract": "contracts/scPartners.sol:ScotchPartners",
								"label": "id",
								"offset": 0,
								"slot": "0",
								"type": "t_uint256"
							},
							{
								"astId": 210,
								"contract": "contracts/scPartners.sol:ScotchPartners",
								"label": "name",
								"offset": 0,
								"slot": "1",
								"type": "t_string_storage"
							},
							{
								"astId": 212,
								"contract": "contracts/scPartners.sol:ScotchPartners",
								"label": "recipient",
								"offset": 0,
								"slot": "2",
								"type": "t_address_payable"
							},
							{
								"astId": 214,
								"contract": "contracts/scPartners.sol:ScotchPartners",
								"label": "cashbackRate",
								"offset": 0,
								"slot": "3",
								"type": "t_uint256"
							}
						],
						"numberOfBytes": "128"
					},
					"t_uint256": {
						"encoding": "inplace",
						"label": "uint256",
						"numberOfBytes": "32"
					}
				}
			},
			"userdoc": {
				"kind": "user",
				"methods": {},
				"version": 1
			}
		}
	}
}